:100000000C94DF000C9407010C9407010C94070179
:100010000C9407010C9407010C9407010C94070140
:100020000C9407010C9407010C9407010C94070130
:100030000C9407010C9407010C9407010C94070120
:100040000C9431040C9407010C94A1040C947B04CF
:100050000C9407010C9407010C9407010C94070100
:100060000C9407010C94070100407A10F35A00A089
:10007000724E18090010A5D4E80000E87648170071
:1000800000E40B54020000CA9A3B000000E1F505B1
:10009000000080969800000040420F000000A086FB
:1000A00001000000102700000000E803000000002D
:1000B0006400000000000A000000000001000000D1
:1000C00000002C76D888DC674F0823DFC1DFAE59EB
:1000D000E1B1B796E5E3E453C63AE651997696E87E
:1000E000E6C28426EB898C9B62ED407C6FFCEFBC02
:1000F0009C9F40F2BAA56FA5F490055A2AF75C932D
:100100006B6CF9676DC11BFCE0E40D47FEF520E662
:10011000B500D0ED902E0300943577050080841E45
:10012000080000204E0A000000C80C333333330FA0
:10013000986E12831141EF8D2114893BE65516CF3D
:10014000FEE6DB18D1844B381BF77C1D901DA4BB49
:10015000E424203284725E228100C9F124ECA1E5FE
:100160003D270000000023002600290000000000B9
:10017000240027002A0000000000250028002B0092
:10018000040404040404040402020202020203033D
:100190000303030301020408102040800102040845
:1001A00010200102040810200000000800020100D5
:1001B00000030407000000000000000018051124DF
:1001C0001FBECFEFD8E0DEBFCDBF21E0AEE2B1E091
:1001D00001C01D92A63FB207E1F711E0A0E0B1E037
:1001E000E4E4FAE102C005900D92AE32B107D9F70E
:1001F00010E0CFEDD0E004C02197FE010E940E0B6D
:10020000CE3DD107C9F70E9479050C94200D0C94BE
:10021000000090E0FC01E855FE4F3491FC01EC56E3
:10022000FE4F2491FC01E058FE4FE491EE2309F4C7
:100230003BC0332339F1333091F038F43130A9F039
:10024000323001F584B58F7D12C0373091F03830EF
:10025000A1F03430B9F4809180008F7D03C080918B
:1002600080008F77809380000DC084B58F7784BD28
:1002700009C08091B0008F7703C08091B0008F7D5E
:100280008093B000F0E0EE0FFF1FEA58FE4FA591FB
:10029000B4918FB7F894EC91611103C020952E238F
:1002A00001C02E2B2C938FBF0895CF93DF9390E046
:1002B000FC01EC56FE4F2491FC01E058FE4F849166
:1002C000882361F190E0880F991FFC01E459FE4FEB
:1002D000C591D491FC01EA58FE4FA591B4916111EA
:1002E00009C09FB7F8948881209582238883EC9178
:1002F0002E230BC0623061F49FB7F8943881822FAF
:10030000809583238883EC912E2B2C939FBF06C06E
:100310008FB7F894E8812E2B28838FBFDF91CF9180
:1003200008953FB7F89480913B0190913C01A091D2
:100330003D01B0913E0126B5A89B05C02F3F19F0A5
:100340000196A11DB11D3FBFBA2FA92F982F882755
:10035000820F911DA11DB11DBC01CD0142E0660FB0
:10036000771F881F991F4A95D1F708958F929F9202
:10037000AF92BF92CF92DF92EF92FF926B017C011E
:100380000E9491014B015C01C114D104E104F1040C
:10039000F1F00E949101DC01CB0188199909AA09A9
:1003A000BB09883E9340A105B10570F321E0C21A54
:1003B000D108E108F10888EE880E83E0981EA11CA0
:1003C000B11CC114D104E104F10419F7DDCFFF9091
:1003D000EF90DF90CF90BF90AF909F908F90089557
:1003E000CF92DF92EF92FF920F931F93CF93DF9301
:1003F0006C017A018B01C0E0D0E0CE15DF0589F0F9
:10040000D8016D918D01D601ED91FC910190F081A3
:10041000E02DC6010995892B11F47E0102C02196B9
:10042000ECCFC701DF91CF911F910F91FF90EF901B
:10043000DF90CF900895089580E090E00895FC014A
:10044000538D448D252F30E0842F90E0821B930B39
:10045000541710F0CF96089501970895FC01918DDF
:10046000828D981761F0828DDF01A80FB11D5D9616
:100470008C91928D9F5F9F73928F90E008958FEF84
:100480009FEF0895FC01918D828D981731F0828D38
:10049000E80FF11D858D90E008958FEF9FEF08958F
:1004A000FC01918D228D892F90E0805C9F4F821BF3
:1004B00091098F73992708958FE391E00E9450026C
:1004C00021E0892B09F420E0822F0895FC01848D1E
:1004D000DF01A80FB11DA35ABF4F2C91848D90E06E
:1004E00001968F739927848FA689B7892C93A08949
:1004F000B1898C9180648C93938D848D981306C000
:100500000288F389E02D80818F7D80830895EF92AA
:10051000FF920F931F93CF93DF93EC0181E0888FBD
:100520009B8D8C8D981305C0E889F989808185FDA4
:1005300024C0F62E0B8D10E00F5F1F4F0F73112795
:10054000E02E8C8DE8120CC00FB607FCFACFE889BC
:10055000F989808185FFF5CFCE010E946602F1CF37
:100560008B8DFE01E80FF11DE35AFF4FF0820B8FD8
:10057000EA89FB898081806207C0EE89FF896083F8
:10058000E889F98980818064808381E090E0DF914F
:10059000CF911F910F91FF90EF900895CF93DF932C
:1005A000EC01888D8823C9F0EA89FB89808185FD6B
:1005B00005C0A889B9898C9186FD0FC00FB607FCCC
:1005C000F5CF808185FFF2CFA889B9898C9185FF0D
:1005D000EDCFCE010E946602E7CFDF91CF91089563
:1005E00080E090E0892B29F00E945C0281110C943C
:1005F00000000895CF93DF93EC0161E088810E94B1
:10060000550160E088810E94090160E08981DF91E5
:10061000CF910C9455010F931F93CF93DF93EC016F
:10062000E881F981DB0114964D915C9115976D91EC
:100630007C910280F381E02D09958C01E881F9819C
:100640000280F381E02D42E050E068E171E0CE01EC
:100650000995800F911FDF91CF911F910F91089500
:10066000CF93DF93EC0188819981009711F00E946C
:10067000A90B198218821D821C821B821A82DF91AB
:10068000CF9108950E940B0D0F931F93CF93DF938B
:10069000EC0188819981009729F02A813B812617F6
:1006A000370788F48B016F5F7F4F0E94410C0097E2
:1006B00061F0998388831B830A832C813D81232BDE
:1006C00011F4FC01108281E001C080E0DF91CF9144
:1006D0001F910F910895EF92FF920F931F93CF9365
:1006E000DF93EC01FB0184819581E080F1800C8136
:1006F0001D81E114F104B1F00097B9F0080F191F42
:10070000B801CE010E944403882361F02881398119
:100710008C819D81B701820F931F0E94190D1D834B
:100720000C8303C0CE010E943003CE01DF91CF9134
:100730001F910F91FF90EF900895CF92DF92EF926B
:10074000FF920F931F93CF93DF93CDB7DEB7A1979F
:100750000FB6F894DEBF0FBECDBF7C01CB01BA014E
:10076000F70111821082138212821582148242E0F4
:10077000420F8E010F5F1F4F0E9434076C010097DC
:1007800071F0FC0101900020E9F731978F01081BFF
:10079000190BB801C7010E944403811104C0C701AD
:1007A0000E94300308C0F70115830483B6018081DD
:1007B00091810E94190DA1960FB6F894DEBF0FBE6D
:1007C000CDBFDF91CF911F910F91FF90EF90DF9000
:1007D000CF9008950F931F93CF93DF93EC0161E0C7
:1007E00088810E94090183E290E00197F1F760E0BF
:1007F00088810E940901898190E0FC01EC56FE4F3E
:100800006491FC01E058FE4FE491F0E0EE0FFF1F11
:10081000EE59FE4F8591949100E412E42FE030E010
:10082000462F0E94D304611571058105910549F099
:10083000DC01CB010196A11DB11DBC01CD019F7052
:1008400003C060E070E0CB010E94BA092EEA34EDEB
:1008500043E359E30E94F709DF91CF911F910F9174
:1008600008951F920F920FB60F9211242F933F936A
:100870008F939F93AF93BF938091370190913801ED
:10088000A0913901B0913A013091360123E0230F54
:100890002D3720F40196A11DB11D05C026E8230FB8
:1008A0000296A11DB11D20933601809337019093CC
:1008B0003801A0933901B0933A0180913B019091A6
:1008C0003C01A0913D01B0913E010196A11DB11DD9
:1008D00080933B0190933C01A0933D01B0933E0176
:1008E000BF91AF919F918F913F912F910F900FBE2C
:1008F0000F901F9018951F920F920FB60F92112410
:100900002F933F934F935F936F937F938F939F9317
:10091000AF93BF93EF93FF938FE391E00E94660242
:10092000FF91EF91BF91AF919F918F917F916F91C7
:100930005F914F913F912F910F900FBE0F901F909D
:1009400018951F920F920FB60F9211242F938F9329
:100950009F93EF93FF93E0914F01F09150018081BD
:10096000E0915501F091560182FD12C09081809175
:1009700058018F5F8F7320915901821751F0E091D8
:100980005801F0E0E15CFE4F958F8093580101C063
:100990008081FF91EF919F918F912F910F900FBECA
:1009A0000F901F901895CF92DF92EF92FF920F93C6
:1009B0001F93E82FF92F05C00150110921093109B2
:1009C00061F1908196239417B9F305C00150110984
:1009D0002109310911F1908196239413F7CFC12C8D
:1009E000D12CE12CF12C0AC08FEFC81AD80AE80AE2
:1009F000F80A0C151D052E053F0579F08081862328
:100A0000841791F36C2D7D2D8E2D9F2D1F910F91AD
:100A1000FF90EF90DF90CF90089560E070E080E06D
:100A200090E01F910F91FF90EF90DF90CF9008958D
:100A3000EFE3F1E01382128288EE93E0A0E0B0E0F1
:100A400084839583A683B7838AE091E09183808332
:100A500085EC90E09587848784EC90E09787868783
:100A600080EC90E0918B808B81EC90E0938B828B7B
:100A700082EC90E0958B848B86EC90E0978B868B54
:100A8000118E128E138E148E8DE090E09093F101F2
:100A90008093F001A9EEB1E012961D921D921D9275
:100AA0001C92159716961C92169782E08C9384E000
:100AB00011968C93A2EEB1E012961D921D921D929A
:100AC0001C92159716961C92169793E09C9311967C
:100AD0008C93ACEDB1E01196FC93EE9340E052ECB8
:100AE00061E070E012964D935D936D937C93159742
:100AF0000895CF93DF93CDB7DEB72C970FB6F89458
:100B0000DEBF0FBECDBF789484B5826084BD84B54E
:100B1000816084BD85B5826085BD85B5816085BDF8
:100B200080916E00816080936E00109281008091B0
:100B30008100826080938100809181008160809338
:100B40008100809180008160809380008091B1005D
:100B500084608093B1008091B00081608093B00088
:100B600080917A00846080937A0080917A0082601C
:100B700080937A0080917A00816080937A008091DE
:100B80007A00806880937A001092C10061E08091C1
:100B9000F0010E94550160E08091F0010E9409017E
:100BA00089EE91E00E94FA0282EE91E00E94FA0240
:100BB000C090DE01D090DF01E090E001F090E10113
:100BC0000091DC011091DD0160E079E08DE390E0BF
:100BD000A70196010E94EC0ADA01C9010197A10957
:100BE000B109B695A795979587959C01D801509620
:100BF000ED91FC91519782E08083C114B1EEDB0648
:100C0000E104F10421F02115E0E13E07C0F0D80134
:100C10005096ED91FC915197108260E874E88EE156
:100C200090E0A70196010E94EC0ADA01C901019740
:100C3000A109B109B695A795979587959C01D8010B
:100C40001C96ED91FC911D9730831E96ED91FC91C1
:100C50001F97208358961C9258975496ED91FC91BB
:100C6000559786E080835296ED91FC915397808151
:100C7000806180835296ED91FC91539780818860CA
:100C800080835296ED91FC91539780818068808398
:100C90005296ED91FC91539780818F7D80838FE3F5
:100CA00091E00E94500218161906CCF78091DC01E1
:100CB0009091DD01DC01ED91FC910284F385E02D42
:100CC00009958234B9F061E08091F0010E94090138
:100CD00064E670E080E090E00E94B60160E0809100
:100CE000F0010E94090160E971E080E090E00E945B
:100CF000B601E9CF49E050E06BE171E08FE391E0AC
:100D00000E94F00189EE91E00E94EA0360933201B3
:100D100070933301809334019093350182EE91E01A
:100D20000E94EA0360932E0170932F01809330019B
:100D3000909331018091DC019091DD01DC01ED9116
:100D4000FC910084F185E02D0995892B99F3809120
:100D5000DC019091DD01DC01ED91FC910284F385D1
:100D6000E02D0995823509F07CC040913201509107
:100D70003301609134017091350122E0CE01079674
:100D80000E949D031A8219821C821B821E821D8270
:100D900063E070E0CE0101960E944403811105C01A
:100DA000CE0101960E9430030AC083E090E09E834A
:100DB0008D8365E271E089819A810E94190DBE01DF
:100DC000695F7F4FCE0101960E946B03BC018FE3E8
:100DD00091E00E940B0389819A810E94A90B8F8167
:100DE00098850E94A90B40912E0150912F0160918E
:100DF00030017091310122E0CE0107960E949D03DF
:100E00001A8219821C821B821E821D8263E070E09E
:100E1000CE0101960E944403811105C0CE010196C6
:100E20000E9430030AC083E090E09E838D8369E2D4
:100E300071E089819A810E94190DBE01695F7F4F1F
:100E4000CE0101960E946B03BC018FE391E00E94EA
:100E50000B0389819A810E94A90B8F8198850E943A
:100E6000A90B0E94F0024ECFEF920F931F93CF93E6
:100E7000DF93E80147FD02C034E001C034E1E42F14
:100E8000440FFF0BF7FF03C0F195E195F109E32E45
:100E9000022F2E2FAE010E945407CE01DF91CF9179
:100EA0001F910F91EF9008954F925F926F927F92F2
:100EB0009F92AF92BF92CF92DF92EF92FF920F93E9
:100EC0001F93CF93DF93CDB7DEB729970FB6F89472
:100ED000DEBF0FBECDBF6A01122FB02E2BE320174D
:100EE00020F0FF24F394F00E02C0BCE3FB2E0F2D84
:100EF00027E0AE014F5F5F4F0E94E208AC0189819D
:100F0000982F9970913031F0E1FC06C0E0FE06C0E8
:100F100090E205C09DE203C09BE201C090E0EE2D8F
:100F2000E07183FF3CC0911102C083E001C084E006
:100F3000811718F4212F281B01C020E0E1110BC0FC
:100F4000F601822F30E2882319F031938150FBCFD4
:100F5000C20ED11C20E0992329F0D6019C93F60102
:100F600031966F01C6010396E2FE0AC03EE4D60147
:100F70003C9341E411964C93119712963C9306C012
:100F80003EE6F601308341E641833283FC01322F95
:100F900040E2332309F442C041933150FACF82FF3B
:100FA00044C0911102C083E001C084E0811718F4AD
:100FB000212F281B01C020E0E1110BC0F601822F78
:100FC00030E2882319F031938150FBCFC20ED11C3F
:100FD00020E0992329F0D6019C93F60131966F0108
:100FE000C6010396E2FE0BC039E4D6013C933EE411
:100FF00011963C93119736E412963C9307C039E65C
:10100000F60130833EE6318336E63283FC01322F2F
:1010100040E2332319F041933150FBCFFC01E20F42
:10102000F11D10828EEF9FEFB7C0F1E0911101C06A
:10103000F0E06F2F70E01416150624F49A012F5F6C
:101040003F4F02C021E030E0260F371FBB2029F0C0
:101050006B2D70E06F5F7F4F02C060E070E0260F85
:10106000371F612F70E0261737071CF4121B212F42
:1010700001C020E03E2D387159F4D601322F60E2D4
:10108000332319F06D933150FBCFC20ED11C20E0F9
:10109000FF2331F0D6019C93B6016F5F7F4F6B0148
:1010A000E1110BC0F601922F30E3992319F031932F
:1010B0009150FBCFC20ED11C20E09F2D940F3A819E
:1010C000782F7071A72E84FF03C0313309F491503B
:1010D000191624F4993018F098E001C091E0E42F3B
:1010E000852F57FF02C0E0E080E06E2F782FE0E010
:1010F000F0E0AEE29A2E3A01691A71082A01461A06
:10110000570A0B2D10E01195019511096F3F8FEFD4
:10111000780729F4D6019C92C60101966C01461706
:10112000570784F0661677066CF47F01E40CF51C13
:10113000A1E0B0E0AC0FBD1FEA0EFB1ED701119677
:10114000BC9002C090E3B92E615071093196C6017E
:1011500001967C016017710724F0D601BC926C01E6
:10116000D5CF6417750741F4363320F4353321F4B5
:10117000A11002C081E3B82EF601B082F701822FE0
:1011800090E2882319F091938150FBCFF701E20F91
:10119000F11D108280E090E029960FB6F894DEBF32
:1011A0000FBECDBFDF91CF911F910F91FF90EF90B8
:1011B000DF90CF90BF90AF909F907F906F905F90A7
:1011C0004F900895283008F027E03327DA01990F6F
:1011D000311D87FD916000966105710539F432601B
:1011E0002E5F3D9330E32A95E1F708959F3F30F05D
:1011F00080387105610509F03C5F3C5F3D9391309B
:1012000008F08068911DDF93CF931F930F93FF9297
:10121000EF92192F987F9695E92F96959695E90F5D
:10122000FF27EE53FF4F99273327EE24FF24A70112
:10123000E70105900894079428F4360FE71EF81E7E
:10124000491F511D660F771F881F991F0694A1F72C
:101250000590079428F4E70EF81E491F561FC11D7C
:10126000770F881F991F661F0694A1F705900794B2
:1012700028F4F80E491F561FC71FD11D880F991F4C
:10128000661F771F0694A1F70590079420F4490F75
:10129000561FC71FD81F990F661F771F881F0694F8
:1012A000A9F784911095177041F0D695C795579579
:1012B0004795F794E7941A95C1F7E8E6F0E068944B
:1012C0001590159135916591959105907FE27395F3
:1012D000E118F10A430B560BC90BD009C0F7E10C1A
:1012E000F11E431F561FC91FD01D7EF4703311F429
:1012F0008A95E6CFE894015030F0080F0AF40027F1
:10130000021708F4202F2395022F7A3328F079E36F
:101310007D932A95E9F710C07D932A9589F6069466
:1013200097956795379517951794E118F10A430B30
:10133000560BC90BD00998F023957E9173957A339B
:1013400008F070E37C932013B8F77E9170617D9371
:1013500030F0839571E37D9370E32A95E1F71124D2
:10136000EF90FF900F911F91CF91DF91992787FD0B
:1013700090950895E89409C097FB3EF49095809568
:10138000709561957F4F8F4F9F4F9923A9F0F92F4B
:1013900096E9BB279395F695879577956795B795C9
:1013A000F111F8CFFAF4BB0F11F460FF1BC06F5FAF
:1013B0007F4F8F4F9F4F16C0882311F096E911C0C1
:1013C000772321F09EE8872F762F05C0662371F0E2
:1013D00096E8862F70E060E02AF09A95660F771FF6
:1013E000881FDAF7880F9695879597F908950E94D8
:1013F0000A0A0C947B0A0E946D0A38F00E94740A53
:1014000020F0952311F00C94640A0C946A0A1124BC
:101410000C94AF0A0E948C0A70F3959FC1F3950F4C
:1014200050E0551F629FF001729FBB27F00DB11D68
:10143000639FAA27F00DB11DAA1F649F6627B00DF8
:10144000A11D661F829F2227B00DA11D621F739FE1
:10145000B00DA11D621F839FA00D611D221F749FEF
:101460003327A00D611D231F849F600D211D822F36
:10147000762F6A2F11249F5750409AF0F1F088235D
:101480004AF0EE0FFF1FBB1F661F771F881F91508A
:101490005040A9F79E3F510580F00C94640A0C94CB
:1014A000AF0A5F3FE4F3983ED4F38695779567954E
:1014B000B795F795E7959F5FC1F7FE2B880F911DB4
:1014C0009695879597F9089597F99F6780E870E05A
:1014D00060E008959FEF80EC089500240A941616AA
:1014E000170618060906089500240A941216130612
:1014F000140605060895092E0394000C11F48823A0
:1015000052F0BB0F40F4BF2B11F460FF04C06F5FBB
:101510007F4F8F4F9F4F089557FD9058440F551F91
:1015200059F05F3F71F04795880F97FB991F61F065
:101530009F3F79F087950895121613061406551FDC
:10154000F2CF4695F1DF08C0161617061806991F48
:10155000F1CF86957105610508940895E894BB273D
:1015600066277727CB0197F908952F923F924F92E4
:101570005F926F927F928F929F92AF92BF92CF9223
:10158000DF92EF92FF920F931F93CF93DF93CDB72C
:10159000DEB7CA1BDB0B0FB6F894DEBF0FBECDBFA4
:1015A00009942A88398848885F846E847D848C8475
:1015B0009B84AA84B984C884DF80EE80FD800C817E
:1015C0001B81AA81B981CE0FD11D0FB6F894DEBF61
:1015D0000FBECDBFED010895A1E21A2EAA1BBB1BC1
:1015E000FD010DC0AA1FBB1FEE1FFF1FA217B307EF
:1015F000E407F50720F0A21BB30BE40BF50B661F05
:10160000771F881F991F1A9469F7609570958095C8
:1016100090959B01AC01BD01CF010895EE0FFF1F16
:101620000590F491E02D0994CF93DF9382309105DA
:1016300010F482E090E0E091F401F091F50120E0F7
:1016400030E0C0E0D0E0309711F14081518148177F
:101650005907C0F04817590761F482819381209798
:1016600019F09B838A832BC09093F5018093F4013A
:1016700026C02115310519F04217530718F49A01B5
:10168000BE01DF01EF010280F381E02DDCCF2115E7
:10169000310509F1281B390B2430310590F41296DD
:1016A0008D919C9113976115710521F0FB01938336
:1016B000828304C09093F5018093F401FD0132967A
:1016C00044C0FD01E20FF31F819391932250310931
:1016D0002D933C933AC02091F2013091F301232BDA
:1016E00041F420910201309103013093F3012093E2
:1016F000F20120910001309101012115310541F4E1
:101700002DB73EB74091040150910501241B350BC4
:10171000E091F201F091F301E217F307A0F42E1B20
:101720003F0B2817390778F0AC014E5F5F4F241745
:10173000350748F04E0F5F1F5093F3014093F201BD
:101740008193919302C0E0E0F0E0CF01DF91CF916F
:1017500008950F931F93CF93DF93009709F48CC0E4
:10176000FC013297138212820091F4011091F5016D
:101770000115110581F420813181820F931F209181
:10178000F2013091F3012817390779F5F093F3014D
:10179000E093F20171C0D80140E050E0AE17BF07FE
:1017A00050F412962D913C911397AD0121153105FE
:1017B00009F1D901F3CF9D01DA01338322836081DE
:1017C0007181860F971F8217930769F4EC012881B6
:1017D0003981260F371F2E5F3F4F318320838A8147
:1017E0009B8193838283452B29F4F093F501E09349
:1017F000F40142C01396FC93EE931297ED014991C8
:1018000059919E01240F351FE217F30771F480816F
:101810009181840F951F029611969C938E938281DD
:10182000938113969C938E931297E0E0F0E0D80199
:1018300012968D919C911397009719F0F8018C01E5
:10184000F6CF8D919C9198012E5F3F4F820F931F91
:101850002091F2013091F3012817390769F430978C
:1018600029F41092F5011092F40102C01382128241
:101870001093F3010093F201DF91CF911F910F912B
:101880000895A0E0B0E0E7E4FCE00C94B90AEC01B4
:10189000009721F4CB010E94140BB8C0FC01E60FA5
:1018A000F71F9C0122503109E217F30708F4ACC07E
:1018B000D9010D911C91119706171707B0F005304B
:1018C000110508F49FC0C80104978617970708F40C
:1018D00099C002501109061B170B019311936D93C8
:1018E0007C93CF010E94A90B8DC05B01A01AB10AA5
:1018F0004C01800E911EA091F401B091F50140E0E1
:1019000050E0E12CF12C109709F44AC0A815B90554
:10191000D1F56D907C901197630182E0C80ED11CC7
:10192000CA14DB0480F1A3014A195B096A0182E051
:10193000C80ED11C1296BC9012971396AC91B5E0CC
:10194000CB16D10440F0B282A38351834083D901E6
:101950006D937C930AC00E5F1F4FC301800F911FD0
:10196000F90191838083EB2DFA2FE114F10431F01A
:10197000D7011396FC93EE93129744C0F093F501B0
:10198000E093F4013FC08D919C911197481759073E
:1019900008F4AC017D0112960D90BC91A02DB3CF3F
:1019A0008091F2019091F30188159905E1F44617B1
:1019B0005707C8F48091000190910101009741F40C
:1019C0008DB79EB74091040150910501841B950B82
:1019D000E817F907C8F4F093F301E093F201F90175
:1019E000718360830FC0CB010E94140B7C010097B0
:1019F00059F0A801BE010E94100DCE010E94A90B52
:101A0000C70104C0CE0102C080E090E0CDB7DEB7D0
:101A1000EEE00C94D50A81E090E0F8940C94200D4F
:101A2000FB01DC0102C001900D9241505040D8F7FB
:101A30000895FB01DC0101900D920020E1F708956B
:041A4000F894FFCF48
:101A44000000F6018000000000008702F0011F0280
:101A5400CE0250022E0242020D0A00426567696EF0
:0E1A64006E696E6700463A2000423A2000008C
:00000001FF
