:100000000C945D000C9485000C9485000C94850084
:100010000C9485000C9485000C9485000C9485004C
:100020000C9485000C9485000C9485000C9485003C
:100030000C9485000C9485000C9485000C9485002C
:100040000C9495020C9485000C9405030C94DF022B
:100050000C9485000C9485000C9485000C9485000C
:100060000C9485000C9485000000000024002700FB
:100070002A0000000000250028002B0004040404CE
:100080000404040402020202020203030303030342
:10009000010204081020408001020408102001021F
:1000A00004081020000000080002010000030407FB
:1000B0000000000000000000710311241FBECFEFFC
:1000C000D8E0DEBFCDBF22E0A2E1B1E001C01D92C9
:1000D000A030B207E1F711E0A0E0B1E0EEE0FEE011
:1000E00002C005900D92A231B107D9F710E0CDE51D
:1000F000D0E004C02197FE010E94FA06CC35D1075A
:10010000C9F70E9411040C9405070C940000CF93CA
:10011000DF9300D000D0CDB7DEB769837A838B83BD
:100120009C838091C8019091C901DC01ED91FC9103
:100130000280F381E02D44E050E0BE016F5F7F4F0D
:1001400009950F900F900F900F90DF91CF91089528
:1001500090E0FC01EC55FF4F3491FC01E057FF4F5C
:100160002491FC01E458FF4FE491EE2309F43BC0D5
:10017000332339F1333091F038F43130A9F0323093
:1001800001F584B58F7D12C0373091F03830A1F081
:100190003430B9F4809180008F7D03C0809180005D
:1001A0008F77809380000DC084B58F7784BD09C0A0
:1001B0008091B0008F7703C08091B0008F7D8093D5
:1001C000B000F0E0EE0FFF1FEE58FF4FA591B49185
:1001D0008FB7F894EC91611103C020952E2301C0D4
:1001E0002E2B2C938FBF0895CF93DF9390E0FC01CB
:1001F000E057FF4F2491FC01E458FF4F849188237E
:1002000061F190E0880F991FFC01E859FF4FC591FB
:10021000D491FC01EE58FF4FA591B491611109C032
:100220009FB7F8948881209582238883EC912E23B0
:100230000BC0623061F49FB7F8943881822F8095AB
:1002400083238883EC912E2B2C939FBF06C08FB7FE
:10025000F894E8812E2B28838FBFDF91CF910895EA
:100260003FB7F8948091270190912801A09129012E
:10027000B0912A0126B5A89B05C02F3F19F0019621
:10028000A11DB11D3FBFBA2FA92F982F8827820F1C
:10029000911DA11DB11DBC01CD0142E0660F771F6C
:1002A000881F991F4A95D1F70895CF92DF92EF9258
:1002B000FF920F931F93CF93DF936C017A018B0111
:1002C000C0E0D0E0CE15DF0589F0D8016D918D0139
:1002D000D601ED91FC910190F081E02DC6010995C8
:1002E000892B11F47E0102C02196ECCFC701DF916A
:1002F000CF911F910F91FF90EF90DF90CF900895D5
:10030000089580E090E00895FC01538D448D252FE1
:1003100030E0842F90E0821B930B541710F0CF969F
:10032000089501970895FC01918D828D981761F0D1
:10033000828DDF01A80FB11D5D968C91928D9F5F1C
:100340009F73928F90E008958FEF9FEF0895FC01C7
:10035000918D828D981731F0828DE80FF11D858D7A
:1003600090E008958FEF9FEF0895FC01918D228D0D
:10037000892F90E0805C9F4F821B91098F73992792
:1003800008958BE291E00E94B50121E0892B09F4E8
:1003900020E0822F0895FC01848DDF01A80FB11D9C
:1003A000A35ABF4F2C91848D90E001968F739927AB
:1003B000848FA689B7892C93A089B1898C91806498
:1003C0008C93938D848D981306C00288F389E02D59
:1003D00080818F7D80830895EF92FF920F931F930A
:1003E000CF93DF93EC0181E0888F9B8D8C8D9813E8
:1003F00005C0E889F989808185FD24C0F62E0B8D22
:1004000010E00F5F1F4F0F731127E02E8C8DE81245
:100410000CC00FB607FCFACFE889F989808185FF07
:10042000F5CFCE010E94CB01F1CF8B8DFE01E80FFD
:10043000F11DE35AFF4FF0820B8FEA89FB8980811F
:10044000806207C0EE89FF896083E889F98980812D
:100450008064808381E090E0DF91CF911F910F91C4
:10046000FF90EF900895CF93DF93EC01888D882360
:10047000C9F0EA89FB89808185FD05C0A889B98911
:100480008C9186FD0FC00FB607FCF5CF808185FFEC
:10049000F2CFA889B9898C9185FFEDCFCE010E945A
:1004A000CB01E7CFDF91CF91089580E090E0892BD9
:1004B00029F00E94C10181110C9400000895CF938E
:1004C000DF93EC0161E088810E94F40060E08881A4
:1004D0000E94A80060E08981DF91CF910C94F40024
:1004E000D82FC1E0DC17C0F061E08091FE010E94CE
:1004F000A80064E670E080E090E00E94370360E0CE
:100500008091FE010E94A8006AEF70E080E090E018
:100510000E943703CF5FE6CF68EE73E080E090E0A3
:100520000E943703DECF0E9400071F920F920FB682
:100530000F9211242F933F938F939F93AF93BF9369
:100540008091230190912401A0912501B091260171
:100550003091220123E0230F2D3720F40196A11DB5
:10056000B11D05C026E8230F0296A11DB11D2093E1
:1005700022018093230190932401A0932501B0933D
:1005800026018091270190912801A0912901B09125
:100590002A010196A11DB11D809327019093280186
:1005A000A0932901B0932A01BF91AF919F918F91A0
:1005B0003F912F910F900FBE0F901F9018951F9293
:1005C0000F920FB60F9211242F933F934F935F9387
:1005D0006F937F938F939F93AF93BF93EF93FF930B
:1005E0008BE291E00E94CB01FF91EF91BF91AF911F
:1005F0009F918F917F916F915F914F913F912F913B
:100600000F900FBE0F901F9018951F920F920FB66C
:100610000F9211242F938F939F93EF93FF93E09169
:100620003B01F0913C018081E0914101F091420158
:1006300082FD12C09081809144018F5F8F73209161
:100640004501821751F0E0914401F0E0E55DFE4F75
:10065000958F8093440101C08081FF91EF919F911C
:100660008F912F910F900FBE0F901F9018958F9222
:100670009F92AF92BF92CF92DF92EF92FF926B0167
:100680007C010E9430014B015C01C114D104E104E2
:10069000F104F1F00E943001DC01CB0188199909C5
:1006A000AA09BB09883E9340A105B10570F321E07A
:1006B000C21AD108E108F10888EE880E83E0981E7E
:1006C000A11CB11CC114D104E104F10419F7DDCF60
:1006D000FF90EF90DF90CF90BF90AF909F908F9062
:1006E0000895EBE2F1E01382128288EE93E0A0E03D
:1006F000B0E084839583A683B78384E091E09183FF
:10070000808385EC90E09587848784EC90E09787E0
:10071000868780EC90E0918B808B81EC90E0938BCE
:10072000828B82EC90E0958B848B86EC90E0978BAB
:10073000868B118E128E138E148E8DE090E0909326
:10074000FF018093FE01A3EFB1E012961D921D926E
:100750001D921C9215971A961C921A971C9211962C
:100760001C9211974BE15BE560E070E016964D93AB
:100770005D936D937C931997A8EEB1E012961D924C
:100780001D921D921C9215971A961C921A971C92F4
:1007900011961C92119716964D935D936D937C93D1
:1007A0001997ADEDB1E012961D921D921D921C920B
:1007B00015971A961C921A971C9211961C921197D3
:1007C00016964D935D936D937C931997A2EDB1E0CE
:1007D00012961D921D921D921C9215971A961C92AC
:1007E0001A971C9211961C92119716964D935D9331
:1007F0006D937C931997A8ECB1E016961D921D920B
:100800001D921C9219971196FC93EE9340E052ECC6
:1008100061E070E012964D935D936D937C93159714
:100820000895789484B5826084BD84B5816084BD68
:1008300085B5826085BD85B5816085BD80916E007E
:10084000816080936E0010928100809181008260AF
:1008500080938100809181008160809381008091EC
:1008600080008160809380008091B10084608093DB
:10087000B1008091B00081608093B00080917A00D7
:10088000846080937A0080917A00826080937A00FD
:1008900080917A00816080937A0080917A008068EC
:1008A00080937A001092C10061E08091FE010E9465
:1008B000F40060E08091FE010E94A80083EF91E0C7
:1008C0000E945F0288EE91E00E945F028DED91E050
:1008D0000E945F0282ED91E00E945F02C090CA0117
:1008E000D090CB01E090CC01F090CD01C091C80137
:1008F000D091C901E889F98982E08083C11481EE31
:10090000D806E104F104B1F060E079E08DE390E015
:10091000A70196010E94D806DA01C9010197A10931
:10092000B109B695A795979587959C01211590E1FA
:100930003907A8F0E889F989108260E874E88EE147
:1009400090E0A70196010E94D806DA01C90101973B
:10095000A109B109B695A795979587959C01EC8556
:10096000FD853083EE85FF852083188EEC89FD8917
:1009700086E08083EA89FB89808180618083EA89BF
:10098000FB89808188608083EA89FB898081806817
:100990008083EA89FB8980818F7D80830E9430017A
:1009A0006093CE017093CF018093D0019093D101D9
:1009B0000E943001C090CE01D090CF01E090D001D4
:1009C000F090D1016C197D098E099F090E94B40530
:1009D0002DEB37E346E855E30E94150629E936E793
:1009E00046E95EE70E94D30687FF0EC08091C801EA
:1009F0009091C901DC01ED91FC910084F185E02D1D
:100A0000099518161906A4F68091C8019091C9019C
:100A1000DC01ED91FC910284F385E02D0995813094
:100A200041F561E08091FE010E94A8008091C8011B
:100A30009091C901DC01ED91FC910190F081E02DD4
:100A400061E009958DECC82E8CECD82EED2C8DE351
:100A5000F82E9DEC892E9CEC992E9CE4A92E9EE309
:100A6000B92E2AE9422E29E9522E652C2EE3722E48
:100A700046C081E077C08091C8019091C901DC0136
:100A8000ED91FC910284F385E02D0995813009F008
:100A900068C08091C8019091C901DC01ED91FC9181
:100AA0000190F081E02D61E0099560911E01709147
:100AB0001F0180912001909121010E948700609187
:100AC0001A0170911B0180911C0190911D010E94DF
:100AD0008700609116017091170180911801909123
:100AE00019010E9487006091120170911301809199
:100AF0001401909115010E9487000E945502C09236
:100B00001E01D0921F01E0922001F09221018092FB
:100B10001A0190921B01A0921C01B0921D014092FB
:100B200016015092170160921801709219018DEC14
:100B30009CECACECBEE38093120190931301A09364
:100B40001401B09315018091C8019091C901DC0195
:100B5000ED91FC910084F185E02D0995892B69F2D6
:100B60008ACF82E00E947002E89409C097FB3EF4AD
:100B700090958095709561957F4F8F4F9F4F9923EA
:100B8000A9F0F92F96E9BB279395F6958795779568
:100B90006795B795F111F8CFFAF4BB0F11F460FF28
:100BA0001BC06F5F7F4F8F4F9F4F16C0882311F080
:100BB00096E911C0772321F09EE8872F762F05C094
:100BC000662371F096E8862F70E060E02AF09A952F
:100BD000660F771F881FDAF7880F9695879597F924
:100BE0000895990F0008550FAA0BE0E8FEEF1616BE
:100BF0001706E807F907C0F012161306E407F50711
:100C000098F0621B730B840B950B39F40A2661F084
:100C1000232B242B252B21F408950A2609F4A14027
:100C2000A6958FEF811D811D08950E9428060C94C2
:100C300099060E948B0638F00E94920620F09523B8
:100C400011F00C9482060C94880611240C94CD06A5
:100C50000E94AA0670F3959FC1F3950F50E0551FAF
:100C6000629FF001729FBB27F00DB11D639FAA2701
:100C7000F00DB11DAA1F649F6627B00DA11D661F50
:100C8000829F2227B00DA11D621F739FB00DA11D71
:100C9000621F839FA00D611D221F749F3327A00D2B
:100CA000611D231F849F600D211D822F762F6A2FC7
:100CB00011249F5750409AF0F1F088234AF0EE0F2C
:100CC000FF1FBB1F661F771F881F91505040A9F759
:100CD0009E3F510580F00C9482060C94CD065F3F38
:100CE000E4F3983ED4F3869577956795B795F79595
:100CF000E7959F5FC1F7FE2B880F911D969587950D
:100D000097F9089597F99F6780E870E060E008958B
:100D10009FEF80EC089500240A9416161706180613
:100D20000906089500240A941216130614060506EF
:100D30000895092E0394000C11F4882352F0BB0F80
:100D400040F4BF2B11F460FF04C06F5F7F4F8F4FE3
:100D50009F4F089557FD9058440F551F59F05F3F1E
:100D600071F04795880F97FB991F61F09F3F79F0CD
:100D700087950895121613061406551FF2CF46954F
:100D8000F1DF08C0161617061806991FF1CF8695D1
:100D90007105610508940895E894BB2766277727B5
:100DA000CB0197F908950E94F10508F48FEF08959B
:100DB000A1E21A2EAA1BBB1BFD010DC0AA1FBB1F5F
:100DC000EE1FFF1FA217B307E407F50720F0A21BD1
:100DD000B30BE40BF50B661F771F881F991F1A943E
:100DE00069F760957095809590959B01AC01BD0168
:100DF000CF010895EE0FFF1F0590F491E02D0994A7
:0E0E000081E090E0F8940C940507F894FFCF81
:100E0E0000000000EC01550184013302B50193018D
:020E1E00A7012A
:00000001FF
