:100000000C9462000C948A000C948A000C948A0070
:100010000C948A000C948A000C948A000C948A0038
:100020000C948A000C948A000C948A000C948A0028
:100030000C948A000C948A000C948A000C948A0018
:100040000C9420030C948A000C9490030C946A0383
:100050000C948A000C948A000C948A000C948A00F8
:100060000C948A000C948A000000000023002600F3
:10007000290000000000240027002A0000000000E2
:10008000250028002B0004040404040404040202D4
:100090000202020203030303030301020408102007
:1000A0004080010204081020010204081020000012
:1000B0000008000201000003040700000000000027
:1000C0000000410411241FBECFEFD8E0DEBFCDBF3A
:1000D00022E0A2E1B1E001C01D92A030B207E1F739
:1000E00011E0A0E0B1E0EAEEFEE002C005900D9262
:1000F000A231B107D9F710E0C2E6D0E004C02197E1
:10010000FE010E946807C136D107C9F70E94C904E1
:100110000C9473070C940000CF93DF9300D000D0B1
:10012000CDB7DEB769837A838B839C838091F60198
:100130009091F701DC01ED91FC910280F381E02DBB
:1001400044E050E0BE016F5F7F4F09950F900F9024
:100150000F900F90DF91CF91089590E0FC01E25550
:10016000FF4F3491FC01E656FF4F2491FC01EA5702
:10017000FF4FE491EE2309F43BC0332339F13330D0
:1001800091F038F43130A9F0323001F584B58F7D2B
:1001900012C0373091F03830A1F03430B9F480918A
:1001A00080008F7D03C0809180008F7780938000D6
:1001B0000DC084B58F7784BD09C08091B0008F7762
:1001C00003C08091B0008F7D8093B000F0E0EE0F0F
:1001D000FF1FE458FF4FA591B4918FB7F894EC91AD
:1001E000611103C020952E2301C02E2B2C938FBFAD
:1001F0000895CF93DF9390E0FC01E656FF4F2491E2
:10020000FC01EA57FF4F8491882361F190E0880F49
:10021000991FFC01EE58FF4FC591D491FC01E458A1
:10022000FF4FA591B491611109C09FB7F8948881DF
:10023000209582238883EC912E230BC0623061F4D9
:100240009FB7F8943881822F809583238883EC911F
:100250002E2B2C939FBF06C08FB7F894E8812E2BCE
:1002600028838FBFDF91CF9108953FB7F894809195
:10027000270190912801A0912901B0912A0126B56A
:10028000A89B05C02F3F19F00196A11DB11D3FBFCE
:10029000BA2FA92F982F8827820F911DA11DB11D5C
:1002A000BC01CD0142E0660F771F881F991F4A9558
:1002B000D1F708950F931F930E9435016093FC01BD
:1002C0007093FD018093FE019093FF010E94350120
:1002D0000091FC011091FD012091FE013091FF0180
:1002E000601B710B820B930B0E9422062DEB37E3F0
:1002F00046E855E30E94830629E936E746E95EE7CA
:100300000E94410787FF10C08091F6019091F7018C
:10031000DC01ED91FC910084F185E02D0995181622
:100320001906A4F681E001C080E01F910F910895A5
:10033000CF92DF92EF92FF920F931F93CF93DF93B1
:100340006C017A018B01C0E0D0E0CE15DF0589F0A9
:10035000D8016D918D01D601ED91FC910190F08154
:10036000E02DC6010995892B11F47E0102C021966A
:10037000ECCFC701DF91CF911F910F91FF90EF90CC
:10038000DF90CF900895089580E090E00895FC01FB
:10039000538D448D252F30E0842F90E0821B930BEA
:1003A000541710F0CF96089501970895FC01918D90
:1003B000828D981761F0828DDF01A80FB11D5D96C7
:1003C0008C91928D9F5F9F73928F90E008958FEF35
:1003D0009FEF0895FC01918D828D981731F0828DE9
:1003E000E80FF11D858D90E008958FEF9FEF089540
:1003F000FC01918D228D892F90E0805C9F4F821BA4
:1004000091098F73992708958BE291E00E94F8017A
:1004100021E0892B09F420E0822F0895FC01848DCE
:10042000DF01A80FB11DA35ABF4F2C91848D90E01E
:1004300001968F739927848FA689B7892C93A089F9
:10044000B1898C9180648C93938D848D981306C0B0
:100450000288F389E02D80818F7D80830895EF925B
:10046000FF920F931F93CF93DF93EC0181E0888F6E
:100470009B8D8C8D981305C0E889F989808185FD55
:1004800024C0F62E0B8D10E00F5F1F4F0F73112746
:10049000E02E8C8DE8120CC00FB607FCFACFE8896D
:1004A000F989808185FFF5CFCE010E940E02F1CF40
:1004B0008B8DFE01E80FF11DE35AFF4FF0820B8F89
:1004C000EA89FB898081806207C0EE89FF896083A9
:1004D000E889F98980818064808381E090E0DF9100
:1004E000CF911F910F91FF90EF900895CF93DF93DD
:1004F000EC01888D8823C9F0EA89FB89808185FD1C
:1005000005C0A889B9898C9186FD0FC00FB607FC7C
:10051000F5CF808185FFF2CFA889B9898C9185FFBD
:10052000EDCFCE010E940E02E7CFDF91CF9108956B
:1005300080E090E0892B29F00E94040281110C9444
:1005400000000895CF93DF93EC0161E088810E9461
:10055000F90060E088810E94AD0060E08981DF9150
:10056000CF910C94F900D82FC1E0DC17C0F061E006
:100570008091F4010E94AD0064E670E080E090E0BC
:100580000E94070460E08091F4010E94AD006AEFD0
:1005900070E080E090E00E940704CF5FE6CF68EE55
:1005A00073E080E090E00E940704DECF0E946E07B7
:1005B0000F931F93CF93DF93EC0161E088810E943A
:1005C000AD0083E290E00197F1F760E088810E943E
:1005D000AD00298130E0F901E656FF4F6491F90141
:1005E000EA57FF4FE491F0E0EE0FFF1FE859FF4F8D
:1005F000859194910E811F81288539853F70462F02
:100600000E94C203611571058105910549F0DC0165
:10061000CB010196A11DB11DBC01CD019F7003C08E
:1006200060E070E0CB010E9422062EEA34ED43E345
:1006300059E30E948306DF91CF911F910F91089596
:100640001F920F920FB60F9211242F933F938F9307
:100650009F93AF93BF938091230190912401A09128
:100660002501B09126013091220123E0230F2D377F
:1006700020F40196A11DB11D05C026E8230F0296A6
:10068000A11DB11D20932201809323019093240189
:10069000A0932501B0932601809127019091280114
:1006A000A0912901B0912A010196A11DB11D80934D
:1006B000270190932801A0932901B0932A01BF91AB
:1006C000AF919F918F913F912F910F900FBE0F90FF
:1006D0001F9018951F920F920FB60F9211242F930F
:1006E0003F934F935F936F937F938F939F93AF93BA
:1006F000BF93EF93FF938BE291E00E940E02FF9174
:10070000EF91BF91AF919F918F917F916F915F9189
:100710004F913F912F910F900FBE0F901F90189502
:100720001F920F920FB60F9211242F938F939F93C6
:10073000EF93FF93E0913B01F0913C018081E091C8
:100740004101F091420182FD12C0908180914401EB
:100750008F5F8F7320914501821751F0E091440122
:10076000F0E0E55DFE4F958F8093440101C08081EC
:10077000FF91EF919F918F912F910F900FBE0F904E
:100780001F901895CF92DF92EF92FF920F931F93D5
:10079000E82FF92F05C0015011092109310961F134
:1007A000908196239417B9F305C0015011092109CE
:1007B000310911F1908196239413F7CFC12CD12CDC
:1007C000E12CF12C0AC08FEFC81AD80AE80AF80AFF
:1007D0000C151D052E053F0579F0808186238417B1
:1007E00091F36C2D7D2D8E2D9F2D1F910F91FF90DC
:1007F000EF90DF90CF90089560E070E080E090E0AF
:100800001F910F91FF90EF90DF90CF9008958F92FE
:100810009F92AF92BF92CF92DF92EF92FF926B01C5
:100820007C010E9435014B015C01C114D104E1043B
:10083000F104F1F00E943501DC01CB01881999091E
:10084000AA09BB09883E9340A105B10570F321E0D8
:10085000C21AD108E108F10888EE880E83E0981EDC
:10086000A11CB11CC114D104E104F10419F7DDCFBE
:10087000FF90EF90DF90CF90BF90AF909F908F90C0
:100880000895EBE2F1E01382128288EE93E0A0E09B
:10089000B0E084839583A683B78384E091E091835D
:1008A000808385EC90E09587848784EC90E097873F
:1008B000868780EC90E0918B808B81EC90E0938B2D
:1008C000828B82EC90E0958B848B86EC90E0978B0A
:1008D000868B118E128E138E148EA6EFB1E01696B3
:1008E0001D921D921D921C9219971196FC93EE93E6
:1008F00040E052EC61E070E012964D935D936D9391
:100900007C9315978DE090E09093F5018093F4012E
:10091000E9EEF1E0128213821482158212868AE0D7
:10092000808389E081838BE19BE5A0E0B0E0868352
:100930009783A087B187EEEDF1E0128213821482D3
:100940001582128628E0208327E0218386839783FF
:10095000A087B187E3EDF1E0128213821482158241
:10096000128626E0208325E0218386839783A08753
:10097000B187E8ECF1E012821382148215821286AC
:100980002CE020832BE0218386839783A087B18787
:100990000895789484B5826084BD84B5816084BDF7
:1009A00085B5826085BD85B5816085BD80916E000D
:1009B000816080936E00109281008091810082603E
:1009C000809381008091810081608093810080917B
:1009D00080008160809380008091B100846080936A
:1009E000B1008091B00081608093B00080917A0066
:1009F000846080937A0080917A00826080937A008C
:100A000080917A00816080937A0080917A0080687A
:100A100080937A001092C10061E08091F4010E94FD
:100A2000F90060E08091F4010E94AD0089EE91E050
:100A30000E94A2028EED91E00E94A20283ED91E05D
:100A40000E94A20288EC91E00E94A202C090F801EC
:100A5000D090F901E090FA01F090FB01C091F6010D
:100A6000D091F70160E079E08DE390E0A701960175
:100A70000E944607DA01C9010197A109B109B6959B
:100A8000A795979587959C01E889F98982E08083ED
:100A9000C11481EED806E104F10421F02115A0E192
:100AA0003A07A8F0E889F989108260E874E88EE1D5
:100AB00090E0A70196010E944607DA01C90101975B
:100AC000A109B109B695A795979587959C01EC85E5
:100AD000FD853083EE85FF852083188EEC89FD89A6
:100AE00086E08083EA89FB89808180618083EA894E
:100AF000FB89808188608083EA89FB8980818068A6
:100B00008083EA89FB8980818F7D80830E945A01DE
:100B10008091F6019091F701DC01ED91FC91028446
:100B2000F385E02D0995813091F461E08091F40125
:100B30000E94AD008091F6019091F701DC01ED91EA
:100B4000FC910190F081E02D61E0099502C081E007
:100B500077C089EE91E00E94D80260931E017093E5
:100B60001F0180932001909321018EED91E00E945E
:100B7000D80260931A0170931B0180931C0190931B
:100B80001D0183ED91E00E94D802609316017093DD
:100B90001701809318019093190188EC91E00E944D
:100BA000D802609312017093130180931401909303
:100BB00015018091F6019091F701DC01ED91FC9116
:100BC0000190F081E02D61E009950E945A01809129
:100BD000F6019091F701DC01ED91FC910284F3851F
:100BE000E02D0995813059F560911E0170911F012A
:100BF00080912001909121010E948C0060911A0146
:100C000070911B0180911C0190911D010E948C002C
:100C1000609116017091170180911801909119014E
:100C20000E948C0060911201709113018091140157
:100C3000909115010E948C000E9498028ACF82E058
:100C40000E94B302E89409C097FB3EF4909580950A
:100C5000709561957F4F8F4F9F4F9923A9F0F92F82
:100C600096E9BB279395F695879577956795B79500
:100C7000F111F8CFFAF4BB0F11F460FF1BC06F5FE6
:100C80007F4F8F4F9F4F16C0882311F096E911C0F8
:100C9000772321F09EE8872F762F05C0662371F019
:100CA00096E8862F70E060E02AF09A95660F771F2D
:100CB000881FDAF7880F9695879597F90895990F09
:100CC0000008550FAA0BE0E8FEEF16161706E80716
:100CD000F907C0F012161306E407F50798F0621B37
:100CE000730B840B950B39F40A2661F0232B242B0C
:100CF000252B21F408950A2609F4A140A6958FEF2B
:100D0000811D811D08950E9496060C9407070E947C
:100D1000F90638F00E94000720F0952311F00C949A
:100D2000F0060C94F60611240C943B070E94180759
:100D300070F3959FC1F3950F50E0551F629FF0012E
:100D4000729FBB27F00DB11D639FAA27F00DB11D47
:100D5000AA1F649F6627B00DA11D661F829F2227D0
:100D6000B00DA11D621F739FB00DA11D621F839F57
:100D7000A00D611D221F749F3327A00D611D231F2D
:100D8000849F600D211D822F762F6A2F11249F577B
:100D900050409AF0F1F088234AF0EE0FFF1FBB1F7E
:100DA000661F771F881F91505040A9F79E3F51053D
:100DB00080F00C94F0060C943B075F3FE4F3983E00
:100DC000D4F3869577956795B795F795E7959F5FE7
:100DD000C1F7FE2B880F911D9695879597F9089579
:100DE00097F99F6780E870E060E008959FEF80ECDE
:100DF000089500240A941616170618060906089581
:100E000000240A9412161306140605060895092EE6
:100E10000394000C11F4882352F0BB0F40F4BF2B55
:100E200011F460FF04C06F5F7F4F8F4F9F4F089595
:100E300057FD9058440F551F59F05F3F71F047958B
:100E4000880F97FB991F61F09F3F79F08795089570
:100E5000121613061406551FF2CF4695F1DF08C08F
:100E6000161617061806991FF1CF869571056105AC
:100E700008940895E894BB2766277727CB0197F954
:100E800008950E945F0608F48FEF0895A1E21A2EDC
:100E9000AA1BBB1BFD010DC0AA1FBB1FEE1FFF1F1E
:100EA000A217B307E407F50720F0A21BB30BE40B6E
:100EB000F50B661F771F881F991F1A9469F76095B5
:100EC0007095809590959B01AC01BD01CF0108956F
:100ED000EE0FFF1F0590F491E02D099481E090E062
:0A0EE000F8940C947307F894FFCF08
:100EEA00000000002F029801C7017602F801D6011E
:020EFA00EA010B
:00000001FF
