:1000000008C10000E7C60000BAC600008DC60000A7
:1000100060C6000033C6000006C60000D9C5000057
:100020007AC3000027C1000025C1000023C10000E1
:1000300021C100001FC100001DC100001BC1000044
:1000400019C1000017C1000015C1000013C1000054
:1000500011C100000FC100000DC1000012C300005B
:1000600009C100000BC70000E0C6000003C100008A
:1000700001C10000FFC00000FDC00000FBC0000087
:10008000F9C00000F7C00000F5C00000F3C0000098
:10009000F1C00000EFC00000EDC000004BC7000041
:1000A000E9C00000E7C00000E5C00000E3C00000B8
:1000B000E1C00000DFC00000DDC00000DBC00000C8
:1000C000D9C00000D7C00000D5C00000D3C00000D8
:1000D000D1C00000CFC00000CDC00000CBC00000E8
:1000E000C9C00000E601E901D801DC01E0012002FD
:1000F000ED01F101F701FB01FF01050209020D020B
:100100002002130217021B0200000A0B02090C0D49
:100110000E080703040100000000000000000000BA
:1001200000000000000000000000000000000000CF
:10013000000000001211100000000000000000008C
:1001400000000000000000000000000000000000AF
:100150002200250028002B002E003100340002016F
:100160000000050108010B01000021002400270008
:100170002A002D00300033000101000004010701B6
:100180000A0105050505070508080808020202021C
:100190000A0A080804040404010101010101010123
:1001A0000303030303030303040707070C0C0C0CEE
:1001B0000C0C0C0C020202020606060606060606D7
:1001C0000B0B0B0B0B0B0B0B010210202008081064
:1001D00020401020408002010201080402010102B7
:1001E0000408102040808040201008040201800490
:1001F00002018040201008040201080402010102EB
:100200000408102040800102040810204080CB0820
:10021000770B11241FBECFEFD1E2DEBFCDBF00E0D0
:100220000CBF24E0A6E8B2E001C01D92A733B207DC
:10023000E1F712E0A0E0B2E0EAEBFBE100E00BBF87
:1002400002C007900D92A638B107D9F711E0C8E0B7
:10025000D1E000E006C021970109802FFE010E9435
:10026000930CC730D10780E00807A9F70E94AE09B8
:100270000C94CC0DC5CE90E0FC01E853FE4F2491C8
:10028000FC01EE57FE4F8491882399F090E0880F8F
:10029000991FFC01E859FE4FA591B491FC01E25B66
:1002A000FE4F859194918FB7F894EC91E22BEC93EB
:1002B0008FBF0895382F2091F1029091B50321321C
:1002C00008F049C08091CE028111FCCF42E04093FA
:1002D000CE023093CD023FEF3093CC021092CB028E
:1002E0002093CA02A1EDB2E04AEA52E0FA013E2FA1
:1002F000341B321718F43D913193F9CF1092A902B3
:100300002091A902990F922B9093A9029091A80293
:10031000913061F41092A8029091A9029093BB00D1
:100320009091BC0093FDF8CF95EC01C095EE9093B1
:10033000BC009091CE029230E1F39091CC029F3FAD
:1003400079F08091CC02803241F08091CC028033F0
:1003500031F084E005C081E003C082E001C083E0A9
:100360001092D0021092F1021092CF020895362F0F
:1003700090E0FC01E85FFE4F4491FC01E853FE4F22
:100380002491FC01EE57FE4F9491992309F46BC020
:10039000442309F455C050E0FA013197E231F105E8
:1003A00008F04EC08827EE58FF4F8F4F0C94930CE7
:1003B000809180008F7707C0809180008F7D03C07F
:1003C00080918000877F809380003AC084B58F77CA
:1003D00002C084B58F7D84BD33C08091B0008F771B
:1003E00003C08091B0008F7D8093B00029C08091C0
:1003F00090008F7707C0809190008F7D03C080911F
:100400009000877F809390001BC08091A0008F7721
:1004100007C08091A0008F7D03C08091A000877FDE
:100420008093A0000DC0809120018F7707C080913C
:1004300020018F7D03C080912001877F8093200160
:10044000E92FF0E0EE0FFF1FE25BFE4FA591B491A4
:100450008FB7F894EC91311103C020952E2301C081
:100460002E2B2C938FBF08953FB7F8948091B10342
:100470009091B203A091B303B091B40326B5A89BA9
:1004800005C02F3F19F00196A11DB11D3FBFBA2F26
:10049000A92F982F8827820F911DA11DB11DBC0186
:1004A000CD0142E0660F771F881F991F4A95D1F74B
:1004B00008958F929F92AF92BF92CF92DF92EF9268
:1004C000FF926B017C01D0DF4B015C01C114D104B0
:1004D000E104F104E9F0C8DFDC01CB0188199909D6
:1004E000AA09BB09883E9340A105B10578F321E034
:1004F000C21AD108E108F10888EE880E83E0981E40
:10050000A11CB11CC114D104E104F10421F7DECF18
:10051000FF90EF90DF90CF90BF90AF909F908F9023
:100520000895CF93C62F90918F0321E02093CF029F
:100530009093B5031092D0021092F102682F80EED2
:1005400093E018D36C2F80EE93E014D381E0CF9129
:10055000B1CE0F931F93CF93DF938C0180919103C2
:10056000882379F0E8012197D7FD08C080EE93E059
:1005700080D2FE01E157FC4F8383F5CF23E030E0CA
:100580000EC0C0E0D0E0C017D107C4F780EE93E002
:1005900070D2FE01E157FC4F83832196F4CF2017E0
:1005A00031073CF0F901E157FC4F1382215031092A
:1005B000F6CFDF91CF911F910F910895CF93C62F62
:1005C00090918F0321E02093CF029093B503109276
:1005D000D0021092F102682F80EE93E0CBD280E03F
:1005E00069DE80918F039091CE029111FCCF6C2F28
:1005F000C13208F060E291E09093CE029093CD0278
:100600002FEF2093CC021092CB02260F2093CA0228
:100610009093A9029091A902880F892B8093A90237
:100620008091A802813061F41092A8028091A90201
:100630008093BB008091BC0083FDF8CF85EC01C0A6
:1006400085EE8093BC008091CE028130E1F38091F1
:10065000CB02861710F46091CB02AAEAB2E028E838
:1006600032E0F9018E2F821B861718F48D91819349
:10067000F9CF1092870260938602CF9108950E946D
:10068000C80D1F920F920FB60F9211242F933F9314
:100690008F939F93AF93BF938091AD039091AE03DF
:1006A000A091AF03B091B0033091AC0323E0230FCE
:1006B0002D3720F40196A11DB11D05C026E8230F9A
:1006C0000296A11DB11D2093AC038093AD039093BE
:1006D000AE03A093AF03B093B0038091B1039091A8
:1006E000B203A091B303B091B4030196A11DB11D53
:1006F0008093B1039093B203A093B303B093B40378
:10070000BF91AF919F918F913F912F910F900FBE0D
:100710000F901F9018951F920F920FB60F921124F1
:100720000BB60F922F933F934F935F936F937F93EB
:100730008F939F93AF93BF93EF93FF93E0910E023C
:10074000F0910F021995FF91EF91BF91AF919F9199
:100750008F917F916F915F914F913F912F910F906A
:100760000BBE0F900FBE0F901F9018950895CF925B
:10077000DF92EF92FF920F931F93CF93DF936C0161
:100780007A018B01C0E0D0E0CE15DF0589F0D801F9
:100790006D918D01D601ED91FC910190F081E02DDC
:1007A000C6011995892B11F47E0102C02196ECCF68
:1007B000C701DF91CF911F910F91FF90EF90DF90D4
:1007C000CF900895FC01538D448D252F30E0842F68
:1007D00090E0821B930B541710F0CF960895019769
:1007E0000895FC01918D828D981761F0828DDF0153
:1007F000A80FB11D5D968C91928D9F5F9F73928F14
:1008000090E008958FEF9FEF0895FC01918D828D08
:10081000981731F0828DE80FF11D858D90E00895D5
:100820008FEF9FEF0895FC01918D228D892F90E02D
:10083000805C9F4F821B91098F739927089582EFE7
:1008400092E0F1DF21E0892B09F420E0822F089566
:10085000FC01848DDF01A80FB11DA35ABF4F2C915D
:10086000848D90E001968F739927848FA689B7892C
:100870002C93A089B1898C9180648C93938D848D05
:10088000981306C00288F389E02D80818F7D8083D4
:100890000895EF92FF920F931F93CF93DF93EC0194
:1008A00081E0888F9B8D8C8D981305C0E889F9892C
:1008B000808185FD23C0F62E0B8D10E00F5F1F4F4A
:1008C0000F731127E02E8C8DE8120BC00FB607FCBA
:1008D000FACFE889F989808185FFF5CFCE01B8DFAD
:1008E000F2CF8B8DFE01E80FF11DE35AFF4FF0822E
:1008F0000B8FEA89FB898081806207C0EE89FF89BE
:100900006083E889F98980818064808381E090E058
:10091000DF91CF911F910F91FF90EF900895CF93AA
:10092000DF93EC01888D8823C1F0EA89FB898081FF
:1009300085FD05C0A889B9898C9186FD0EC00FB6CA
:1009400007FCF5CF808185FFF2CFA889B9898C910A
:1009500085FFEDCFCE017CDFE8CFDF91CF91089509
:1009600080E090E0892B19F06ADF811125C080E0DA
:1009700090E0892B41F080E090E0892B21F00E94EB
:10098000000081111CC080E090E0892B41F080E0E4
:1009900090E0892B21F00E940000811113C080E0BB
:1009A00090E0892BA1F080E090E0892B81F00E94FB
:1009B000000081110AC008950E940000D8CF0E9453
:1009C0000000E1CF0E940000EACF0C9400000895DF
:1009D000DC0113962C91139770E061507109269FEA
:1009E000F001279FF00D1124E40FF11D3197EE0F58
:1009F000FF1FEE0FFF1F14968D919C911597E80F26
:100A0000F91F60817181828193810895FC01838146
:100A10000895FC018281089581E0089580E00895A1
:100A200070E06150704C660F771F660F771FFC01F6
:100A300083819481FC01E60FF71F608171818281BF
:100A400093810895FC018281089581E0089580E0FA
:100A500008950895E091870280918602E81730F4A6
:100A6000F0E0E857FD4F808190E008958FEF9FEF11
:100A700008959091870280918602981750F4E92F8B
:100A8000F0E0E857FD4F208130E09F5F90938702B0
:100A900002C02FEF3FEFC90108958091860290E0D8
:100AA00020918702821B91090895089580E090E0CB
:100AB000089585ED8093BC008091BC0084FDFCCF3F
:100AC0001092CE02089540910E04262F30E0240F9C
:100AD000311D21323105DCF42091CE022430C9F4DD
:100AE000FC0180E090E0861758F430910E042191CB
:100AF000DC01A451BC4FA30FB11D2C930196F3CF81
:100B000080910E04680F60930E0480E0089581E0E8
:100B1000089582E00895CF92DF92EF92FF920F93B3
:100B20001F93CF93DF937C01262F972F8A0180910B
:100B3000CF02882391F0C62FD72F6E01C40ED51E89
:100B4000CC15DD0569F06991D701ED91FC9101901B
:100B5000F081E02DC7011995F3CF642F822FB3DF09
:100B6000C801DF91CF911F910F91FF90EF90DF901F
:100B7000CF900895CF93DF931F92CDB7DEB76983EF
:100B80002091CF022223D1F02091F102203240F0B7
:100B900021E030E0FC013383228380E090E014C048
:100BA0008091D002E82FF0E0EF52FD4F99819083C1
:100BB0008F5F8093D0028093F10204C061E0CE0188
:100BC000019681DF81E090E00F90DF91CF91089551
:100BD0001F920F920FB60F9211240BB60F922F9304
:100BE0003F934F935F936F937F938F939F93AF93B5
:100BF000BF93EF93FF93E0910C02F0910D021995D2
:100C0000FF91EF91BF91AF919F918F917F916F91E4
:100C10005F914F913F912F910F900BBE0F900FBEA0
:100C20000F901F9018951F920F920FB60F921124DC
:100C30000BB60F922F933F934F935F936F937F93D6
:100C40008F939F93AF93BF93EF93FF93E091020233
:100C5000F09103021995FF91EF91BF91AF919F9190
:100C60008F917F916F915F914F913F912F910F9055
:100C70000BBE0F900FBE0F901F9018951F920F92F2
:100C80000FB60F9211240BB60F922F933F934F93F1
:100C90005F936F937F938F939F93AF93BF93EF93E4
:100CA000FF93E0910002F09101021995FF91EF91FD
:100CB000BF91AF919F918F917F916F915F914F9174
:100CC0003F912F910F900BBE0F900FBE0F901F9072
:100CD00018951F920F920FB60F9211240BB60F9218
:100CE0002F933F934F935F936F937F938F939F9334
:100CF000AF93BF93EF93FF93E0910A02F0910B0241
:100D00001995FF91EF91BF91AF919F918F917F9135
:100D10006F915F914F913F912F910F900BBE0F906C
:100D20000FBE0F901F9018951F920F920FB60F9243
:100D300011240BB60F922F933F934F935F936F93B2
:100D40007F938F939F93AF93BF93EF93FF93E09124
:100D50000802F09109021995FF91EF91BF91AF91AF
:100D60009F918F917F916F915F914F913F912F91C3
:100D70000F900BBE0F900FBE0F901F9018951F92F3
:100D80000F920FB60F9211240BB60F922F933F9331
:100D90004F935F936F937F938F939F93AF93BF9383
:100DA000EF93FF93E0910602F09107021995FF91EE
:100DB000EF91BF91AF919F918F917F916F915F91D3
:100DC0004F913F912F910F900BBE0F900FBE0F9040
:100DD0001F9018951F920F920FB60F9211240BB609
:100DE0000F922F933F934F935F936F937F938F93C4
:100DF0009F93AF93BF93EF93FF93E0910402F09121
:100E000005021995FF91EF91BF91AF919F918F913D
:100E10007F916F915F914F913F912F910F900BBEFA
:100E20000F900FBE0F901F9018951F920F920FB644
:100E30000F9211240BB60F922F933F934F935F9312
:100E40006F937F938F939F93AF93BF93EF93FF9392
:100E500082EF92E0FDDCFF91EF91BF91AF919F9106
:100E60008F917F916F915F914F913F912F910F9053
:100E70000BBE0F900FBE0F901F9018951F920F92F0
:100E80000FB60F9211240BB60F922F938F939F934F
:100E9000EF93FF93E0910203F09103038081E091CF
:100EA0000803F091090382FD12C0908180910B0329
:100EB0008F5F8F7320910C03821751F0E0910B0329
:100EC000F0E0EE50FD4F958F80930B0301C08081C1
:100ED000FF91EF919F918F912F910F900BBE0F90EB
:100EE0000FBE0F901F9018952CE332E0FC01318368
:100EF000208384819581009709F0B2C50895CF932E
:100F0000DF93EC01F1DFCE01DF91CF91A9C52CE594
:100F100032E0FC013183208383819481009709F0C2
:100F20009FC50895CF93DF93EC01F1DFCE01DF91F0
:100F3000CF9196C51F920F920FB60F9211240BB648
:100F40000F922F933F934F935F936F937F938F9362
:100F50009F93AF93BF93EF93FF938091B900887FE6
:100F6000803609F49CC068F5883209F45BC090F4BF
:100F7000803109F454C038F4882309F4F6C088306D
:100F800009F44DC0F5C0883109F44CC0803209F431
:100F90005DC0EEC0803409F468C048F4803309F4C1
:100FA00055C0883309F0E4C08093CC02D8C08035A6
:100FB00009F44FC0883509F45DC0883409F0D8C001
:100FC000D6C0883909F4C7C0A8F4883709F467C0C7
:100FD00038F4883609F463C0803709F460C0C8C0AB
:100FE000883809F4B8C0803909F45FC0803809F046
:100FF000BFC05BC0803B09F486C038F4803A09F476
:1010000066C0883A09F47FC0B3C0803C09F4A7C029
:10101000883C09F4A4C0883B09F48AC0A9C0809127
:10102000A90210C09091CB028091CA02981770F566
:10103000E091CB0281E08E0F8093CB02F0E0E65589
:10104000FD4F80818093BB0085EC86C08093CC02ED
:101050008EC0E091CB0281E08E0F8093CB02809115
:10106000BB00F0E0E655FD4F80839091CB0280916C
:10107000CA026EC0E091CB0281E08E0F8093CB025A
:101080008091BB00F0E0E655FD4F80838091CD025A
:1010900081116DC081E08093A80284EA61C083E081
:1010A0008093CE0210923204CFCF809132048032EE
:1010B00008F051C0E091320481E08E0F8093320439
:1010C0008091BB00F0E0EE5EFB4F8083BDCF85ECEE
:1010D0008093BC001092CE0280913204803230F4B2
:1010E000E0913204F0E0EE5EFB4F1082609132043A
:1010F00070E0E0911004F091110482E194E0199500
:101100001092320435C084E08093CE0210920F0416
:1011100010920E04E0910C04F0910D041995809149
:101120000E04811105C081E080930E041092EC033F
:10113000E0910F0481E08E0F80930F04F0E0E45102
:10114000FC4F80818093BB0090910F0480910E042E
:10115000981708F479CF85E88093BC0009C085EC26
:101160008093BC001092CE0203C01092CC02A1DC8E
:10117000FF91EF91BF91AF919F918F917F916F916F
:101180005F914F913F912F910F900BBE0F900FBE2B
:101190000F901F901895AF92BF92CF92DF92EF926F
:1011A000FF921F93CF93DF93E2EFF2E0138212825C
:1011B00088EEC82E83E0D82EE12CF12CC482D58293
:1011C000E682F7828AE292E09183808385EC90E068
:1011D0009587848784EC90E09787868780EC90E001
:1011E000918B808B81EC90E0938B828B82EC90E0F2
:1011F000958B848B86EC90E0978B868B118E128E6C
:10120000138E148E8DE090E09093B7038093B60315
:10121000A8EBB3E01196FC93EE9340E052EC61E052
:1012200070E012964D935D936D937C931597EEEB62
:10123000F3E01582168217821086108211821282C4
:101240001382148240E050E06AEA71E441875287D9
:10125000638774878DEF9DEAA0E0BBE3858796875F
:10126000A787B08BEFECF3E0158216821782108609
:1012700010821182128213821482418752876387FF
:10128000748785879687A787B08BC3EAD3E09CE5F0
:10129000A92E92E0B92EB982A88212E01A8388E0C2
:1012A00090E049D39C838B83FC01108211821282CF
:1012B00013821482158216821782CEE9D3E0B98296
:1012C000A8821A8388E090E036D39C838B83FC014C
:1012D0001082118212821382148215821682178262
:1012E000C8E9D3E08CE392E0998388831A831B8357
:1012F00080E190E020D3FC019D838C8310821182D9
:101300001282138214821582168217821086118629
:10131000128613861486158616861786EFE8F3E084
:101320001182108281E0828383E090E0908787833E
:10133000E0EEF3E013821282C482D582E682F78265
:1013400088E792E091838083DF91CF911F91FF9096
:10135000EF90DF90CF90BF90AF900895789484B5D0
:10136000826084BD84B5816084BD85B5826085BDA1
:1013700085B5816085BD80916E00816080936E002F
:101380001092810080918100826080938100809121
:1013900081008160809381008091800081608093D2
:1013A00080008091B10084608093B1008091B00092
:1013B00081608093B0008091910082608093910061
:1013C0008091910081608093910080919000816074
:1013D000809390008091A10082608093A100809111
:1013E000A10081608093A1008091A0008160809322
:1013F000A0008091210182608093210180912101D0
:10140000816080932101809120018160809320017F
:1014100080917A00846080937A0080917A00826063
:1014200080937A0080917A00816080937A00809125
:101430007A00806880937A001092C1008091B60390
:101440000E943B0160E08091B6030E94B70188E2F0
:1014500090E09093900380938F03109291031092E9
:101460008702109286021092D0021092F10210921E
:10147000CE0281E08093CD021092A80261E084E167
:101480000E94B70161E085E10E94B7018091B90037
:101490008E7F8093B9008091B9008D7F8093B900D1
:1014A00088E48093B80085E48093BC0060E08DE31D
:1014B00090E037D864E070E080E090E07FD881E091
:1014C00090E047D84090920350909303609094032B
:1014D0007090950381E090E03CD8809092039090CA
:1014E0009303A0909403B090950381E090E031D8ED
:1014F000C0909203D0909303E0909403F0909503F2
:1015000081E090E026D88091920390919303A0917E
:101510009403B091950320EA4216510461047104CA
:1015200081F52BEF82169104A104B10451F522E359
:10153000C216D104E104F10421F50F97A105B1050C
:1015400001F560E08EE390E00E949102E091960345
:10155000F0919703E25EFD4F608181E490E00E948C
:101560009102E0919603F0919703EA5EFD4F60814E
:1015700082E490E00E9491026CE08DE390E00E9492
:10158000910262E070E08AE190E018D882E090E099
:101590000E94A90260919203709193038091940339
:1015A00090919503ADD02AE737E14FE85AE3E5D0B3
:1015B0006093A8037093A9038093AA039093AB034D
:1015C00061E08BE00E94B7018BE00E943B01C0907C
:1015D000BA03D090BB03E090BC03F090BD03C09170
:1015E000B803D091B90360E079E08DE390E0A70102
:1015F000960177D1DA01C9010197A109B109B69520
:10160000A795979587959C01E889F98982E0808361
:10161000C11481EED806E104F10421F02115A0E106
:101620003A07A0F0E889F989108260E874E88EE151
:1016300090E0A701960155D1DA01C9010197A109EE
:10164000B109B695A795979587959C01EC85FD8581
:101650003083EE85FF852083188EEC89FD8986E036
:101660008083EA89FB89808180618083EA89FB89A4
:10167000808188608083EA89FB898081806880839B
:10168000EA89FB8980818F7D808382EF92E0CBD8CD
:1016900018161906D4F78091B8039091B903DC01AC
:1016A000ED91FC910284F385E02D19958130E9F0EC
:1016B00061E08091B6030E94B70164E670E080E0CB
:1016C00090E00E94590260E08091B6030E94B70149
:1016D0006AEF70E080E090E00E94590268EE73E0EB
:1016E00080E090E00E945902E3CF3AD9FECF88E92A
:1016F00093E0FADB8EE993E00ADC83EA93E007CC1F
:10170000E89409C097FB3EF490958095709561959B
:101710007F4F8F4F9F4F9923A9F0F92F96E9BB2751
:101720009395F695879577956795B795F111F8CFCD
:10173000FAF4BB0F11F460FF1BC06F5F7F4F8F4F38
:101740009F4F16C0882311F096E911C0772321F02E
:101750009EE8872F762F05C0662371F096E8862FC6
:1017600070E060E02AF09A95660F771F881FDAF71D
:10177000880F9695879597F908950BD078C069D012
:1017800028F06ED018F0952309F05AC05FC01124DC
:10179000A2C07ED0A0F3959FD1F3950F50E0551FC6
:1017A000629FF001729FBB27F00DB11D639FAA27B6
:1017B000F00DB11DAA1F649F6627B00DA11D661F05
:1017C000829F2227B00DA11D621F739FB00DA11D26
:1017D000621F839FA00D611D221F749F3327A00DE0
:1017E000611D231F849F600D211D822F762F6A2F7C
:1017F00011249F5750408AF0E1F088234AF0EE0F01
:10180000FF1FBB1F661F771F881F91505040A9F70D
:101810009E3F510570F014C05EC05F3FECF3983EF0
:10182000DCF3869577956795B795F795E7959F5F74
:10183000C1F7FE2B880F911D9695879597F908950E
:1018400097F99F6780E870E060E008959FEF80EC73
:10185000089500240A941616170618060906089516
:1018600000240A9412161306140605060895092E7C
:101870000394000C11F4882352F0BB0F40F4BF2BEB
:1018800011F460FF04C06F5F7F4F8F4F9F4F08952B
:1018900057FD9058440F551F59F05F3F71F0479521
:1018A000880F97FB991F61F09F3F79F08795089506
:1018B000121613061406551FF2CF4695F1DF08C025
:1018C000161617061806991FF1CF86957105610542
:1018D00008940895E894BB2766277727CB0197F9EA
:1018E0000895A1E21A2EAA1BBB1BFD010DC0AA1F61
:1018F000BB1FEE1FFF1FA217B307E407F50720F079
:10190000A21BB30BE40BF50B661F771F881F991FF3
:101910001A9469F760957095809590959B01AC013C
:10192000BD01CF010895EE0FFF1F881F8BBF0790E9
:10193000F691E02D1994CF93DF938230910510F446
:1019400082E090E0E0913504F091360420E030E050
:10195000C0E0D0E0309711F140815181481759071C
:10196000C0F04817590761F482819381209719F0DC
:101970009B838A832BC0909336048093350426C0C2
:101980002115310519F04217530718F49A01BE01C9
:10199000DF01EF010280F381E02DDCCF211531055D
:1019A00009F1281B390B2430310590F412968D91E2
:1019B0009C9113976115710521F0FB01938382833C
:1019C00004C09093360480933504FD01329644C0E0
:1019D000FD01E20FF31F81939193225031092D9362
:1019E0003C933AC02091330430913404232B41F4CA
:1019F0002091120230911302309334042093330467
:101A000020911002309111022115310541F42DB7BA
:101A10003EB74091140250911502241B350BE09102
:101A20003304F0913404E217F307A0F42E1B3F0BAC
:101A30002817390778F0AC014E5F5F4F2417350740
:101A400048F04E0F5F1F509334044093330481934A
:101A5000919302C0E0E0F0E0CF01DF91CF910895D3
:101A60000F931F93CF93DF93009709F48CC0FC0171
:101A700032971382128200913504109136040115B9
:101A8000110581F420813181820F931F209133044D
:101A9000309134042817390779F5F0933404E09332
:101AA000330471C0D80140E050E0AE17BF0750F4D6
:101AB00012962D913C911397AD012115310509F135
:101AC000D901F3CF9D01DA013383228360817181D3
:101AD000860F971F8217930769F4EC0128813981DB
:101AE000260F371F2E5F3F4F318320838A819B81D2
:101AF00093838283452B29F4F0933604E0933504D5
:101B000042C01396FC93EE931297ED0149915991BF
:101B10009E01240F351FE217F30771F48081918134
:101B2000840F951F029611969C938E9382819381C8
:101B300013969C938E931297E0E0F0E0D8011296F2
:101B40008D919C911397009719F0F8018C01F6CFB5
:101B50008D919C9198012E5F3F4F820F931F209192
:101B60003304309134042817390769F4309729F485
:101B7000109236041092350402C013821282109320
:101B8000340400933304DF91CF911F910F91089596
:101B900081E090E0F89400C011E0C8E0D1E000E0FE
:101BA00005C0802FFE01BFDE2196011DC930D1077F
:0A1BB00080E00807B1F7F894FFCFBA
:101BBA00B603B603B603B603B603B603B603B60353
:101BCA0000003704800004000602030107052124EF
:101BDA00242124212124000000004904B703E20340
:101BEA008F041304F10305040000000074077F0743
:101BFA000C0509050605E8040000000000000000C5
:101C0A000E053F033F033F030000000087079207CA
:101C1A002505220510050000000000000000270528
:101C2A003F033F0300000000BA058B05560529054E
:061C3A004D0539052A05E5
:00000001FF
