:1000000085C1000033C7000006C70000D9C6000044
:10001000ACC600007FC6000052C6000025C6000026
:10002000F8C50000A4C10000A2C10000A0C10000EA
:100030009EC100009CC100009AC1000098C1000050
:1000400096C1000094C1000092C1000090C1000060
:100050008EC100008CC100008AC1000086C3000070
:1000600086C10000A9C700007EC7000080C1000053
:100070007EC100007CC100007AC1000078C1000090
:1000800076C1000074C1000072C1000070C10000A0
:100090006EC100006CC100006AC10000FEC7000014
:1000A00066C1000064C1000062C1000060C10000C0
:1000B0005EC100005CC100005AC1000058C10000D0
:1000C00056C1000054C1000052C1000050C10000E0
:1000D0004EC100004CC100001DC70000F2C6000068
:1000E00046C100002F0332032103250329036903BE
:1000F00036033A034003440348034E0352035603B6
:1001000069035C036003640300407A10F35A00A0A3
:10011000724E18090010A5D4E80000E876481700D0
:1001200000E40B54020000CA9A3B000000E1F50510
:10013000000080969800000040420F000000A0865A
:1001400001000000102700000000E803000000008C
:100150006400000000000A00000000000100000030
:1001600000002C76D888DC674F0823DFC1DFAE594A
:10017000E1B1B796E5E3E453C63AE651997696E8DD
:10018000E6C28426EB898C9B62ED407C6FFCEFBC61
:100190009C9F40F2BAA56FA5F490055A2AF75C938C
:1001A0006B6CF9676DC11BFCE0E40D47FEF520E6C2
:1001B000B500D0ED902E0300943577050080841EA5
:1001C000080000204E0A000000C80C333333330F00
:1001D000986E12831141EF8D2114893BE65516CF9D
:1001E000FEE6DB18D1844B381BF77C1D901DA4BBA9
:1001F000E424203284725E228100C9F124ECA1E55E
:100200003D2700000A0B02090C0D0E08070304012C
:1002100000000000000000000000000000000000DE
:1002200000000000000000000000000000001211AB
:1002300010000000000000000000000000000000AE
:10024000000000000000000000002200250028003F
:100250002B002E00310034000201000005010801CE
:100260000B0100002100240027002A002D0030008F
:10027000330001010000040107010A01050505051D
:10028000070508080808020202020A0A080804040E
:10029000040401010101010101010303030303033C
:1002A0000303040707070C0C0C0C0C0C0C0C0202CB
:1002B000020206060606060606060B0B0B0B0B0BC8
:1002C0000B0B010210202008081020401020408055
:1002D000020102010804020101020408102040800A
:1002E0008040201008040201800402018040201098
:1002F00008040201080402010102040810204080E1
:1003000001020408102040807E096C0C11241FBEDD
:10031000CFEFD1E2DEBFCDBF00E00CBF24E0AEE7FF
:10032000B2E001C01D92A13AB207E1F712E0A0E0ED
:10033000B2E0E4EEF4E200E00BBF02C007900D92E1
:10034000AE37B107D9F711E0C5E8D1E000E006C04B
:1003500021970109802FFE010E943410C438D10773
:1003600080E00807A9F70E94BC0A0C94611248CEED
:10037000CF92DF92EF92FF920F931F93CF93DF9371
:10038000EC016A017B01E889F98982E080834115EB
:10039000514E61057105B1F060E079E08DE390E0C8
:1003A000A70196010E94121089019A0101501109BA
:1003B000210931093695279517950795980101155B
:1003C0001041A8F0E889F989108260E874E88EE1AC
:1003D00090E0A70196010E941210DA01C90101976D
:1003E000A109B109B695A795979587959C01EC85CC
:1003F000FD853083EE85FF852083188EEC89FD898D
:1004000086E08083EA89FB89808180618083EA8934
:10041000FB89808188608083EA89FB89808180688C
:100420008083EA89FB8980818F7D8083DF91CF91F2
:100430001F910F91FF90EF90DF90CF9008958091E2
:10044000180490911904DC01ED91FC910284F3856C
:10045000E02D1995089590E0FC01EE53FD4F249195
:10046000FC01E458FD4F8491882399F090E0880FB7
:10047000991FFC01EE59FD4FA591B491FC01E85B79
:10048000FD4F859194918FB7F894EC91E22BEC930A
:100490008FBF0895EF92FF920F931F93CF93DF9337
:1004A00000D01F92CDB7DEB78E010F5F1F4F7E01C8
:1004B00085E0E80EF11CC3DFF80181938F01EE1592
:1004C000FF05C9F769817A818B819C810F900F901C
:1004D0000F900F90DF91CF911F910F91FF90EF90B0
:1004E00008953FB7F8948091E8039091E903A091B3
:1004F000EA03B091EB0326B5A89B05C02F3F19F086
:100500000196A11DB11D3FBFBA2FA92F982F882793
:10051000820F911DA11DB11DBC01CD0142E0660FEE
:10052000771F881F991F4A95D1F708950F931F933E
:10053000CF93DF93EC01D5DF60931E0470931F040B
:100540008093200490932104CCDF00911E0410912D
:100550001F042091200430912104601B710B820B39
:10056000930B0E94F90E2DEB37E346E855E30E940A
:100570005A0F20E030E040E85FE30E940E1087FF52
:1005800010C08091180490911904DC01ED91FC9148
:100590000084F185E02D19958C179D07ACF281E060
:1005A00001C080E0DF91CF911F910F9108950E94CB
:1005B0004D120F931F93CF93DF93EC0188819981A4
:1005C000009729F02A813B812617370788F48B0191
:1005D0006F5F7F4F0E946911009761F09983888354
:1005E0001B830A832C813D81232B11F4FC01108293
:1005F00081E001C080E0DF91CF911F910F910895BC
:10060000362F90E0FC01EE5FFD4F4491FC01EE536C
:10061000FD4F2491FC01E458FD4F9491992309F476
:100620006BC0442309F455C050E0FA013197E23120
:10063000F10508F04EC08827EE58FF4F8F4F0C94FD
:100640003410809180008F7707C0809180008F7D6B
:1006500003C080918000877F809380003AC084B57A
:100660008F7702C084B58F7D84BD33C08091B00088
:100670008F7703C08091B0008F7D8093B00029C038
:10068000809190008F7707C0809190008F7D03C08C
:1006900080919000877F809390001BC08091A00084
:1006A0008F7707C08091A0008F7D03C08091A0004C
:1006B000877F8093A0000DC0809120018F7707C0B5
:1006C000809120018F7D03C080912001877F8093DE
:1006D0002001E92FF0E0EE0FFF1FE85BFD4FA59131
:1006E000B4918FB7F894EC91311103C020952E236B
:1006F00001C02E2B2C938FBF08958F929F92AF92A3
:10070000BF92CF92DF92EF92FF926B017C01E9DE04
:100710004B015C01C114D104E104F104E9F0E1DE14
:10072000DC01CB0188199909AA09BB09883E9340CD
:10073000A105B10578F321E0C21AD108E108F1085A
:1007400088EE880E83E0981EA11CB11CC114D10450
:10075000E104F10421F7DECFFF90EF90DF90CF901E
:10076000BF90AF909F908F9008951F920F920FB6F9
:100770000F9211242F933F938F939F93AF93BF9327
:100780008091E4039091E503A091E603B091E70323
:100790003091E30323E0230F2D3720F40196A11DB0
:1007A000B11D05C026E8230F0296A11DB11D20939F
:1007B000E3038093E4039093E503A093E603B093EF
:1007C000E7038091E8039091E903A091EA03B091D7
:1007D000EB030196A11DB11D8093E8039093E903FB
:1007E000A093EA03B093EB03BF91AF919F918F91D8
:1007F0003F912F910F900FBE0F901F901895089565
:10080000CF92DF92EF92FF920F931F93CF93DF93DC
:100810006C017A018B01C0E0D0E0CE15DF0589F0D4
:10082000D8016D918D01D601ED91FC910190F0817F
:10083000E02DC6011995892B11F47E0102C0219685
:10084000ECCFC701DF91CF911F910F91FF90EF90F7
:10085000DF90CF900895FC01A089B1898C91A68981
:10086000B78982FD0FC09C91818D8F5F8F73228D20
:10087000821749F0218DDF01A20FB11D5D969C9377
:10088000818F08958C910895FC01538D448D252FFF
:1008900030E0842F90E0821B930B541710F0CF961A
:1008A000089501970895FC01918D828D981761F04C
:1008B000828DDF01A80FB11D5D968C91928D9F5F97
:1008C0009F73928F90E008958FEF9FEF0895FC0142
:1008D000918D828D981731F0828DE80FF11D858DF5
:1008E00090E008958FEF9FEF0895FC01918D228D88
:1008F000892F90E0805C9F4F821B91098F7399270D
:1009000008958EE792E0F1DF21E0892B09F420E0E1
:10091000822F08958BE193E0E8DF21E0892B09F431
:1009200020E0822F0895FC01848DDF01A80FB11D06
:10093000A35ABF4F2C91848D90E001968F73992715
:10094000848FA689B7892C93A089B1898C91806402
:100950008C93938D848D981306C00288F389E02DC3
:1009600080818F7D80830895EF92FF920F931F9374
:10097000CF93DF93EC0181E0888F9B8D8C8D981352
:1009800005C0E889F989808185FD23C0F62E0B8D8D
:1009900010E00F5F1F4F0F731127E02E8C8DE812B0
:1009A0000BC00FB607FCFACFE889F989808185FF73
:1009B000F5CFCE01B8DFF2CF8B8DFE01E80FF11D30
:1009C000E35AFF4FF0820B8FEA89FB8980818062B6
:1009D00007C0EE89FF896083E889F9898081806496
:1009E000808381E090E0DF91CF911F910F91FF9084
:1009F000EF900895CF93DF93EC01888D8823C1F0A9
:100A0000EA89FB89808185FD05C0A889B9898C9117
:100A100086FD0EC00FB607FCF5CF808185FFF2CFB3
:100A2000A889B9898C9185FFEDCFCE017CDFE8CF15
:100A3000DF91CF91089580E090E0892B19F06ADF73
:100A4000811120C080E090E0892B41F080E090E0AF
:100A5000892B21F00E940000811117C080E090E0F6
:100A6000892B41F080E090E0892B21F00E9400006A
:100A700081110EC080E090E0892B79F042DF811176
:100A80000AC008950E940000DDCF0E940000E6CF5A
:100A90000E940000EFCF0C9400000895DC01139633
:100AA0002C91139770E061507109269FF001279FE8
:100AB000F00D1124E40FF11D3197EE0FFF1FEE0F23
:100AC000FF1F14968D919C911597E80FF91F608177
:100AD0007181828193810895FC0183810895FC01D5
:100AE0008281089581E0089580E0089570E061506A
:100AF000704C660F771F660F771FFC01838194810E
:100B0000FC01E60FF71F6081718182819381089556
:100B1000FC018281089581E0089580E008950895A0
:100B20008FEF9FEF08958FEF9FEF089580919C04C2
:100B300090E09195819591090895089580E090E065
:100B4000089585ED8093BC008091BC0084FDFCCFAE
:100B500010927604089540915004262F30E0240F1F
:100B6000311D21323105DCF4209176042430C9F4A2
:100B7000FC0180E090E0861758F4309150042191F8
:100B8000DC01A25DBB4FA30FB11D2C930196F3CFE7
:100B900080915004680F6093500480E0089581E0D4
:100BA000089582E00895CF93DF931F921F92CDB7EF
:100BB000DEB7CB01642F49835A83CDDF4981842F6F
:100BC0005A81952F0F900F90DF91CF910895CF9379
:100BD000DF931F92CDB7DEB7698361E0CE01019646
:100BE000BADF81E090E00F90DF91CF910895CF932D
:100BF000DF93EC0188819981009711F00E94D11058
:100C0000198218821D821C821B821A82DF91CF9169
:100C100008951F920F920FB60F9211240BB60F92E8
:100C20002F933F934F935F936F937F938F939F93F4
:100C3000AF93BF93EF93FF93E0910E02F0910F02F9
:100C40001995FF91EF91BF91AF919F918F917F91F6
:100C50006F915F914F913F912F910F900BBE0F902D
:100C60000FBE0F901F9018951F920F920FB60F9204
:100C700011240BB60F922F933F934F935F936F9373
:100C80007F938F939F93AF93BF93EF93FF93E091E5
:100C90000C02F0910D021995FF91EF91BF91AF9168
:100CA0009F918F917F916F915F914F913F912F9184
:100CB0000F900BBE0F900FBE0F901F9018951F92B4
:100CC0000F920FB60F9211240BB60F922F933F93F2
:100CD0004F935F936F937F938F939F93AF93BF9344
:100CE000EF93FF93E0910202F09103021995FF91B7
:100CF000EF91BF91AF919F918F917F916F915F9194
:100D00004F913F912F910F900BBE0F900FBE0F9000
:100D10001F9018951F920F920FB60F9211240BB6C9
:100D20000F922F933F934F935F936F937F938F9384
:100D30009F93AF93BF93EF93FF93E0910002F091E5
:100D400001021995FF91EF91BF91AF919F918F9102
:100D50007F916F915F914F913F912F910F900BBEBB
:100D60000F900FBE0F901F9018951F920F920FB605
:100D70000F9211240BB60F922F933F934F935F93D3
:100D80006F937F938F939F93AF93BF93EF93FF9353
:100D9000E0910A02F0910B021995FF91EF91BF913A
:100DA000AF919F918F917F916F915F914F913F9103
:100DB0002F910F900BBE0F900FBE0F901F901895A4
:100DC0001F920F920FB60F9211240BB60F922F9312
:100DD0003F934F935F936F937F938F939F93AF93C3
:100DE000BF93EF93FF93E0910802F09109021995E8
:100DF000FF91EF91BF91AF919F918F917F916F91F3
:100E00005F914F913F912F910F900BBE0F900FBEAE
:100E10000F901F9018951F920F920FB60F921124EA
:100E20000BB60F922F933F934F935F936F937F93E4
:100E30008F939F93AF93BF93EF93FF93E09106023D
:100E4000F09107021995FF91EF91BF91AF919F919A
:100E50008F917F916F915F914F913F912F910F9063
:100E60000BBE0F900FBE0F901F9018951F920F9200
:100E70000FB60F9211240BB60F922F933F934F93FF
:100E80005F936F937F938F939F93AF93BF93EF93F2
:100E9000FF93E0910402F09105021995FF91EF9103
:100EA000BF91AF919F918F917F916F915F914F9182
:100EB0003F912F910F900BBE0F900FBE0F901F9080
:100EC00018951F920F920FB60F9211240BB60F9226
:100ED0002F933F934F935F936F937F938F939F9342
:100EE000AF93BF93EF93FF938EE792E01CDDFF91EA
:100EF000EF91BF91AF919F918F917F916F915F9192
:100F00004F913F912F910F900BBE0F900FBE0F90FE
:100F10001F9018951F920F920FB60F9211240BB6C7
:100F20000F922F933F934F935F936F937F938F9382
:100F30009F93AF93BF93EF93FF938EE792E08BDC89
:100F4000FF91EF91BF91AF919F918F917F916F91A1
:100F50005F914F913F912F910F900BBE0F900FBE5D
:100F60000F901F9018951F920F920FB60F92112499
:100F70000BB60F922F933F934F935F936F937F9393
:100F80008F939F93AF93BF93EF93FF938BE193E086
:100F9000CADCFF91EF91BF91AF919F918F917F91AB
:100FA0006F915F914F913F912F910F900BBE0F90DA
:100FB0000FBE0F901F9018951F920F920FB60F92B1
:100FC00011240BB60F922F933F934F935F936F9320
:100FD0007F938F939F93AF93BF93EF93FF938BE197
:100FE00093E039DCFF91EF91BF91AF919F918F9189
:100FF0007F916F915F914F913F912F910F900BBE19
:101000000F900FBE0F901F901895D82FC1E0DC17DE
:10101000A0F061E08091B803F3DA64E670E080E06C
:1010200090E06BDB60E08091B803EADA6AEF70E091
:1010300080E090E062DBCF5FEACF68EE73E080E0B3
:1010400090E05BDBE3CF2CE232E0FC0131832083D4
:1010500084819581009711F00C94D1100895CF935D
:10106000DF93EC01F0DFCE01DF91CF910C94D11032
:101070002CE432E0FC01318320838381948100974A
:1010800011F00C94D1100895CF93DF93EC01F0DFB1
:10109000CE01DF91CF910C94D1101F920F920FB619
:1010A0000F9211240BB60F922F933F934F935F93A0
:1010B0006F937F938F939F93AF93BF93EF93FF9320
:1010C0008091B900887F803609F49CC068F5883229
:1010D00009F45BC090F4803109F454C038F48823DB
:1010E00009F4F6C0883009F44DC0F5C0883109F420
:1010F0004CC0803209F45DC0EEC0803409F468C091
:1011000048F4803309F455C0883309F0E4C0809373
:101110007504D8C0803509F44FC0883509F45DC026
:10112000883409F0D8C0D6C0883909F4C7C0A8F4FB
:10113000883709F467C038F4883609F463C080370B
:1011400009F460C0C8C0883809F4B8C0803909F40F
:101150005FC0803809F0BFC05BC0803B09F486C027
:1011600038F4803A09F466C0883A09F47FC0B3C005
:10117000803C09F4A7C0883C09F4A4C0883B09F46A
:101180008AC0A9C080919B0410C090919A0480915C
:101190009904981770F5E0919A0481E08E0F80937E
:1011A0009A04F0E0E758FB4F80818093BB0085EC08
:1011B00086C0809375048EC0E0919A0481E08E0F02
:1011C00080939A048091BB00F0E0E758FB4F808346
:1011D00090919A04809199046EC0E0919A0481E004
:1011E0008E0F80939A048091BB00F0E0E758FB4F8C
:1011F00080838091780481116DC081E080937704B1
:1012000084EA61C083E08093760410927404CFCFA7
:1012100080917404803208F051C0E091740481E040
:101220008E0F809374048091BB00F0E0EC5AFB4F6A
:101230008083BDCF85EC8093BC00109276048091B2
:101240007404803230F4E0917404F0E0EC5AFB4F07
:1012500010826091740470E0E0915204F0915304A4
:1012600084E594E019951092740435C084E080936D
:1012700076041092510410925004E0914E04F091C3
:101280004F04199580915004811105C081E080932D
:10129000500410922E04E091510481E08E0F80934F
:1012A0005104F0E0E25DFB4F80818093BB009091A0
:1012B000510480915004981708F479CF85E8809301
:1012C000BC0009C085EC8093BC001092760403C07A
:1012D0001092750436DCFF91EF91BF91AF919F9111
:1012E0008F917F916F915F914F913F912F910F90CF
:1012F0000BBE0F900FBE0F901F9018954F925F92EC
:101300006F927F929F92AF92BF92CF92DF92EF92B5
:10131000FF920F931F93CF93DF93CEE7D2E01B8210
:101320001A8288EEC82E83E0D82EE12CF12CCC82D4
:10133000DD82EE82FF828AE192E09983888325E351
:1013400031E03D872C8724E331E03F872E8720E37F
:1013500031E0398B288B21E331E03B8B2A8B22E370
:1013600031E03D8B2C8B26E331E03F8B2E8B198EA9
:101370001A8E1B8E1C8EEBE1F3E013821282C48264
:10138000D582E682F7829183808385EC90E0958711
:10139000848784EC90E09787868780EC90E0918B3F
:1013A000808B81EC90E0938B828B82EC90E0958B2C
:1013B000848B86EC90E0978B868B118E128E138E29
:1013C000148E8DE090E09093B9038093B803ACEE57
:1013D000B3E016961D921D921D921C9219971196BC
:1013E000FC93EE93412C92EC592E66246394712C5D
:1013F00012964D925D926D927C921597E6EFF3E016
:101400001582168217821086108211821282138230
:10141000148240E050E06AEA71E4418752876387B2
:1014200074878DEF9DEAA0E0BBE385879687A78749
:10143000B08BE7E0F4E015821682178210861082E6
:1014400011821282138214824187528763877487C4
:1014500085879687A787B08B0EEC13E02CE4A22E2D
:1014600022E0B22ED8011196BC92AE9232E0932EB9
:1014700012969C9288E090E0FFD5F80194838383D4
:10148000DC011D921D921D921C921397FC01148287
:1014900015821682178209EC13E0D8011196BC92CE
:1014A000AE9212969C9288E090E0E6D5F801948383
:1014B0008383DC011D921D921D921C921397FC01E7
:1014C000148215821682178203EC13E08CE292E0FC
:1014D000D80111969C938E9312969C921297139614
:1014E0009C9280E190E0C8D5FC01D80115969C93B0
:1014F0008E931497108211821282138214821582A5
:101500001682178210861186128613861486158617
:1015100016861786EAEBF3E01182108281E082835F
:1015200083E090E090878783E8E1F4E016821782F9
:1015300010861186D183C083428253826482758271
:10154000E2E2F4E013821282C482D582E682F7825C
:1015500088E692E091838083DF91CF911F910F9174
:10156000FF90EF90DF90CF90BF90AF909F907F90D3
:101570006F905F904F900895CF93DF93CDB7DEB714
:10158000A7970FB6F894DEBF0FBECDBF789484B591
:10159000826084BD84B5816084BD85B5826085BD6F
:1015A00085B5816085BD80916E00816080936E00FD
:1015B00010928100809181008260809381008091EF
:1015C00081008160809381008091800081608093A0
:1015D00080008091B10084608093B1008091B00060
:1015E00081608093B000809191008260809391002F
:1015F0008091910081608093910080919000816042
:10160000809390008091A10082608093A1008091DE
:10161000A10081608093A1008091A00081608093EF
:10162000A00080912101826080932101809121019D
:10163000816080932101809120018160809320014D
:1016400080917A00846080937A0080917A00826031
:1016500080937A0080917A00816080937A008091F3
:101660007A00806880937A001092C10040E052ECCA
:1016700061E070E08BE193E00E94B8018091B803D3
:101680000E942B0260E08091B8030E94000382E078
:101690000E942B0261E082E00E9400036CED75E085
:1016A00080E090E02AD840911A0450911B04609188
:1016B0001C0470911D0480911804909119040E94DB
:1016C000B8018091180490911904DC01ED91FC910E
:1016D0000084F185E02D19957C0100E010E08091F7
:1016E000180490911904DC01ED91FC910E151F0571
:1016F0003CF40284F385E02D19950F5F1F4FEFCF67
:101700000190F081E02D62E4199581E090E00E9463
:101710009602882309F4DAC00E941F02823509F07C
:10172000D5C08091180490911904DC01ED91FC91D1
:101730000190F081E02D62E5199581E090E00E9432
:101740009602882309F450C00E941F02843409F0D5
:1017500049C080E190E00E949602882309F440C0CD
:101760000E944A026093DF037093E0038093E103D9
:101770009093E2030E944A026093DB037093DC03C0
:101780008093DD039093DE030E944A026093D703A7
:101790007093D8038093D9039093DA030E944A028E
:1017A0006093D3037093D4038093D5039093D603AF
:1017B0006091DF037091E0038091E1039091E20377
:1017C0001BA21AA21DA21CA21FA21EA28E010F5FA5
:1017D0001F4F22E044E089D07C01009739F415C006
:1017E00082E001C083E011DC84E0FDCFFC010190C8
:1017F0000020E9F731978F01081B190BB801CE01C2
:1018000082960E94D902811104C0CE018296EFD93E
:1018100006C01FA30EA3B7018AA19BA14BD61A82B3
:1018200019821C821B821E821D8263E070E0CE0141
:1018300001960E94D902811104C0CE010196D7D928
:1018400009C083E090E09E838D8366E772E0898122
:101850009A8130D68EA19FA1EAA0FBA00D811E81A6
:10186000E114F104A9F1009799F0080F191FB801CC
:10187000CE0101960E94D902882351F129813A8133
:101880008D819E81B701820F931F14D61E830D8315
:101890004D815E8169817A818BE193E00E94000431
:1018A00042E050E06AE772E08BE193E00E940004BE
:1018B00089819A8176D48AA19BA173D46AEF70E062
:1018C00080E090E00E947D03B6D82BCF81E08BCFE3
:1018D000CE0101968CD9DCCF83EC93E0B4DB89ECAC
:1018E00093E0C6DB8EEC93E0C3CBEF920F931F9394
:1018F000CF93DF93E80147FD02C034E001C034E13B
:10190000E42F440FFF0BF7FF03C0F195E195F109B8
:10191000E32E022F2E2FAE0107D0CE01DF91CF9103
:101920001F910F91EF9008954F925F926F927F9267
:101930009F92AF92BF92CF92DF92EF92FF920F935E
:101940001F93CF93DF93CDB7DEB729970FB6F894E7
:10195000DEBF0FBECDBF6A01122FB02E2BE32017C2
:1019600020F0FF24F394F00E02C0BCE3FB2E0F2DF9
:1019700027E0AE014F5F5F4F64D1AC018981982FA2
:101980009970913031F0E1FC06C0E0FE06C090E2B3
:1019900005C09DE203C09BE201C090E0EE2DE07126
:1019A00083FF3CC0911102C083E001C084E0811735
:1019B00018F4212F281B01C020E0E1110BC0F60113
:1019C000822F30E2882319F031938150FBCFC20E71
:1019D000D11C20E0992329F0D6019C93F601319681
:1019E0006F01C6010396E2FE0AC03EE4D6013C93B5
:1019F00041E411964C93119712963C9306C03EE633
:101A0000F601308341E641833283FC01322F40E20C
:101A1000332309F442C041933150FACF82FF44C0CE
:101A2000911102C083E001C084E0811718F4212FD6
:101A3000281B01C020E0E1110BC0F601822F30E22B
:101A4000882319F031938150FBCFC20ED11C20E0C6
:101A5000992329F0D6019C93F60131966F01C601B6
:101A60000396E2FE0BC039E4D6013C933EE41196A6
:101A70003C93119736E412963C9307C039E6F60181
:101A800030833EE6318336E63283FC01322F40E27A
:101A9000332319F041933150FBCFFC01E20FF11DCC
:101AA00010828EEF9FEFB7C0F1E0911101C0F0E01E
:101AB0006F2F70E01416150624F49A012F5F3F4F24
:101AC00002C021E030E0260F371FBB2029F06B2D2C
:101AD00070E06F5F7F4F02C060E070E0260F371F3D
:101AE000612F70E0261737071CF4121B212F01C04D
:101AF00020E03E2D387159F4D601322F60E23323B5
:101B000019F06D933150FBCFC20ED11C20E0FF23A2
:101B100031F0D6019C93B6016F5F7F4F6B01E111ED
:101B20000BC0F601922F30E3992319F031939150B5
:101B3000FBCFC20ED11C20E09F2D940F3A81782F4D
:101B40007071A72E84FF03C0313309F49150191628
:101B500024F4993018F098E001C091E0E42F852F2B
:101B600057FF02C0E0E080E06E2F782FE0E0F0E069
:101B7000AEE29A2E3A01691A71082A01461A570AEA
:101B80000B2D10E01195019511096F3F8FEF78072C
:101B900029F4D6019C92C60101966C01461757079D
:101BA00084F0661677066CF47F01E40CF51CA1E066
:101BB000B0E0AC0FBD1FEA0EFB1ED7011196BC9022
:101BC00002C090E3B92E615071093196C6010196A9
:101BD0007C016017710724F0D601BC926C01D5CF4F
:101BE0006417750741F4363320F4353321F4A1101E
:101BF00002C081E3B82EF601B082F701822F90E295
:101C0000882319F091938150FBCFF701E20FF11D6A
:101C1000108280E090E029960FB6F894DEBF0FBEE8
:101C2000CDBFDF91CF911F910F91FF90EF90DF908B
:101C3000CF90BF90AF909F907F906F905F904F90AC
:101C40000895283008F027E03327DA01990F311D75
:101C500087FD916000966105710539F432602E5F51
:101C60003D9330E32A95E1F708959F3F30F08038A7
:101C70007105610509F03C5F3C5F3D93913008F0D0
:101C80008068911DDF93CF931F930F93FF92EF9284
:101C9000192F987F9695E92F96959695E90FFF272E
:101CA000EE59FE4F99273327EE24FF24A701E701C1
:101CB00005900894079428F4360FE71EF81E491F74
:101CC000511D660F771F881F991F0694A1F7059075
:101CD000079428F4E70EF81E491F561FC11D770F01
:101CE000881F991F661F0694A1F70590079428F492
:101CF000F80E491F561FC71FD11D880F991F661F59
:101D0000771F0694A1F70590079420F4490F561FFA
:101D1000C71FD81F990F661F771F881F0694A9F742
:101D200084911095177041F0D695C79557954795B2
:101D3000F794E7941A95C1F7E8E0F1E068941590FC
:101D4000159135916591959105907FE27395E11814
:101D5000F10A430B560BC90BD009C0F7E10CF11E79
:101D6000431F561FC91FD01D7EF4703311F48A958E
:101D7000E6CFE894015030F0080F0AF4002702176C
:101D800008F4202F2395022F7A3328F079E37D93EE
:101D90002A95E9F710C07D932A9589F606949795C0
:101DA0006795379517951794E118F10A430B560B71
:101DB000C90BD00998F023957E9173957A3308F07A
:101DC00070E37C932013B8F77E9170617D9330F0BF
:101DD000839571E37D9370E32A95E1F71124EF90E9
:101DE000FF900F911F91CF91DF91992787FD9095DB
:101DF0000895E89409C097FB3EF4909580957095FE
:101E000061957F4F8F4F9F4F9923A9F0F92F96E946
:101E1000BB279395F695879577956795B795F111BB
:101E2000F8CFFAF4BB0F11F460FF1BC06F5F7F4F58
:101E30008F4F9F4F16C0882311F096E911C077236A
:101E400021F09EE8872F762F05C0662371F096E873
:101E5000862F70E060E02AF09A95660F771F881F42
:101E6000DAF7880F9695879597F90895990F0008E6
:101E7000550FAA0BE0E8FEEF16161706E807F9075C
:101E8000C0F012161306E407F50798F0621B730BF7
:101E9000840B950B39F40A2661F0232B242B252B78
:101EA00021F408950A2609F4A140A6958FEF811D1B
:101EB000811D08950BD078C069D028F06ED018F03D
:101EC000952309F05AC05FC01124A2C07ED0A0F3B0
:101ED000959FD1F3950F50E0551F629FF001729FBF
:101EE000BB27F00DB11D639FAA27F00DB11DAA1FDE
:101EF000649F6627B00DA11D661F829F2227B00D2B
:101F0000A11D621F739FB00DA11D621F839FA00DB5
:101F1000611D221F749F3327A00D611D231F849F05
:101F2000600D211D822F762F6A2F11249F5750405C
:101F30008AF0E1F088234AF0EE0FFF1FBB1F661FF7
:101F4000771F881F91505040A9F79E3F510570F0B0
:101F500014C05EC05F3FECF3983EDCF38695779546
:101F60006795B795F795E7959F5FC1F7FE2B880FAB
:101F7000911D9695879597F9089597F99F6780E841
:101F800070E060E008959FEF80EC089500240A94CB
:101F90001616170618060906089500240A94121644
:101FA0001306140605060895092E0394000C11F477
:101FB000882352F0BB0F40F4BF2B11F460FF04C024
:101FC0006F5F7F4F8F4F9F4F089557FD9058440F7D
:101FD000551F59F05F3F71F04795880F97FB991F88
:101FE00061F09F3F79F08795089512161306140645
:101FF000551FF2CF4695F1DF08C0161617061806D2
:10200000991FF1CF86957105610508940895E894AC
:10201000BB2766277727CB0197F9089527DF08F4B8
:102020008FEF0895A1E21A2EAA1BBB1BFD010DC064
:10203000AA1FBB1FEE1FFF1FA217B307E407F50778
:1020400020F0A21BB30BE40BF50B661F771F881F54
:10205000991F1A9469F760957095809590959B01EA
:10206000AC01BD01CF010895EE0FFF1F881F8BBF8C
:102070000790F691E02D1994CF93DF93823091056C
:1020800010F482E090E0E0919F04F091A00420E041
:1020900030E0C0E0D0E0309711F140815181481725
:1020A0005907C0F04817590761F48281938120973E
:1020B00019F09B838A832BC09093A00480939F0484
:1020C00026C02115310519F04217530718F49A015B
:1020D000BE01DF01EF010280F381E02DDCCF21158D
:1020E000310509F1281B390B2430310590F4129683
:1020F0008D919C9113976115710521F0FB019383DC
:10210000828304C09093A00480939F04FD013296C3
:1021100044C0FD01E20FF31F8193919322503109D6
:102120002D933C933AC020919D0430919E04232B23
:1021300041F4209112023091130230939E042093B7
:102140009D0420911002309111022115310541F4B6
:102150002DB73EB74091140250911502241B350B48
:10216000E0919D04F0919E04E217F307A0F42E1B6A
:102170003F0B2817390778F0AC014E5F5F4F2417EB
:10218000350748F04E0F5F1F50939E0440939D0407
:102190008193919302C0E0E0F0E0CF01DF91CF9115
:1021A00008950F931F93CF93DF93009709F48CC08A
:1021B000FC0132971382128200919F041091A004B7
:1021C0000115110581F420813181820F931F209127
:1021D0009D0430919E042817390779F5F0939E04E9
:1021E000E0939D0471C0D80140E050E0AE17BF07F6
:1021F00050F412962D913C911397AD0121153105A4
:1022000009F1D901F3CF9D01DA0133832283608183
:102210007181860F971F8217930769F4EC0128815B
:102220003981260F371F2E5F3F4F318320838A81EC
:102230009B8193838283452B29F4F093A004E09340
:102240009F0442C01396FC93EE931297ED014991BF
:1022500059919E01240F351FE217F30771F4808115
:102260009181840F951F029611969C938E93828183
:10227000938113969C938E931297E0E0F0E0D8013F
:1022800012968D919C911397009719F0F8018C018B
:10229000F6CF8D919C9198012E5F3F4F820F931F37
:1022A00020919D0430919E042817390769F43097D6
:1022B00029F41092A00410929F0402C0138212828B
:1022C00010939E0400939D04DF91CF911F910F9175
:1022D00008956F927F928F929F92AF92BF92CF920A
:1022E000DF92EF92FF920F931F93CF93DF93EC0156
:1022F000009781F4CB01DF91CF911F910F91FF9057
:10230000EF90DF90CF90BF90AF909F908F907F9095
:102310006F90B2CEFC01E60FF71F9C0122503109ED
:10232000E217F30708F4A8C0D9010D911C91119789
:1023300006171707A8F00530110508F49BC0C8015F
:1023400004978617970708F495C002501109061BD9
:10235000170B019311936D937C93CF0122DF8AC0F9
:102360005B01A01AB10A4C01800E911EA0919F043E
:10237000B091A00440E050E0E12CF12C109709F45A
:102380004AC0A815B905D1F56D907C9011976301ED
:1023900082E0C80ED11CCA14DB0480F1A3014A19E3
:1023A0005B096A0182E0C80ED11C1296BC9012979C
:1023B0001396AC91B5E0CB16D10440F0B282A38362
:1023C00051834083D9016D937C930AC00E5F1F4FE8
:1023D000C301800F911FF90191838083EB2DFA2FA8
:1023E000E114F10431F0D7011396FC93EE931297A8
:1023F00041C0F093A004E0939F043CC08D919C9158
:1024000011974817590708F4AC017D0112960D90F9
:10241000BC91A02DB3CF80919D0490919E0488150E
:102420009905E1F446175707C8F48091100290917E
:102430001102009741F48DB79EB74091140250915C
:102440001502841B950BE817F907B0F4F0939E046E
:10245000E0939D04F901718360830CC0CB010CDE15
:102460007C01009749F0A801BE011BD0CE0199DE86
:10247000C70104C0CE0102C080E090E0DF91CF919F
:102480001F910F91FF90EF90DF90CF90BF90AF9092
:102490009F908F907F906F90089581E090E0F894E6
:1024A00010C0FB01DC0102C001900D924150504070
:1024B000D8F70895FB01DC0101900D920020E1F7AF
:1024C000089511E0C5E8D1E000E005C0802FFE01CD
:1024D000CBDD2196011DC638D10780E00807B1F792
:0424E000F894FFCF9E
:1024E400FF03FF03FF03FF03FF03FF03FF03FF03D8
:1024F4000000A104800000000000B40400044404AF
:10250400FA047504530467040000000023082F082C
:1025140072056F056C054E05000000000000000008
:102524007405D702D702D702000000003808440817
:102534008B058805760500000000000000008D056D
:10254400D702D70200000000E705D3059E058F05DA
:0E255400960593059005463A20000D0A0000FA
:00000001FF
