:100000002FC1000054C6000027C60000FAC500003A
:10001000CDC50000A0C5000073C5000046C50000A6
:1000200019C500004EC100004CC100004AC10000CB
:1000300048C1000046C1000044C1000042C10000A8
:1000400040C100003EC100003CC100003AC10000B8
:1000500038C1000036C1000034C10000B1C4000046
:1000600030C10000CAC600009FC600002AC10000BF
:1000700028C1000026C1000024C1000022C10000E8
:1000800020C100001EC100001CC100001AC10000F8
:1000900018C1000016C1000014C1000001C7000013
:1000A00010C100000EC100000CC100000AC1000018
:1000B00008C1000006C1000004C1000002C1000028
:1000C00000C10000FEC00000FCC0000044C60000EB
:1000D00019C60000F6C00000F4C00000F2C0000025
:1000E000F0C00000810386038B0395039F0318046F
:1000F000A903B103B903C303CD03D703E603F00398
:100100001804FA0304040E049B089E088D08910845
:100110009708D508A208A608AC08B008B408BA0821
:10012000BE08C208D508C808CC08D008590961091A
:10013000390941094909510969097109000021007A
:10014000240027002A002D003000330001010000A8
:10015000040107010A0100002200250028002B00ED
:100160002E003100340002010000050108010B01DE
:10017000000020002300260029002C002F00320060
:100180000001000003010601090105050505070539
:1001900008080808020202020A0A08080404040403
:1001A000010101010101010103030303030303032F
:1001B000040707070C0C0C0C0C0C0C0C02020202BE
:1001C00006060606060606060B0B0B0B0B0B0B0BA7
:1001D0000102102020080810204010204080020159
:1001E000020108040201010204081020408080403E
:1001F000201008040201800402018040201008043D
:1002000002010804020101020408102040800102DA
:1002100004081020408000000A0B02090C0D0E0893
:1002200007030401000000000000000000000000BF
:1002300000000000000000000000000000000000BE
:10024000000012111000000000000000000000007B
:100250000000000000000000000000000E0D050D71
:1002600011241FBECFEFD1E2DEBFCDBF00E00CBF37
:1002700024E0A6E8B2E001C01D92A93AB207E1F776
:1002800012E0A0E0B2E0EEE1F3E200E00BBF02C05A
:1002900007900D92A638B107D9F711E0CFE2D1E06F
:1002A00000E006C021970109802FFE010E94451041
:1002B000CE32D10780E00807A9F70E94050B0C9405
:1002C0007E119ECE0895CF92DF92EF92FF920F9310
:1002D0001F93CF93DF936C017A018B01C0E0D0E0D4
:1002E000CE15DF0589F0D8016D918D01D601ED9114
:1002F000FC910190F081E02DC6011995892B11F434
:100300007E0102C02196ECCFC701DF91CF911F91F2
:100310000F91FF90EF90DF90CF900895FC01A0899E
:10032000B1898C91A689B78982FD0FC09C91818D7E
:100330008F5F8F73228D821749F0218DDF01A20F0D
:10034000B11D5D969C93818F08958C910895FC0159
:10035000538D448D252F30E0842F90E0821B930B2A
:10036000541710F0CF96089501970895FC01918DD0
:10037000828D981761F0828DDF01A80FB11D5D9607
:100380008C91928D9F5F9F73928F90E008958FEF75
:100390009FEF0895FC01918D828D981731F0828D29
:1003A000E80FF11D858D90E008958FEF9FEF089580
:1003B000FC01918D228D892F90E0805C9F4F821BE4
:1003C00091098F739927089580E093E0F1DF21E090
:1003D000892B09F420E0822F08958DE993E0E8DF6E
:1003E00021E0892B09F420E0822F0895FC01848DFF
:1003F000DF01A80FB11DA35ABF4F2C91848D90E04F
:1004000001968F739927848FA689B7892C93A08929
:10041000B1898C9180648C93938D848D981306C0E0
:100420000288F389E02D80818F7D80830895EF928B
:10043000FF920F931F93CF93DF93EC0181E0888F9E
:100440009B8D8C8D981305C0E889F989808185FD85
:1004500023C0F62E0B8D10E00F5F1F4F0F73112777
:10046000E02E8C8DE8120BC00FB607FCFACFE8899E
:10047000F989808185FFF5CFCE01B8DFF2CF8B8D72
:10048000FE01E80FF11DE35AFF4FF0820B8FEA895E
:10049000FB898081806207C0EE89FF896083E889DB
:1004A000F98980818064808381E090E0DF91CF9141
:1004B0001F910F91FF90EF900895CF93DF93EC0180
:1004C000888D8823C1F0EA89FB89808185FD05C07C
:1004D000A889B9898C9186FD0EC00FB607FCF5CFAF
:1004E000808185FFF2CFA889B9898C9185FFEDCFF6
:1004F000CE017CDFE8CFDF91CF91089580E090E0DE
:10050000892B19F06ADF811120C080E090E0892BEF
:1005100041F080E090E0892B21F00E9400008111E1
:1005200017C080E090E0892B19F04EDF811113C0D5
:1005300080E090E0892BA1F080E090E0892B81F0B1
:100540000E94000081110AC008950E940000DDCFC2
:100550000E940000E6CF0E940000EACF0C94000049
:100560000895DC0113962C91139770E06150710986
:10057000269FF001279FF00D1124E40FF11D319704
:10058000EE0FFF1FEE0FFF1F14968D919C91159794
:10059000E80FF91F60817181828193810895FC01C8
:1005A00083810895FC018281089581E0089580E0AF
:1005B000089570E06150704C660F771F660F771FCB
:1005C000FC0183819481FC01E60FF71F608171813A
:1005D000828193810895FC018281089581E00895CC
:1005E00080E0089508958FEF9FEF08958FEF9FEFBC
:1005F00008958091F40290E0919581959109089574
:10060000089580E090E0089585ED8093BC0080918E
:10061000BC0084FDFCCF1092CE0208954091A80248
:10062000262F30E0240F311D21323105DCF42091DA
:10063000CE022430C9F4FC0180E090E0861758F423
:100640003091A8022191DC01AA57BD4FA30FB11D23
:100650002C930196F3CF8091A802680F6093A802B3
:1006600080E0089581E0089582E00895CF93DF93BC
:100670001F921F92CDB7DEB7CB01642F49835A83F7
:10068000CDDF4981842F5A81952F0F900F90DF91F4
:10069000CF910895CF93DF931F92CDB7DEB76983D3
:1006A00061E0CE010196BADF81E090E00F90DF912A
:1006B000CF9108951F93CF93DF93182FEB0161E043
:1006C00068D7209711F460E004C0CF3FD10531F422
:1006D00061E0812FDF91CF911F912CC7E12FF0E0D6
:1006E000EA5EFD4FE4914E2F50E0FA013197E2317E
:1006F000F10508F09DC08827EE58FF4F8F4F0C94EE
:10070000451084B5806884BDC7BD97C084B580623C
:1007100084BDC8BD92C080918000806880938000B5
:10072000D0938900C093880088C080918000806247
:1007300080938000D0938B00C0938A007EC080910C
:100740008000886080938000D0938D00C0938C00DF
:1007500074C08091B00080688093B000C093B300F3
:100760006CC08091B00080628093B000C093B400F0
:1007700064C080919000806880939000D09399002D
:10078000C09398005AC0809190008062809390003E
:10079000D0939B00C0939A0050C0809190008860D5
:1007A00080939000D0939D00C0939C0046C08091A0
:1007B000A00080688093A0008091A0008F7B809330
:1007C000A000D093A900C093A80037C08091A000DA
:1007D00080628093A000D093AB00C093AA002DC08C
:1007E0008091A00088608093A000D093AD00C0935A
:1007F000AC0023C080912001806880932001D093B9
:100800002901C093280119C0809120018062809342
:100810002001D0932B01C0932A010FC080912001A9
:10082000886080932001D0932D01C0932C0105C0D6
:10083000C038D1050CF04CCF46CFDF91CF911F913E
:100840000895CF93DF93EC01CB01BA0129853A8556
:100850004B855C850E94D10E0E94EA0F1616170682
:100860002CF4898127DF60E08A8107C0719561954A
:1008700071098A811FDF60E08981DF91CF915AC6BB
:10088000CF93DF93EC0161E0888183D661E08981B9
:1008900080D661E08A817DD660E08B817AD660E087
:1008A0008C8177D660E0888145D660E0898142D628
:1008B00060E08A81DF91CF913DC60E947A11CF938B
:1008C000DF93EC018C810ED6892B49F08B810AD6FF
:1008D0004D815E816F817885892B49F00DC08B81B8
:1008E00001D64D815E816F817885892B29F04F5F1C
:1008F0005F4F6F4F7F4F04C041505109610971092B
:100900004D835E836F837887DF91CF9108958BE469
:1009100094E0D5CF8AE394E0D2CFCF93DF93EC017C
:100920008B81E0D5892B49F08C81DCD54D815E81AE
:100930006F817885892B49F00DC08C81D3D54D818D
:100940005E816F817885892B29F0415051096109B9
:10095000710904C04F5F5F4F6F4F7F4F4D835E83C0
:100960006F837887DF91CF9108958BE494E0D5CFA2
:100970008AE394E0D2CF3FB7F8948091FC02909143
:10098000FD02A091FE02B091FF0226B5A89B05C012
:100990002F3F19F00196A11DB11D3FBFBA2FA92FFE
:1009A000982F8827820F911DA11DB11DBC01CD017B
:1009B00042E0660F771F881F991F4A95D1F7089567
:1009C0001F920F920FB60F9211242F933F938F9384
:1009D0009F93AF93BF938091F8029091F902A091F9
:1009E000FA02B091FB023091F70223E0230F2D377A
:1009F00020F40196A11DB11D05C026E8230F029623
:100A0000A11DB11D2093F7028093F8029093F90283
:100A1000A093FA02B093FB028091FC029091FD0238
:100A2000A091FE02B091FF020196A11DB11D80931D
:100A3000FC029093FD02A093FE02B093FF02BF91CF
:100A4000AF919F918F913F912F910F900FBE0F907B
:100A50001F9018951F920F920FB60F9211240BB68C
:100A60000F922F933F934F935F936F937F938F9347
:100A70009F93AF93BF93EF93FF93E0910E02F0919A
:100A80000F021995FF91EF91BF91AF919F918F91B7
:100A90007F916F915F914F913F912F910F900BBE7E
:100AA0000F900FBE0F901F9018951F920F920FB6C8
:100AB0000F9211240BB60F922F933F934F935F9396
:100AC0006F937F938F939F93AF93BF93EF93FF9316
:100AD000E0910C02F0910D021995FF91EF91BF91F9
:100AE000AF919F918F917F916F915F914F913F91C6
:100AF0002F910F900BBE0F900FBE0F901F90189567
:100B00001F920F920FB60F9211240BB60F922F93D4
:100B10003F934F935F936F937F938F939F93AF9385
:100B2000BF93EF93FF93E0910202F09103021995B6
:100B3000FF91EF91BF91AF919F918F917F916F91B5
:100B40005F914F913F912F910F900BBE0F900FBE71
:100B50000F901F9018951F920F920FB60F921124AD
:100B60000BB60F922F933F934F935F936F937F93A7
:100B70008F939F93AF93BF93EF93FF93E091000206
:100B8000F09101021995FF91EF91BF91AF919F9163
:100B90008F917F916F915F914F913F912F910F9026
:100BA0000BBE0F900FBE0F901F9018951F920F92C3
:100BB0000FB60F9211240BB60F922F933F934F93C2
:100BC0005F936F937F938F939F93AF93BF93EF93B5
:100BD000FF93E0910A02F0910B021995FF91EF91BA
:100BE000BF91AF919F918F917F916F915F914F9145
:100BF0003F912F910F900BBE0F900FBE0F901F9043
:100C000018951F920F920FB60F9211240BB60F92E8
:100C10002F933F934F935F936F937F938F939F9304
:100C2000AF93BF93EF93FF93E0910802F091090215
:100C30001995FF91EF91BF91AF919F918F917F9106
:100C40006F915F914F913F912F910F900BBE0F903D
:100C50000FBE0F901F9018951F920F920FB60F9214
:100C600011240BB60F922F933F934F935F936F9383
:100C70007F938F939F93AF93BF93EF93FF93E091F5
:100C80000602F09107021995FF91EF91BF91AF9184
:100C90009F918F917F916F915F914F913F912F9194
:100CA0000F900BBE0F900FBE0F901F9018951F92C4
:100CB0000F920FB60F9211240BB60F922F933F9302
:100CC0004F935F936F937F938F939F93AF93BF9354
:100CD000EF93FF93E0910402F09105021995FF91C3
:100CE000EF91BF91AF919F918F917F916F915F91A4
:100CF0004F913F912F910F900BBE0F900FBE0F9011
:100D00001F9018951F920F920FB60F9211240BB6D9
:100D10000F922F933F934F935F936F937F938F9394
:100D20009F93AF93BF93EF93FF9380E093E05EDBDD
:100D3000FF91EF91BF91AF919F918F917F916F91B3
:100D40005F914F913F912F910F900BBE0F900FBE6F
:100D50000F901F9018951F920F920FB60F921124AB
:100D60000BB60F922F933F934F935F936F937F93A5
:100D70008F939F93AF93BF93EF93FF9380E093E0A4
:100D8000CDDAFF91EF91BF91AF919F918F917F91BC
:100D90006F915F914F913F912F910F900BBE0F90EC
:100DA0000FBE0F901F9018951F920F920FB60F92C3
:100DB00011240BB60F922F933F934F935F936F9332
:100DC0007F938F939F93AF93BF93EF93FF938DE99F
:100DD00093E00CDBFF91EF91BF91AF919F918F91C9
:100DE0007F916F915F914F913F912F910F900BBE2B
:100DF0000F900FBE0F901F9018951F920F920FB675
:100E00000F9211240BB60F922F933F934F935F9342
:100E10006F937F938F939F93AF93BF93EF93FF93C2
:100E20008DE993E07BDAFF91EF91BF91AF919F91B4
:100E30008F917F916F915F914F913F912F910F9083
:100E40000BBE0F900FBE0F901F9018952CE232E052
:100E5000FC013183208384819581009711F00C94EB
:100E6000E2100895CF93DF93EC01F0DFCE01DF9124
:100E7000CF910C94E2102CE432E0FC01318320830A
:100E800083819481009711F00C94E2100895CF9320
:100E9000DF93EC01F0DFCE01DF91CF910C94E210F3
:100EA0001F920F920FB60F9211240BB60F922F9331
:100EB0003F934F935F936F937F938F939F93AF93E2
:100EC000BF93EF93FF938091B900887F803609F438
:100ED0009CC068F5883209F45BC090F4803109F455
:100EE00054C038F4882309F4F6C0883009F44DC0A2
:100EF000F5C0883109F44CC0803209F45DC0EEC001
:100F0000803409F468C048F4803309F455C088334C
:100F100009F0E4C08093CD02D8C0803509F44FC0F9
:100F2000883509F45DC0883409F0D8C0D6C0883946
:100F300009F4C7C0A8F4883709F467C038F48836C4
:100F400009F463C0803709F460C0C8C0883809F468
:100F5000B8C0803909F45FC0803809F0BFC05BC0F9
:100F6000803B09F486C038F4803A09F466C0883AB8
:100F700009F47FC0B3C0803C09F4A7C0883C09F4E1
:100F8000A4C0883B09F48AC0A9C08091F30210C0B4
:100F90009091F2028091F102981770F5E091F202BF
:100FA00081E08E0F8093F202F0E0EF52FD4F8081DE
:100FB0008093BB0085EC86C08093CD028EC0E0910B
:100FC000F20281E08E0F8093F2028091BB00F0E08C
:100FD000EF52FD4F80839091F2028091F1026EC03A
:100FE000E091F20281E08E0F8093F2028091BB00CB
:100FF000F0E0EF52FD4F80838091D00281116DC0EF
:1010000081E08093CF0284EA61C083E08093CE02C6
:101010001092CC02CFCF8091CC02803208F051C028
:10102000E091CC0281E08E0F8093CC028091BB00D6
:10103000F0E0E455FD4F8083BDCF85EC8093BC008C
:101040001092CE028091CC02803230F4E091CC023A
:10105000F0E0E455FD4F10826091CC0270E0E09129
:10106000AA02F091AB028CEA92E019951092CC02A0
:1010700035C084E08093CE021092A9021092A8029B
:10108000E091A602F091A70219958091A802811122
:1010900005C081E08093A80210928602E091A90227
:1010A00081E08E0F8093A902F0E0EA57FD4F808126
:1010B0008093BB009091A9028091A802981708F430
:1010C00079CF85E88093BC0009C085EC8093BC0093
:1010D0001092CE0203C01092CD0296DAFF91EF91EA
:1010E000BF91AF919F918F917F916F915F914F9140
:1010F0003F912F910F900BBE0F900FBE0F901F903E
:10110000189590E0FC013197E231F10508F04DC0EF
:101110008827EC57FF4F8F4FB8C7809180008F779B
:1011200003C0809180008F7D80938000089580911E
:101130008000877FF9CF84B58F7702C084B58F7D1B
:1011400084BD08958091B0008F7703C08091B00076
:101150008F7D8093B0000895809190008F7707C0B5
:10116000809190008F7D03C080919000877F809355
:10117000900008958091A0008F7707C08091A00013
:101180008F7D03C08091A000877F8093A000089589
:10119000809120018F7707C0809120018F7D03C04F
:1011A00080912001877F809320010895009761F04E
:1011B000FC0101900020E9F73197AF01481B590B62
:1011C000BC018DE993E07FC880E090E008958F92A4
:1011D0009F92AF92BF920F931F93CF93DF93CDB7A0
:1011E000DEB7A1970FB6F894DEBF0FBECDBF19A230
:1011F000423008F44AE08E010F5D1F4F842E912C7F
:10120000A12CB12CA50194011ED7E62FB901CA016A
:1012100001501109EA3014F4E05D01C0E95CD80125
:10122000EC93232B242B252B69F7C801BFDFA19654
:101230000FB6F894DEBF0FBECDBFDF91CF911F91E7
:101240000F91BF90AF909F908F900895E82FF0E09E
:10125000EE0FFF1FE050FE4F7183608390E08830F7
:10126000910508F045C0FC018827EA56FF4F8F4FD3
:101270000CC7809169008C7F816080936900E89A37
:10128000089580916900837F846080936900E99A62
:101290000895809169008F7C806180936900EA9A4B
:1012A0000895809169008F73806480936900EB9A40
:1012B000089580916A008C7F816080936A00EC9A27
:1012C000089580916A00837F846080936A00ED9A1C
:1012D000089580916A008F7C806180936A00EE9A05
:1012E000089580916A008F73806480936A00EF9AFA
:1012F000089586E792E05ACF4F925F926F927F9265
:101300008F929F92AF92BF92CF92DF92EF92FF9215
:101310006B017C019B01AC0192D6882319F089E70F
:1013200092E018C046015701E894B7F82FEF3FEF5D
:101330004FE75FE7C501B40182D681110EC02FEFE0
:101340003FEF4FE75FE7C501B401C6D418162CF490
:101350008DE792E02BDF7C017FC02FEF3FEF4FE75F
:101360005FE4C701B60167D618161CF481E892E065
:10137000F1CF2FEF3FEF4FE75FECC701B601ACD4E1
:1013800087FDF4CF20E030E0A901C701B601A4D465
:1013900087FF11C0E0919D03F0919E030190F081C1
:1013A000E02D6DE28DE993E019955C01F7FAF09478
:1013B000F7F8F09402C0A12CB12C2AE037ED43EAF3
:1013C0005BE3C701B601A2D52B013C0108D66B0136
:1013D0007C0186D49B01AC01C301B20196D52B01DF
:1013E0003C014AE0C701B601F2DE7C01EA0CFB1CBD
:1013F000E0919D03F0919E030190F081E02D6EE25B
:101400008DE993E01995E80EF91E20E030E040E206
:1014100051E4C301B201C5D42B013C01E0D54B011D
:10142000A12CB12C4AE0C501B401D1DEE80EF91EB1
:10143000C501B40155D49B01AC01C301B20165D50E
:1014400020E030E040E251E4ACD4C9D580E090E047
:101450004AE0BDDEE80EF91E4CDF8E0D9F1DFF90A9
:10146000EF90DF90CF90BF90AF909F908F907F9044
:101470006F905F904F9008958F929F92AF92BF921E
:10148000CF92DF92EF92FF9276DA4B015C0188EE09
:10149000C82E83E0D82EE12CF12C6DDADC01CB01D3
:1014A00088199909AA09BB09883E9340A105B1058D
:1014B00058F021E0C21AD108E108F10888EE880E40
:1014C00083E0981EA11CB11CC114D104E104F104F5
:1014D00021F7FF90EF90DF90CF90BF90AF909F905B
:1014E0008F900895CF93DF93282F30E0F901EA5EC3
:1014F000FD4F8491F901E053FE4FD491F901E65775
:10150000FE4FC491CC2389F08111FBDDEC2FF0E07C
:10151000EE0FFF1FE059FE4FA591B491EC91ED2322
:1015200081E090E021F480E002C080E090E0DF9173
:10153000CF9108951F93CF93DF93282F30E0F901C7
:10154000EA5EFD4F8491F901E053FE4FD491F90119
:10155000E657FE4FC491CC23C1F0162F8111D1DD87
:10156000EC2FF0E0EE0FFF1FEA5AFE4FA591B49169
:101570008FB7F894111105C09C91ED2FE095E923E8
:1015800002C0EC91ED2BEC938FBFDF91CF911F91B7
:101590000895CF93DF9390E0FC01E053FE4F249138
:1015A000FC01E657FE4F8491882361F190E0880F9B
:1015B000991FFC01E45CFE4FC591D491FC01EA5AED
:1015C000FE4FA591B491611109C09FB7F89488812D
:1015D000209582238883EC912E230BC0623061F426
:1015E0009FB7F8943881822F809583238883EC916C
:1015F0002E2B2C939FBF06C08FB7F894E8812E2B1B
:1016000028838FBFDF91CF910895789484B582604D
:1016100084BD84B5816084BD85B5826085BD85B596
:10162000816085BD80916E00816080936E00109214
:10163000810080918100826080938100809181008F
:101640008160809381008091800081608093800020
:101650008091B10084608093B1008091B00081607E
:101660008093B0008091910082608093910080917E
:1016700091008160809391008091900081608093BF
:1016800090008091A10082608093A1008091A100D0
:1016900081608093A1008091A00081608093A00070
:1016A00080912101826080932101809121018160DC
:1016B000809321018091200181608093200180919D
:1016C0007A00846080937A0080917A0082608093AF
:1016D0007A0080917A00816080937A0080917A000C
:1016E000806880937A001092C1008091F502811188
:1016F00042C081E08093F5028AE394E0C1D861E0C2
:1017000080913A0417DF20913D04223059F02330B4
:1017100061F08EEE820F843058F487E190E0821BF6
:10172000910908C080E090E005C081E090E002C02F
:101730008FEF9FEF883018F468EB74E087DD20911D
:101740003E04223059F0233061F08EEE820F843057
:1017500058F487E190E0821B910908C080E090E096
:1017600005C081E090E002C08FEF9FEF883018F451
:101770006AE874E06BDD8091F602811142C081E07D
:101780008093F6028BE494E07BD861E080914B0477
:10179000D1DE20914E04223059F0233061F08EEEDC
:1017A000820F843058F487E190E0821B910908C0D1
:1017B00080E090E005C081E090E002C08FEF9FEFF5
:1017C000883018F465EB74E041DD20914F0422303D
:1017D00059F0233061F08EEE820F843058F487E1A7
:1017E00090E0821B910908C080E090E005C081E094
:1017F00090E002C08FEF9FEF883018F467E874E044
:1018000025DDE091AD03F091AE0382E08083E091AD
:10181000A903F091AA031082E091AB03F091AC030D
:1018200080E180831092B503E091B103F091B2039F
:1018300086E08083E091AF03F091B0038081806106
:101840008083E091AF03F091B00380818860808352
:10185000E091AF03F091B003808180688083E091D4
:10186000AF03F091B00380818F7D808340E050E032
:1018700060E471E48AE394E00E942104FDDD60915C
:101880003F047091400480914104909142042AD217
:1018900020914704309148044091490450914A04F2
:1018A00080D22ADD609150047091510480915204DD
:1018B0009091530417D220915804309159044091CB
:1018C0005A0450915B046DD217DD13DD40E050E007
:1018D00060E471EC8AE394E00E942104CDDD40E0F5
:1018E00050E0BA018AE394E00E94210460913F0431
:1018F000709140048091410490914204F3D1209171
:101900004704309148044091490450914A0449D217
:10191000F3DC6091500470915104809152049091D5
:101920005304E0D1209158043091590440915A0455
:1019300050915B0436D2E0DCDCDC40E050E060E457
:1019400071E48BE494E00E94210496DD60913F04F1
:10195000709140048091410490914204C3D1209140
:101960004704309148044091490450914A0419D2E7
:10197000C3DC6091500470915104809152049091A5
:101980005304B0D1209158043091590440915A0425
:1019900050915B0406D2B0DCACDC40E050E060E487
:1019A00071EC8BE494E00E94210466DD40E050E09D
:1019B000BA018BE494E00E94210460913F0470918D
:1019C000400480914104909142048CD120914704BD
:1019D000309148044091490450914A04E2D18CDC92
:1019E000609150047091510480915204909153047D
:1019F00079D1209158043091590440915A04509162
:101A00005B04CFD179DC75DCFFCF85E694E01EDA8C
:101A10008BE694E030DA80E794E02DCA4F925F9233
:101A20006F927F929F92AF92BF92CF92DF92EF928E
:101A3000FF920F931F93CF93DF93C0E0D3E01B82FD
:101A40001A8288EE482E83E0582E612C712C4C822D
:101A50005D826E827F828AE192E09983888325EDA0
:101A600030E03D872C8724ED30E03F872E8720ED46
:101A700030E0398B288B21ED30E03B8B2A8B22ED37
:101A800030E03D8B2C8B26ED30E03F8B2E8B198E7A
:101A90001A8E1B8E1C8EEDE9F3E0138212824482B3
:101AA0005582668277829183808385EC90E095876A
:101AB000848784EC90E09787868780EC90E0918B18
:101AC000808B81EC90E0938B828B82EC90E0958B05
:101AD000848B86EC90E0978B868B118E128E138E02
:101AE000148E8DE090E09093760480937504A5E8C1
:101AF000B4E016961D921D921D921C921997119694
:101B0000FC93EE93C12C92ECD92EEE24E394F12CAD
:101B10001296CD92DD92ED92FC921597A7E7B4E074
:101B20001A961D921D921D921C921D971196FC9360
:101B3000EE931296CD92DD92ED92FC921597169649
:101B4000CD92DD92ED92FC921997EAE3F4E01582D2
:101B500016821782108688E0808389E081838AE07C
:101B6000828383E0838322E0922E948240E050E0DF
:101B70006AEA71E441875287638774878DEF9DEA33
:101B8000A0E0BBE385879687A787B08BEBE4F4E002
:101B9000158216821782108625E0208327E0218394
:101BA00026E0228323E1238322E124834187528795
:101BB0006387748785879687A787B08B00E714E0D3
:101BC0003CE4A32E32E0B32ED8011196BC92AE9223
:101BD00012969C9288E090E060D2F801948383830F
:101BE000DC011D921D921D921C921397FC01148220
:101BF0001582168217820BE614E0D8011196BC926A
:101C0000AE9212969C9288E090E047D2F8019483BD
:101C10008383DC011D921D921D921C921397FC017F
:101C2000148215821682178205E614E08CE292E097
:101C3000D80111969C938E9312969C9212971396AC
:101C40009C9280E190E029D2FC01D80115969C93EA
:101C50008E9314971082118212821382148215823D
:101C600016821782108611861286138614861586B0
:101C700016861786ECE5F4E01182108281E08283FB
:101C800083E090E090878783EFE8F4E01682178284
:101C900010861186D183C083C282D382E482F5820A
:101CA000E9E9F4E0138212824482558266827782E7
:101CB00088E692E091838083DF91CF911F910F910D
:101CC000FF90EF90DF90CF90BF90AF909F907F906C
:101CD0006F905F904F90089540D008F481E0089590
:101CE000E89409C097FB3EF49095809570956195B6
:101CF0007F4F8F4F9F4F9923A9F0F92F96E9BB276C
:101D00009395F695879577956795B795F111F8CFE7
:101D1000FAF4BB0F11F460FF1BC06F5F7F4F8F4F52
:101D20009F4F16C0882311F096E911C0772321F048
:101D30009EE8872F762F05C0662371F096E8862FE0
:101D400070E060E02AF09A95660F771F881FDAF737
:101D5000880F9695879597F90895990F0008550F64
:101D6000AA0BE0E8FEEF16161706E807F907C0F021
:101D700012161306E407F50798F0621B730B840B29
:101D8000950B39F40A2661F0232B242B252B21F403
:101D900008950A2609F4A140A6958FEF811D811DA3
:101DA00008950BD078C069D028F06ED018F0952334
:101DB00009F05AC05FC01124A2C07ED0A0F3959F45
:101DC000D1F3950F50E0551F629FF001729FBB2722
:101DD000F00DB11D639FAA27F00DB11DAA1F649FCE
:101DE0006627B00DA11D661F829F2227B00DA11D81
:101DF000621F739FB00DA11D621F839FA00D611D07
:101E0000221F749F3327A00D611D231F849F600D27
:101E1000211D822F762F6A2F11249F5750408AF060
:101E2000E1F088234AF0EE0FFF1FBB1F661F771FEC
:101E3000881F91505040A9F79E3F510570F014C083
:101E40005EC05F3FECF3983EDCF38695779567952F
:101E5000B795F795E7959F5FC1F7FE2B880F911D0A
:101E60009695879597F9089597F99F6780E870E0B0
:101E700060E008959FEF80EC089500240A94161600
:101E8000170618060906089500240A941216130668
:101E9000140605060895092E0394000C11F48823F6
:101EA00052F0BB0F40F4BF2B11F460FF04C06F5F12
:101EB0007F4F8F4F9F4F089557FD9058440F551FE8
:101EC00059F05F3F71F04795880F97FB991F61F0BC
:101ED0009F3F79F087950895121613061406551F33
:101EE000F2CF4695F1DF08C0161617061806991F9F
:101EF000F1CF86957105610508940895E894BB2794
:101F000066277727CB0197F908955058BB27AA2752
:101F10000ED0C1CFB2DF30F0B7DF20F031F49F3FF9
:101F200011F41EF4A7CF0EF4E095E7FB9DCFE92F47
:101F3000C3DF80F3BA17620773078407950718F0A9
:101F400071F49EF5DBCF0EF4E0950B2EBA2FA02D89
:101F50000B01B90190010C01CA01A0011124FF2756
:101F6000591B99F0593F50F4503E68F11A16F04051
:101F7000A22F232F342F4427585FF3CF4695379550
:101F80002795A795F0405395C9F77EF41F16BA0B15
:101F9000620B730B840BBAF09150A1F0FF0FBB1FC3
:101FA000661F771F881FC2F70EC0BA0F621F731F0C
:101FB000841F48F4879577956795B795F7959E3F69
:101FC00008F0B3CF9395880F08F09927EE0F9795F7
:101FD0008795089504D06894B11191CF089574DF66
:101FE00088F09F5790F0B92F9927B751A0F0D1F002
:101FF000660F771F881F991F1AF0BA95C9F712C08C
:10200000B13081F07BDFB1E0089578CF672F782F72
:102010008827B85F39F0B93FCCF3869577956795F7
:10202000B395D9F73EF490958095709561957F4F63
:102030008F4F9F4F089591DE08F48FEF08958DDE46
:10204000880B990B0895A1E21A2EAA1BBB1BFD0158
:102050000DC0AA1FBB1FEE1FFF1FA217B307E40787
:10206000F50720F0A21BB30BE40BF50B661F771FDF
:10207000881F991F1A9469F76095709580959095BF
:102080009B01AC01BD01CF010895EE0FFF1F881F1A
:102090008BBF0790F691E02D1994CF93DF93823098
:1020A000910510F482E090E0E091A704F091A8047B
:1020B00020E030E0C0E0D0E0309711F14081518164
:1020C00048175907C0F04817590761F48281938176
:1020D000209719F09B838A832BC09093A804809348
:1020E000A70426C02115310519F04217530718F42B
:1020F0009A01BE01DF01EF010280F381E02DDCCF08
:102100002115310509F1281B390B2430310590F4D4
:1021100012968D919C9113976115710521F0FB0129
:102120009383828304C09093A8048093A704FD0145
:10213000329644C0FD01E20FF31F81939193225028
:1021400031092D933C933AC02091A5043091A60407
:10215000232B41F420911202309113023093A604F4
:102160002093A50420911002309111022115310510
:1021700041F42DB73EB74091140250911502241B33
:10218000350BE091A504F091A604E217F307A0F443
:102190002E1B3F0B2817390778F0AC014E5F5F4FBD
:1021A0002417350748F04E0F5F1F5093A604409345
:1021B000A5048193919302C0E0E0F0E0CF01DF91AC
:1021C000CF9108950F931F93CF93DF93009709F456
:1021D0008CC0FC013297138212820091A7041091E7
:1021E000A8040115110581F420813181820F931F0C
:1021F0002091A5043091A6042817390779F5F093AA
:10220000A604E093A50471C0D80140E050E0AE17E9
:10221000BF0750F412962D913C911397AD012115F3
:10222000310509F1D901F3CF9D01DA01338322830E
:1022300060817181860F971F8217930769F4EC0103
:1022400028813981260F371F2E5F3F4F318320832E
:102250008A819B8193838283452B29F4F093A80480
:10226000E093A70442C01396FC93EE931297ED01FE
:10227000499159919E01240F351FE217F30771F41C
:1022800080819181840F951F029611969C938E9365
:102290008281938113969C938E931297E0E0F0E0F5
:1022A000D80112968D919C911397009719F0F8011F
:1022B0008C01F6CF8D919C9198012E5F3F4F820F3C
:1022C000931F2091A5043091A6042817390769F4BB
:1022D000309729F41092A8041092A70402C0138228
:1022E00012821093A6040093A504DF91CF911F9151
:1022F0000F91089581E090E0F89400C011E0CFE2E2
:10230000D1E000E005C0802FFE01BFDE2196011D57
:0E231000C033D10780E00807B1F7F894FFCF83
:10231E006201620162016201620162016201620197
:10232E000000A90480000000000017026301A7014D
:10233E005D02D801B601CA0100000000260732076F
:10234E00D502D202CF02B102000000000000000050
:10235E00D7025D045D045D04000000003B074707E3
:10236E00EE02EB02D9020000000000000000F002B5
:10237E005D045D04000000004A0336030103F2020F
:10238E00F902F602F3020D0A006E616E00696E66C6
:06239E00006F76660000EE
:00000001FF
