:1000000007C1000083C3000056C3000029C30000DD
:10001000FCC20000CFC20000A2C2000075C20000F6
:1000200048C2000023C1000021C100001FC1000020
:100030001DC100001BC1000019C1000017C1000054
:1000400015C1000013C1000011C100000FC1000064
:100050000DC100000BC1000009C10000E0C100009B
:1000600005C1000003C1000001C10000FFC0000085
:10007000FDC00000FBC00000F9C00000F7C0000098
:10008000F5C00000F3C00000F1C00000EFC00000A8
:10009000EDC00000EBC00000E9C00000E7C00000B8
:1000A000E5C00000E3C00000E1C00000DFC00000C8
:1000B000DDC00000DBC00000D9C00000D7C00000D8
:1000C000D5C00000D3C00000D1C00000CFC00000E8
:1000D000CDC00000CBC00000C9C00000C7C00000F8
:1000E000C5C0000062016501540158015C019C011A
:1000F00069016D01730177017B018101850189012E
:100100009C018F019301970100002100240027002A
:100110002A002D0030003300010100000401070116
:100120000A0100002200250028002B002E003100CB
:10013000340002010000050108010B010505050559
:10014000070508080808020202020A0A080804044F
:10015000040401010101010101010303030303037D
:100160000303040707070C0C0C0C0C0C0C0C02020C
:10017000020206060606060606060B0B0B0B0B0B09
:100180000B0B010210202008081020401020408096
:10019000020102010804020101020408102040804B
:1001A00080402010080402018004020180402010D9
:1001B0000804020108040201010204081020408022
:1001C000010204081020408000000A0B02090C0DF7
:1001D0000E080703040100000000000000000000FA
:1001E000000000000000000000000000000000000F
:1001F00000000000121110000000000000000000CC
:100200000000000000000000000000000000B1033A
:1002100011241FBECFEFD1E2DEBFCDBF00E00CBF87
:1002200012E0A0E0B2E0E4E1F9E000E00BBF02C0C0
:1002300007900D92A031B107D9F722E0A0E1B2E01A
:1002400001C01D92AB33B207E1F711E0C8E0D1E085
:1002500000E005C021970109802FFE0151D3C7306E
:10026000D10780E00807B1F7ABD252C3C9CECF9314
:10027000C82FE5EDF1E04491EFE8F1E02491E9E4E5
:10028000F1E09491992309F46AC0442309F454C01D
:1002900050E0FA013197E231F10508F04DC08827AE
:1002A000EE58FF4F8F4F2CC3809180008F7707C08F
:1002B000809180008F7D03C080918000877F809334
:1002C00080003AC084B58F7702C084B58F7D84BD2D
:1002D00033C08091B0008F7703C08091B0008F7DD4
:1002E0008093B00029C0809190008F7707C08091E3
:1002F00090008F7D03C080919000877F8093900055
:100300001BC08091A0008F7707C08091A0008F7DD7
:1003100003C08091A000877F8093A0000DC0309122
:1003200020013F7707C0309120013F7D03C030910D
:100330002001377F30932001E92FF0E0EE0FFF1FFF
:10034000EE5DFE4FA591B4918FB7F894EC91C11179
:1003500003C020952E2301C02E2B2C938FBFCF914D
:1003600008953FB7F8948091150290911602A091DC
:100370001702B091180226B5A89B05C02F3F19F0AF
:100380000196A11DB11D3FBFBA2FA92F982F882715
:10039000820F911DA11DB11DBC01CD0142E0660F70
:1003A000771F881F991F4A95D1F708958F929F92C2
:1003B000AF92BF92CF92DF92EF92FF926B017C01DE
:1003C000D0DF4B015C01C114D104E104F104E9F078
:1003D000C8DFDC01CB0188199909AA09BB09883E4D
:1003E0009340A105B10578F321E0C21AD108E108D4
:1003F000F10888EE880E83E0981EA11CB11CC11480
:10040000D104E104F10421F7DECFFF90EF90DF90FB
:10041000CF90BF90AF909F908F90089508951F92B6
:100420000F920FB60F9211242F933F938F939F93A8
:10043000AF93BF938091110290911202A091130289
:10044000B09114023091100223E0230F2D3720F4D5
:100450000196A11DB11D05C026E8230F0296A11D1E
:10046000B11D209310028093110290931202A09369
:100470001302B09314028091150290911602A0917C
:100480001702B09118020196A11DB11D80931502AB
:1004900090931602A0931702B0931802BF91AF91E8
:1004A0009F918F913F912F910F900FBE0F901F90B2
:1004B00018951F920F920FB60F9211240BB60F9240
:1004C0002F933F934F935F936F937F938F939F935C
:1004D000AF93BF93EF93FF93E0910E02F0910F0261
:1004E0001995FF91EF91BF91AF919F918F917F915E
:1004F0006F915F914F913F912F910F900BBE0F9095
:100500000FBE0F901F9018951F920F920FB60F926B
:1005100011240BB60F922F933F934F935F936F93DA
:100520007F938F939F93AF93BF93EF93FF93E0914C
:100530000C02F0910D021995FF91EF91BF91AF91CF
:100540009F918F917F916F915F914F913F912F91EB
:100550000F900BBE0F900FBE0F901F9018951F921B
:100560000F920FB60F9211240BB60F922F933F9359
:100570004F935F936F937F938F939F93AF93BF93AB
:10058000EF93FF93E0910202F09103021995FF911E
:10059000EF91BF91AF919F918F917F916F915F91FB
:1005A0004F913F912F910F900BBE0F900FBE0F9068
:1005B0001F9018951F920F920FB60F9211240BB631
:1005C0000F922F933F934F935F936F937F938F93EC
:1005D0009F93AF93BF93EF93FF93E0910002F0914D
:1005E00001021995FF91EF91BF91AF919F918F916A
:1005F0007F916F915F914F913F912F910F900BBE23
:100600000F900FBE0F901F9018951F920F920FB66C
:100610000F9211240BB60F922F933F934F935F933A
:100620006F937F938F939F93AF93BF93EF93FF93BA
:10063000E0910A02F0910B021995FF91EF91BF91A1
:10064000AF919F918F917F916F915F914F913F916A
:100650002F910F900BBE0F900FBE0F901F9018950B
:100660001F920F920FB60F9211240BB60F922F9379
:100670003F934F935F936F937F938F939F93AF932A
:10068000BF93EF93FF93E0910802F091090219954F
:10069000FF91EF91BF91AF919F918F917F916F915A
:1006A0005F914F913F912F910F900BBE0F900FBE16
:1006B0000F901F9018951F920F920FB60F92112452
:1006C0000BB60F922F933F934F935F936F937F934C
:1006D0008F939F93AF93BF93EF93FF93E0910602A5
:1006E000F09107021995FF91EF91BF91AF919F9102
:1006F0008F917F916F915F914F913F912F910F90CB
:100700000BBE0F900FBE0F901F9018951F920F9267
:100710000FB60F9211240BB60F922F933F934F9366
:100720005F936F937F938F939F93AF93BF93EF9359
:10073000FF93E0910402F09105021995FF91EF916A
:10074000BF91AF919F918F917F916F915F914F91E9
:100750003F912F910F900BBE0F900FBE0F901F90E7
:100760001895E9E1F2E01582168217821086108250
:10077000118212821382148240E050E06AEA71E42E
:1007800041875287638774878DEF9DEAA0E0BBE3C2
:1007900085879687A787B08BEAE2F2E015821682FA
:1007A000178210861082118212821382148241876E
:1007B00052876387748785879687A787B08B08954C
:1007C000789484B5826084BD84B5816084BD85B52C
:1007D000826085BD85B5816085BD80916E00816038
:1007E00080936E00109281008091810082608093DE
:1007F00081008091810081608093810080918000E0
:100800008160809380008091B10084608093B1000A
:100810008091B00081608093B000809191008260EF
:1008200080939100809191008160809391008091EC
:1008300090008160809390008091A10082608093FD
:10084000A1008091A10081608093A1008091A0000F
:1008500081608093A00080912101826080932101BA
:10086000809121018160809321018091200181602C
:100870008093200180917A00846080937A00809137
:100880007A00826080937A0080917A008160809300
:100890007A0080917A00806880937A001092C1007B
:1008A000EFE8F1E02491E9E4F1E08491882399F004
:1008B00090E0880F991FFC01E85FFE4FA591B4916D
:1008C000FC01EE5DFE4F859194918FB7F894EC9109
:1008D000E22BEC938FBFC0E0D0E081E0C8DC64E69F
:1008E00070E080E090E062DD80E0C1DC60E971E012
:1008F00080E090E05BDD209781F30E940000EDCF67
:10090000EE0FFF1F881F8BBF0790F691E02D199403
:04091000F894FFCF89
:100914000E020E020E020E020E020E020E020E0253
:00000001FF
