:1000000008C10000D2C50000A5C5000078C50000E9
:100010004BC500001EC50000F1C40000C4C40000B0
:1000200097C4000027C1000025C1000023C10000C3
:1000300021C100001FC100001DC100001BC1000044
:1000400019C1000017C1000015C1000013C1000054
:1000500011C100000FC100000DC100002FC400003D
:1000600009C1000048C600001DC6000003C1000011
:1000700001C10000FFC00000FDC00000FBC0000087
:10008000F9C00000F7C00000F5C00000F3C0000098
:10009000E0C50000B5C50000EDC000008AC6000044
:1000A000E9C00000E7C00000E5C00000E3C00000B8
:1000B000E1C00000DFC00000DDC00000DBC00000C8
:1000C000D9C00000D7C00000D5C00000D3C00000D8
:1000D000D1C00000CFC00000CDC00000CBC00000E8
:1000E000C9C00000270A2A0A190A1D0A210A610A42
:1000F0002E0A320A380A3C0A400A460A4A0A4E0ABE
:10010000610A540A580A5C0A00000A0B02090C0D25
:100110000E080703040100000000000000000000BA
:1001200000000000000000000000000000000000CF
:10013000000000001211100000000000000000008C
:1001400000000000000000000000000000000000AF
:100150002200250028002B002E003100340002016F
:100160000000050108010B01000021002400270008
:100170002A002D00300033000101000004010701B6
:100180000A0105050505070508080808020202021C
:100190000A0A080804040404010101010101010123
:1001A0000303030303030303040707070C0C0C0CEE
:1001B0000C0C0C0C020202020606060606060606D7
:1001C0000B0B0B0B0B0B0B0B010210202008081064
:1001D00020401020408002010201080402010102B7
:1001E0000408102040808040201008040201800490
:1001F00002018040201008040201080402010102EB
:100200000408102040800102040810204080B20C35
:10021000750A11241FBECFEFD1E2DEBFCDBF00E0D3
:100220000CBF24E0A6E8B2E001C01D92A63FB207D1
:10023000E1F712E0A0E0B2E0E4EBF1E200E00BBF96
:1002400002C007900D92A638B107D9F711E0C8E0B7
:10025000D1E000E006C021970109802FFE010E9435
:10026000900FC730D10780E00807A9F70E947E0AE7
:100270000C94C910C5CE3FB7F8948091EA029091D2
:10028000EB02A091EC02B091ED0226B5A89B05C04F
:100290002F3F19F00196A11DB11D3FBFBA2FA92F05
:1002A000982F8827820F911DA11DB11DBC01CD0182
:1002B00042E0660F771F881F991F4A95D1F708956E
:1002C0008F929F92AF92BF92CF92DF92EF92FF9266
:1002D0006B017C01D0DF4B015C01C114D104E1044E
:1002E000F104E9F0C8DFDC01CB0188199909AA09FA
:1002F000BB09883E9340A105B10578F321E0C21AFD
:10030000D108E108F10888EE880E83E0981EA11C50
:10031000B11CC114D104E104F10421F7DECFFF9038
:10032000EF90DF90CF90BF90AF909F908F90089507
:100330000895CF92DF92EF92FF920F931F93CF9386
:10034000DF936C017A018B01C0E0D0E0CE15DF05B0
:1003500089F0D8016D918D01D601ED91FC9101904C
:10036000F081E02DC6011995892B11F47E0102C0A0
:100370002196ECCFC701DF91CF911F910F91FF9094
:10038000EF90DF90CF900895FC01A089B1898C9106
:10039000A689B78982FD0FC09C91818D8F5F8F7375
:1003A000228D821749F0218DDF01A20FB11D5D96CC
:1003B0009C93818F08958C910895FC01538D448DF9
:1003C000252F30E0842F90E0821B930B541710F000
:1003D000CF96089501970895FC01918D828D98170D
:1003E00061F0828DDF01A80FB11D5D968C91928D19
:1003F0009F5F9F73928F90E008958FEF9FEF089516
:10040000FC01918D828D981731F0828DE80FF11DDE
:10041000858D90E008958FEF9FEF0895FC01918DF9
:10042000228D892F90E0805C9F4F821B91098F73F2
:10043000992708958AE593E0F1DF21E0892B09F4FB
:1004400020E0822F089587EF93E0E8DF21E0892BF9
:1004500009F420E0822F0895FC01848DDF01A80FAC
:10046000B11DA35ABF4F2C91848D90E001968F73DC
:100470009927848FA689B7892C93A089B1898C91FB
:1004800080648C93938D848D981306C00288F389C1
:10049000E02D80818F7D80830895EF92FF920F93EE
:1004A0001F93CF93DF93EC0181E0888F9B8D8C8D20
:1004B000981305C0E889F989808185FD23C0F62E4F
:1004C0000B8D10E00F5F1F4F0F731127E02E8C8DE7
:1004D000E8120BC00FB607FCFACFE889F9898081D2
:1004E00085FFF5CFCE01B8DFF2CF8B8DFE01E80F8F
:1004F000F11DE35AFF4FF0820B8FEA89FB8980815F
:10050000806207C0EE89FF896083E889F98980816C
:100510008064808381E090E0DF91CF911F910F9103
:10052000FF90EF900895CF93DF93EC01888D88239F
:10053000C1F0EA89FB89808185FD05C0A889B98958
:100540008C9186FD0EC00FB607FCF5CF808185FF2C
:10055000F2CFA889B9898C9185FFEDCFCE017CDFE0
:10056000E8CFDF91CF91089580E090E0892B19F0DA
:100570006ADF811120C080E090E0892B19F05ADFFA
:1005800081111CC080E090E0892B41F080E090E078
:10059000892B21F00E940000811113C080E090E0BF
:1005A000892BA1F080E090E0892B81F00E9400006F
:1005B00081110AC008950E940000DDCF0E94000052
:1005C000E1CF0E940000EACF0C94000008958F92C2
:1005D0009F92AF92BF92CF92DF92EF92FF920F93D2
:1005E0001F93CF93DF93EC018B0169017A0143DE06
:1005F0006E837F83888799873EDE8E809F80A88464
:10060000B984681979098A099B090E94F00D2DEBBC
:1006100037E346E855E30E94510EA70196010E9478
:100620006A0F87FF0EC088819981DC01ED91FC91F2
:100630000084F185E02D199580179107ECF281E097
:1006400001C080E0DF91CF911F910F91FF90EF905B
:10065000DF90CF90BF90AF909F908F900895DC0176
:1006600013962C91139770E061507109269FF00149
:10067000279FF00D1124E40FF11D3197EE0FFF1F9E
:10068000EE0FFF1F14968D919C911597E80FF91F9F
:1006900060817181828193810895FC018381089535
:1006A000FC018281089581E0089580E0089570E062
:1006B0006150704C660F771F660F771FFC018381B6
:1006C0009481FC01E60FF71F608171818281938123
:1006D0000895FC018281089581E0089580E00895E5
:1006E0000895E091EF028091EE02E81730F4F0E017
:1006F000E051FD4F808190E008958FEF9FEF0895C6
:100700009091EF028091EE02981750F4E92FF0E0FB
:10071000E051FD4F208130E09F5F9093EF0202C0D7
:100720002FEF3FEFC90108958091EE0290E02091F4
:10073000EF02821B91090895089580E090E00895EA
:1007400085ED8093BC008091BC0084FDFCCF1092AD
:10075000360308954091A802262F30E0240F311D62
:1007600021323105DCF4209136032430C9F4FC0138
:1007700080E090E0861758F43091A8022191DC01C6
:10078000AA57BD4FA30FB11D2C930196F3CF8091B3
:10079000A802680F6093A80280E0089581E00895A0
:1007A00082E00895CF92DF92EF92FF920F931F9312
:1007B000CF93DF937C01262F972F8A0180913703F7
:1007C000882391F0C62FD72F6E01C40ED51ECC15ED
:1007D000DD0569F06991D701ED91FC910190F081FF
:1007E000E02DC7011995F3CF642F822FB3DFC80125
:1007F000DF91CF911F910F91FF90EF90DF90CF90FD
:100800000895CF93DF931F92CDB7DEB76983209110
:1008100037032223D1F020915903203240F021E008
:1008200030E0FC013383228380E090E014C08091AB
:100830003803E82FF0E0E75CFC4F998190838F5FED
:10084000809338038093590304C061E0CE01019680
:1008500081DF81E090E00F90DF91CF910895D82F54
:10086000C1E0DC17A0F061E080919404C2D564E699
:1008700070E080E090E024DD60E080919404B9D5E0
:100880006AEF70E080E090E01BDDCF5FEACF68EEBA
:1008900073E080E090E014DDE3CF8091CD02811120
:1008A0000AC081E08093CD028091940410D460E06E
:1008B000809194049EC508950E94C5101F920F92C6
:1008C0000FB60F9211242F933F938F939F93AF9363
:1008D000BF938091E6029091E702A091E802B09167
:1008E000E9023091E50223E0230F2D3720F4019631
:1008F000A11DB11D05C026E8230F0296A11DB11D43
:100900002093E5028093E6029093E702A093E80229
:10091000B093E9028091EA029091EB02A091EC027F
:10092000B091ED020196A11DB11D8093EA02909352
:10093000EB02A093EC02B093ED02BF91AF919F91B7
:100940008F913F912F910F900FBE0F901F90189590
:100950001F920F920FB60F9211240BB60F922F9386
:100960003F934F935F936F937F938F939F93AF9337
:10097000BF93EF93FF93E0910E02F0910F02199550
:10098000FF91EF91BF91AF919F918F917F916F9167
:100990005F914F913F912F910F900BBE0F900FBE23
:1009A0000F901F9018951F920F920FB60F9211245F
:1009B0000BB60F922F933F934F935F936F937F9359
:1009C0008F939F93AF93BF93EF93FF93E0910C02AC
:1009D000F0910D021995FF91EF91BF91AF919F9109
:1009E0008F917F916F915F914F913F912F910F90D8
:1009F0000BBE0F900FBE0F901F9018951F920F9275
:100A00000FB60F9211240BB60F922F933F934F9373
:100A10005F936F937F938F939F93AF93BF93EF9366
:100A2000FF93E0910202F09103021995FF91EF917B
:100A3000BF91AF919F918F917F916F915F914F91F6
:100A40003F912F910F900BBE0F900FBE0F901F90F4
:100A500018951F920F920FB60F9211240BB60F929A
:100A60002F933F934F935F936F937F938F939F93B6
:100A7000AF93BF93EF93FF93E0910002F0910102D7
:100A80001995FF91EF91BF91AF919F918F917F91B8
:100A90006F915F914F913F912F910F900BBE0F90EF
:100AA0000FBE0F901F9018951F920F920FB60F92C6
:100AB00011240BB60F922F933F934F935F936F9335
:100AC0007F938F939F93AF93BF93EF93FF93E091A7
:100AD0000A02F0910B021995FF91EF91BF91AF912E
:100AE0009F918F917F916F915F914F913F912F9146
:100AF0000F900BBE0F900FBE0F901F9018951F9276
:100B00000F920FB60F9211240BB60F922F933F93B3
:100B10004F935F936F937F938F939F93AF93BF9305
:100B2000EF93FF93E0910802F09109021995FF916C
:100B3000EF91BF91AF919F918F917F916F915F9155
:100B40004F913F912F910F900BBE0F900FBE0F90C2
:100B50001F9018951F920F920FB60F9211240BB68B
:100B60000F922F933F934F935F936F937F938F9346
:100B70009F93AF93BF93EF93FF93E0910602F091A1
:100B800007021995FF91EF91BF91AF919F918F91BE
:100B90007F916F915F914F913F912F910F900BBE7D
:100BA0000F900FBE0F901F9018951F920F920FB6C7
:100BB0000F9211240BB60F922F933F934F935F9395
:100BC0006F937F938F939F93AF93BF93EF93FF9315
:100BD000E0910402F09105021995FF91EF91BF9108
:100BE000AF919F918F917F916F915F914F913F91C5
:100BF0002F910F900BBE0F900FBE0F901F90189566
:100C00001F920F920FB60F9211240BB60F922F93D3
:100C10003F934F935F936F937F938F939F93AF9384
:100C2000BF93EF93FF938AE593E016DCFF91EF917A
:100C3000BF91AF919F918F917F916F915F914F91F4
:100C40003F912F910F900BBE0F900FBE0F901F90F2
:100C500018951F920F920FB60F9211240BB60F9298
:100C60002F933F934F935F936F937F938F939F93B4
:100C7000AF93BF93EF93FF938AE593E085DBFF91FA
:100C8000EF91BF91AF919F918F917F916F915F9104
:100C90004F913F912F910F900BBE0F900FBE0F9071
:100CA0001F9018951F920F920FB60F9211240BB63A
:100CB0000F922F933F934F935F936F937F938F93F5
:100CC0009F93AF93BF93EF93FF9387EF93E0C4DBC2
:100CD000FF91EF91BF91AF919F918F917F916F9114
:100CE0005F914F913F912F910F900BBE0F900FBED0
:100CF0000F901F9018951F920F920FB60F9211240C
:100D00000BB60F922F933F934F935F936F937F9305
:100D10008F939F93AF93BF93EF93FF9387EF93E0EE
:100D200033DBFF91EF91BF91AF919F918F917F91B5
:100D30006F915F914F913F912F910F900BBE0F904C
:100D40000FBE0F901F901895DC018D919C91DC01D6
:100D5000ED91FC910284F385E02D199508952CE323
:100D600032E0FC013183208384819581009711F06A
:100D70000C942D100895CF93DF93EC01F0DFCE019A
:100D8000DF91CF910C942D102CE532E0FC013183E2
:100D9000208383819481009711F00C942D10089585
:100DA000CF93DF93EC01F0DFCE01DF91CF910C9474
:100DB0002D101F920F920FB60F9211240BB60F92A7
:100DC0002F933F934F935F936F937F938F939F9353
:100DD000AF93BF93EF93FF938091B900887F8036E4
:100DE00009F49CC068F5883209F45BC090F4803146
:100DF00009F454C038F4882309F4F6C0883009F4A3
:100E00004DC0F5C0883109F44CC0803209F45DC092
:100E1000EEC0803409F468C048F4803309F455C04A
:100E2000883309F0E4C080933403D8C0803509F4D6
:100E30004FC0883509F45DC0883409F0D8C0D6C0E9
:100E4000883909F4C7C0A8F4883709F467C038F4B2
:100E5000883609F463C0803709F460C0C8C0883898
:100E600009F4B8C0803909F45FC0803809F0BFC008
:100E70005BC0803B09F486C038F4803A09F466C050
:100E8000883A09F47FC0B3C0803C09F4A7C0883C0D
:100E900009F4A4C0883B09F48AC0A9C08091110359
:100EA00010C09091330380913203981770F5E09150
:100EB000330381E08E0F80933303F0E0EE5EFC4F4E
:100EC00080818093BB0085EC86C0809334038EC004
:100ED000E091330381E08E0F809333038091BB0058
:100EE000F0E0EE5EFC4F80839091330380913203FB
:100EF0006EC0E091330381E08E0F809333038091C5
:100F0000BB00F0E0EE5EFC4F8083809135038111E1
:100F10006DC081E08093100384EA61C083E0809318
:100F200036031092CC02CFCF8091CC02803208F0F1
:100F300051C0E091CC0281E08E0F8093CC02809171
:100F4000BB00F0E0E455FD4F8083BDCF85EC80937E
:100F5000BC00109236038091CC02803230F4E091D4
:100F6000CC02F0E0E455FD4F10826091CC0270E0BD
:100F7000E091AA02F091AB028CEA92E019951092EE
:100F8000CC0235C084E0809336031092A9021092FF
:100F9000A802E091A602F091A70219958091A802FB
:100FA000811105C081E08093A80210928602E09131
:100FB000A90281E08E0F8093A902F0E0EA57FD4F6D
:100FC00080818093BB009091A9028091A80298171C
:100FD00008F479CF85E88093BC0009C085EC809344
:100FE000BC001092360303C010923403A9DBFF91BA
:100FF000EF91BF91AF919F918F917F916F915F9191
:101000004F913F912F910F900BBE0F900FBE0F90FD
:101010001F901895382F209159039091CF042132B9
:1010200008F049C0809136038111FCCF42E0409323
:101030003603309335033FEF30933403109233037C
:1010400020933203A9E3B3E042E153E0FA013E2FDB
:10105000341B321718F43D913193F9CF10921103DC
:1010600020911103990F922B9093110390911003EB
:10107000913061F410921003909111039093BB0092
:101080009091BC0093FDF8CF95EC01C095EE909344
:10109000BC00909136039230E1F3909134039F3F6E
:1010A00079F080913403803241F0809134038033B1
:1010B00031F084E005C081E003C082E001C083E03C
:1010C000109238031092590310923703089590E05C
:1010D000FC01E853FE4F2491FC01EE57FE4F849132
:1010E000882399F090E0880F991FFC01E859FE4F82
:1010F000A591B491FC01E25BFE4F859194918FB76D
:10110000F894EC91E22BEC938FBF0895CF93C62F08
:101110009091A00421E0209337039093CF04109284
:10112000380310925903682F83EC94E06ADB6C2F2C
:1011300083EC94E066DB81E0CF916CCF0F931F933B
:10114000CF93DF938C018091A204882379F0E8018A
:101150002197D7FD08C083EC94E0D2DAFE01E05677
:10116000FB4F8383F5CF23E030E00EC0C0E0D0E03A
:10117000C017D107C4F783EC94E0C2DAFE01E05651
:10118000FB4F83832196F4CF201731073CF0F90100
:10119000E056FB4F138221503109F6CFDF91CF91FA
:1011A0001F910F910895CF93C62F9091A00421E035
:1011B000209337039093CF04109238031092590371
:1011C000682F83EC94E01DDB80E024DF8091A00495
:1011D000909136039111FCCF6C2FC13208F060E280
:1011E00091E090933603909335032FEF20933403CF
:1011F00010923303260F20933203909311039091A2
:101200001103880F892B8093110380911003813083
:1012100061F410921003809111038093BB008091C0
:10122000BC0083FDF8CF85EC01C085EE8093BC0047
:10123000809136038130E1F380913303861710F4F7
:1012400060913303A2E1B3E020EF32E0F9018E2F89
:10125000821B861718F48D918193F9CF1092EF02BB
:101260006093EE02CF91089562E070E08AE190E031
:101270009ADF82E090E062DF6091A3047091A404A1
:101280008091A5049091A604ABD42AE737E14FE8FA
:101290005AE307C5CF92DF92EF92FF920F931F930D
:1012A000CF93DF93EC016A017B01E889F98982E041
:1012B00080834115514E61057105A9F060E079E028
:1012C0008DE390E0A701960109D689019A010150AA
:1012D0001109210931093695279517950795980128
:1012E00001151041A0F0E889F989108260E874E8DE
:1012F0008EE190E0A7019601F1D5DA01C9010197CD
:10130000A109B109B695A795979587959C01EC859C
:10131000FD853083EE85FF852083188EEC89FD895D
:1013200086E08083EA89FB89808180618083EA8905
:10133000FB89808188608083EA89FB89808180685D
:101340008083EA89FB8980818F7D8083DF91CF91C3
:101350001F910F91FF90EF90DF90CF900895CF9362
:10136000DF9300D01F92CDB7DEB769837A838B837A
:101370009C838091960490919704DC01ED91FC91FF
:101380000280F381E02D44E050E0BE016F5F7F4FAB
:1013900019950F900F900F900F90DF91CF910895B6
:1013A000EF92FF920F931F93CF93DF9300D01F9282
:1013B000CDB7DEB78E010F5F1F4F7E0185E0E80ECF
:1013C000F11C89EB94E0C0DCF80181938F01EE15EC
:1013D000FF05B9F769817A818B819C810F900F900D
:1013E0000F900F90DF91CF911F910F91FF90EF9091
:1013F0000895362F90E0FC01E85FFE4F4491FC0118
:10140000E853FE4F2491FC01EE57FE4F949199232F
:1014100009F46AC0442309F454C050E0FA0131973A
:10142000E231F10508F04DC08827EE58FF4F8F4F8D
:1014300077C5809180008F7707C0809180008F7D75
:1014400003C080918000877F809380003AC084B57C
:101450008F7702C084B58F7D84BD33C08091B0008A
:101460008F7703C08091B0008F7D8093B00029C03A
:10147000809190008F7707C0809190008F7D03C08E
:1014800080919000877F809390001BC08091A00086
:101490008F7707C08091A0008F7D03C08091A0004E
:1014A000877F8093A0000DC0809120018F7707C0B7
:1014B000809120018F7D03C080912001877F8093E0
:1014C0002001E92FF0E0EE0FFF1FE25BFE4FA59138
:1014D000B4918FB7F894EC91311103C020952E236D
:1014E00001C02E2B2C938FBF089589EA94E037DC3E
:1014F0008FEA94E049DC84EB94E046CC789484B5A0
:10150000826084BD84B5816084BD85B5826085BDFF
:1015100085B5816085BD80916E00816080936E008D
:10152000109281008091810082608093810080917F
:101530008100816080938100809180008160809330
:1015400080008091B10084608093B1008091B000F0
:1015500081608093B00080919100826080939100BF
:1015600080919100816080939100809190008160D2
:10157000809390008091A10082608093A10080916F
:10158000A10081608093A1008091A0008160809380
:10159000A00080912101826080932101809121012E
:1015A00081608093210180912001816080932001DE
:1015B00080917A00846080937A0080917A008260C2
:1015C00080937A0080917A00816080937A00809184
:1015D0007A00806880937A001092C1008091D002D6
:1015E000811161C1C1E0C093D00257D98091CF026F
:1015F00081119EC0C093CF0288E290E09093A10435
:101600008093A0041092A2041092EF021092EE02B6
:10161000109238031092590310923603C093350389
:101620001092100361E084E1E4DE61E085E1E1DE37
:101630008091B9008E7F8093B9008091B9008D7F31
:101640008093B90088E48093B80085E48093BC005F
:1016500060E08DE390E05ADD64E070E080E090E0CF
:10166000A2DD81E090E06ADD4090A3045090A404E4
:101670006090A5047090A60481E090E05FDD80900A
:10168000A3049090A404A090A504B090A60481E0C7
:1016900090E054DDC090A304D090A404E090A50491
:1016A000F090A60481E090E049DD8091A304909140
:1016B000A404A091A504B091A60420EA4216510406
:1016C0006104710461F52BEF82169104A104B10449
:1016D00031F522E3C216D104E104F10401F50F97BC
:1016E000A105B105E1F460E08EE390E00FDDE0914B
:1016F000A704F091A804E25EFD4F608181E490E0D0
:1017000005DDE091A704F091A804EA5EFD4F608139
:1017100082E490E0FBDC6CE08DE390E0F7DCA4DD9C
:101720006093D1027093D2028093D3029093D4023B
:101730008091CE028823F1F0409198045091990451
:1017400060919A0470919B04809196049091970403
:10175000A1DD29E936E746E95EE761E070E086E968
:1017600094E00E94E70286E994E0EEDA813009F025
:10177000B2C099C081E08093CE028FD88CE0A7DC04
:1017800061E08CE036DE6CED75E080E090E00E9478
:1017900060014091BB045091BC046091BD04709104
:1017A000BE048091B9049091BA0474DD8091B904AB
:1017B0009091BA04DC01ED91FC910084F185E02D5B
:1017C00019958C01C0E0D0E08091B9049091BA04E1
:1017D000DC01ED91FC91C017D10734F40284F3854C
:1017E000E02D19952196F0CF0190F081E02D62E473
:1017F000199520E030E040E85FE361E070E089EBBC
:1018000094E00E94E702882309F4AAC089EB94E0DF
:101810009BDA823509F0A4C08FCF89EB94E094DA8B
:10182000843409F05DC020E030E040E85FE360E12F
:1018300070E089EB94E00E94E702882309F44DC030
:10184000AFDD6093E1027093E2028093E302909334
:10185000E402A6DD6093DD027093DE028093DF0276
:101860009093E0029DDD6093D9027093DA02809339
:10187000DB029093DC0294DD6093D5027093D60274
:101880008093D7029093D802809196049091970408
:10189000DC01ED91FC910084F185E02D1995892BF7
:1018A00009F50E94B4028091B9049091BA04DC0158
:1018B000ED91FC910190F081E02D62E5199520E019
:1018C00030E040E85FE361E070E089EB94E00E9483
:1018D000E7028111A2CF84E001C082E00E942F04C0
:1018E00083E0FCCF86E994E02FDA8330D1F60E94C2
:1018F0003B0176D12DEB37E346E855E3D2D12FDD1E
:10190000B3DC2091D1023091D2024091D3025091A8
:10191000D4027BD224DD6091E1027091E2028091D9
:10192000E3029091E4021BDD6091DD027091DE0222
:101930008091DF029091E00212DD6091D9027091F6
:10194000DA028091DB029091DC0209DD6091D50220
:101950007091D6028091D7029091D80200DDA1CF7C
:1019600081E0BCCF4F925F926F927F929F92AF9235
:10197000BF92CF92DF92EF92FF920F931F93CF937C
:10198000DF93CAE5D3E01B821A8288EEC82E83E07B
:10199000D82EE12CF12CCC82DD82EE82FF828AE20D
:1019A00092E0998388832DEC30E03D872C872CECE6
:1019B00030E03F872E8728EC30E0398B288B29ECEC
:1019C00030E03B8B2A8B2AEC30E03D8B2C8B2EECCD
:1019D00030E03F8B2E8B198E1A8E1B8E1C8EE7EFFC
:1019E000F3E013821282C482D582E682F782918369
:1019F000808385EC90E09587848784EC90E09787DE
:101A0000868780EC90E0918B808B81EC90E0938BCB
:101A1000828B82EC90E0958B848B86EC90E0978BA8
:101A2000868B118E128E138E148E8DE090E0909323
:101A3000950480939404A6E9B4E016961D921D9235
:101A40001D921C9219971196FC93EE93412C92ECE7
:101A5000592E66246394712C12964D925D926D926C
:101A60007C921597E0EDF4E01582168217821086BD
:101A70001082118212821382148240E050E06AEADE
:101A800071E441875287638774878DEF9DEAA0E0F8
:101A9000BBE385879687A787B08BE1EEF4E01582DC
:101AA000168217821086108211821282138214828B
:101AB000418752876387748785879687A787B08B0E
:101AC00004EB14E02CE5A22E22E0B22ED8011196F0
:101AD000BC92AE9232E0932E12969C9288E090E0F7
:101AE00027D2F80194838383DC011D921D921D92FD
:101AF0001C921397FC0114821582168217820FEA3A
:101B000014E0D8011196BC92AE9212969C9288E095
:101B100090E00ED2F80194838383DC011D921D9224
:101B20001D921C921397FC01148215821682178253
:101B300009EA14E08CE392E0D80111969C938E930D
:101B400012969C92129713969C9280E190E0F0D1AD
:101B5000FC01D80115969C938E93149710821182E4
:101B600012821382148215821682178210861186C1
:101B7000128613861486158616861786E0EAF4E028
:101B80001182108281E0828383E090E090878783D6
:101B9000E9EBF4E01682178210861186D183C083A8
:101BA0004282538264827582E3ECF4E013821282F3
:101BB000C482D582E682F78288E792E091838083AF
:101BC000DF91CF911F910F91FF90EF90DF90CF9019
:101BD000BF90AF909F907F906F905F904F900895CF
:101BE000E89409C097FB3EF49095809570956195B7
:101BF0007F4F8F4F9F4F9923A9F0F92F96E9BB276D
:101C00009395F695879577956795B795F111F8CFE8
:101C1000FAF4BB0F11F460FF1BC06F5F7F4F8F4F53
:101C20009F4F16C0882311F096E911C0772321F049
:101C30009EE8872F762F05C0662371F096E8862FE1
:101C400070E060E02AF09A95660F771F881FDAF738
:101C5000880F9695879597F90895990F0008550F65
:101C6000AA0BE0E8FEEF16161706E807F907C0F022
:101C700012161306E407F50798F0621B730B840B2A
:101C8000950B39F40A2661F0232B242B252B21F404
:101C900008950A2609F4A140A6958FEF811D811DA4
:101CA00008950BD078C069D028F06ED018F0952335
:101CB00009F05AC05FC01124A2C07ED0A0F3959F46
:101CC000D1F3950F50E0551F629FF001729FBB2723
:101CD000F00DB11D639FAA27F00DB11DAA1F649FCF
:101CE0006627B00DA11D661F829F2227B00DA11D82
:101CF000621F739FB00DA11D621F839FA00D611D08
:101D0000221F749F3327A00D611D231F849F600D28
:101D1000211D822F762F6A2F11249F5750408AF061
:101D2000E1F088234AF0EE0FFF1FBB1F661F771FED
:101D3000881F91505040A9F79E3F510570F014C084
:101D40005EC05F3FECF3983EDCF386957795679530
:101D5000B795F795E7959F5FC1F7FE2B880F911D0B
:101D60009695879597F9089597F99F6780E870E0B1
:101D700060E008959FEF80EC089500240A94161601
:101D8000170618060906089500240A941216130669
:101D9000140605060895092E0394000C11F48823F7
:101DA00052F0BB0F40F4BF2B11F460FF04C06F5F13
:101DB0007F4F8F4F9F4F089557FD9058440F551FE9
:101DC00059F05F3F71F04795880F97FB991F61F0BD
:101DD0009F3F79F087950895121613061406551F34
:101DE000F2CF4695F1DF08C0161617061806991FA0
:101DF000F1CF86957105610508940895E894BB2795
:101E000066277727CB0197F908955058BB27AA2753
:101E10000ED0C1CFB2DF30F0B7DF20F031F49F3FFA
:101E200011F41EF4A7CF0EF4E095E7FB9DCFE92F48
:101E3000C3DF80F3BA17620773078407950718F0AA
:101E400071F49EF5DBCF0EF4E0950B2EBA2FA02D8A
:101E50000B01B90190010C01CA01A0011124FF2757
:101E6000591B99F0593F50F4503E68F11A16F04052
:101E7000A22F232F342F4427585FF3CF4695379551
:101E80002795A795F0405395C9F77EF41F16BA0B16
:101E9000620B730B840BBAF09150A1F0FF0FBB1FC4
:101EA000661F771F881FC2F70EC0BA0F621F731F0D
:101EB000841F48F4879577956795B795F7959E3F6A
:101EC00008F0B3CF9395880F08F09927EE0F9795F8
:101ED00087950895C2DE08F48FEF0895A1E21A2EC7
:101EE000AA1BBB1BFD010DC0AA1FBB1FEE1FFF1FBE
:101EF000A217B307E407F50720F0A21BB30BE40B0E
:101F0000F50B661F771F881F991F1A9469F7609554
:101F10007095809590959B01AC01BD01CF0108950E
:101F2000EE0FFF1F881F8BBF0790F691E02D1994CD
:101F3000CF93DF938230910510F482E090E0E0913E
:101F4000F404F091F50420E030E0C0E0D0E03097F8
:101F500011F14081518148175907C0F048175907BE
:101F600061F482819381209719F09B838A832BC02F
:101F70009093F5048093F40426C02115310519F0DF
:101F80004217530718F49A01BE01DF01EF010280E6
:101F9000F381E02DDCCF2115310509F1281B390B28
:101FA0002430310590F412968D919C911397611510
:101FB000710521F0FB019383828304C09093F504A3
:101FC0008093F404FD01329644C0FD01E20FF31F3B
:101FD00081939193225031092D933C933AC02091E3
:101FE000F2043091F304232B41F42091120230913A
:101FF00013023093F3042093F204209110023091E5
:1020000011022115310541F42DB73EB7409114025C
:1020100050911502241B350BE091F204F091F3046A
:10202000E217F307A0F42E1B3F0B2817390778F0AF
:10203000AC014E5F5F4F2417350748F04E0F5F1F0E
:102040005093F3044093F2048193919302C0E0E033
:10205000F0E0CF01DF91CF9108950F931F93CF93BD
:10206000DF93009709F48CC0FC013297138212822F
:102070000091F4041091F5040115110581F42081FB
:102080003181820F931F2091F2043091F3042817BD
:10209000390779F5F093F304E093F20471C0D801A5
:1020A00040E050E0AE17BF0750F412962D913C91DE
:1020B0001397AD012115310509F1D901F3CF9D0128
:1020C000DA013383228360817181860F971F821723
:1020D000930769F4EC0128813981260F371F2E5FA1
:1020E0003F4F318320838A819B8193838283452B59
:1020F00029F4F093F504E093F40442C01396FC93A2
:10210000EE931297ED01499159919E01240F351FCD
:10211000E217F30771F480819181840F951F029675
:1021200011969C938E938281938113969C938E93A8
:102130001297E0E0F0E0D80112968D919C911397F0
:10214000009719F0F8018C01F6CF8D919C919801C0
:102150002E5F3F4F820F931F2091F2043091F304C2
:102160002817390769F4309729F41092F504109272
:10217000F40402C0138212821093F3040093F20459
:10218000DF91CF911F910F91089581E090E0F89435
:1021900000C011E0C8E0D1E000E005C0802FFE01E2
:1021A000BFDE2196011DC930D10780E00807B1F7D5
:0421B000F894FFCFD1
:1021B4009801980198019801980198019801980153
:1021C4000000F60480000400060203010705212430
:1021D400242124212124000000004D029901DD0165
:1021E40093020E02EC01000200000000AF06BB06E1
:1021F400530350034D032F030000000000000000B0
:1022040055035C045C045C0400000000C406D006B2
:102214006C036903570300000000000000006E0314
:102224005C045C04000000000104D2039D037003FD
:0622340094038003710316
:00000001FF
