:1000000008C100007FC4000052C4000025C40000E5
:10001000F8C30000CBC300009EC3000071C3000002
:1000200044C3000024C1000022C1000020C1000020
:100030001EC100001CC100001AC1000018C1000050
:1000400016C1000014C1000012C1000010C1000060
:100050000EC100000CC100000AC10000DCC200009B
:1000600006C1000004C1000002C1000000C1000080
:10007000FEC00000FCC00000FAC00000F8C0000094
:10008000F6C00000F4C00000F2C00000F0C00000A4
:10009000EEC00000ECC00000EAC000005EC400003A
:1000A000E6C00000E4C00000E2C00000E0C00000C4
:1000B000DEC00000DCC00000DAC00000D8C00000D4
:1000C000D6C00000D4C00000D2C00000D0C00000E4
:1000D000CEC00000CCC00000CAC00000C8C00000F4
:1000E000C6C0000063016601550159015D019D0113
:1000F0006A016E01740178017C01820186018A0126
:100100009D01900194019801000021002400270026
:100110002A002D0030003300010100000401070116
:100120000A0100002200250028002B002E003100CB
:10013000340002010000050108010B010505050559
:10014000070508080808020202020A0A080804044F
:10015000040401010101010101010303030303037D
:100160000303040707070C0C0C0C0C0C0C0C02020C
:10017000020206060606060606060B0B0B0B0B0B09
:100180000B0B010210202008081020401020408096
:10019000020102010804020101020408102040804B
:1001A00080402010080402018004020180402010D9
:1001B0000804020108040201010204081020408022
:1001C000010204081020408000000A0B02090C0DF7
:1001D0000E080703040100000000000000000000FA
:1001E000000000000000000000000000000000000F
:1001F00000000000121110000000000000000000CC
:100200000000000000000000000000000000DE050B
:100210001A0711241FBECFEFD1E2DEBFCDBF00E031
:100220000CBF12E0A0E0B2E0EAEDF0E100E00BBFAD
:1002300002C007900D92A634B107D9F723E0A6E4D7
:10024000B2E001C01D92A930B207E1F711E0C8E0A9
:10025000D1E000E005C021970109802FFE01F3D510
:10026000C730D10780E00807B1F744D525C7C8CE0D
:10027000CF93C82FE5EDF1E04491EFE8F1E0249150
:10028000E9E4F1E09491992309F46AC0442309F464
:1002900054C050E0FA013197E231F10508F04DC049
:1002A0008827EE58FF4F8F4FCEC5809180008F7703
:1002B00007C0809180008F7D03C080918000877F80
:1002C000809380003AC084B58F7702C084B58F7D5B
:1002D00084BD33C08091B0008F7703C08091B0009F
:1002E0008F7D8093B00029C0809190008F7707C0E8
:1002F000809190008F7D03C080919000877F8093D4
:1003000090001BC08091A0008F7707C08091A00053
:100310008F7D03C08091A000877F8093A0000DC0D7
:10032000309120013F7707C0309120013F7D03C00D
:1003300030912001377F30932001E92FF0E0EE0F5C
:10034000FF1FEE5DFE4FA591B4918FB7F894EC912D
:10035000C11103C020952E2301C02E2B2C938FBFDB
:10036000CF9108953FB7F8948091BA029091BB0263
:10037000A091BC02B091BD0226B5A89B05C02F3F3D
:1003800019F00196A11DB11D3FBFBA2FA92F982FBB
:100390008827820F911DA11DB11DBC01CD0142E036
:1003A000660F771F881F991F4A95D1F708958F927E
:1003B0009F92AF92BF92CF92DF92EF92FF926B012A
:1003C0007C01D0DF4B015C01C114D104E104F104D4
:1003D000E9F0C8DFDC01CB0188199909AA09BB093A
:1003E000883E9340A105B10578F321E0C21AD108F7
:1003F000E108F10888EE880E83E0981EA11CB11C6C
:10040000C114D104E104F10421F7DECFFF90EF9095
:10041000DF90CF90BF90AF909F908F9008950895F8
:10042000CF92DF92EF92FF920F931F93CF93DF93C0
:100430006C017A018B01C0E0D0E0CE15DF0589F0B8
:10044000D8016D918D01D601ED91FC910190F08163
:10045000E02DC6011995892B11F47E0102C0219669
:10046000ECCFC701DF91CF911F910F91FF90EF90DB
:10047000DF90CF900895DC0113962C91139770E0D4
:1004800061507109269FF001279FF00D1124E40FA0
:10049000F11D3197EE0FFF1FEE0FFF1F14968D9188
:1004A0009C911597E80FF91F60817181828193817A
:1004B0000895FC0183810895FC018281089581E003
:1004C000089580E0089570E06150704C660F771FCA
:1004D000660F771FFC0183819481FC01E60FF71FF3
:1004E00060817181828193810895FC0182810895E8
:1004F00081E0089580E0089508958FEF9FEF0895BB
:100500008FEF9FEF08958091B40290E091958195CF
:1005100091090895089580E090E0089585ED809315
:10052000BC008091BC0084FDFCCF10928E02089527
:1005300040916802262F30E0240F311D2132310511
:10054000DCF420918E022430C9F4FC0180E090E0BC
:10055000861758F4309168022191DC01AA5BBD4FE7
:10056000A30FB11D2C930196F3CF80916802680F01
:100570006093680280E0089581E0089582E0089524
:10058000CF93DF931F921F92CDB7DEB7CB01642FBD
:1005900049835A83CDDF4981842F5A81952F0F904B
:1005A0000F90DF91CF910895CF93DF931F92CDB736
:1005B000DEB7698361E0CE010196BADF81E090E0A9
:1005C0000F90DF91CF91089573D52AE132E0FC01BD
:1005D0003183208384819581009709F0D1C40895E7
:1005E000CF93DF93EC01F1DFCE01DF91CF91C8C44F
:1005F0002AE232E0FC0131832083838194810097D9
:1006000009F0BEC40895CF93DF93EC01F1DFCE0172
:10061000DF91CF91B5C41F920F920FB60F921124A4
:100620002F933F938F939F93AF93BF938091B60285
:100630009091B702A091B802B091B9023091B50281
:1006400023E0230F2D3720F40196A11DB11D05C015
:1006500026E8230F0296A11DB11D2093B5028093B9
:10066000B6029093B702A093B802B093B9028091FA
:10067000BA029091BB02A091BC02B091BD0201965A
:10068000A11DB11D8093BA029093BB02A093BC023E
:10069000B093BD02BF91AF919F918F913F912F91E8
:1006A0000F900FBE0F901F9018951F920F920FB6CC
:1006B0000F9211240BB60F922F933F934F935F939A
:1006C0006F937F938F939F93AF93BF93EF93FF931A
:1006D000E0910E02F0910F021995FF91EF91BF91F9
:1006E000AF919F918F917F916F915F914F913F91CA
:1006F0002F910F900BBE0F900FBE0F901F9018956B
:100700001F920F920FB60F9211240BB60F922F93D8
:100710003F934F935F936F937F938F939F93AF9389
:10072000BF93EF93FF93E0910C02F0910D021995A6
:10073000FF91EF91BF91AF919F918F917F916F91B9
:100740005F914F913F912F910F900BBE0F900FBE75
:100750000F901F9018951F920F920FB60F921124B1
:100760000BB60F922F933F934F935F936F937F93AB
:100770008F939F93AF93BF93EF93FF93E091020208
:10078000F09103021995FF91EF91BF91AF919F9165
:100790008F917F916F915F914F913F912F910F902A
:1007A0000BBE0F900FBE0F901F9018951F920F92C7
:1007B0000FB60F9211240BB60F922F933F934F93C6
:1007C0005F936F937F938F939F93AF93BF93EF93B9
:1007D000FF93E0910002F09101021995FF91EF91D2
:1007E000BF91AF919F918F917F916F915F914F9149
:1007F0003F912F910F900BBE0F900FBE0F901F9047
:1008000018951F920F920FB60F9211240BB60F92EC
:100810002F933F934F935F936F937F938F939F9308
:10082000AF93BF93EF93FF93E0910A02F0910B0215
:100830001995FF91EF91BF91AF919F918F917F910A
:100840006F915F914F913F912F910F900BBE0F9041
:100850000FBE0F901F9018951F920F920FB60F9218
:1008600011240BB60F922F933F934F935F936F9387
:100870007F938F939F93AF93BF93EF93FF93E091F9
:100880000802F09109021995FF91EF91BF91AF9184
:100890009F918F917F916F915F914F913F912F9198
:1008A0000F900BBE0F900FBE0F901F9018951F92C8
:1008B0000F920FB60F9211240BB60F922F933F9306
:1008C0004F935F936F937F938F939F93AF93BF9358
:1008D000EF93FF93E0910602F09107021995FF91C3
:1008E000EF91BF91AF919F918F917F916F915F91A8
:1008F0004F913F912F910F900BBE0F900FBE0F9015
:100900001F9018951F920F920FB60F9211240BB6DD
:100910000F922F933F934F935F936F937F938F9398
:100920009F93AF93BF93EF93FF93E0910402F091F5
:1009300005021995FF91EF91BF91AF919F918F9112
:100940007F916F915F914F913F912F910F900BBECF
:100950000F900FBE0F901F9018951F920F920FB619
:100960000F9211240BB60F922F933F934F935F93E7
:100970006F937F938F939F93AF93BF93EF93FF9367
:100980008091B900887F803609F49CC068F5883270
:1009900009F45BC090F4803109F454C038F4882322
:1009A00009F4F6C0883009F44DC0F5C0883109F467
:1009B0004CC0803209F45DC0EEC0803409F468C0D8
:1009C00048F4803309F455C0883309F0E4C08093BB
:1009D0008D02D8C0803509F44FC0883509F45DC058
:1009E000883409F0D8C0D6C0883909F4C7C0A8F443
:1009F000883709F467C038F4883609F463C0803753
:100A000009F460C0C8C0883809F4B8C0803909F456
:100A10005FC0803809F0BFC05BC0803B09F486C06E
:100A200038F4803A09F466C0883A09F47FC0B3C04C
:100A3000803C09F4A7C0883C09F4A4C0883B09F4B1
:100A40008AC0A9C08091B30210C09091B202809177
:100A5000B102981770F5E091B20281E08E0F809399
:100A6000B202F0E0EF56FD4F80818093BB0085EC31
:100A700086C080938D028EC0E091B20281E08E0F1D
:100A80008093B2028091BB00F0E0EF56FD4F80836F
:100A90009091B2028091B1026EC0E091B20281E009
:100AA0008E0F8093B2028091BB00F0E0EF56FD4FB5
:100AB00080838091900281116DC081E080938F02CC
:100AC00084EA61C083E080938E0210928C02CFCFC3
:100AD00080918C02803208F051C0E0918C0281E05C
:100AE0008E0F80938C028091BB00F0E0E459FD4FA3
:100AF0008083BDCF85EC8093BC0010928E028091E4
:100B00008C02803230F4E0918C02F0E0E459FD4F29
:100B1000108260918C0270E0E0916A02F0916B02A9
:100B20008CE692E0199510928C0235C084E0809397
:100B30008E021092690210926802E0916602F091B2
:100B40006702199580916802811105C081E0809348
:100B5000680210924602E091690281E08E0F809354
:100B60006902F0E0EA5BFD4F80818093BB009091C9
:100B7000690280916802981708F479CF85E880931C
:100B8000BC0009C085EC8093BC0010928E0203C0AB
:100B900010928D02C3DCFF91EF91BF91AF919F91B5
:100BA0008F917F916F915F914F913F912F910F9016
:100BB0000BBE0F900FBE0F901F901895EF92FF92F3
:100BC0001F93CF93DF93EEEBF2E01582168217822C
:100BD00010861082118212821382148240E050E04B
:100BE0006AEA71E441875287638774878DEF9DEAD3
:100BF000A0E0BBE385879687A787B08BEFECF2E098
:100C00001582168217821086108211821282138238
:100C10001482418752876387748785879687A78761
:100C2000B08BC4EFD2E08AE2E82E82E0F82EF9829F
:100C3000E88212E01A8388E090E00DD19C838B83D8
:100C4000FC01108211821282138214821582168294
:100C50001782CFEED2E0F982E8821A8388E090E032
:100C6000FAD09C838B83FC01108211821282138242
:100C70001482158216821782C9EED2E08AE192E0D0
:100C8000998388831A831B8380E190E0E4D0FC0180
:100C90009D838C83108211821282138214821582AA
:100CA0001682178210861186128613861486158680
:100CB00016861786E0EEF2E01182108281E08283D0
:100CC00083E090E090878783E9EFF2E0138212825D
:100CD00088EE93E0A0E0B0E084839583A683B78399
:100CE00088E392E091838083DF91CF911F91FF9001
:100CF000EF900895789484B5826084BD84B5816056
:100D000084BD85B5826085BD85B5816085BD8091D6
:100D10006E00816080936E0010928100809181004E
:100D20008260809381008091810081608093810046
:100D3000809180008160809380008091B100846008
:100D40008093B1008091B00081608093B000809169
:100D500091008260809391008091910081608093E6
:100D60009100809190008160809390008091A1001B
:100D700082608093A1008091A10081608093A10096
:100D80008091A00081608093A00080912101826009
:100D900080932101809121018160809321018091C4
:100DA000200181608093200180917A00846080938B
:100DB0007A0080917A00826080937A0080917A0034
:100DC000816080937A0080917A00806880937A00B5
:100DD0001092C100EFE8F1E02491E9E4F1E08491A0
:100DE000882399F090E0880F991FFC01E85FFE4F7F
:100DF000A591B491FC01EE5DFE4F859194918FB762
:100E0000F894EC91E22BEC938FBFC0E0D0E081E04E
:100E10002FDA64E670E080E090E0C9DA80E028DA5A
:100E200060E971E080E090E0C2DA209781F30E94EF
:100E30000000EDCF89EE92E0C8DB8FEE92E0D8DBC8
:100E400084EF92E0D5CBEE0FFF1F881F8BBF07907A
:100E5000F691E02D1994CF93DF938230910510F431
:100E600082E090E0E0910703F091080320E030E099
:100E7000C0E0D0E0309711F1408151814817590707
:100E8000C0F04817590761F482819381209719F0C7
:100E90009B838A832BC0909308038093070326C00B
:100EA0002115310519F04217530718F49A01BE01B4
:100EB000DF01EF010280F381E02DDCCF2115310548
:100EC00009F1281B390B2430310590F412968D91CD
:100ED0009C9113976115710521F0FB019383828327
:100EE00004C09093080380930703FD01329644C029
:100EF000FD01E20FF31F81939193225031092D934D
:100F00003C933AC02091050330910603232B41F412
:100F100020911202309113023093060320930503AF
:100F200020911002309111022115310541F42DB7A5
:100F30003EB74091140250911502241B350BE091ED
:100F40000503F0910603E217F307A0F42E1B3F0BF5
:100F50002817390778F0AC014E5F5F4F241735072B
:100F600048F04E0F5F1F5093060340930503819393
:100F7000919302C0E0E0F0E0CF01DF91CF910895BE
:100F80000F931F93CF93DF93009709F48CC0FC015C
:100F90003297138212820091070310910803011502
:100FA000110581F420813181820F931F2091050367
:100FB000309106032817390779F5F0930603E0937B
:100FC000050371C0D80140E050E0AE17BF0750F4F0
:100FD00012962D913C911397AD012115310509F120
:100FE000D901F3CF9D01DA013383228360817181BE
:100FF000860F971F8217930769F4EC0128813981C6
:10100000260F371F2E5F3F4F318320838A819B81BC
:1010100093838283452B29F4F0930803E09307031D
:1010200042C01396FC93EE931297ED0149915991AA
:101030009E01240F351FE217F30771F4808191811F
:10104000840F951F029611969C938E9382819381B3
:1010500013969C938E931297E0E0F0E0D8011296DD
:101060008D919C911397009719F0F8018C01F6CFA0
:101070008D919C9198012E5F3F4F820F931F20917D
:101080000503309106032817390769F4309729F4CE
:10109000109208031092070302C013821282109369
:1010A000060300930503DF91CF911F910F910895DF
:1010B00081E090E0F89400C011E0C8E0D1E000E0E9
:1010C00005C0802FFE01BFDE2196011DC930D1076A
:0A10D00080E00807B1F7F894FFCFA5
:1010DA000F020F020F020F020F020F020F020F027E
:1010EA0000000903800000000000E502F0025F0230
:1010FA005C0259023B0200000000F8020303780276
:10110A007502630200000000D402C0028B027C0256
:06111A00830280027D0249
:00000001FF
