:100000003DC100006CC300003FC3000012C30000EC
:10001000E5C20000B8C200008BC200005EC2000052
:1000200031C200005CC100005AC1000058C100008C
:1000300056C1000054C1000052C1000050C1000070
:100040004EC100004CC100004AC1000048C1000080
:1000500046C1000044C1000042C100000C94160CCF
:100060003EC1000087C600005CC6000038C1000029
:1000700036C1000034C1000032C1000030C10000B0
:100080002EC100002CC100002AC1000028C10000C0
:1000900026C1000024C1000022C1000083C7000067
:1000A0001EC100001CC100001AC1000018C10000E0
:1000B00016C1000014C1000012C1000010C10000F0
:1000C0000EC100000CC100000AC1000001C6000002
:1000D000D6C5000004C1000002C1000000C100003C
:1000E000FEC000001E092109100914091A09580947
:1000F000250929092F09330937093D09410945090E
:1001000058094B094F0953091E0A260AFE09060A17
:100110000E0A160A2E0A360A190B1E0B230B2D0B7C
:10012000370BB00B410B490B510B5B0B650B6F0B86
:100130007E0B880BB00B920B9C0BA60B05A84CCD2D
:10014000B2D44EB93836A9020C50B9918688083C11
:10015000A6AAAA2ABE000000803F000021002400B9
:1001600027002A002D0030003300010100000401A7
:1001700007010A0100002200250028002B002E00A4
:100180003100340002010000050108010B010000EC
:1001900020002300260029002C002F00320000013F
:1001A000000003010601090105050505070508080A
:1001B0000808020202020A0A0808040404040101F1
:1001C0000101010101010303030303030303040706
:1001D00007070C0C0C0C0C0C0C0C0202020206069D
:1001E0000606060606060B0B0B0B0B0B0B0B010290
:1001F0001020200808102040102040800201020139
:1002000008040201010204081020408080402010F0
:100210000804020180040201804020100804020149
:1002200008040201010204081020408001020408B1
:100230001020408000000A0B02090C0D0E08070375
:1002400004010000000000000000000000000000A9
:10025000000000000000000000000000000000009E
:10026000121110000000000000000000000000005B
:1002700000000000000000000000F81211241FBE62
:10028000CFEFD1E2DEBFCDBF00E00CBF24E0A0E79E
:10029000B2E001C01D92A63EB207E1F712E0A0E075
:1002A000B2E0E2E9F1E300E00BBF02C007900D927B
:1002B000A037B107D9F711E0CEE3D1E000E006C0E6
:1002C00021970109802FFE010E949116CD33D1079D
:1002D00080E00807A9F70E94200E0C94C71890CE62
:1002E00008950E94AA18CF93DF93EC018881998129
:1002F000009711F00E942E17198218821D821C820D
:100300001B821A82DF91CF9108950F931F93CF9391
:10031000DF93EC0188819981009729F02A813B8144
:100320002617370788F48B016F5F7F4F0E94C6172F
:10033000009761F0998388831B830A832C813D8118
:10034000232B11F4FC01108281E001C080E0DF91D9
:10035000CF911F910F910895EF92FF920F931F93EA
:10036000CF93DF93EC01FB0184819581E080F180E4
:100370000C811D81E114F104A9F00097A9F0080F88
:10038000191FB801CE01C1DF882361F028813981AE
:100390008C819D81B701820F931F0E94C0181D831D
:1003A0000C8302C0CE019FDFCE01DF91CF911F9160
:1003B0000F91FF90EF900895EF92FF920F931F938C
:1003C000CF93DF93EC017B018A01BA019EDF81119B
:1003D00003C0CE0188DF07C01D830C83B70188816D
:1003E00099810E94C018CE01DF91CF911F910F918A
:1003F000FF90EF900895CF93DF93EC0161157105A5
:1004000051F0FB0101900020E9F73197AF01461B45
:10041000570BD2DF01C067DFCE01DF91CF91089586
:10042000FB01DC0111961C921E9213961C921E92E7
:10043000129715961C921E9214978617970741F0F3
:10044000608171816115710519F044815581B4CFC6
:100450000895FC01808191810C942E17FC0111827A
:10046000108213821282158214826115710549F07F
:10047000FB0101900020E9F73197AF01461B570BB4
:100480009BCF08951F920F920FB60F9211240BB6B7
:100490000F922F933F934F935F936F937F938F931D
:1004A0009F93AF93BF93EF93FF93E0910E02F09170
:1004B0000F021995FF91EF91BF91AF919F918F918D
:1004C0007F916F915F914F913F912F910F900BBE54
:1004D0000F900FBE0F901F9018951F920F920FB69E
:1004E0000F9211240BB60F922F933F934F935F936C
:1004F0006F937F938F939F93AF93BF93EF93FF93EC
:10050000E0910C02F0910D021995FF91EF91BF91CE
:10051000AF919F918F917F916F915F914F913F919B
:100520002F910F900BBE0F900FBE0F901F9018953C
:100530001F920F920FB60F9211240BB60F922F93AA
:100540003F934F935F936F937F938F939F93AF935B
:10055000BF93EF93FF93E0910202F091030219958C
:10056000FF91EF91BF91AF919F918F917F916F918B
:100570005F914F913F912F910F900BBE0F900FBE47
:100580000F901F9018951F920F920FB60F92112483
:100590000BB60F922F933F934F935F936F937F937D
:1005A0008F939F93AF93BF93EF93FF93E0910002DC
:1005B000F09101021995FF91EF91BF91AF919F9139
:1005C0008F917F916F915F914F913F912F910F90FC
:1005D0000BBE0F900FBE0F901F9018951F920F9299
:1005E0000FB60F9211240BB60F922F933F934F9398
:1005F0005F936F937F938F939F93AF93BF93EF938B
:10060000FF93E0910A02F0910B021995FF91EF918F
:10061000BF91AF919F918F917F916F915F914F911A
:100620003F912F910F900BBE0F900FBE0F901F9018
:1006300018951F920F920FB60F9211240BB60F92BE
:100640002F933F934F935F936F937F938F939F93DA
:10065000AF93BF93EF93FF93E0910802F0910902EB
:100660001995FF91EF91BF91AF919F918F917F91DC
:100670006F915F914F913F912F910F900BBE0F9013
:100680000FBE0F901F9018951F920F920FB60F92EA
:1006900011240BB60F922F933F934F935F936F9359
:1006A0007F938F939F93AF93BF93EF93FF93E091CB
:1006B0000602F09107021995FF91EF91BF91AF915A
:1006C0009F918F917F916F915F914F913F912F916A
:1006D0000F900BBE0F900FBE0F901F9018951F929A
:1006E0000F920FB60F9211240BB60F922F933F93D8
:1006F0004F935F936F937F938F939F93AF93BF932A
:10070000EF93FF93E0910402F09105021995FF9198
:10071000EF91BF91AF919F918F917F916F915F9179
:100720004F913F912F910F900BBE0F900FBE0F90E6
:100730001F901895CF92DF92EF92FF920F931F9325
:10074000CF93DF936C017A018B01C0E0D0E0CE152E
:10075000DF0589F0D8016D918D01D601ED91FC91F5
:100760000190F081E02DC6011995892B11F47E01CD
:1007700002C02196ECCFC701DF91CF911F910F915D
:10078000FF90EF90DF90CF900895FC01A089B18990
:100790008C91A689B78982FD0FC09C91818D8F5F56
:1007A0008F73228D821749F0218DDF01A20FB11DB9
:1007B0005D969C93818F08958C910895FC01538DD3
:1007C000448D252F30E0842F90E0821B930B54172B
:1007D00010F0CF96089501970895FC01918D828DB8
:1007E000981761F0828DDF01A80FB11D5D968C9185
:1007F000928D9F5F9F73928F90E008958FEF9FEF90
:100800000895FC01918D828D981731F0828DE80F4B
:10081000F11D858D90E008958FEF9FEF0895FC0105
:10082000918D228D892F90E0805C9F4F821B9109D2
:100830008F739927089589E493E0F1DF21E0892BF4
:1008400009F420E0822F089586EE93E0E8DF21E0AE
:10085000892B09F420E0822F0895FC01848DDF01AB
:10086000A80FB11DA35ABF4F2C91848D90E0019623
:100870008F739927848FA689B7892C93A089B18912
:100880008C9180648C93938D848D981306C002881C
:10089000F389E02D80818F7D80830895EF92FF9210
:1008A0000F931F93CF93DF93EC0181E0888F9B8D93
:1008B0008C8D981305C0E889F989808185FD23C056
:1008C000F62E0B8D10E00F5F1F4F0F731127E02ED8
:1008D0008C8DE8120BC00FB607FCFACFE889F989B6
:1008E000808185FFF5CFCE01B8DFF2CF8B8DFE0181
:1008F000E80FF11DE35AFF4FF0820B8FEA89FB8965
:100900008081806207C0EE89FF896083E889F98968
:1009100080818064808381E090E0DF91CF911F919E
:100920000F91FF90EF900895CF93DF93EC01888DA6
:100930008823C1F0EA89FB89808185FD05C0A889EB
:10094000B9898C9186FD0EC00FB607FCF5CF80816A
:1009500085FFF2CFA889B9898C9185FFEDCFCE01B3
:100960007CDFE8CFDF91CF91089580E090E0892B84
:1009700019F06ADF811120C080E090E0892B41F0FE
:1009800080E090E0892B21F00E940000811117C0C7
:1009900080E090E0892B19F04EDF811113C080E0D8
:1009A00090E0892BA1F080E090E0892B81F00E94FB
:1009B000000081110AC008950E940000DDCF0E944E
:1009C0000000E6CF0E940000EACF0C9400000895DA
:1009D0000895E091D8028091D702E81730F4F0E052
:1009E000E752FD4F808190E008958FEF9FEF0895CB
:1009F0009091D8028091D702981750F4E92FF0E037
:100A0000E752FD4F208130E09F5F9093D80202C0F3
:100A10002FEF3FEFC90108958091D70290E0209118
:100A2000D802821B91090895089580E090E008950E
:100A300085ED8093BC008091BC0084FDFCCF1092BA
:100A4000240308954091AE02262F30E0240F311D7B
:100A500021323105DCF4209124032430C9F4FC0157
:100A600080E090E0861758F43091AE022191DC01CD
:100A7000A457BD4FA30FB11D2C930196F3CF8091C6
:100A8000AE02680F6093AE0280E0089581E00895A1
:100A900082E00895CF92DF92EF92FF920F931F931F
:100AA000CF93DF937C01262F972F8A018091250316
:100AB000882391F0C62FD72F6E01C40ED51ECC15FA
:100AC000DD0569F06991D701ED91FC910190F0810C
:100AD000E02DC7011995F3CF642F822FB3DFC80132
:100AE000DF91CF911F910F91FF90EF90DF90CF900A
:100AF0000895CF93DF931F92CDB7DEB7698320911E
:100B000025032223D1F020914803203240F021E038
:100B100030E0FC013383228380E090E014C08091B8
:100B20002603E82FF0E0E95DFC4F998190838F5F09
:100B3000809326038093480304C061E0CE010196B0
:100B400081DF81E090E00F90DF91CF910895CF9306
:100B5000DF93EC018C81B3D4892B49F08B81AFD426
:100B60004D815E816F817885892B49F00DC08B8125
:100B7000A6D44D815E816F817885892B29F04F5FE6
:100B80005F4F6F4F7F4F04C0415051096109710998
:100B90004D835E836F837887DF91CF91089581EADB
:100BA00094E0D5CF82EB94E0D2CFCF93DF93EC01EA
:100BB0008B8185D4892B49F08C8181D44D815E81D4
:100BC0006F817885892B49F00DC08C8178D44D8157
:100BD0005E816F817885892B29F041505109610927
:100BE000710904C04F5F5F4F6F4F7F4F4D835E832E
:100BF0006F837887DF91CF91089581EA94E0D5CF14
:100C000082EB94E0D2CFCF93DF93EC012FB7F8942F
:100C10008091D3029091D402A091D502B091D602D6
:100C20002FBF88879987AA87BB87E881F9810284CB
:100C3000F385E02DCE01199597FF1EC02FB7F894CC
:100C40008091D3029091D402A091D502B091D602A6
:100C50002FBF488559856A857B85841B950BA60B1C
:100C6000B70B4C815D816E817F8184179507A60744
:100C7000B707D8F28FEF9FEFDF91CF9108951F92C2
:100C80000F920FB60F9211240BB60F922F933F9332
:100C90004F935F936F937F938F939F93AF93BF9384
:100CA000EF93FF9389E493E0D8DDFF91EF91BF913B
:100CB000AF919F918F917F916F915F914F913F91F4
:100CC0002F910F900BBE0F900FBE0F901F90189595
:100CD0001F920F920FB60F9211240BB60F922F9303
:100CE0003F934F935F936F937F938F939F93AF93B4
:100CF000BF93EF93FF9389E493E047DDFF91EF917A
:100D0000BF91AF919F918F917F916F915F914F9123
:100D10003F912F910F900BBE0F900FBE0F901F9021
:100D200018951F920F920FB60F9211240BB60F92C7
:100D30002F933F934F935F936F937F938F939F93E3
:100D4000AF93BF93EF93FF9386EE93E086DDFF9121
:100D5000EF91BF91AF919F918F917F916F915F9133
:100D60004F913F912F910F900BBE0F900FBE0F90A0
:100D70001F9018951F920F920FB60F9211240BB669
:100D80000F922F933F934F935F936F937F938F9324
:100D90009F93AF93BF93EF93FF9386EE93E0F5DCC1
:100DA000FF91EF91BF91AF919F918F917F916F9143
:100DB0005F914F913F912F910F900BBE0F900FBEFF
:100DC0000F901F901895DC018D919C91DC01ED91A5
:100DD000FC910190F081E02D1994DC018D919C91A2
:100DE000DC01ED91FC910284F385E02D19950895C5
:100DF0008F929F92AF92BF92CF92DF92EF92FF922B
:100E00000F931F93CF93DF93EC018B0169017A015C
:100E1000B0D46E837F8388879987ABD48E809F8080
:100E2000A884B984681979098A099B090E943A142F
:100E30002DEB37E346E855E30E949B14A70196018A
:100E40000E94211687FF0EC088819981DC01ED91F7
:100E5000FC910084F185E02D199580179107ECF243
:100E600081E001C080E0DF91CF911F910F91FF9051
:100E7000EF90DF90CF90BF90AF909F908F900895AC
:100E8000DC018D919C91DC01ED91FC910084F18558
:100E9000E02D1994EF92FF920F931F93CF93DF935E
:100EA0007C01EEDF8C01C0E0D0E0C017D10764F414
:100EB000D7018D919C91DC01ED91FC910284F38529
:100EC000E02D19952196F1CFC801DF91CF911F91A7
:100ED0000F91FF90EF900895CF93DF93EC01CB013A
:100EE000BA0129853A854B855C850E949B140E9436
:100EF000B715161617062CF4898174D360E08A8121
:100F000007C07195619571098A816CD360E0898110
:100F1000DF91CF91FCC2D82F40E050E0BA0181EAC6
:100F200094E0DADF40E050E0BA0182EB94E0D4DFF5
:100F3000C1E0DC17A0F061E080918304E8D264E6B0
:100F400070E080E090E03AD460E080918304DFD2EA
:100F50006AEF70E080E090E031D4CF5FEACF68EED6
:100F600073E080E090E02AD4E3CFCF93DF93EC01ED
:100F700061E08881FBD261E08981F8D261E08A81F9
:100F8000F5D260E08B81F2D260E08C81EFD260E03C
:100F90008881BDD260E08981BAD260E08A81DF9128
:100FA000CF91B5C21F920F920FB60F9211240BB6BC
:100FB0000F922F933F934F935F936F937F938F93F2
:100FC0009F93AF93BF93EF93FF938091B900887F76
:100FD000803609F49CC068F5883209F45BC090F44F
:100FE000803109F454C038F4882309F4F6C08830FD
:100FF00009F44DC0F5C0883109F44CC0803209F4C1
:101000005DC0EEC0803409F468C048F4803309F450
:1010100055C0883309F0E4C080932203D8C08035DE
:1010200009F44FC0883509F45DC0883409F0D8C090
:10103000D6C0883909F4C7C0A8F4883709F467C056
:1010400038F4883609F463C0803709F460C0C8C03A
:10105000883809F4B8C0803909F45FC0803809F0D5
:10106000BFC05BC0803B09F486C038F4803A09F405
:1010700066C0883A09F47FC0B3C0803C09F4A7C0B9
:10108000883C09F4A4C0883B09F48AC0A9C08091B7
:10109000FF0210C09091210380912003981770F5F2
:1010A000E091210381E08E0F80932103F0E0E05076
:1010B000FD4F80818093BB0085EC86C08093220326
:1010C0008EC0E091210381E08E0F809321038091F7
:1010D000BB00F0E0E050FD4F8083909121038091B0
:1010E00020036EC0E091210381E08E0F80932103E5
:1010F0008091BB00F0E0E050FD4F8083809123039E
:1011000081116DC081E08093FE0284EA61C083E0BA
:10111000809324031092D202CFCF8091D2028032EA
:1011200008F051C0E091D20281E08E0F8093D2028C
:101130008091BB00F0E0EE54FD4F8083BDCF85EC85
:101140008093BC00109224038091D202803230F44C
:10115000E091D202F0E0EE54FD4F10826091D20295
:1011600070E0E091B002F091B10282EB92E019954B
:101170001092D20235C084E0809324031092AF0213
:101180001092AE02E091AC02F091AD0219958091FF
:10119000AE02811105C081E08093AE0210928C02F4
:1011A000E091AF0281E08E0F8093AF02F0E0E45750
:1011B000FD4F80818093BB009091AF028091AE0281
:1011C000981708F479CF85E88093BC0009C085ECB6
:1011D0008093BC001092240303C01092220328DCE9
:1011E000FF91EF91BF91AF919F918F917F916F91FF
:1011F0005F914F913F912F910F900BBE0F900FBEBB
:101200000F901F90189590E0FC013197E231F105A5
:1012100008F04EC08827EE58FF4F8F4F0C94911660
:10122000809180008F7703C0809180008F7D8093B4
:101230008000089580918000877FF9CF84B58F77F3
:1012400002C084B58F7D84BD08958091B0008F77F2
:1012500003C08091B0008F7D8093B000089580918D
:1012600090008F7707C0809190008F7D03C08091A0
:101270009000877F8093900008958091A0008F77E1
:1012800007C08091A0008F7D03C08091A000877F60
:101290008093A0000895809120018F7707C08091EE
:1012A00020018F7D03C080912001877F80932001E2
:1012B0000895CF93C62F9091C30421E02093250376
:1012C000909347031092260310924803682F86EDEF
:1012D00094E00FDC80E057D48091C3049091240304
:1012E0009111FCCF6C2FC13208F060E291E0909335
:1012F0002403909323032FEF2093220310922103C2
:10130000260F209320039093FF029091FF02880FF5
:10131000892B8093FF028091FE02813061F410924C
:10132000FE028091FF028093BB008091BC0083FD90
:10133000F8CF85EC01C085EE8093BC00809124033A
:101340008130E1F380912103861710F4609121032D
:10135000A0E0B3E029ED32E0F9018E2F821B861761
:1013600018F48D918193F9CF1092D8026093D7022F
:10137000CF91089562E070E08AE190E09ADF82E028
:1013800090E0CAD36091C6047091C7048091C804EC
:101390009091C9040E943A142AE737E14FE85AE3D2
:1013A0000C949B14CF93C62F9091C30421E02093FB
:1013B0002503909347031092260310924803682F49
:1013C00086ED94E096DB6C2F86ED94E092DB81E075
:1013D000CF91D9C3E82FF0E0EE0FFF1FE050FE4F92
:1013E0007183608390E08830910508F046C0FC016D
:1013F0008827EC57FF4F8F4F0C949116809169000E
:101400008C7F816080936900E89A089580916900DB
:10141000837F846080936900E99A089580916900D0
:101420008F7C806180936900EA9A089580916900B9
:101430008F73806480936900EB9A089580916A00AD
:101440008C7F816080936A00EC9A089580916A0095
:10145000837F846080936A00ED9A089580916A008A
:101460008F7C806180936A00EE9A089580916A0073
:101470008F73806480936A00EF9A0895CF93DF930F
:1014800000D01F92CDB7DEB769837A838B839C83AC
:101490008091930490919404DC01ED91FC91028081
:1014A000F381E02D44E050E0BE016F5F7F4F19955E
:1014B0000F900F900F900F90DF91CF910895CF93E1
:1014C000DF93282F30E0F901EC5CFD4F8491F901A6
:1014D000E251FE4FD491F901E855FE4FC491CC235F
:1014E00089F0811190DEEC2FF0E0EE0FFF1FE25744
:1014F000FE4FA591B491EC91ED2381E090E021F4B1
:1015000080E002C080E090E0DF91CF9108951F93CA
:10151000CF93DF93282F30E0F901EC5CFD4F8491ED
:10152000F901E251FE4FD491F901E855FE4FC49103
:10153000CC23C1F0162F811166DEEC2FF0E0EE0F08
:10154000FF1FEC58FE4FA591B4918FB7F89411117D
:1015500005C09C91ED2FE095E92302C0EC91ED2BA5
:10156000EC938FBFDF91CF911F910895CF93DF93BD
:1015700090E0FC01E251FE4F2491FC01E855FE4F42
:101580008491882361F190E0880F991FFC01E65A4D
:10159000FE4FC591D491FC01EC58FE4FA591B4913A
:1015A000611109C09FB7F8948881209582238883B0
:1015B000EC912E230BC0623061F49FB7F894388110
:1015C000822F809583238883EC912E2B2C939FBFB1
:1015D00006C08FB7F894E8812E2B28838FBFDF9148
:1015E000CF9108951F93CF93DF93182FEB0161E004
:1015F000BDDF209711F460E004C0CF3FD10531F486
:1016000061E0812FDF91CF911F9181CFE12FF0E039
:10161000EC5CFD4FE4914E2F50E0FA013197E2313E
:10162000F10508F09DC08827E457FF4F8F4F0C94B9
:10163000911684B5806884BDC7BD97C084B58062AB
:1016400084BDC8BD92C08091800080688093800076
:10165000D0938900C093880088C080918000806208
:1016600080938000D0938B00C0938A007EC08091CD
:101670008000886080938000D0938D00C0938C00A0
:1016800074C08091B00080688093B000C093B300B4
:101690006CC08091B00080628093B000C093B400B1
:1016A00064C080919000806880939000D0939900EE
:1016B000C09398005AC080919000806280939000FF
:1016C000D0939B00C0939A0050C080919000886096
:1016D00080939000D0939D00C0939C0046C0809161
:1016E000A00080688093A0008091A0008F7B8093F1
:1016F000A000D093A900C093A80037C08091A0009B
:1017000080628093A000D093AB00C093AA002DC04C
:101710008091A00088608093A000D093AD00C0931A
:10172000AC0023C080912001806880932001D09379
:101730002901C093280119C0809120018062809303
:101740002001D0932B01C0932A010FC0809120016A
:10175000886080932001D0932D01C0932C0105C097
:10176000C038D1050CF04CCF46CFDF91CF911F91FF
:1017700008953FB7F8948091FA029091FB02A091EE
:10178000FC02B091FD0226B5A89B05C02F3F19F0C1
:101790000196A11DB11D3FBFBA2FA92F982F8827F1
:1017A000820F911DA11DB11DBC01CD0142E0660F4C
:1017B000771F881F991F4A95D1F708958F929F929E
:1017C000AF92BF92CF92DF92EF92FF926B017C01BA
:1017D000D0DF4B015C01C114D104E104F104E9F054
:1017E000C8DFDC01CB0188199909AA09BB09883E29
:1017F0009340A105B10578F321E0C21AD108E108B0
:10180000F10888EE880E83E0981EA11CB11CC1145B
:10181000D104E104F10421F7DECFFF90EF90DF90D7
:10182000CF90BF90AF909F908F9008951F920F928E
:101830000FB60F9211242F933F938F939F93AF93E3
:10184000BF938091D3029091D402A091D502B09120
:10185000D6023091F90223E0230F2D3720F40196B0
:10186000A11DB11D05C026E8230F0296A11DB11DC3
:101870002093F9028093D3029093D402A093D502CF
:10188000B093D6028091FA029091FB02A091FC02E3
:10189000B091FD020196A11DB11D8093FA029093B3
:1018A000FB02A093FC02B093FD02BF91AF919F9108
:1018B0008F913F912F910F900FBE0F901F90189511
:1018C000CF92DF92EF92FF920F931F93CF93DF930C
:1018D000EC016A017B01E889F98982E08083411586
:1018E000514E61057105B1F060E079E08DE390E063
:1018F000A70196010E946F1689019A0101501109F2
:1019000021093109369527951795079598010115F5
:101910001041A8F0E889F989108260E874E88EE146
:1019200090E0A70196010E946F16DA01C9010197A4
:10193000A109B109B695A795979587959C01EC8566
:10194000FD853083EE85FF852083188EEC89FD8927
:1019500086E08083EA89FB89808180618083EA89CF
:10196000FB89808188608083EA89FB898081806827
:101970008083EA89FB8980818F7D8083DF91CF918D
:101980001F910F91FF90EF90DF90CF900895CF922D
:10199000DF92EF92FF920F931F93CF93DF93CDB718
:1019A000DEB728970FB6F894DEBF0FBECDBF7B0120
:1019B000A0918504B09186042D913C911197FC0172
:1019C0004481558160817181F90122813381CD018A
:1019D000F9011995CEDE60938F0470939004809383
:1019E000910490939204C5DE00918F0410919004AD
:1019F0002091910430919204601B710B820B930B28
:101A000039D72DEB37E346E855E395D720E030E0B2
:101A100040E85FE30E94211687FF6DC08091850436
:101A200090918604DC01ED91FC910084F185E02D1C
:101A30001995F7012481358182179307A1F6C0908B
:101A40008504D09086046BE472E0CE0101960E947A
:101A50002E02C601D8D82D813E8197FD1AC08F83F2
:101A6000188689010F5F1F4FB801CE0101960E94B1
:101A70008501882371F329813A818D819E81BE0180
:101A8000695F7F4F820F931F0E94C0181E830D83D2
:101A9000E0CFD70114968D919C911597281739079F
:101AA00011F589819A816D917C91009719F06115EA
:101AB0007105A1F46115710549F0232BB1F0FB010B
:101AC000808190E09195819591090AC0009769F015
:101AD000232B59F0DC018C9190E002C00E94B718D2
:101AE00011E0892B19F010E001C011E0CE01019640
:101AF0000E94290201C010E0812F28960FB6F894A9
:101B0000DEBF0FBECDBFDF91CF911F910F91FF9030
:101B1000EF90DF90CF9008950F931F93CF93DF93B3
:101B20008C018091C504882381F0E8012197D7FDBD
:101B300009C086ED94E00E94F804FE01ED53FB4FCE
:101B40008383F4CF23E030E00FC0C0E0D0E0C017C3
:101B5000D107C4F786ED94E00E94F804FE01ED532E
:101B6000FB4F83832196F3CF201731073CF0F90117
:101B7000ED53FB4F138221503109F6CFDF91CF9106
:101B80001F910F910895382F20914803909147039A
:101B9000213208F049C0809124038111FCCF42E03A
:101BA00040932403309323033FEF3093220310929A
:101BB000210320932003A7E2B3E040E053E0FA01C1
:101BC0003E2F341B321718F43D913193F9CF109208
:101BD000FF022091FF02990F922B9093FF029091A8
:101BE000FE02913061F41092FE029091FF029093F8
:101BF000BB009091BC0093FDF8CF95EC01C095EE31
:101C00009093BC00909124039230E1F390912203D1
:101C10009F3F79F080912203803241F0809122032E
:101C2000803331F084E005C081E003C082E001C070
:101C300083E0109226031092480310922503089522
:101C4000CF93DF93CDB7DEB7EF970FB6F894DEBF33
:101C50000FBECDBF789484B5826084BD84B58160A9
:101C600084BD85B5826085BD85B5816085BD809167
:101C70006E00816080936E001092810080918100DF
:101C800082608093810080918100816080938100D7
:101C9000809180008160809380008091B100846099
:101CA0008093B1008091B00081608093B0008091FA
:101CB0009100826080939100809191008160809377
:101CC0009100809190008160809390008091A100AC
:101CD00082608093A1008091A10081608093A10027
:101CE0008091A00081608093A0008091210182609A
:101CF0008093210180912101816080932101809155
:101D0000200181608093200180917A00846080931B
:101D10007A0080917A00826080937A0080917A00C4
:101D2000816080937A0080917A00806880937A0045
:101D30001092C1008091700281110BC081E08093EC
:101D4000700261E08091830411DC60E08091830483
:101D5000DEDB80917102811142C081E080937102CB
:101D600081EA94E002D961E08091A104D0DB209166
:101D7000A404223059F0233061F08EEE820F8430BB
:101D800058F487E190E0821B910908C080E090E060
:101D900005C081E090E002C08FEF9FEF883018F41B
:101DA0006DEF75E017DB2091A504223059F0233048
:101DB00061F08EEE820F843058F487E190E0821B50
:101DC000910908C080E090E005C081E090E002C089
:101DD0008FEF9FEF883018F46FEC75E0FBDA80919D
:101DE0007202811142C081E08093720282EB94E022
:101DF000BCD861E08091B2048ADB2091B504223026
:101E000059F0233061F08EEE820F843058F487E170
:101E100090E0821B910908C080E090E005C081E05D
:101E200090E002C08FEF9FEF883018F460E076E01A
:101E3000D1DA2091B604223059F0233061F08EEED1
:101E4000820F843058F487E190E0821B910908C02A
:101E500080E090E005C081E090E002C08FEF9FEF4E
:101E6000883018F462ED75E0B5DA88E290E090937E
:101E7000C4048093C3041092C5041092D802109237
:101E8000D70210922603109248031092240381E097
:101E9000809323031092FE0261E084E138DB61E06D
:101EA00085E135DB8091B9008E7F8093B900809108
:101EB000B9008D7F8093B90088E48093B80085E4F1
:101EC0008093BC0060E08DE390E06CDA64E070E049
:101ED00080E090E0EED981E090E01EDEC090C60484
:101EE000D090C704E090C804F090C90481E090E06D
:101EF00013DE4090C6045090C7046090C8047090F0
:101F0000C90481E090E008DE8090C6049090C70488
:101F1000A090C804B090C90481E090E0FDDD8091FC
:101F2000C6049091C704A091C804B091C90420EAE6
:101F3000C216D104E104F104B1F5EBEF4E165104E1
:101F40006104710481F5F2E38F169104A104B104D8
:101F500051F50F97A105B10531F560E08EE390E0F2
:101F600021DAE091CA04F091CB04E25EFD4F60817A
:101F700081E490E017DAE091CA04F091CB04EA5EC4
:101F8000FD4F608182E490E00DDA6CE08DE390E03B
:101F900009DAF0D96093730270937402809375022A
:101FA0009093760203C081E00E948B0761E084E099
:101FB000DDDA61E084E0ABDA6CED75E080E090E0C2
:101FC000FDDB4091CE045091CF046091D00470911C
:101FD000D1048091CC049091CD0472DC8CEC94E01F
:101FE0000E944A0761E08CEC94E00E94E30620E046
:101FF00030E040E85FE361E070E08CEC94E00E9448
:10200000F806882309F4DEC28CEC94E00E94ED0609
:10201000813009F0D9C26BE472E0CE01CA960E9409
:102020002E028091870490918804A0918904B09138
:102030008A04811526E99207A105B10509F45FC05C
:1020400038F5803CF2E19F07A105B10509F451C0C4
:1020500080F4803BE4E09E07A105B10509F446C089
:1020600080369940A105B10509F0EFC06CE472E03B
:1020700054C0803825E29207A105B105E9F1811528
:102080009B44A105B10509F0E0C062E572E045C0DE
:102090008115F4E89F07F3E0AF07B105B1F178F4DB
:1020A0008115E1EE9E07A105B10561F18115924C04
:1020B000A140B10509F0C9C068E572E02EC08115E4
:1020C00020E192072EE0A207B10511F18115E8E1A8
:1020D0009E07E5E1AE07B105F1F081159840A740F4
:1020E000B10509F0B2C06CE572E017C06AE472E0B5
:1020F00014C06EE472E011C060E572E00EC064E5E9
:1021000072E00BC066E572E008C06AE572E005C0E7
:102110006EE572E002C060E672E0CE01CA960E94EF
:10212000FB0140918B0450918C0460918D0470915F
:102130008E048091850490918604C2DB62E672E091
:10214000CE0182960E942E0265E672E0CE010196D3
:102150000E942E02BE016E5D7F4FCE01019617DCFC
:10216000182FCE0101960E942902CE0182960E946C
:102170002902112309F45AC06091870470918804E0
:102180008091890490918A041FA61EA619AA18AAF4
:102190001BAA1AAA2AE0AE014F5F5F4F3AD3BE01D5
:1021A0006F5F7F4FCE018E960E94FB0162E672E068
:1021B000CE0188960E942E02BE01625D7F4FCE0145
:1021C00088960E94AC01BC01CE01C4960E94100208
:1021D00068E672E0CE0101960E942E02BE01665CA6
:1021E0007F4FCE0101960E94AC01BC01CE018296C8
:1021F0000E941002BE016C5C7F4FCE018296C7DB4D
:10220000182FCE0182960E942902CE0101960E94CB
:102210002902CE01C4960E942902CE0188960E940E
:102220002902CE018E960E94290201C010E0409141
:102230008704509188046091890470918A04809188
:102240008504909186043CDB01C010E0CE01CA9663
:102250000E942902112309F4BBC1409195045091B9
:1022600096046091970470919804809193049091E2
:10227000940426DB61E08091830449D983E994E0EA
:102280000E944A0729E936E746E95EE761E070E027
:1022900083E994E00E94F80683E994E00E94ED0649
:1022A000813009F099C161E083E994E00E94E3067E
:1022B00060DA60939D0470939E0480939F049093D2
:1022C000A0048E010B5F1F4FDD24D39453D82091BF
:1022D0007302309174024091750250917602DFD3FF
:1022E00060937702709378028093790290937A02D8
:1022F000F8946091A6047091A7048091A80490912D
:10230000A9047894B9D22091AE043091AF044091E1
:10231000B0045091B1040FD34B015C01F89460916B
:10232000B7047091B8048091B9049091BA0478947C
:10233000A3D22091BF043091C0044091C1045091B8
:10234000C204F9D29B01AC01F8941092A604109239
:10235000A7041092A8041092A9047894F8941092FB
:10236000B7041092B8041092B9041092BA04789489
:10237000C501B40195D320E030E040E05FE3DBD25B
:1023800024E83DE04FE05DE3D6D24B015C01409094
:102390007702509078026090790270907A02C301BF
:1023A000B20153D49B01AC01C501B401C4D29B015D
:1023B000AC0160917F0270918002809181029091C6
:1023C00082026ED360937F027093800280938102B9
:1023D00090938202C301B201C7D39B01AC01C50136
:1023E000B401A9D29B01AC0160917B0270917C0287
:1023F00080917D0290917E0253D360937B02709313
:102400007C0280937D0290937E0283E994E00E9497
:102410004007892B09F48AC083E994E00E944007B1
:10242000892B09F479C083E994E00E94ED0683309A
:1024300009F44BC0843009F46CC0823009F0D0C07C
:1024400020E030E040E85FE368E070E083E994E09A
:102450000E94F806882309F4C5C062E083E994E08D
:102460000E94E306CE0101967C0183E994E00E947C
:10247000ED06F70181937F01E017F107B1F789813C
:102480009A81AB81BC818093880290938902A0934A
:102490008A02B0938B02CE0101967C0183E994E01D
:1024A0000E94ED06F70181937F01E017F107B1F774
:1024B00089819A81AB81BC8180938402909385024B
:1024C000A0938602B0938702A7CF63E083E994E0EC
:1024D0000E94E30660917F027091800280918102E8
:1024E000909182020E943E0A60917B0270917C0270
:1024F00080917D0290917E020E943E0A6091770257
:10250000709178028091790290917A020E943E0A3D
:1025100083CFD092830280CF2CD960939D04709397
:102520009E0480939F049093A0041AC022D98090A7
:102530009D0490909E04A0909F04B090A004681900
:1025400079098A099B0996D12DEB37E346E855E3D3
:10255000F2D120E030E040E85FE373D387FF44C06E
:10256000409188025091890260918A0270918B0299
:1025700081EA94E00E946C074091840250918502A8
:10258000609186027091870282EB94E00E946C0752
:1025900080918302882399F040E050E0BA0181EAFB
:1025A00094E00E946C0740E050E0BA0182EB94E0B6
:1025B0000E946C0760E0809183040E94870A0E9459
:1025C000B50484CE82E001C083E00E948B0723CD56
:1025D00084E00E948B074ECE85E00E948B0771CE6F
:1025E00082E003C083E001C081E00E948B07B8CF86
:1025F0008F929F92AF92BF92CF92DF92EF92FF9213
:102600000F931F93CF93DF93A9E4B3E013961C922B
:102610001E92129708EE13E020E030E014960D931E
:102620001D932D933C9317978AE292E011969C9309
:102630008E9345ED50E01D965C934E931C9744EDB0
:1026400050E01F965C934E931E9740ED50E05196DC
:102650005C934E93509741ED50E053965C934E93AC
:10266000529742ED50E055965C934E93549746ED49
:1026700050E057965C934E93569759961C925997F3
:102680005A961C925A975B961C925B975C961C928A
:102690005C97E6EEF3E013821282048315832683AF
:1026A00037839183808385EC90E09587848784ECE1
:1026B00090E09787868780EC90E0918B808B81EC0F
:1026C00090E0938B828B82EC90E0958B848B86ECF0
:1026D00090E0978B868B118E128E138E148E8DE068
:1026E00090E0909384048093830410929D04109250
:1026F0009E0410929F041092A004C3E9D4E01E82AD
:102700001F8218861986F983E88340E052EC61E065
:1027100070E04A835B836C837D83C5E8D4E01A86CE
:102720001B861C861D86F983E8834A835B836C8342
:102730007D834E835F8368877987E1EAF4E01582C1
:1027400016821782108688E0808389E081838AE080
:10275000828383E0838382E08483812C912C8AEAC4
:10276000A82E81E4B82E81869286A386B4869DEF3A
:10277000C92E9DEAD92EE12C9BE3F92EC586D6867B
:10278000E786F08AE2EBF4E0158216821782108663
:1027900085E0808387E0818386E0828383E1838391
:1027A00082E1848381869286A386B486C586D68696
:1027B000E786F08AE3ECF4E01182108281E0828304
:1027C00083E090E090878783ECECF4E01682178238
:1027D00010861186B183A0834283538364837583FB
:1027E000E6EDF4E013821282048315832683378397
:1027F0008CE392E091838083DF91CF911F910F91C1
:10280000FF90EF90DF90CF90BF90AF909F908F9010
:102810000895BB27FA01A62F62177105810591055E
:10282000330B30FB66F0AA27660F771F881F991FAE
:10283000AA1FA21710F0A21B63953850A9F7A05D3C
:10284000AA3308F0A95DA19336F7B111B1931082B4
:10285000CA0100C0DC01FC01672F71917723E1F709
:10286000329704C07C916D9370836291AE17BF075D
:10287000C8F30895E89409C097FB3EF490958095BD
:10288000709561957F4F8F4F9F4F9923A9F0F92F36
:1028900096E9BB279395F695879577956795B795B4
:1028A000F111F8CFFAF4BB0F11F460FF1BC06F5F9A
:1028B0007F4F8F4F9F4F16C0882311F096E911C0AC
:1028C000772321F09EE8872F762F05C0662371F0CD
:1028D00096E8862F70E060E02AF09A95660F771FE1
:1028E000881FDAF7880F9695879597F90895990FBD
:1028F0000008550FAA0BE0E8FEEF16161706E807CA
:10290000F907C0F012161306E407F50798F0621BEA
:10291000730B840B950B39F40A2661F0232B242BBF
:10292000252B21F408950A2609F4A140A6958FEFDE
:10293000811D811D08950BD078C069D028F06ED01C
:1029400018F0952309F05AC05FC01124A2C07ED0B0
:10295000A0F3959FD1F3950F50E0551F629FF001B2
:10296000729FBB27F00DB11D639FAA27F00DB11D0B
:10297000AA1F649F6627B00DA11D661F829F222794
:10298000B00DA11D621F739FB00DA11D621F839F1B
:10299000A00D611D221F749F3327A00D611D231FF1
:1029A000849F600D211D822F762F6A2F11249F573F
:1029B00050408AF0E1F088234AF0EE0FFF1FBB1F62
:1029C000661F771F881F91505040A9F79E3F510501
:1029D00070F014C05EC05F3FECF3983EDCF3869568
:1029E00077956795B795F795E7959F5FC1F7FE2BAC
:1029F000880F911D9695879597F9089597F99F6788
:102A000080E870E060E008959FEF80EC0895002476
:102A10000A941616170618060906089500240A9443
:102A200012161306140605060895092E0394000CC9
:102A300011F4882352F0BB0F40F4BF2B11F460FF58
:102A400004C06F5F7F4F8F4F9F4F089557FD905881
:102A5000440F551F59F05F3F71F04795880F97FB62
:102A6000991F61F09F3F79F087950895121613061C
:102A70001406551FF2CF4695F1DF08C0161617064B
:102A80001806991FF1CF8695710561050894089580
:102A9000E894BB2766277727CB0197F9089550580C
:102AA000BB27AA270ED0C1CFB2DF30F0B7DF20F0AE
:102AB00031F49F3F11F41EF4A7CF0EF4E095E7FB2D
:102AC0009DCFE92FC3DF80F3BA176207730784072E
:102AD000950718F071F49EF5DBCF0EF4E0950B2E00
:102AE000BA2FA02D0B01B90190010C01CA01A00160
:102AF0001124FF27591B99F0593F50F4503E68F1BB
:102B00001A16F040A22F232F342F4427585FF3CFFB
:102B1000469537952795A795F0405395C9F77EF4CC
:102B20001F16BA0B620B730B840BBAF09150A1F015
:102B3000FF0FBB1F661F771F881FC2F70EC0BA0F9B
:102B4000621F731F841F48F4879577956795B79523
:102B5000F7959E3F08F0B3CF9395880F08F099271B
:102B6000EE0F97958795089534D0E39559C004D01A
:102B70006894B1118ECF089571DF88F09F5790F05F
:102B8000B92F9927B751A0F0D1F0660F771F881F92
:102B9000991F1AF0BA95C9F712C0B13081F078DFE9
:102BA000B1E0089575CF672F782F8827B85F39F087
:102BB000B93FCCF3869577956795B395D9F73EF4F1
:102BC00090958095709561957F4F8F4F9F4F089599
:102BD0001BCF44DFE8F3E894E0E0BB279F57F0F019
:102BE0002AED3FE049EC06C0EE0FBB0F661F771FD2
:102BF000881F28F0B23A62077307840728F0B25A98
:102C0000620B730B840BE3959A9572F7803830F45E
:102C10009A95BB0F661F771F881FD2F790481DC07B
:102C2000EF93E0FF06C0A2EA2AED3FE049EC5FEB3C
:102C300048DFFBDE0F90039401FC9058ECE3F1E0D9
:102C400018C055DE08F48FEF08959F93C2DF0F90F0
:102C500007FCEE5FE5CF9F3F31F0915020F4879560
:102C600077956795B795880F911D9695879597F9F4
:102C700008959F938F937F936F93FF93EF939B019F
:102C8000AC0159DEEF91FF9105D02F913F914F910B
:102C90005F9151CEDF93CF931F930F93FF92EF92EB
:102CA000DF927B018C01689405C0DA2EEF014FDEC4
:102CB000FE01E894A5912591359145915591AEF38A
:102CC000EF01FFDEFE019701A801DA9479F7DF90AA
:102CD000EF90FF900F911F91CF91DF910895A1E2A6
:102CE0001A2EAA1BBB1BFD010DC0AA1FBB1FEE1F86
:102CF000FF1FA217B307E407F50720F0A21BB30BD1
:102D0000E40BF50B661F771F881F991F1A9469F74C
:102D100060957095809590959B01AC01BD01CF01A8
:102D20000895EE0FFF1F881F8BBF0790F691E02DCF
:102D30001994CF93DF938230910510F482E090E0F4
:102D4000E091E404F091E50420E030E0C0E0D0E060
:102D5000309711F14081518148175907C0F0481749
:102D6000590761F482819381209719F09B838A83AC
:102D70002BC09093E5048093E40426C0211531050F
:102D800019F04217530718F49A01BE01DF01EF0151
:102D90000280F381E02DDCCF2115310509F1281BDC
:102DA000390B2430310590F412968D919C91139734
:102DB0006115710521F0FB019383828304C0909318
:102DC000E5048093E404FD01329644C0FD01E20F66
:102DD000F31F81939193225031092D933C933AC074
:102DE0002091E2043091E304232B41F4209112025C
:102DF000309113023093E3042093E20420911002F7
:102E0000309111022115310541F42DB73EB74091A3
:102E1000140250911502241B350BE091E204F0914D
:102E2000E304E217F307A0F42E1B3F0B2817390722
:102E300078F0AC014E5F5F4F2417350748F04E0F16
:102E40005F1F5093E3044093E2048193919302C087
:102E5000E0E0F0E0CF01DF91CF9108950F931F9351
:102E6000CF93DF93009709F48CC0FC013297138253
:102E700012820091E4041091E5040115110581F41A
:102E800020813181820F931F2091E2043091E3046D
:102E90002817390779F5F093E304E093E20471C051
:102EA000D80140E050E0AE17BF0750F412962D91C4
:102EB0003C911397AD012115310509F1D901F3CFEB
:102EC0009D01DA013383228360817181860F971F10
:102ED0008217930769F4EC0128813981260F371F87
:102EE0002E5F3F4F318320838A819B81938382832E
:102EF000452B29F4F093E504E093E40442C01396D3
:102F0000FC93EE931297ED01499159919E01240F84
:102F1000351FE217F30771F480819181840F951FAB
:102F2000029611969C938E938281938113969C9323
:102F30008E931297E0E0F0E0D80112968D919C916B
:102F40001397009719F0F8018C01F6CF8D919C91A1
:102F500098012E5F3F4F820F931F2091E204309122
:102F6000E3042817390769F4309729F41092E5042F
:102F70001092E40402C0138212821093E3040093BF
:102F8000E204DF91CF911F910F9108956F927F928C
:102F90008F929F92AF92BF92CF92DF92EF92FF9269
:102FA0000F931F93CF93DF93EC01009781F4CB0134
:102FB000DF91CF911F910F91FF90EF90DF90CF9015
:102FC000BF90AF909F908F907F906F90B2CEFC019A
:102FD000E60FF71F9C0122503109E217F30708F4AE
:102FE000A8C0D9010D911C91119706171707A8F0D9
:102FF0000530110508F49BC0C80104978617970790
:1030000008F495C002501109061B170B0193119388
:103010006D937C93CF0122DF8AC05B01A01AB10AB5
:103020004C01800E911EA091E404B091E50440E0B3
:1030300050E0E12CF12C109709F44AC0A815B9050D
:10304000D1F56D907C901197630182E0C80ED11C80
:10305000CA14DB0480F1A3014A195B096A0182E00A
:10306000C80ED11C1296BC9012971396AC91B5E085
:10307000CB16D10440F0B282A38351834083D9019F
:103080006D937C930AC00E5F1F4FC301800F911F89
:10309000F90191838083EB2DFA2FE114F10431F0D3
:1030A000D7011396FC93EE93129741C0F093E50479
:1030B000E093E4043CC08D919C9111974817590707
:1030C00008F4AC017D0112960D90BC91A02DB3CFF8
:1030D0008091E2049091E30488159905E1F4461784
:1030E0005707C8F48091100290911102009741F4A3
:1030F0008DB79EB74091140250911502841B950B19
:10310000E817F907B0F4F093E304E093E204F9015F
:10311000718360830CC0CB010CDE7C01009749F009
:10312000A801BE011BD0CE0199DEC70104C0CE01AB
:1031300002C080E090E0DF91CF911F910F91FF904E
:10314000EF90DF90CF90BF90AF909F908F907F9047
:103150006F90089581E090E0F89419C0FB01DC01C4
:1031600002C001900D9241505040D8F70895FB01E4
:10317000DC018D91019080190110D9F3990B08950C
:10318000FB01DC0101900D920020E1F70895F89415
:02319000FFCF6F
:1031920070017001700170017001700170017001A5
:1031A2000000E60480000400060203010705212452
:1031B200242124212124000000004E049A03DE036E
:1031C20094040F04ED0301040000000079054A0590
:1031D2001505E8040C05F804E90431003200330057
:1031E2003400350036003700380039004100420013
:1031F20043004F4B0041540041542B42415544007F
:00000001FF
