:1000000008C10000A3C5000076C5000049C5000076
:100010001CC50000EFC40000C2C4000095C400006D
:1000200068C4000027C1000025C1000023C10000F2
:1000300021C100001FC100001DC100001BC1000044
:1000400019C1000017C1000015C1000013C1000054
:1000500011C100000FC100000DC100000C94770B0E
:1000600009C1000055C600002AC6000003C10000F7
:1000700001C10000FFC00000FDC00000FBC0000087
:10008000F9C00000F7C00000F5C00000F3C0000098
:10009000F1C00000EFC00000EDC000008CC6000001
:1000A000E9C00000E7C00000E5C00000E3C00000B8
:1000B000E1C00000DFC00000DDC00000DBC00000C8
:1000C000D9C00000D7C00000D5C00000CFC50000D7
:1000D000A4C50000CFC00000CDC00000CBC0000010
:1000E000C9C00000CC0ACF0ABE0AC20AC60A060B63
:1000F000D30AD70ADD0AE10AE50AEB0AEF0AF30A96
:10010000060BF90AFD0A010B000022002500280059
:100110002B002E003100340002010000050108010F
:100120000B0100002100240027002A002D003000D0
:10013000330001010000040107010A01050505055E
:10014000070508080808020202020A0A080804044F
:10015000040401010101010101010303030303037D
:100160000303040707070C0C0C0C0C0C0C0C02020C
:10017000020206060606060606060B0B0B0B0B0B09
:100180000B0B010210202008081020401020408096
:10019000020102010804020101020408102040804B
:1001A00080402010080402018004020180402010D9
:1001B0000804020108040201010204081020408022
:1001C000010204081020408000000A0B02090C0DF7
:1001D0000E080703040100000000000000000000FA
:1001E000000000000000000000000000000000000F
:1001F00000000000121110000000000000000000CC
:100200000000000000000000000000000000D00E10
:10021000C40E11241FBECFEFD1E2DEBFCDBF00E080
:100220000CBF25E0ACEAB2E001C01D92A731B207D5
:10023000E1F712E0A0E0B2E0E0EBF7E200E00BBF94
:1002400002C007900D92AC3AB107D9F711E0C8E0AF
:10025000D1E000E006C021970109802FFE010E9435
:100260009111C730D10780E00807A9F70E94C10BA0
:100270000C94C713C5CE0895CF92DF92EF92FF92F0
:100280000F931F93CF93DF936C017A018B01C0E032
:10029000D0E0CE15DF0589F0D8016D918D01D60132
:1002A000ED91FC910190F081E02DC6011995892B0B
:1002B00011F47E0102C02196ECCFC701DF91CF91EE
:1002C0001F910F91FF90EF90DF90CF900895FC0168
:1002D000A089B1898C91A689B78982FD0FC09C91B4
:1002E000818D8F5F8F73228D821749F0218DDF0101
:1002F000A20FB11D5D969C93818F08958C910895F6
:10030000FC01538D448D252F30E0842F90E0821B1B
:10031000930B541710F0CF96089501970895FC01A0
:10032000918D828D981761F0828DDF01A80FB11D2C
:100330005D968C91928D9F5F9F73928F90E0089550
:100340008FEF9FEF0895FC01918D828D981731F00A
:10035000828DE80FF11D858D90E008958FEF9FEF5E
:100360000895FC01918D228D892F90E0805C9F4F34
:10037000821B91098F739927089588EF92E0F1DF2E
:1003800021E0892B09F420E0822F089585E993E08C
:10039000E8DF21E0892B09F420E0822F0895FC0199
:1003A000848DDF01A80FB11DA35ABF4F2C91848DFE
:1003B00090E001968F739927848FA689B7892C9333
:1003C000A089B1898C9180648C93938D848D9813CE
:1003D00006C00288F389E02D80818F7D8083089597
:1003E000EF92FF920F931F93CF93DF93EC0181E085
:1003F000888F9B8D8C8D981305C0E889F989808141
:1004000085FD23C0F62E0B8D10E00F5F1F4F0F737D
:100410001127E02E8C8DE8120BC00FB607FCFACF27
:10042000E889F989808185FFF5CFCE01B8DFF2CF69
:100430008B8DFE01E80FF11DE35AFF4FF0820B8F09
:10044000EA89FB898081806207C0EE89FF89608329
:10045000E889F98980818064808381E090E0DF9180
:10046000CF911F910F91FF90EF900895CF93DF935D
:10047000EC01888D8823C1F0EA89FB89808185FDA4
:1004800005C0A889B9898C9186FD0EC00FB607FCFE
:10049000F5CF808185FFF2CFA889B9898C9185FF3E
:1004A000EDCFCE017CDFE8CFDF91CF91089580E0E2
:1004B00090E0892B19F06ADF811120C080E090E084
:1004C000892B41F080E090E0892B21F00E94000010
:1004D000811117C080E090E0892B19F04EDF811167
:1004E00013C080E090E0892BA1F080E090E0892BA0
:1004F00081F00E94000081110AC008950E9400004E
:10050000DDCF0E940000E6CF0E940000EACF0C94ED
:1005100000000895DC0113962C91139770E0615050
:100520007109269FF001279FF00D1124E40FF11DA2
:100530003197EE0FFF1FEE0FFF1F14968D919C91C8
:100540001597E80FF91F6081718182819381089569
:10055000FC0183810895FC018281089581E0089562
:1005600080E0089570E06150704C660F771F660F51
:10057000771FFC0183819481FC01E60FF71F6081E6
:100580007181828193810895FC018281089581E0C7
:10059000089580E008950895E091A2048091A10457
:1005A000E81730F4F0E0ED55FB4F808190E00895BE
:1005B0008FEF9FEF08959091A2048091A104981766
:1005C00050F4E92FF0E0ED55FB4F208130E09F5FC4
:1005D0009093A20402C02FEF3FEFC90108958091CC
:1005E000A10490E02091A204821B9109089508952E
:1005F00080E090E0089585ED8093BC008091BC0080
:1006000084FDFCCF1092E90408954091CE02262F7C
:1006100030E0240F311D21323105DCF42091E90452
:100620002430C9F4FC0180E090E0861758F4309142
:10063000CE022191DC01A455BD4FA30FB11D2C9317
:100640000196F3CF8091CE02680F6093CE0280E0D6
:10065000089581E0089582E00895CF92DF92EF92AD
:10066000FF920F931F93CF93DF937C01262F972F39
:100670008A018091EA04882391F0C62FD72F6E015A
:10068000C40ED51ECC15DD0569F06991D701ED9139
:10069000FC910190F081E02DC7011995F3CF642FF3
:1006A000822FB3DFC801DF91CF911F910F91FF908F
:1006B000EF90DF90CF900895CF93DF931F92CDB747
:1006C000DEB769832091EA042223D1F020910C0542
:1006D000203240F021E030E0FC013383228380E0CF
:1006E00090E014C08091EB04E82FF0E0E451FB4F60
:1006F000998190838F5F8093EB0480930C0504C0F5
:1007000061E0CE01019681DF81E090E00F90DF9102
:10071000CF910895D82FC1E0DC17A0F061E080915F
:1007200032040CD764E670E080E090E0A8D760E087
:100730008091320403D76AEF70E080E090E09FD7A9
:10074000CF5FEACF68EE73E080E090E098D7E3CF28
:100750000E94AA13CF93DF93EC01888199810097BF
:1007600011F00E942E12198218821D821C821B8297
:100770001A82DF91CF9108950F931F93CF93DF9348
:10078000EC0188819981009729F02A813B81261705
:10079000370788F48B016F5F7F4F0E94C612009766
:1007A00061F0998388831B830A832C813D81232BED
:1007B00011F4FC01108281E001C080E0DF91CF9153
:1007C0001F910F910895EF92FF920F931F93CF9374
:1007D000DF93EC01FB0184819581E080F1800C8145
:1007E0001D81E114F104A9F00097A9F0080F191F69
:1007F000B801CE01C1DF882361F0288139818C8165
:100800009D81B701820F931F0E94C0131D830C832B
:1008100002C0CE019FDFCE01DF91CF911F910F91DA
:10082000FF90EF900895EF92FF920F931F93CF9355
:10083000DF93EC017B018A01BA019EDF811103C0C5
:10084000CE0188DF07C01D830C83B70188819981A1
:100850000E94C013CE01DF91CF911F910F91FF90A5
:10086000EF900895CF93DF93EC016115710551F07E
:10087000FB0101900020E9F73197AF01461B570BB0
:10088000D2DF01C067DFCE01DF91CF910895FB0178
:10089000DC0111961C921E9213961C921E921297C6
:1008A00015961C921E9214978617970741F0608147
:1008B00071816115710519F044815581B4CF089596
:1008C000FC01808191810C942E12FC011182108216
:1008D00013821282158214826115710549F0FB01A1
:1008E00001900020E9F73197AF01461B570B9BCFD2
:1008F00008951F920F920FB60F9211240BB60F920C
:100900002F933F934F935F936F937F938F939F9317
:10091000AF93BF93EF93FF93E0910E02F0910F021C
:100920001995FF91EF91BF91AF919F918F917F9119
:100930006F915F914F913F912F910F900BBE0F9050
:100940000FBE0F901F9018951F920F920FB60F9227
:1009500011240BB60F922F933F934F935F936F9396
:100960007F938F939F93AF93BF93EF93FF93E09108
:100970000C02F0910D021995FF91EF91BF91AF918B
:100980009F918F917F916F915F914F913F912F91A7
:100990000F900BBE0F900FBE0F901F9018951F92D7
:1009A0000F920FB60F9211240BB60F922F933F9315
:1009B0004F935F936F937F938F939F93AF93BF9367
:1009C000EF93FF93E0910202F09103021995FF91DA
:1009D000EF91BF91AF919F918F917F916F915F91B7
:1009E0004F913F912F910F900BBE0F900FBE0F9024
:1009F0001F9018951F920F920FB60F9211240BB6ED
:100A00000F922F933F934F935F936F937F938F93A7
:100A10009F93AF93BF93EF93FF93E0910002F09108
:100A200001021995FF91EF91BF91AF919F918F9125
:100A30007F916F915F914F913F912F910F900BBEDE
:100A40000F900FBE0F901F9018951F920F920FB628
:100A50000F9211240BB60F922F933F934F935F93F6
:100A60006F937F938F939F93AF93BF93EF93FF9376
:100A7000E0910A02F0910B021995FF91EF91BF915D
:100A8000AF919F918F917F916F915F914F913F9126
:100A90002F910F900BBE0F900FBE0F901F901895C7
:100AA0001F920F920FB60F9211240BB60F922F9335
:100AB0003F934F935F936F937F938F939F93AF93E6
:100AC000BF93EF93FF93E0910802F091090219950B
:100AD000FF91EF91BF91AF919F918F917F916F9116
:100AE0005F914F913F912F910F900BBE0F900FBED2
:100AF0000F901F9018951F920F920FB60F9211240E
:100B00000BB60F922F933F934F935F936F937F9307
:100B10008F939F93AF93BF93EF93FF93E091060260
:100B2000F09107021995FF91EF91BF91AF919F91BD
:100B30008F917F916F915F914F913F912F910F9086
:100B40000BBE0F900FBE0F901F9018951F920F9223
:100B50000FB60F9211240BB60F922F933F934F9322
:100B60005F936F937F938F939F93AF93BF93EF9315
:100B7000FF93E0910402F09105021995FF91EF9126
:100B8000BF91AF919F918F917F916F915F914F91A5
:100B90003F912F910F900BBE0F900FBE0F901F90A3
:100BA0001895CF93DF93EC012FB7F89480919D04B3
:100BB00090919E04A0919F04B091A0042FBF8887BC
:100BC0009987AA87BB87E881F9810284F385E02DA4
:100BD000CE01199597FF1EC02FB7F89480919D0400
:100BE00090919E04A0919F04B091A0042FBF4885CE
:100BF00059856A857B85841B950BA60BB70B4C81A9
:100C00005D816E817F8184179507A607B707D8F2AB
:100C10008FEF9FEFDF91CF9108951F920F920FB644
:100C20000F9211240BB60F922F933F934F935F9324
:100C30006F937F938F939F93AF93BF93EF93FF93A4
:100C400088EF92E0ACDBFF91EF91BF91AF919F9164
:100C50008F917F916F915F914F913F912F910F9065
:100C60000BBE0F900FBE0F901F9018951F920F9202
:100C70000FB60F9211240BB60F922F933F934F9301
:100C80005F936F937F938F939F93AF93BF93EF93F4
:100C9000FF9388EF92E01BDBFF91EF91BF91AF9143
:100CA0009F918F917F916F915F914F913F912F9184
:100CB0000F900BBE0F900FBE0F901F9018951F92B4
:100CC0000F920FB60F9211240BB60F922F933F93F2
:100CD0004F935F936F937F938F939F93AF93BF9344
:100CE000EF93FF9385E993E05ADBFF91EF91BF917A
:100CF000AF919F918F917F916F915F914F913F91B4
:100D00002F910F900BBE0F900FBE0F901F90189554
:100D10001F920F920FB60F9211240BB60F922F93C2
:100D20003F934F935F936F937F938F939F93AF9373
:100D3000BF93EF93FF9385E993E0C9DAFF91EF91B9
:100D4000BF91AF919F918F917F916F915F914F91E3
:100D50003F912F910F900BBE0F900FBE0F901F90E1
:100D600018952CE332E0FC01318320838481958146
:100D7000009711F00C942E120895CF93DF93EC019D
:100D8000F0DFCE01DF91CF910C942E122CE532E0F2
:100D9000FC013183208383819481009711F00C94AE
:100DA0002E120895CF93DF93EC01F0DFCE01DF9197
:100DB000CF910C942E121F920F920FB60F92112406
:100DC0000BB60F922F933F934F935F936F937F9345
:100DD0008F939F93AF93BF93EF93FF938091B9004D
:100DE000887F803609F49CC068F5883209F45BC0BE
:100DF00090F4803109F454C038F4882309F4F6C023
:100E0000883009F44DC0F5C0883109F44CC08032F7
:100E100009F45DC0EEC0803409F468C048F4803342
:100E200009F455C0883309F0E4C08093E704D8C0C2
:100E3000803509F44FC0883509F45DC0883409F065
:100E4000D8C0D6C0883909F4C7C0A8F4883709F4D7
:100E500067C038F4883609F463C0803709F460C08D
:100E6000C8C0883809F4B8C0803909F45FC0803838
:100E700009F0BFC05BC0803B09F486C038F4803AFB
:100E800009F466C0883A09F47FC0B3C0803C09F415
:100E9000A7C0883C09F4A4C0883B09F48AC0A9C053
:100EA0008091C40410C09091E6048091E5049817E5
:100EB00070F5E091E60481E08E0F8093E604F0E0A7
:100EC000EB53FB4F80818093BB0085EC86C0809301
:100ED000E7048EC0E091E60481E08E0F8093E60483
:100EE0008091BB00F0E0EB53FB4F80839091E604D0
:100EF0008091E5046EC0E091E60481E08E0F80935E
:100F0000E6048091BB00F0E0EB53FB4F80838091BF
:100F1000E80481116DC081E08093C30484EA61C05C
:100F200083E08093E9041092F202CFCF8091F20225
:100F3000803208F051C0E091F20281E08E0F809380
:100F4000F2028091BB00F0E0EE52FD4F8083BDCFF6
:100F500085EC8093BC001092E9048091F20280320B
:100F600030F4E091F202F0E0EE52FD4F1082609119
:100F7000F20270E0E091D002F091D10282ED92E0B5
:100F800019951092F20235C084E08093E904109222
:100F9000CF021092CE02E091CC02F091CD021995D1
:100FA0008091CE02811105C081E08093CE02109223
:100FB000AC02E091CF0281E08E0F8093CF02F0E08F
:100FC000E455FD4F80818093BB009091CF028091CA
:100FD000CE02981708F479CF85E88093BC0009C049
:100FE00085EC8093BC001092E90403C01092E704E2
:100FF00002DBFF91EF91BF91AF919F918F917F9114
:101000006F915F914F913F912F910F900BBE0F9079
:101010000FBE0F901F901895CF92DF92EF92FF9224
:101020000F931F93CF93DF93EC016A017B0102D3EF
:101030006E837F8388879987FDD20E811F812885E3
:101040003985601B710B820B930B0E9456102DEBA0
:1010500037E346E855E30E94B710A70196010E94C6
:101060006B1187FF0EC088819981DC01ED91FC91A5
:101070000084F185E02D199518161906ECF681E02B
:1010800001C080E0DF91CF911F910F91FF90EF9011
:10109000DF90CF900895CF92DF92EF92FF920F935F
:1010A0001F93CF93DF93EC016A017B01E889F989F3
:1010B00082E080834115514E61057105B1F060E019
:1010C00079E08DE390E0A70196010E946F118901FC
:1010D0009A01015011092109310936952795179573
:1010E0000795980101151041A8F0E889F989108247
:1010F00060E874E88EE190E0A70196010E946F110C
:10110000DA01C9010197A109B109B695A79597958B
:1011100087959C01EC85FD853083EE85FF852083D6
:10112000188EEC89FD8986E08083EA89FB898081BD
:1011300080618083EA89FB89808188608083EA8975
:10114000FB89808180688083EA89FB8980818F7D2B
:101150008083DF91CF911F910F91FF90EF90DF90EF
:10116000CF900895CF92DF92EF92FF920F931F934B
:10117000CF93DF93CDB7DEB728970FB6F894DEBFD5
:101180000FBECDBF7B01A0913404B09135042D91E9
:101190003C911197FC014481558160817181F90175
:1011A00022813381CD01F901199544D260933E0427
:1011B00070933F0480934004909341043BD200918C
:1011C0003E0410913F042091400430914104601B83
:1011D000710B820B930B6AD72DEB37E346E855E38F
:1011E000C6D720E030E040E85FE30E946B1187FF44
:1011F0006AC08091340490913504DC01ED91FC913A
:101200000084F185E02D1995F7012481358182173D
:101210009307A1F6C0903404D090350467E872E0DB
:10122000CE01019652DBC601BCDC2D813E8197FDCB
:1012300019C08F83188689010F5F1F4FB801CE0137
:1012400001969ADA882379F329813A818D819E81EA
:10125000BE01695F7F4F820F931F0E94C0131E83E0
:101260000D83E1CFD70114968D919C911597281786
:10127000390711F589819A816D917C91009719F058
:1012800061157105A1F46115710549F0232BB1F0C9
:10129000FB01808190E09195819591090AC00097AA
:1012A00069F0232B59F0DC018C9190E002C00E9480
:1012B000B71311E0892B19F010E001C011E0CE0145
:1012C0000196FEDA01C010E0812F28960FB6F8943F
:1012D000DEBF0FBECDBFDF91CF911F910F91FF9069
:1012E000EF90DF90CF90089590E0FC01EE57FE4F15
:1012F0002491FC01E45CFE4F8491882399F090E0F6
:10130000880F991FFC01EE5DFE4FA591B491FC0181
:10131000E85FFE4F859194918FB7F894EC91E22BA2
:10132000EC938FBF08950F931F93CF93DF938C019E
:1013300080914E04882379F0E8012197D7FD08C0F9
:101340008FE694E038D9FE01E45BFB4F8383F5CF51
:1013500023E030E00EC0C0E0D0E0C017D107C4F7F2
:101360008FE694E028D9FE01E45BFB4F838321964E
:10137000F4CF201731073CF0F901E45BFB4F1382F7
:1013800021503109F6CFDF91CF911F910F91089530
:10139000382F20910C0590911205213208F049C098
:1013A0008091E9048111FCCF42E04093E90430933D
:1013B000E8043FEF3093E7041092E6042093E5043D
:1013C000ACEEB4E045EC54E0FA013E2F341B32178A
:1013D00018F43D913193F9CF1092C4042091C404C4
:1013E000990F922B9093C4049091C304913061F4AF
:1013F0001092C3049091C4049093BB009091BC00E0
:1014000093FDF8CF95EC01C095EE9093BC009091C0
:10141000E9049230E1F39091E7049F3F79F08091E5
:10142000E704803241F08091E704803331F084E0BA
:1014300005C081E003C082E001C083E01092EB04AC
:1014400010920C051092EA040895CF93C62F909144
:101450004C0421E02093EA04909312051092EB04CF
:1014600010920C05682F8FE694E026D980E090DF7B
:1014700080914C049091E9049111FCCF6C2FC13202
:1014800008F060E291E09093E9049093E8042FEF74
:101490002093E7041092E604260F2093E50490932E
:1014A000C4049091C404880F892B8093C404809154
:1014B000C304813061F41092C3048091C40480930A
:1014C000BB008091BC0083FDF8CF85EC01C085EEA8
:1014D0008093BC008091E9048130E1F38091E604BF
:1014E000861710F46091E604A5ECB4E023EA34E03A
:1014F000F9018E2F821B861718F48D918193F9CFF5
:101500001092A2046093A104CF910895CF93C62FA7
:1015100090914C0421E02093EA04909312051092DC
:10152000EB0410920C05682F8FE694E0C5D86C2F61
:101530008FE694E0C1D881E0CF912ACF362F90E09A
:10154000FC01E853FE4F4491FC01EE57FE4F2491FD
:10155000FC01E45CFE4F9491992309F46AC0442392
:1015600009F454C050E0FA013197E231F10508F076
:101570004DC08827EE58FF4F8F4FD3C68091800013
:101580008F7707C0809180008F7D03C0809180009D
:10159000877F809380003AC084B58F7702C084B57E
:1015A0008F7D84BD33C08091B0008F7703C0809160
:1015B000B0008F7D8093B00029C0809190008F771C
:1015C00007C0809190008F7D03C080919000877F3D
:1015D000809390001BC08091A0008F7707C08091FE
:1015E000A0008F7D03C08091A000877F8093A00022
:1015F0000DC0809120018F7707C0809120018F7DE1
:1016000003C080912001877F80932001E92FF0E0C3
:10161000EE0FFF1FE85FFE4FA591B4918FB7F894CE
:10162000EC91311103C020952E2301C02E2B2C9359
:101630008FBF08953FB7F89480910E0590910F05E4
:10164000A0911005B091110526B5A89B05C02F3FAC
:1016500019F00196A11DB11D3FBFBA2FA92F982FD8
:101660008827820F911DA11DB11DBC01CD0142E053
:10167000660F771F881F991F4A95D1F708958F929B
:101680009F92AF92BF92CF92DF92EF92FF926B0147
:101690007C01D0DF4B015C01C114D104E104F104F1
:1016A000E9F0C8DFDC01CB0188199909AA09BB0957
:1016B000883E9340A105B10578F321E0C21AD10814
:1016C000E108F10888EE880E83E0981EA11CB11C89
:1016D000C114D104E104F10421F7DECFFF90EF90B3
:1016E000DF90CF90BF90AF909F908F9008951F9202
:1016F0000F920FB60F9211242F933F938F939F93C6
:10170000AF93BF9380919D0490919E04A0919F04FC
:10171000B091A00430910D0523E0230F2D3720F464
:101720000196A11DB11D05C026E8230F0296A11D3B
:10173000B11D20930D0580939D0490939E04A0936A
:101740009F04B093A00480910E0590910F05A09185
:101750001005B09111050196A11DB11D80930E05D4
:1017600090930F05A0931005B0931105BF91AF9111
:101770009F918F913F912F910F900FBE0F901F90CF
:101780001895CF93DF93CDB7DEB7EF970FB6F894E8
:10179000DEBF0FBECDBF789484B5826084BD84B5B2
:1017A000816084BD85B5826085BD85B5816085BD5C
:1017B00080916E00816080936E0010928100809114
:1017C000810082608093810080918100816080939C
:1017D0008100809180008160809380008091B100C1
:1017E00084608093B1008091B00081608093B000EC
:1017F000809191008260809391008091910081603E
:1018000080939100809190008160809390008091FE
:10181000A10082608093A1008091A10081608093EB
:10182000A1008091A00081608093A000809121019F
:101830008260809321018091210181608093210148
:101840008091200181608093200180917A008460E2
:1018500080937A0080917A00826080937A008091F0
:101860007A00816080937A0080917A00806880930A
:101870007A001092C1008091F30281110AC081E0C8
:101880008093F302809132042FDD60E08091320476
:1018900055DE88E290E090934D0480934C041092C2
:1018A0004E041092A2041092A1041092EB04109224
:1018B0000C051092E90481E08093E8041092C304BF
:1018C00061E084E13BDE61E085E138DE8091B900D2
:1018D0008E7F8093B9008091B9008D7F8093B9008D
:1018E00088E48093B80085E48093BC0060E08DE3D9
:1018F00090E00CDE64E070E080E090E0A6DD81E046
:1019000090E011DD40904F045090500460905104DD
:101910007090520481E090E006DD80904F0490903A
:101920005004A0905104B090520481E090E0FBDCA0
:10193000C0904F04D0905004E0905104F0905204B5
:1019400081E090E0F0DC80914F0490915004A091F0
:101950005104B091520420EA42165104610471040A
:1019600009F073C02BEF82169104A104B10409F0B1
:101970006CC022E3C216D104E104F10409F065C091
:101980000F97A105B10509F060C060E08EE390E01B
:10199000BDDDE0915304F0915404E25EFD4F60819F
:1019A00081E490E0B3DDE0915304F0915404EA5EE9
:1019B000FD4F608182E490E0A9DD6CE08DE390E072
:1019C000A5DD62E070E08AE190E03FDD82E090E03A
:1019D000AADC60914F047091500480915104909161
:1019E000520464D32AE737E14FE85AE3C0D3609347
:1019F000F4027093F5028093F6029093F70284E06C
:101A000073DC61E084E09ADD6CED75E080E090E0ED
:101A100036DE4091670450916804609169047091CA
:101A20006A04809165049091660435DB80916504B9
:101A300090916604DC01ED91FC910084F185E02D2C
:101A400019957C0100E010E002C081E02FC0809178
:101A5000650490916604DC01ED91FC910E151F0563
:101A60003CF40284F385E02D19950F5F1F4FEFCFF3
:101A70000190F081E02D61E0199540E050E060E8D0
:101A80007FE385E694E0C8DA882379F080916504E5
:101A900090916604DC01ED91FC910284F385E02DC8
:101AA0001995813029F083E001C082E00E948A0309
:101AB00067E872E0CE01CA960E9465048091360400
:101AC00090913704A0913804B0913904811526E92A
:101AD0009207A105B10509F0E8C060E972E010C005
:101AE000813C22E19207A105B10508F0F7C0803BD7
:101AF00024E09207A105B10509F0E7C066E872E0AD
:101B0000CE01CA960E94320440913A0450913B049F
:101B100060913C0470913D048091340490913504AF
:101B2000BADA6EE972E0CE0182960E94650461EA3B
:101B300072E0CE0101960E946504BE016E5D7F4F8A
:101B4000CE0101960FDB182FCE0101960E94600492
:101B5000CE0182960E946004112309F45AC060915C
:101B600036047091370480913804909139041FA68F
:101B70001EA619AA18AA1BAA1AAA2AE0AE014F5F2C
:101B80005F4F63D2BE016F5F7F4FCE018E960E9482
:101B900032046EE972E0CE0188960E946504BE01AF
:101BA000625D7F4FCE0188960E94E303BC01CE01A7
:101BB000C4960E94470464EA72E0CE0101960E9436
:101BC0006504BE01665C7F4FCE0101960E94E3036F
:101BD000BC01CE0182960E944704BE016C5C7F4F1F
:101BE000CE018296BFDA182FCE0182960E94600441
:101BF000CE0101960E946004CE01C4960E9460044A
:101C0000CE0188960E946004CE018E960E946004E8
:101C100001C010E0409136045091370460913804BF
:101C200070913904809134049091350434DA01C004
:101C300010E0CE01CA960E946004112309F4A0C0EE
:101C400040914404509145046091460470914704CA
:101C500080914204909143041EDA49E956E766E90F
:101C60007EE782E494E0D8D98091420490914304C5
:101C7000DC01ED91FC910284F385E02D1995813012
:101C800009F080C08091420490914304DC01ED9101
:101C9000FC910190F081E02D61E0199561E0809167
:101CA00032044CDC0E945702FDCF813026E99207B6
:101CB000A105B10528F5803C22E19207A105B105F7
:101CC00009F00ECF6AE872E01BCF80369940A1057B
:101CD000B10509F0ADCF68E872E012CF803825E297
:101CE0009207A105B10519F46CE872E009CF8115DE
:101CF0009B44A105B10509F09BCF6EE872E000CFCF
:101D0000811524E8920723E0A207B10519F466E9DA
:101D100072E0F6CE813024E8920723E0A207B105F5
:101D200090F4811521EE9207A105B10519F462E93D
:101D300072E0E6CE8115924CA140B10509F078CF52
:101D400064E972E0DDCE811520E192072EE0A20762
:101D5000B10519F46AE972E0D3CE811528E1920742
:101D600025E1A207B10519F46CE972E0C9CE81152D
:101D70009840A740B10509F05BCF68E972E0C0CE9A
:101D800084E094CE85E092CE85E594E00E94B10691
:101D90008BE594E00E94C60680E694E00C94C606AB
:101DA0004F925F926F927F929F92AF92BF92CF922B
:101DB000DF92EF92FF920F931F93CF93DF93C8EFC1
:101DC000D2E01B821A8288EE482E83E0582E612CC6
:101DD000712C4C825D826E827F828AE292E09983CE
:101DE000888325ED30E03D872C8724ED30E03F8768
:101DF0002E8720ED30E0398B288B21ED30E03B8BB6
:101E00002A8B22ED30E03D8B2C8B26ED30E03F8B92
:101E10002E8B198E1A8E1B8E1C8EE5E9F3E0138231
:101E2000128244825582668277829183808385EC18
:101E300090E09587848784EC90E09787868780EC94
:101E400090E0918B808B81EC90E0938B828B82EC85
:101E500090E0958B848B86EC90E0978B868B118E2F
:101E6000128E138E148E8DE090E090933304809345
:101E70003204A2E4B4E016961D921D921D921C92AB
:101E800019971196FC93EE93C12C92ECD92EEE2467
:101E9000E394F12C1296CD92DD92ED92FC9215977F
:101EA000A4E3B4E01A961D921D921D921C921D97F8
:101EB0001196FC93EE931296CD92DD92ED92FC92E8
:101EC00015971696CD92DD92ED92FC921997EBE75D
:101ED000F4E0158216821782108610821182128217
:101EE0001382148240E050E06AEA71E4418752872D
:101EF000638774878DEF9DEAA0E0BBE385879687B3
:101F0000A787B08BECE8F4E0158216821782108662
:101F10001082118212821382148241875287638752
:101F2000748785879687A787B08B00E614E02CE539
:101F3000A22E22E0B22ED8011196BC92AE9232E0CF
:101F4000932E12969C9288E090E0F3D1F80194834E
:101F50008383DC011D921D921D921C921397FC013C
:101F600014821582168217820BE514E0D8011196AF
:101F7000BC92AE9212969C9288E090E0DAD1F80181
:101F800094838383DC011D921D921D921C921397F2
:101F9000FC01148215821682178205E514E08CE399
:101FA00092E0D80111969C938E9312969C92129770
:101FB00013969C9280E190E0BCD1FC01D80115966B
:101FC0009C938E9314971082118212821382148232
:101FD0001582168217821086118612861386148641
:101FE000158616861786ECE4F4E01182108281E0F3
:101FF000828383E090E090878783E5E6F4E01682B1
:10200000178210861186D183C083C282D382E48274
:10201000F582EFE6F4E013821282448255826682F2
:10202000778288E792E091838083DF91CF911F913F
:102030000F91FF90EF90DF90CF90BF90AF909F9067
:102040007F906F905F904F900895BB27FA01A62F65
:102050006217710581059105330B30FB66F0AA27E5
:10206000660F771F881F991FAA1FA21710F0A21BC7
:1020700063953850A9F7A05DAA3308F0A95DA19334
:1020800036F7B111B1931082CA0100C0DC01FC0126
:10209000672F71917723E1F7329704C07C916D939C
:1020A00070836291AE17BF07C8F30895E89409C022
:1020B00097FB3EF490958095709561957F4F8F4F7B
:1020C0009F4F9923A9F0F92F96E9BB279395F69591
:1020D000879577956795B795F111F8CFFAF4BB0F0F
:1020E00011F460FF1BC06F5F7F4F8F4F9F4F16C073
:1020F000882311F096E911C0772321F09EE8872FFD
:10210000762F05C0662371F096E8862F70E060E0B8
:102110002AF09A95660F771F881FDAF7880F969531
:10212000879597F90895990F0008550FAA0BE0E8D5
:10213000FEEF16161706E807F907C0F01216130689
:10214000E407F50798F0621B730B840B950B39F4C9
:102150000A2661F0232B242B252B21F408950A262F
:1021600009F4A140A6958FEF811D811D08950BD024
:1021700078C069D028F06ED018F0952309F05AC0C5
:102180005FC01124A2C07ED0A0F3959FD1F3950F1C
:1021900050E0551F629FF001729FBB27F00DB11DEB
:1021A000639FAA27F00DB11DAA1F649F6627B00D7B
:1021B000A11D661F829F2227B00DA11D621F739F64
:1021C000B00DA11D621F839FA00D611D221F749F72
:1021D0003327A00D611D231F849F600D211D822FB9
:1021E000762F6A2F11249F5750408AF0E1F0882300
:1021F0004AF0EE0FFF1FBB1F661F771F881F91500D
:102200005040A9F79E3F510570F014C05EC05F3F7B
:10221000ECF3983EDCF3869577956795B795F7953F
:10222000E7959F5FC1F7FE2B880F911D96958795C7
:1022300097F9089597F99F6780E870E060E0089546
:102240009FEF80EC089500240A94161617061806CE
:102250000906089500240A941216130614060506AA
:102260000895092E0394000C11F4882352F0BB0F3B
:1022700040F4BF2B11F460FF04C06F5F7F4F8F4F9E
:102280009F4F089557FD9058440F551F59F05F3FD9
:1022900071F04795880F97FB991F61F09F3F79F088
:1022A00087950895121613061406551FF2CF46950A
:1022B000F1DF08C0161617061806991FF1CF86958C
:1022C0007105610508940895E894BB276627772770
:1022D000CB0197F9089527DF08F48FEF0895A1E265
:1022E0001A2EAA1BBB1BFD010DC0AA1FBB1FEE1F90
:1022F000FF1FA217B307E407F50720F0A21BB30BDB
:10230000E40BF50B661F771F881F991F1A9469F756
:1023100060957095809590959B01AC01BD01CF01B2
:102320000895EE0FFF1F881F8BBF0790F691E02DD9
:102330001994CF93DF938230910510F482E090E0FE
:10234000E0911505F091160520E030E0C0E0D0E006
:10235000309711F14081518148175907C0F0481753
:10236000590761F482819381209719F09B838A83B6
:102370002BC0909316058093150526C021153105B5
:1023800019F04217530718F49A01BE01DF01EF015B
:102390000280F381E02DDCCF2115310509F1281BE6
:1023A000390B2430310590F412968D919C9113973E
:1023B0006115710521F0FB019383828304C0909322
:1023C000160580931505FD01329644C0FD01E20F0C
:1023D000F31F81939193225031092D933C933AC07E
:1023E0002091130530911405232B41F42091120202
:1023F000309113023093140520931305209110029D
:10240000309111022115310541F42DB73EB74091AD
:10241000140250911502241B350BE0911305F09125
:102420001405E217F307A0F42E1B3F0B28173907FA
:1024300078F0AC014E5F5F4F2417350748F04E0F20
:102440005F1F50931405409313058193919302C02D
:10245000E0E0F0E0CF01DF91CF9108950F931F935B
:10246000CF93DF93009709F48CC0FC01329713825D
:10247000128200911505109116050115110581F4C0
:1024800020813181820F931F209113053091140513
:102490002817390779F5F0931405E093130571C0F7
:1024A000D80140E050E0AE17BF0750F412962D91CE
:1024B0003C911397AD012115310509F1D901F3CFF5
:1024C0009D01DA013383228360817181860F971F1A
:1024D0008217930769F4EC0128813981260F371F91
:1024E0002E5F3F4F318320838A819B819383828338
:1024F000452B29F4F0931605E093150542C0139679
:10250000FC93EE931297ED01499159919E01240F8E
:10251000351FE217F30771F480819181840F951FB5
:10252000029611969C938E938281938113969C932D
:102530008E931297E0E0F0E0D80112968D919C9175
:102540001397009719F0F8018C01F6CF8D919C91AB
:1025500098012E5F3F4F820F931F209113053091FA
:1025600014052817390769F4309729F410921605D5
:102570001092150502C01382128210931405009365
:102580001305DF91CF911F910F9108956F927F9264
:102590008F929F92AF92BF92CF92DF92EF92FF9273
:1025A0000F931F93CF93DF93EC01009781F4CB013E
:1025B000DF91CF911F910F91FF90EF90DF90CF901F
:1025C000BF90AF909F908F907F906F90B2CEFC01A4
:1025D000E60FF71F9C0122503109E217F30708F4B8
:1025E000A8C0D9010D911C91119706171707A8F0E3
:1025F0000530110508F49BC0C8010497861797079A
:1026000008F495C002501109061B170B0193119392
:102610006D937C93CF0122DF8AC05B01A01AB10ABF
:102620004C01800E911EA0911505B091160540E059
:1026300050E0E12CF12C109709F44AC0A815B90517
:10264000D1F56D907C901197630182E0C80ED11C8A
:10265000CA14DB0480F1A3014A195B096A0182E014
:10266000C80ED11C1296BC9012971396AC91B5E08F
:10267000CB16D10440F0B282A38351834083D901A9
:102680006D937C930AC00E5F1F4FC301800F911F93
:10269000F90191838083EB2DFA2FE114F10431F0DD
:1026A000D7011396FC93EE93129741C0F093160551
:1026B000E09315053CC08D919C91119748175907DF
:1026C00008F4AC017D0112960D90BC91A02DB3CF02
:1026D000809113059091140588159905E1F446172A
:1026E0005707C8F48091100290911102009741F4AD
:1026F0008DB79EB74091140250911502841B950B23
:10270000E817F907B0F4F0931405E0931305F90105
:10271000718360830CC0CB010CDE7C01009749F013
:10272000A801BE011BD0CE0199DEC70104C0CE01B5
:1027300002C080E090E0DF91CF911F910F91FF9058
:10274000EF90DF90CF90BF90AF909F908F907F9051
:102750006F90089581E090E0F89419C0FB01DC01CE
:1027600002C001900D9241505040D8F70895FB01EE
:10277000DC018D91019080190110D9F3990B089516
:10278000FB01DC0101900D920020E1F7089511E0BA
:10279000C8E0D1E000E005C0802FFE01C2DD219637
:1027A000011DC930D10780E00807B1F7F894FFCFC9
:1027B0003B013B013B013B013B013B013B013B0139
:1027C000000017058000040006020301070521240C
:1027D00024212421212400000000F0013C0180017B
:1027E0003602B1018F01A30100000000B106BD0651
:1027F000AE02AB02A8028A02000000000000000046
:10280000B002A803A803A80300000000C606D20671
:10281000C702C402B2020000000000000000C902AA
:10282000A803A803000000005C032D03F802CB02FC
:10283000EF02DB02CC0231003200330034003500FD
:1028400036003700380039004100420043004F4B4A
:0C2850000041540041542B42415544000B
:00000001FF
