:100000002FC1000051C5000024C50000F7C4000046
:10001000CAC400009DC4000070C4000043C40000B6
:1000200016C400004EC100004CC100004AC10000CF
:1000300048C1000046C1000044C1000042C10000A8
:1000400040C100003EC100003CC100003AC10000B8
:1000500038C1000036C1000034C100000C94C70D47
:1000600030C1000003C60000D8C500002AC100004E
:1000700028C1000026C1000024C1000022C10000E8
:1000800020C100001EC100001CC100001AC10000F8
:1000900018C1000016C1000014C10000F1C6000024
:1000A00010C100000EC100000CC100000AC1000018
:1000B00008C1000006C1000004C1000002C1000028
:1000C00000C10000FEC00000FCC000007DC50000B3
:1000D00052C50000F6C00000F4C00000F2C00000ED
:1000E000F0C00000060B090BF80AFC0A020B400BDB
:1000F0000D0B110B170B1B0B1F0B250B290B2D0BBE
:10010000400B330B370B3B0BF00BF80BD00BD80B22
:10011000E00BE80B000C080CCA0CCF0CD40CDE0C66
:10012000E80C610DF20CFA0C020D0C0D160D200DF1
:100130002F0D390D610D430D4D0D570D00002100A0
:10014000240027002A002D003000330001010000A8
:10015000040107010A0100002200250028002B00ED
:100160002E003100340002010000050108010B01DE
:10017000000020002300260029002C002F00320060
:100180000001000003010601090105050505070539
:1001900008080808020202020A0A08080404040403
:1001A000010101010101010103030303030303032F
:1001B000040707070C0C0C0C0C0C0C0C02020202BE
:1001C00006060606060606060B0B0B0B0B0B0B0BA7
:1001D0000102102020080810204010204080020159
:1001E000020108040201010204081020408080403E
:1001F000201008040201800402018040201008043D
:1002000002010804020101020408102040800102DA
:1002100004081020408000000A0B02090C0D0E0893
:1002200007030401000000000000000000000000BF
:1002300000000000000000000000000000000000BE
:10024000000012111000000000000000000000007B
:100250000000000000000000000000000312110E6A
:1002600011241FBECFEFD1E2DEBFCDBF00E00CBF37
:1002700025E0ACEAB2E001C01D92A132B207E1F77D
:1002800012E0A0E0B2E0EAE8FEE200E00BBF02C04C
:1002900007900D92AC3AB107D9F711E0CFE2D1E067
:1002A00000E006C021970109802FFE010E94FE1484
:1002B000CE32D10780E00807A9F70E941A0E0C94ED
:1002C00034179ECE0895CF92DF92EF92FF920F9354
:1002D0001F93CF93DF936C017A018B01C0E0D0E0D4
:1002E000CE15DF0589F0D8016D918D01D601ED9114
:1002F000FC910190F081E02DC6011995892B11F434
:100300007E0102C02196ECCFC701DF91CF911F91F2
:100310000F91FF90EF90DF90CF900895FC01A0899E
:10032000B1898C91A689B78982FD0FC09C91818D7E
:100330008F5F8F73228D821749F0218DDF01A20F0D
:10034000B11D5D969C93818F08958C910895FC0159
:10035000538D448D252F30E0842F90E0821B930B2A
:10036000541710F0CF96089501970895FC01918DD0
:10037000828D981761F0828DDF01A80FB11D5D9607
:100380008C91928D9F5F9F73928F90E008958FEF75
:100390009FEF0895FC01918D828D981731F0828D29
:1003A000E80FF11D858D90E008958FEF9FEF089580
:1003B000FC01918D228D892F90E0805C9F4F821BE4
:1003C00091098F73992708958DE493E0F1DF21E07F
:1003D000892B09F420E0822F08958AEE93E0E8DF6C
:1003E00021E0892B09F420E0822F0895FC01848DFF
:1003F000DF01A80FB11DA35ABF4F2C91848D90E04F
:1004000001968F739927848FA689B7892C93A08929
:10041000B1898C9180648C93938D848D981306C0E0
:100420000288F389E02D80818F7D80830895EF928B
:10043000FF920F931F93CF93DF93EC0181E0888F9E
:100440009B8D8C8D981305C0E889F989808185FD85
:1004500023C0F62E0B8D10E00F5F1F4F0F73112777
:10046000E02E8C8DE8120BC00FB607FCFACFE8899E
:10047000F989808185FFF5CFCE01B8DFF2CF8B8D72
:10048000FE01E80FF11DE35AFF4FF0820B8FEA895E
:10049000FB898081806207C0EE89FF896083E889DB
:1004A000F98980818064808381E090E0DF91CF9141
:1004B0001F910F91FF90EF900895CF93DF93EC0180
:1004C000888D8823C1F0EA89FB89808185FD05C07C
:1004D000A889B9898C9186FD0EC00FB607FCF5CFAF
:1004E000808185FFF2CFA889B9898C9185FFEDCFF6
:1004F000CE017CDFE8CFDF91CF91089580E090E0DE
:10050000892B19F06ADF811120C080E090E0892BEF
:1005100041F080E090E0892B21F00E9400008111E1
:1005200017C080E090E0892B19F04EDF811113C0D5
:1005300080E090E0892BA1F080E090E0892B81F0B1
:100540000E94000081110AC008950E940000DDCFC2
:100550000E940000E6CF0E940000EACF0C94000049
:100560000895DC0113962C91139770E06150710986
:10057000269FF001279FF00D1124E40FF11D319704
:10058000EE0FFF1FEE0FFF1F14968D919C91159794
:10059000E80FF91F60817181828193810895FC01C8
:1005A00083810895FC018281089581E0089580E0AF
:1005B000089570E06150704C660F771F660F771FCB
:1005C000FC0183819481FC01E60FF71F608171813A
:1005D000828193810895FC018281089581E00895CC
:1005E00080E008950895E091F7048091F604E817FB
:1005F00030F4F0E0E850FB4F808190E008958FEFF9
:100600009FEF08959091F7048091F604981750F4A5
:10061000E92FF0E0E850FB4F208130E09F5F90939E
:10062000F70402C02FEF3FEFC90108958091F6044F
:1006300090E02091F704821B91090895089580E0CD
:1006400090E0089585ED8093BC008091BC0084FD0E
:10065000FCCF1092280308954091CE02262F30E05F
:10066000240F311D21323105DCF420912803243080
:10067000C9F4FC0180E090E0861758F43091CE0276
:100680002191DC01A455BD4FA30FB11D2C93019600
:10069000F3CF8091CE02680F6093CE0280E0089580
:1006A00081E0089582E00895CF92DF92EF92FF9269
:1006B0000F931F93CF93DF937C01262F972F8A01EF
:1006C00080912903882391F0C62FD72F6E01C40E85
:1006D000D51ECC15DD0569F06991D701ED91FC912E
:1006E0000190F081E02DC7011995F3CF642F822F7F
:1006F000B3DFC801DF91CF911F910F91FF90EF9071
:10070000DF90CF900895CF93DF931F92CDB7DEB7E0
:100710006983209129032223D1F020914C032032B8
:1007200040F021E030E0FC013383228380E090E060
:1007300014C080912A03E82FF0E0E55DFC4F998119
:1007400090838F5F80932A0380934C0304C061E001
:10075000CE01019681DF81E090E00F90DF91CF9193
:100760000895CF93DF93EC018C810E94100C892BAC
:1007700051F08B810E94100C4D815E816F817885D4
:10078000892B51F00EC08B810E94100C4D815E812F
:100790006F817885892B29F04F5F5F4F6F4F7F4FB7
:1007A00004C041505109610971094D835E836F8313
:1007B0007887DF91CF91089581EA94E0D2CF82EBE0
:1007C00094E0CFCFCF93DF93EC018B810E94100C8C
:1007D000892B51F08C810E94100C4D815E816F81BC
:1007E0007885892B51F00EC08C810E94100C4D81B0
:1007F0005E816F817885892B29F04150510961090B
:10080000710904C04F5F5F4F6F4F7F4F4D835E8311
:100810006F837887DF91CF91089581EA94E0D2CFFA
:1008200082EB94E0CFCFFC011182108213821282FE
:10083000158214826115710549F0FB0101900020B9
:10084000E9F73197AF01461B570BB6C408951F92C5
:100850000F920FB60F9211240BB60F922F933F9366
:100860004F935F936F937F938F939F93AF93BF93B8
:10087000EF93FF93E0910E02F0910F021995FF9113
:10088000EF91BF91AF919F918F917F916F915F9108
:100890004F913F912F910F900BBE0F900FBE0F9075
:1008A0001F9018951F920F920FB60F9211240BB63E
:1008B0000F922F933F934F935F936F937F938F93F9
:1008C0009F93AF93BF93EF93FF93E0910C02F0914E
:1008D0000D021995FF91EF91BF91AF919F918F916B
:1008E0007F916F915F914F913F912F910F900BBE30
:1008F0000F900FBE0F901F9018951F920F920FB67A
:100900000F9211240BB60F922F933F934F935F9347
:100910006F937F938F939F93AF93BF93EF93FF93C7
:10092000E0910202F09103021995FF91EF91BF91BE
:10093000AF919F918F917F916F915F914F913F9177
:100940002F910F900BBE0F900FBE0F901F90189518
:100950001F920F920FB60F9211240BB60F922F9386
:100960003F934F935F936F937F938F939F93AF9337
:10097000BF93EF93FF93E0910002F091010219956C
:10098000FF91EF91BF91AF919F918F917F916F9167
:100990005F914F913F912F910F900BBE0F900FBE23
:1009A0000F901F9018951F920F920FB60F9211245F
:1009B0000BB60F922F933F934F935F936F937F9359
:1009C0008F939F93AF93BF93EF93FF93E0910A02AE
:1009D000F0910B021995FF91EF91BF91AF919F910B
:1009E0008F917F916F915F914F913F912F910F90D8
:1009F0000BBE0F900FBE0F901F9018951F920F9275
:100A00000FB60F9211240BB60F922F933F934F9373
:100A10005F936F937F938F939F93AF93BF93EF9366
:100A2000FF93E0910802F09109021995FF91EF916F
:100A3000BF91AF919F918F917F916F915F914F91F6
:100A40003F912F910F900BBE0F900FBE0F901F90F4
:100A500018951F920F920FB60F9211240BB60F929A
:100A60002F933F934F935F936F937F938F939F93B6
:100A7000AF93BF93EF93FF93E0910602F0910702CB
:100A80001995FF91EF91BF91AF919F918F917F91B8
:100A90006F915F914F913F912F910F900BBE0F90EF
:100AA0000FBE0F901F9018951F920F920FB60F92C6
:100AB00011240BB60F922F933F934F935F936F9335
:100AC0007F938F939F93AF93BF93EF93FF93E091A7
:100AD0000402F09105021995FF91EF91BF91AF913A
:100AE0009F918F917F916F915F914F913F912F9146
:100AF0000F900BBE0F900FBE0F901F901895CF93C5
:100B0000DF93EC012FB7F8948091F2049091F304F5
:100B1000A091F404B091F5042FBF88879987AA8724
:100B2000BB87E881F9810284F385E02DCE01199518
:100B300097FF1EC02FB7F8948091F2049091F304B0
:100B4000A091F404B091F5042FBF488559856A85BA
:100B50007B85841B950BA60BB70B4C815D816E8149
:100B60007F8184179507A607B707D8F28FEF9FEF0D
:100B7000DF91CF9108951F920F920FB60F9211241B
:100B80000BB60F922F933F934F935F936F937F9387
:100B90008F939F93AF93BF93EF93FF938DE493E075
:100BA00025DCFF91EF91BF91AF919F918F917F9144
:100BB0006F915F914F913F912F910F900BBE0F90CE
:100BC0000FBE0F901F9018951F920F920FB60F92A5
:100BD00011240BB60F922F933F934F935F936F9314
:100BE0007F938F939F93AF93BF93EF93FF938DE486
:100BF00093E094DBFF91EF91BF91AF919F918F9123
:100C00007F916F915F914F913F912F910F900BBE0C
:100C10000F900FBE0F901F9018951F920F920FB656
:100C20000F9211240BB60F922F933F934F935F9324
:100C30006F937F938F939F93AF93BF93EF93FF93A4
:100C40008AEE93E0D3DBFF91EF91BF91AF919F913B
:100C50008F917F916F915F914F913F912F910F9065
:100C60000BBE0F900FBE0F901F9018951F920F9202
:100C70000FB60F9211240BB60F922F933F934F9301
:100C80005F936F937F938F939F93AF93BF93EF93F4
:100C9000FF938AEE93E042DBFF91EF91BF91AF911A
:100CA0009F918F917F916F915F914F913F912F9184
:100CB0000F900BBE0F900FBE0F901F901895D82F5E
:100CC000C1E0DC17A0F061E080918704D1D564E633
:100CD00070E080E090E023D760E080918704C8D581
:100CE0006AEF70E080E090E01AD7CF5FEACF68EE5D
:100CF00073E080E090E013D7E3CFDC018D919C910D
:100D0000DC01ED91FC910190F081E02D1994DC0162
:100D10008D919C91DC01ED91FC910284F385E02D95
:100D2000199508958F929F92AF92BF92CF92DF92C2
:100D3000EF92FF920F931F93CF93DF93EC018B0100
:100D400069017A01C7D66E837F8388879987C2D667
:100D50008E809F80A884B984681979098A099B09C3
:100D60000E9492132DEB37E346E855E30E94F313FC
:100D7000A70196010E94D81487FF0EC0888199812F
:100D8000DC01ED91FC910084F185E02D199580172F
:100D90009107ECF281E001C080E0DF91CF911F91DB
:100DA0000F91FF90EF90DF90CF90BF90AF909F900A
:100DB0008F900895CF93DF93EC01CB01BA01298581
:100DC0003A854B855C850E94F3130E94A714161682
:100DD00017062CF48981B7D560E08A8107C0719528
:100DE000619571098A81AFD560E08981DF91CF91EA
:100DF0003FC5CF93DF93EC0161E0888168D561E066
:100E0000898165D561E08A8162D560E08B815FD59B
:100E100060E08C815CD560E088812AD560E08981C2
:100E200027D560E08A81DF91CF9122C52CE332E0A3
:100E3000FC013183208384819581009711F00C940B
:100E40009B150895CF93DF93EC01F0DFCE01DF9186
:100E5000CF910C949B152CE532E0FC01318320836B
:100E600083819481009711F00C949B150895CF9382
:100E7000DF93EC01F0DFCE01DF91CF910C949B1555
:100E80001F920F920FB60F9211240BB60F922F9351
:100E90003F934F935F936F937F938F939F93AF9302
:100EA000BF93EF93FF938091B900887F803609F458
:100EB0009CC068F5883209F45BC090F4803109F475
:100EC00054C038F4882309F4F6C0883009F44DC0C2
:100ED000F5C0883109F44CC0803209F45DC0EEC021
:100EE000803409F468C048F4803309F455C088336D
:100EF00009F0E4C080932603D8C0803509F44FC0C0
:100F0000883509F45DC0883409F0D8C0D6C0883966
:100F100009F4C7C0A8F4883709F467C038F48836E4
:100F200009F463C0803709F460C0C8C0883809F488
:100F3000B8C0803909F45FC0803809F0BFC05BC019
:100F4000803B09F486C038F4803A09F466C0883AD8
:100F500009F47FC0B3C0803C09F4A7C0883C09F401
:100F6000A4C0883B09F48AC0A9C08091030310C0C3
:100F70009091250380912403981770F5E091250343
:100F800081E08E0F80932503F0E0EC5FFC4F8081C1
:100F90008093BB0085EC86C0809326038EC0E091D1
:100FA000250381E08E0F809325038091BB00F0E044
:100FB000EC5FFC4F808390912503809124036EC0E9
:100FC000E091250381E08E0F809325038091BB0083
:100FD000F0E0EC5FFC4F80838091270381116DC0AE
:100FE00081E08093020384EA61C083E08093280358
:100FF0001092F202CFCF8091F202803208F051C0FD
:10100000E091F20281E08E0F8093F2028091BB00AA
:10101000F0E0EE52FD4F8083BDCF85EC8093BC00A5
:10102000109228038091F202803230F4E091F202B3
:10103000F0E0EE52FD4F10826091F20270E0E0911C
:10104000D002F091D10282ED92E019951092F20255
:1010500035C084E0809328031092CF021092CE0214
:10106000E091CC02F091CD0219958091CE028111D0
:1010700005C081E08093CE021092AC02E091CF02D5
:1010800081E08E0F8093CF02F0E0E455FD4F808128
:101090008093BB009091CF028091CE02981708F404
:1010A00079CF85E88093BC0009C085EC8093BC00B3
:1010B0001092280303C010922603C4DAFF91EF9127
:1010C000BF91AF919F918F917F916F915F914F9160
:1010D0003F912F910F900BBE0F900FBE0F901F905E
:1010E00018950E941717CF93DF93EC01888199819F
:1010F000009711F00E949B15198218821D821C8294
:101100001B821A82DF91CF9108950F931F93CF9383
:10111000DF93EC0188819981009729F02A813B8136
:101120002617370788F48B016F5F7F4F0E943316B5
:10113000009761F0998388831B830A832C813D810A
:10114000232B11F4FC01108281E001C080E0DF91CB
:10115000CF911F910F910895EF92FF920F931F93DC
:10116000CF93DF93EC01FB0184819581E080F180D6
:101170000C811D81E114F104A9F00097A9F0080F7A
:10118000191FB801CE01C1DF882361F028813981A0
:101190008C819D81B701820F931F0E942D171D83A3
:1011A0000C8302C0CE019FDFCE01DF91CF911F9152
:1011B0000F91FF90EF900895EF92FF920F931F937E
:1011C000CF93DF93EC017B018A01BA019EDF81118D
:1011D00003C0CE0188DF07C01D830C83B70188815F
:1011E00099810E942D17CE01DF91CF911F910F9110
:1011F000FF90EF900895CF93DF93EC016115710597
:1012000051F0FB0101900020E9F73197AF01461B37
:10121000570BD2DF01C067DFCE01DF91CF91089578
:10122000FB01DC0111961C921E9213961C921E92D9
:10123000129715961C921E9214978617970741F0E5
:10124000608171816115710519F044815581B4CFB8
:101250000895FC01808191810C949B15CF92DF92BF
:10126000EF92FF920F931F93CF93DF93EC016A01EC
:101270007B01E889F98982E080834115514E61053F
:101280007105B1F060E079E08DE390E0A70196018F
:101290000E94DC1489019A010150110921093109C8
:1012A0003695279517950795980101151041A8F0D7
:1012B000E889F989108260E874E88EE190E0A7017E
:1012C00096010E94DC14DA01C9010197A109B10954
:1012D000B695A795979587959C01EC85FD853083FC
:1012E000EE85FF852083188EEC89FD8986E080835A
:1012F000EA89FB89808180618083EA89FB8980811A
:1013000088608083EA89FB89808180688083EA899C
:10131000FB8980818F7D8083DF91CF911F910F9119
:10132000FF90EF90DF90CF900895CF92DF92EF92F1
:10133000FF920F931F93CF93DF93CDB7DEB728971C
:101340000FB6F894DEBF0FBECDBF7B01A09189041C
:10135000B0918A042D913C911197FC0144815581F3
:1013600060817181F90122813381CD01F9011995E3
:10137000B1D36093930470939404809395049093F5
:101380009604A8D30091930410919404209195049D
:1013900030919604601B710B820B930B0E94921389
:1013A0002DEB37E346E855E30E94F31320E030E0ED
:1013B00040E85FE30E94D81487FF6AC080918904E7
:1013C00090918A04DC01ED91FC910084F185E02D7F
:1013D0001995F701248135818217930791F6C09002
:1013E0008904D0908A0467E872E0CE0101961BDA86
:1013F000C60185DB2D813E8197FD19C08F8318863C
:1014000089010F5F1F4FB801CE0101967EDE882350
:1014100079F329813A818D819E81BE01695F7F4F79
:10142000820F931F0E942D171E830D83E1CFD701DA
:1014300014968D919C9115972817390711F589817C
:101440009A816D917C91009719F061157105A1F455
:101450006115710549F0232BB1F0FB01808190E00B
:101460009195819591090AC0009769F0232B59F055
:10147000DC018C9190E002C00E94241711E0892BBE
:1014800019F010E001C011E0CE010196E2DE01C0CA
:1014900010E0812F28960FB6F894DEBF0FBECDBFA7
:1014A000DF91CF911F910F91FF90EF90DF90CF9040
:1014B00008950F931F93CF93DF938C018091C50400
:1014C000882379F0E8012197D7FD08C086EE94E0E3
:1014D00099D8FE01ED53FB4F8383F5CF23E030E035
:1014E0000EC0C0E0D0E0C017D107C4F786EE94E08C
:1014F00089D8FE01ED53FB4F83832196F4CF20174B
:1015000031073CF0F901ED53FB4F138221503109B3
:10151000F6CFDF91CF911F910F910895382F209131
:101520004C0390914B03213208F049C0809128036D
:101530008111FCCF42E040932803309327033FEF13
:10154000309326031092250320932403ABE2B3E0EB
:1015500044E053E0FA013E2F341B321718F43D915A
:101560003193F9CF1092030320910303990F922B2B
:101570009093030390910203913061F4109202035F
:10158000909103039093BB009091BC0093FDF8CF22
:1015900095EC01C095EE9093BC0090912803923099
:1015A000E1F3909126039F3F79F0809126038032EA
:1015B00041F080912603803331F084E005C081E062
:1015C00003C082E001C083E010922A0310924C0312
:1015D00010922903089590E0FC013197E231F10562
:1015E00008F04EC08827EE58FF4F8F4F0C94FE1422
:1015F000809180008F7703C0809180008F7D8093E1
:101600008000089580918000877FF9CF84B58F771F
:1016100002C084B58F7D84BD08958091B0008F771E
:1016200003C08091B0008F7D8093B00008958091B9
:1016300090008F7707C0809190008F7D03C08091CC
:101640009000877F8093900008958091A0008F770D
:1016500007C08091A0008F7D03C08091A000877F8C
:101660008093A0000895809120018F7707C080911A
:1016700020018F7D03C080912001877F809320010E
:101680000895CF93C62F9091C30421E0209329039E
:1016900090934B0310922A0310924C03682F86EE0E
:1016A00094E031D880E03ADF8091C3049091280320
:1016B0009111FCCF6C2FC13208F060E291E0909361
:1016C0002803909327032FEF2093260310922503DE
:1016D000260F209324039093030390910303880F14
:1016E000892B8093030380910203813061F410926F
:1016F0000203809103038093BB008091BC0083FDB3
:10170000F8CF85EC01C085EE8093BC008091280362
:101710008130E1F380912503861710F46091250351
:10172000A4E0B3E028EF34E0F9018E2F821B861786
:1017300018F48D918193F9CF1092F7046093F60419
:10174000CF910895CF93C62F9091C30421E02093A9
:10175000290390934B0310922A0310924C03682F95
:1017600086EE94E00E9483036C2F86EE94E00E9444
:10177000830381E0CF91D2CEE82FF0E0EE0FFF1F80
:10178000E050FE4F7183608390E08830910508F04F
:1017900046C0FC018827EC57FF4F8F4F0C94FE1476
:1017A000809169008C7F816080936900E89A089538
:1017B00080916900837F846080936900E99A08952D
:1017C000809169008F7C806180936900EA9A089516
:1017D000809169008F73806480936900EB9A08950B
:1017E00080916A008C7F816080936A00EC9A0895F2
:1017F00080916A00837F846080936A00ED9A0895E7
:1018000080916A008F7C806180936A00EE9A0895CF
:1018100080916A008F73806480936A00EF9A0895C4
:10182000CF93DF93282F30E0F901EA5EFD4F8491DA
:10183000F901E053FE4FD491F901E657FE4FC491F0
:10184000CC2389F08111C7DEEC2FF0E0EE0FFF1FF3
:10185000E059FE4FA591B491EC91ED2381E090E029
:1018600021F480E002C080E090E0DF91CF91089504
:101870001F93CF93DF93282F30E0F901EA5EFD4FED
:101880008491F901E053FE4FD491F901E657FE4FE0
:10189000C491CC23C1F0162F81119DDEEC2FF0E016
:1018A000EE0FFF1FEA5AFE4FA591B4918FB7F8943F
:1018B000111105C09C91ED2FE095E92302C0EC9138
:1018C000ED2BEC938FBFDF91CF911F910895CF93B4
:1018D000DF9390E0FC01E053FE4F2491FC01E657BA
:1018E000FE4F8491882361F190E0880F991FFC01DD
:1018F000E45CFE4FC591D491FC01EA5AFE4FA591DC
:10190000B491611109C09FB7F89488812095822312
:101910008883EC912E230BC0623061F49FB7F8945A
:101920003881822F809583238883EC912E2B2C93F2
:101930009FBF06C08FB7F894E8812E2B28838FBFF6
:10194000DF91CF9108951F93CF93DF93182FEB0171
:1019500061E0BDDF209711F460E004C0CF3FD10506
:1019600031F461E0812FDF91CF911F9181CFE12F81
:10197000F0E0EA5EFD4FE4914E2F50E0FA0131971E
:10198000E231F10508F09DC08827E457FF4F8F4FE3
:101990000C94FE1484B5806884BDC7BD97C084B51F
:1019A000806284BDC8BD92C08091800080688093B1
:1019B0008000D0938900C093880088C08091800007
:1019C000806280938000D0938B00C0938A007EC099
:1019D00080918000886080938000D0938D00C093B8
:1019E0008C0074C08091B00080688093B000C09378
:1019F000B3006CC08091B00080628093B000C0934F
:101A0000B40064C080919000806880939000D0936F
:101A10009900C09398005AC0809190008062809392
:101A20009000D0939B00C0939A0050C0809190008A
:101A3000886080939000D0939D00C0939C0046C026
:101A40008091A00080688093A0008091A0008F7B8F
:101A50008093A000D093A900C093A80037C08091C4
:101A6000A00080628093A000D093AB00C093AA0036
:101A70002DC08091A00088608093A000D093AD001D
:101A8000C093AC0023C08091200180688093200126
:101A9000D0932901C093280119C080912001806250
:101AA00080932001D0932B01C0932A010FC0809115
:101AB0002001886080932001D0932D01C0932C01D8
:101AC00005C0C038D1050CF04CCF46CFDF91CF9187
:101AD0001F9108953FB7F8948091190590911A05C8
:101AE000A0911B05B0911C0526B5A89B05C02F3FF2
:101AF00019F00196A11DB11D3FBFBA2FA92F982F34
:101B00008827820F911DA11DB11DBC01CD0142E0AE
:101B1000660F771F881F991F4A95D1F708958F92F6
:101B20009F92AF92BF92CF92DF92EF92FF926B01A2
:101B30007C01D0DF4B015C01C114D104E104F1044C
:101B4000E9F0C8DFDC01CB0188199909AA09BB09B2
:101B5000883E9340A105B10578F321E0C21AD1086F
:101B6000E108F10888EE880E83E0981EA11CB11CE4
:101B7000C114D104E104F10421F7DECFFF90EF900E
:101B8000DF90CF90BF90AF909F908F9008951F925D
:101B90000F920FB60F9211242F933F938F939F9321
:101BA000AF93BF938091F2049091F304A091F40459
:101BB000B091F5043091180523E0230F2D3720F460
:101BC0000196A11DB11D05C026E8230F0296A11D97
:101BD000B11D209318058093F2049093F304A09311
:101BE000F404B093F5048091190590911A05A09121
:101BF0001B05B0911C050196A11DB11D809319050F
:101C000090931A05A0931B05B0931C05BF91AF914B
:101C10009F918F913F912F910F900FBE0F901F902A
:101C200018958CEC94E002D982ED94E014D987EDFC
:101C300094E011C9CF93DF93CDB7DEB7EF970FB61E
:101C4000F894DEBF0FBECDBF789484B5826084BDAA
:101C500084B5816084BD85B5826085BD85B58160B0
:101C600085BD80916E00816080936E00109281002E
:101C700080918100826080938100809181008160E9
:101C800080938100809180008160809380008091AA
:101C9000B10084608093B1008091B0008160809336
:101CA000B0008091910082608093910080919100BA
:101CB000816080939100809190008160809390007A
:101CC0008091A10082608093A1008091A100816039
:101CD0008093A1008091A00081608093A0008091FA
:101CE0002101826080932101809121018160809394
:101CF00021018091200181608093200180917A00F0
:101D0000846080937A0080917A00826080937A0068
:101D100080917A00816080937A0080917A00806857
:101D200080937A001092C1008091F30281110BC060
:101D300081E08093F30261E080918704C8DD60E078
:101D40008091870495DD8091F402811142C081E089
:101D50008093F40281EA94E04CD861E08091A10480
:101D600087DD2091A404223059F0233061F08EEEFB
:101D7000820F843058F487E190E0821B910908C0FB
:101D800080E090E005C081E090E002C08FEF9FEF1F
:101D9000883018F46DE074E0EFDC2091A504223067
:101DA00059F0233061F08EEE820F843058F487E1D1
:101DB00090E0821B910908C080E090E005C081E0BE
:101DC00090E002C08FEF9FEF883018F46CED73E065
:101DD000D3DC8091F502811142C081E08093F5024D
:101DE00082EB94E006D861E08091B20441DD20915D
:101DF000B504223059F0233061F08EEE820F84302A
:101E000058F487E190E0821B910908C080E090E0DF
:101E100005C081E090E002C08FEF9FEF883018F49A
:101E200060E174E0A9DC2091B604223059F023303F
:101E300061F08EEE820F843058F487E190E0821BCF
:101E4000910908C080E090E005C081E090E002C008
:101E50008FEF9FEF883018F46FED73E08DDC88E230
:101E600090E09093C4048093C3041092C504109230
:101E7000F7041092F60410922A0310924C03109269
:101E8000280381E0809327031092020361E084E13C
:101E9000EFDC61E085E1ECDC8091B9008E7F80931E
:101EA000B9008091B9008D7F8093B90088E4809358
:101EB000B80085E48093BC0060E08DE390E042DCF4
:101EC00064E070E080E090E0DCDB81E090E0F1DA5B
:101ED0004090C6045090C7046090C8047090C90434
:101EE00081E090E0E6DA8090C6049090C704A0906C
:101EF000C804B090C90481E090E0DBDAC090C60469
:101F0000D090C704E090C804F090C90481E090E04C
:101F1000D0DA8091C6049091C704A091C804B09112
:101F2000C90420EA421651046104710409F074C026
:101F3000EBEF8E169104A104B10409F06DC0F2E339
:101F4000CF16D104E104F10409F066C00F97A10592
:101F5000B10509F061C060E08EE390E0F3DBE09151
:101F6000CA04F091CB04E25EFD4F608181E490E011
:101F7000E9DBE091CA04F091CB04EA5EFD4F608199
:101F800082E490E0DFDB6CE08DE390E0DBDB62E09D
:101F900070E08AE190E075DB82E090E08ADA60919F
:101FA000C6047091C7048091C8049091C904BAD343
:101FB0002AE737E14FE85AE316D46093F6027093AC
:101FC000F7028093F8029093F90261E084E07FDCED
:101FD00061E084E04DDC6CED75E080E090E09FDD39
:101FE0004091DE045091DF046091E0047091E104BF
:101FF0008091DC049091DD0431D98091DC049091D2
:10200000DD04DC01ED91FC910084F185E02D199552
:102010007C0100E010E002C081E02AC00E151F051F
:1020200074F48091DC049091DD04DC01ED91FC916D
:102030000284F385E02D19950F5F1F4FEFCF61E00C
:102040008CED94E00E947D0620E030E040E85FE304
:1020500061E070E08CED94E00E949206882309F420
:10206000CCC18CED94E00E948706813019F083E0AA
:102070000E945F0667E872E0CE01CA960E941304D0
:1020800080918B0490918C04A0918D04B0918E046A
:102090008115E6E99E07A105B10509F043C160E994
:1020A00072E010C0813CE2E19E07A105B10508F095
:1020B00052C1803BF4E09F07A105B10509F042C180
:1020C00066E872E0CE01CA9696D840918F0450918E
:1020D0009004609191047091920480918904909190
:1020E0008A04BCD86EE972E0CE0182960E94130485
:1020F00061EA72E0CE0101960E941304BE016E5D9A
:102100007F4FCE01019611D9182FCE010196A1D88B
:10211000CE0182969ED8112309F452C060918B049F
:1021200070918C0480918D0490918E041FA61EA640
:1021300019AA18AA1BAA1AAA2AE0AE014F5F5F4F7C
:10214000C0D2BE016F5F7F4FCE018E9654D86EE92C
:1021500072E0CE0188960E941304BE01625D7F4F3B
:10216000CE0188960E94AC08BC01CE01C49658D816
:1021700064EA72E0CE0101960E941304BE01665C1F
:102180007F4FCE0101960E94AC08BC01CE01829621
:1021900047D8BE016C5C7F4FCE018296C6D8182FFF
:1021A000CE01829656D8CE01019653D8CE01C49660
:1021B00050D8CE0188964DD8CE018E964AD801C00F
:1021C00010E040918B0450918C0460918D047091CB
:1021D0008E048091890490918A0440D801C010E057
:1021E000CE01CA9636D8112309F409C14091990449
:1021F00050919A0460919B0470919C048091970483
:10220000909198042BD829E936E746E95EE761E02A
:1022100070E087E994E00E94920687E994E00E94CA
:102220008706813009F0EDC061E087E994E00E9403
:102230007D0661E0809187041BDB7E01B5E0EB0E3B
:10224000F11C8091970490919804DC01ED91FC9130
:102250000084F185E02D1995892B09F448C087E9A0
:1022600094E00E948706823009F041C029E936E7F0
:1022700046E95EE768E070E087E994E00E94920634
:102280008E010F5F1F4F87E994E00E948706F801D7
:1022900081938F01EE15FF05B1F789819A81AB819A
:1022A000BC818093FE029093FF02A0930003B09341
:1022B00001038E010F5F1F4F87E994E00E9487069C
:1022C000D8018D938D01AE15BF05B1F789819A8133
:1022D000AB81BC818093FA029093FB02A093FC0235
:1022E000B093FD0262E087E994E00E947D06409190
:1022F000FE025091FF02609100037091010381EA98
:1023000094E00E94DA064091FA025091FB0260913B
:10231000FC027091FD0282EB94E00E94DA060E94BA
:102320007E028FCF8130F6E99F07A105B10528F520
:10233000803C22E19207A105B10509F0B3CE6AE81D
:1023400072E0C0CE80369940A105B10509F047CFB3
:1023500068E872E0B7CE8038E5E29E07A105B105D6
:1023600019F46CE872E0AECE81159B44A105B1056D
:1023700009F035CF6EE872E0A5CE811524E892070A
:1023800023E0A207B10519F466E972E09BCE813023
:10239000E4E89E07E3E0AE07B10590F48115F1EEA5
:1023A0009F07A105B10519F462E972E08BCE811592
:1023B000924CA140B10509F012CF64E972E082CEDF
:1023C0008115E0E19E07EEE0AE07B10519F46AE978
:1023D00072E078CE8115F8E19F07F5E1AF07B1050E
:1023E00019F46CE972E06ECE81159840A740B105F2
:1023F00009F0F5CE68E972E065CE82E039CE84E07E
:1024000037CE85E035CE4F925F926F927F929F924A
:10241000AF92BF92CF92DF92EF92FF920F931F93F2
:10242000CF93DF93CDE4D3E01B821A8288EE482E4F
:1024300083E0582E612C712C4C825D826E827F82EB
:102440008AE292E09983888325ED30E03D872C87EE
:1024500024ED30E03F872E8720ED30E0398B288B4C
:1024600021ED30E03B8B2A8B22ED30E03D8B2C8B35
:1024700026ED30E03F8B2E8B198E1A8E1B8E1C8E14
:10248000EAEEF3E0138212824482558266827782FA
:102490009183808385EC90E09587848784EC90E03D
:1024A0009787868780EC90E0918B808B81EC90E021
:1024B000938B828B82EC90E0958B848B86EC90E002
:1024C000978B868B118E128E138E148E8DE090E07A
:1024D0009093880480938704A7E9B4E016961D9230
:1024E0001D921D921C9219971196FC93EE93C12C8C
:1024F00092ECD92EEE24E394F12C1296CD92DD923B
:10250000ED92FC921597A9E8B4E01A961D921D92DF
:102510001D921C921D971196FC93EE931296CD92EC
:10252000DD92ED92FC9215971696CD92DD92ED928A
:10253000FC921997E1EAF4E0158216821782108660
:1025400088E0808389E081838AE0828383E08383DB
:1025500022E0922E948240E050E06AEA71E44187E2
:102560005287638774878DEF9DEAA0E0BBE3858780
:102570009687A787B08BE2EBF4E01582168217826C
:10258000108625E0208327E0218326E0228323E1B3
:10259000238322E124834187528763877487858759
:1025A0009687A787B08B07ED14E03CE5A32E32E0B9
:1025B000B32ED8011196BC92AE9212969C9288E0EE
:1025C00090E024D2F80194838383DC011D921D9254
:1025D0001D921C921397FC01148215821682178299
:1025E00002ED14E0D8011196BC92AE9212969C9224
:1025F00088E090E00BD2F80194838383DC011D9284
:102600001D921D921C921397FC0114821582168252
:1026100017820CEC14E08CE392E0D80111969C93A5
:102620008E9312969C92129713969C9280E190E062
:10263000EDD1FC01D80115969C938E9314971082CE
:1026400011821282138214821582168217821086DA
:102650001186128613861486158616861786E3EC75
:10266000F4E01182108281E0828383E090E0908721
:102670008783ECEDF4E01682178210861186D183F1
:10268000C083C282D382E482F582E6EEF4E0138254
:102690001282448255826682778288E792E0918333
:1026A0008083DF91CF911F910F91FF90EF90DF908A
:1026B000CF90BF90AF909F907F906F905F904F9022
:1026C0000895BB27FA01A62F6217710581059105B0
:1026D000330B30FB66F0AA27660F771F881F991F00
:1026E000AA1FA21710F0A21B63953850A9F7A05D8E
:1026F000AA3308F0A95DA19336F7B111B193108206
:10270000CA0100C0DC01FC01672F71917723E1F75A
:10271000329704C07C916D9370836291AE17BF07AE
:10272000C8F30895E89409C097FB3EF4909580950E
:10273000709561957F4F8F4F9F4F9923A9F0F92F87
:1027400096E9BB279395F695879577956795B79505
:10275000F111F8CFFAF4BB0F11F460FF1BC06F5FEB
:102760007F4F8F4F9F4F16C0882311F096E911C0FD
:10277000772321F09EE8872F762F05C0662371F01E
:1027800096E8862F70E060E02AF09A95660F771F32
:10279000881FDAF7880F9695879597F90895990F0E
:1027A0000008550FAA0BE0E8FEEF16161706E8071B
:1027B000F907C0F012161306E407F50798F0621B3C
:1027C000730B840B950B39F40A2661F0232B242B11
:1027D000252B21F408950A2609F4A140A6958FEF30
:1027E000811D811D08950BD078C069D028F06ED06E
:1027F00018F0952309F05AC05FC01124A2C07ED002
:10280000A0F3959FD1F3950F50E0551F629FF00103
:10281000729FBB27F00DB11D639FAA27F00DB11D5C
:10282000AA1F649F6627B00DA11D661F829F2227E5
:10283000B00DA11D621F739FB00DA11D621F839F6C
:10284000A00D611D221F749F3327A00D611D231F42
:10285000849F600D211D822F762F6A2F11249F5790
:1028600050408AF0E1F088234AF0EE0FFF1FBB1FB3
:10287000661F771F881F91505040A9F79E3F510552
:1028800070F014C05EC05F3FECF3983EDCF38695B9
:1028900077956795B795F795E7959F5FC1F7FE2BFD
:1028A000880F911D9695879597F9089597F99F67D9
:1028B00080E870E060E008959FEF80EC08950024C8
:1028C0000A941616170618060906089500240A9495
:1028D00012161306140605060895092E0394000C1B
:1028E00011F4882352F0BB0F40F4BF2B11F460FFAA
:1028F00004C06F5F7F4F8F4F9F4F089557FD9058D3
:10290000440F551F59F05F3F71F04795880F97FBB3
:10291000991F61F09F3F79F087950895121613066D
:102920001406551FF2CF4695F1DF08C0161617069C
:102930001806991FF1CF86957105610508940895D1
:10294000E894BB2766277727CB0197F9089504D031
:102950006894B111F6CF0895D9DF88F09F5790F0B1
:10296000B92F9927B751A0F0D1F0660F771F881FB4
:10297000991F1AF0BA95C9F712C0B13081F0E0DFA3
:10298000B1E00895DDCF672F782F8827B85F39F041
:10299000B93FCCF3869577956795B395D9F73EF413
:1029A00090958095709561957F4F8F4F9F4F0895BB
:1029B000F6DE08F48FEF0895A1E21A2EAA1BBB1BC6
:1029C000FD010DC0AA1FBB1FEE1FFF1FA217B307FB
:1029D000E407F50720F0A21BB30BE40BF50B661F11
:1029E000771F881F991F1A9469F7609570958095D5
:1029F00090959B01AC01BD01CF010895EE0FFF1F23
:102A0000881F8BBF0790F691E02D1994CF93DF9329
:102A10008230910510F482E090E0E0911F05F09182
:102A2000200520E030E0C0E0D0E0309711F1408197
:102A3000518148175907C0F04817590761F482813E
:102A40009381209719F09B838A832BC09093200554
:102A500080931F0526C02115310519F04217530731
:102A600018F49A01BE01DF01EF010280F381E02D2D
:102A7000DCCF2115310509F1281B390B2430310534
:102A800090F412968D919C9113976115710521F028
:102A9000FB019383828304C09093200580931F05DC
:102AA000FD01329644C0FD01E20FF31F8193919323
:102AB000225031092D933C933AC020911D0530914D
:102AC0001E05232B41F42091120230911302309302
:102AD0001E0520931D052091100230911102211531
:102AE000310541F42DB73EB74091140250911502C3
:102AF000241B350BE0911D05F0911E05E217F3072D
:102B0000A0F42E1B3F0B2817390778F0AC014E5F5D
:102B10005F4F2417350748F04E0F5F1F50931E0577
:102B200040931D058193919302C0E0E0F0E0CF0156
:102B3000DF91CF9108950F931F93CF93DF93009769
:102B400009F48CC0FC0132971382128200911F0598
:102B5000109120050115110581F420813181820F2A
:102B6000931F20911D0530911E052817390779F50F
:102B7000F0931E05E0931D0571C0D80140E050E0C0
:102B8000AE17BF0750F412962D913C911397AD01EB
:102B90002115310509F1D901F3CF9D01DA01338304
:102BA000228360817181860F971F8217930769F4D2
:102BB000EC0128813981260F371F2E5F3F4F31836B
:102BC00020838A819B8193838283452B29F4F09310
:102BD0002005E0931F0542C01396FC93EE931297D5
:102BE000ED01499159919E01240F351FE217F3071A
:102BF00071F480819181840F951F029611969C93A8
:102C00008E938281938113969C938E931297E0E02A
:102C1000F0E0D80112968D919C911397009719F0CE
:102C2000F8018C01F6CF8D919C9198012E5F3F4F5A
:102C3000820F931F20911D0530911E05281739071B
:102C400069F4309729F41092200510921F0502C0F4
:102C50001382128210931E0500931D05DF91CF9100
:102C60001F910F9108956F927F928F929F92AF92D2
:102C7000BF92CF92DF92EF92FF920F931F93CF9369
:102C8000DF93EC01009781F4CB01DF91CF911F918D
:102C90000F91FF90EF90DF90CF90BF90AF909F90FB
:102CA0008F907F906F90B2CEFC01E60FF71F9C01D2
:102CB00022503109E217F30708F4A8C0D9010D9199
:102CC0001C91119706171707A8F00530110508F495
:102CD0009BC0C80104978617970708F495C0025057
:102CE0001109061B170B019311936D937C93CF0170
:102CF00022DF8AC05B01A01AB10A4C01800E911E2E
:102D0000A0911F05B091200540E050E0E12CF12C8E
:102D1000109709F44AC0A815B905D1F56D907C90BB
:102D20001197630182E0C80ED11CCA14DB0480F144
:102D3000A3014A195B096A0182E0C80ED11C1296F0
:102D4000BC9012971396AC91B5E0CB16D10440F02D
:102D5000B282A38351834083D9016D937C930AC0CF
:102D60000E5F1F4FC301800F911FF9019183808374
:102D7000EB2DFA2FE114F10431F0D7011396FC93F7
:102D8000EE93129741C0F0932005E0931F053CC0DD
:102D90008D919C9111974817590708F4AC017D015A
:102DA00012960D90BC91A02DB3CF80911D059091EE
:102DB0001E0588159905E1F446175707C8F4809158
:102DC000100290911102009741F48DB79EB7409187
:102DD000140250911502841B950BE817F907B0F403
:102DE000F0931E05E0931D05F901718360830CC00B
:102DF000CB010CDE7C01009749F0A801BE011BD07D
:102E0000CE0199DEC70104C0CE0102C080E090E08F
:102E1000DF91CF911F910F91FF90EF90DF90CF90B6
:102E2000BF90AF909F908F907F906F90089581E0BA
:102E300090E0F89419C0FB01DC0102C001900D92F2
:102E400041505040D8F70895FB01DC018D9101906D
:102E500080190110D9F3990B0895FB01DC01019051
:102E60000D920020E1F7089511E0CFE2D1E000E0FB
:102E700005C0802FFE01C2DD2196011DC033D107A0
:0A2E800080E00807B1F7F894FFCFD7
:102E8A006201620162016201620162016201620120
:102E9A000000210580000400060203010705212421
:102EAA002421242121240000000017026301A70124
:102EBA005D02D801B601CA01000000001607220708
:102ECA00D502D202CF02B1020000000000000000C9
:102EDA00D702710871087108000000002B07370734
:102EEA00EE02EB02D9020000000000000000F0022E
:102EFA007108710800000000830354031F03F202E3
:102F0A0016030203F30231003200330034003500A5
:102F1A0036003700380039004100420043004F4B69
:0C2F2A000041540041542B42415544002A
:00000001FF
