:100000003EC10000EFC60000C2C6000095C6000059
:1000100068C600003BC600000EC60000E1C5000037
:10002000B4C500005DC100005BC1000059C1000003
:1000300057C1000055C1000053C1000051C100006C
:100040004FC100004DC100004BC1000049C100007C
:1000500047C1000045C1000043C100000C94420F9D
:100060003FC10000A1C7000076C7000039C10000F1
:1000700037C1000035C1000033C1000031C10000AC
:100080002FC100002DC100002BC1000029C10000BC
:1000900027C1000025C1000023C100000C945009B5
:1000A0001FC100001DC100001BC1000019C10000DC
:1000B00017C1000015C1000013C1000011C10000EC
:1000C0000FC100000DC100000BC100001BC70000E4
:1000D000F0C6000005C1000003C1000001C100001E
:1000E000FFC00000470C4A0C390C3D0C430C810C3E
:1000F0004E0C520C580C5C0C600C660C6A0C6E0CAE
:10010000810C740C780C7C0C4A0D520D2A0D320DAA
:100110003A0D420D5A0D620D450E4A0E4F0E590E04
:10012000630EDC0E6D0E750E7D0E870E910E9B0E0E
:10013000AA0EB40EDC0EBE0EC80ED20E05A84CCD13
:10014000B2D44EB93836A9020C50B9918688083C11
:10015000A6AAAA2ABE000000803F000021002400B9
:1001600027002A002D0030003300010100000401A7
:1001700007010A0100002200250028002B002E00A4
:100180003100340002010000050108010B010000EC
:1001900020002300260029002C002F00320000013F
:1001A000000003010601090105050505070508080A
:1001B0000808020202020A0A0808040404040101F1
:1001C0000101010101010303030303030303040706
:1001D00007070C0C0C0C0C0C0C0C0202020206069D
:1001E0000606060606060B0B0B0B0B0B0B0B010290
:1001F0001020200808102040102040800201020139
:1002000008040201010204081020408080402010F0
:100210000804020180040201804020100804020149
:1002200008040201010204081020408001020408B1
:100230001020408000000A0B02090C0D0E08070375
:1002400004010000000000000000000000000000A9
:10025000000000000000000000000000000000009E
:10026000121110000000000000000000000000005B
:1002700000000000000000000000A6168C0F1124F2
:100280001FBECFEFD1E2DEBFCDBF00E00CBF25E047
:10029000A8ECB2E001C01D92A838B207E1F712E065
:1002A000A0E0B2E0EAE6FBE300E00BBF02C007908B
:1002B0000D92A83CB107D9F711E0CEE3D1E000E000
:1002C00006C021970109802FFE010E946E1BCD33CD
:1002D000D10780E00807A9F70E94950F0C94A41D90
:1002E0008FCE0895CF92DF92EF92FF920F931F93DC
:1002F000CF93DF936C017A018B01C0E0D0E0CE1583
:10030000DF0589F0D8016D918D01D601ED91FC9149
:100310000190F081E02DC6011995892B11F47E0121
:1003200002C02196ECCFC701DF91CF911F910F91B1
:10033000FF90EF90DF90CF900895FC01A089B189E4
:100340008C91A689B78982FD0FC09C91818D8F5FAA
:100350008F73228D821749F0218DDF01A20FB11D0D
:100360005D969C93818F08958C910895FC01538D27
:10037000448D252F30E0842F90E0821B930B54177F
:1003800010F0CF96089501970895FC01918D828D0C
:10039000981761F0828DDF01A80FB11D5D968C91D9
:1003A000928D9F5F9F73928F90E008958FEF9FEFE4
:1003B0000895FC01918D828D981731F0828DE80FA0
:1003C000F11D858D90E008958FEF9FEF0895FC015A
:1003D000918D228D892F90E0805C9F4F821B910927
:1003E0008F73992708958BE793E0F1DF21E0892B44
:1003F00009F420E0822F089588E194E0E8DF21E00D
:10040000892B09F420E0822F0895FC01848DDF01FF
:10041000A80FB11DA35ABF4F2C91848D90E0019677
:100420008F739927848FA689B7892C93A089B18966
:100430008C9180648C93938D848D981306C0028870
:10044000F389E02D80818F7D80830895EF92FF9264
:100450000F931F93CF93DF93EC0181E0888F9B8DE7
:100460008C8D981305C0E889F989808185FD23C0AA
:10047000F62E0B8D10E00F5F1F4F0F731127E02E2C
:100480008C8DE8120BC00FB607FCFACFE889F9890A
:10049000808185FFF5CFCE01B8DFF2CF8B8DFE01D5
:1004A000E80FF11DE35AFF4FF0820B8FEA89FB89B9
:1004B0008081806207C0EE89FF896083E889F989BD
:1004C00080818064808381E090E0DF91CF911F91F3
:1004D0000F91FF90EF900895CF93DF93EC01888DFB
:1004E0008823C1F0EA89FB89808185FD05C0A88940
:1004F000B9898C9186FD0EC00FB607FCF5CF8081BF
:1005000085FFF2CFA889B9898C9185FFEDCFCE0107
:100510007CDFE8CFDF91CF91089580E090E0892BD8
:1005200019F06ADF811120C080E090E0892B41F052
:1005300080E090E0892B21F00E940000811117C01B
:1005400080E090E0892B19F04EDF811113C080E02C
:1005500090E0892BA1F080E090E0892B81F00E944F
:10056000000081110AC008950E940000DDCF0E94A2
:100570000000E6CF0E940000EACF0C94000008952E
:10058000DC0113962C91139770E061507109269F3E
:10059000F001279FF00D1124E40FF11D3197EE0FAC
:1005A000FF1FEE0FFF1F14968D919C911597E80F7A
:1005B000F91F60817181828193810895FC0183819B
:1005C0000895FC018281089581E0089580E00895F6
:1005D00070E06150704C660F771F660F771FFC014B
:1005E00083819481FC01E60FF71F60817181828114
:1005F00093810895FC018281089581E00895CF924E
:10060000DF92EF92FF920F931F93CF93DF931F928E
:10061000CDB7DEB78B01DC01ED91FC910084F18553
:10062000E02D642F498319956B017C01D801ED9170
:10063000FC910084F185E02D4981642FC801199552
:100640009B01AC01C701B6010E94C5190F90DF9153
:10065000CF911F910F91FF90EF90DF90CF90089571
:10066000DC01462F14966D917C9115971696ED91AD
:10067000FC91179712968D919C9113971994DC0118
:1006800012968D919C911397DC01ED91FC9106805F
:10069000F781E02D19947F928F929F92AF92BF9233
:1006A000CF92DF92EF92FF920F931F93CF93DF933E
:1006B0008C01762EDC0114968D919C911597DC01AE
:1006C000ED91FC910680F781E02D1995D82FC1E0BE
:1006D000C12CD12C7601DC1748F1F801828193817D
:1006E000DC01ED91FC910284F385E02D4C2F672D08
:1006F00019954B015C01F80184819581DC01ED9134
:10070000FC910084F185E02D6C2F19959B01AC01C3
:10071000C501B4010E9410199B01AC01C701B601CB
:100720000E94C5196B017C01CF5FD5CFC701B6010F
:10073000DF91CF911F910F91FF90EF90DF90CF90BD
:10074000BF90AF909F908F907F900895DC0112969C
:100750008D919C911397DC01ED91FC910680F781BE
:10076000E02D1994FC018AE292E0918380838681D6
:10077000882359F084819581009739F0DC01ED914F
:10078000FC910280F381E02D1994089580E0089592
:100790000895E0915E0580915D05E81730F4F0E082
:1007A000E15AFA4F808190E008958FEF9FEF08950E
:1007B00090915E0580915D05981750F4E92FF0E067
:1007C000E15AFA4F208130E09F5F90935E0502C0AE
:1007D0002FEF3FEFC901089580915D0590E02091D2
:1007E0005E05821B91090895089580E090E00895C8
:1007F00085ED8093BC008091BC0084FDFCCF1092FD
:10080000560308954091EA02262F30E0240F311D4F
:1008100021323105DCF4209156032430C9F4FC0167
:1008200080E090E0861758F43091EA022191DC01D3
:10083000A853BD4FA30FB11D2C930196F3CF809108
:10084000EA02680F6093EA0280E0089581E008956B
:1008500082E00895CF92DF92EF92FF920F931F9361
:10086000CF93DF937C01262F972F8A018091570326
:10087000882391F0C62FD72F6E01C40ED51ECC153C
:10088000DD0569F06991D701ED91FC910190F0814E
:10089000E02DC7011995F3CF642F822FB3DFC80174
:1008A000DF91CF911F910F91FF90EF90DF90CF904C
:1008B0000895CF93DF931F92CDB7DEB76983209160
:1008C00057032223D1F020917A03203240F021E017
:1008D00030E0FC013383228380E090E014C08091FB
:1008E0005803E82FF0E0E75AFC4F998190838F5F1F
:1008F0008093580380937A0304C061E0CE0101968F
:1009000081DF81E090E00F90DF91CF9108950E9408
:10091000871DCF93DF93EC0188819981009711F0B7
:100920000E940B1C198218821D821C821B821A8253
:10093000DF91CF9108950C940B1CCF93DF93EC01C2
:1009400011DFCE01DF91CF910C940B1CCF93DF937D
:10095000EC018C810E948B0D892B51F08B810E94C0
:100960008B0D4D815E816F817885892B51F00EC092
:100970008B810E948B0D4D815E816F817885892BE3
:1009800029F04F5F5F4F6F4F7F4F04C041505109B7
:10099000610971094D835E836F837887DF91CF9101
:1009A000089588E095E0D2CF89E195E0CFCFCF934D
:1009B000DF93EC018B810E948B0D892B51F08C8190
:1009C0000E948B0D4D815E816F817885892B51F05E
:1009D0000EC08C810E948B0D4D815E816F81788568
:1009E000892B29F0415051096109710904C04F5FF9
:1009F0005F4F6F4F7F4F4D835E836F837887DF91AB
:100A0000CF91089588E095E0D2CF89E195E0CFCFEE
:100A10000F931F93CF93DF93EC0188819981009707
:100A200029F02A813B812617370788F48B016F5FF5
:100A30007F4F0E94A31C009761F0998388831B83DA
:100A40000A832C813D81232B11F4FC01108281E06B
:100A500001C080E0DF91CF911F910F910895EF9237
:100A6000FF920F931F93CF93DF93EC01FB018481DF
:100A70009581E080F1800C811D81E114F104A9F0E1
:100A80000097A9F0080F191FB801CE01C1DF882314
:100A900061F0288139818C819D81B701820F931F7C
:100AA0000E949D1D1D830C8302C0CE0132DFCE014A
:100AB000DF91CF911F910F91FF90EF900895EF92EA
:100AC000FF920F931F93CF93DF93EC017B018A0179
:100AD000BA019EDF811103C0CE011BDF07C01D8359
:100AE0000C83B701888199810E949D1DCE01DF9101
:100AF000CF911F910F91FF90EF900895CF93DF93C7
:100B0000EC016115710551F0FB0101900020E9F73E
:100B10003197AF01461B570BD2DF01C0FADECE0181
:100B2000DF91CF910895FC01808191810C940B1C81
:100B3000FB01DC0111961C921E9213961C921E92D0
:100B4000129715961C921E9214978617970741F0DC
:100B5000608171816115710519F044815581AFCFB4
:100B60000895FC0111821082138212821582148270
:100B70006115710549F0FB0101900020E9F73197FB
:100B8000AF01461B570B9BCF08951F920F920FB6D4
:100B90000F9211240BB60F922F933F934F935F93B5
:100BA0006F937F938F939F93AF93BF93EF93FF9335
:100BB000E0910E02F0910F021995FF91EF91BF9114
:100BC000AF919F918F917F916F915F914F913F91E5
:100BD0002F910F900BBE0F900FBE0F901F90189586
:100BE0001F920F920FB60F9211240BB60F922F93F4
:100BF0003F934F935F936F937F938F939F93AF93A5
:100C0000BF93EF93FF93E0910C02F0910D021995C1
:100C1000FF91EF91BF91AF919F918F917F916F91D4
:100C20005F914F913F912F910F900BBE0F900FBE90
:100C30000F901F9018951F920F920FB60F921124CC
:100C40000BB60F922F933F934F935F936F937F93C6
:100C50008F939F93AF93BF93EF93FF93E091020223
:100C6000F09103021995FF91EF91BF91AF919F9180
:100C70008F917F916F915F914F913F912F910F9045
:100C80000BBE0F900FBE0F901F9018951F920F92E2
:100C90000FB60F9211240BB60F922F933F934F93E1
:100CA0005F936F937F938F939F93AF93BF93EF93D4
:100CB000FF93E0910002F09101021995FF91EF91ED
:100CC000BF91AF919F918F917F916F915F914F9164
:100CD0003F912F910F900BBE0F900FBE0F901F9062
:100CE00018951F920F920FB60F9211240BB60F9208
:100CF0002F933F934F935F936F937F938F939F9324
:100D0000AF93BF93EF93FF93E0910A02F0910B0230
:100D10001995FF91EF91BF91AF919F918F917F9125
:100D20006F915F914F913F912F910F900BBE0F905C
:100D30000FBE0F901F9018951F920F920FB60F9233
:100D400011240BB60F922F933F934F935F936F93A2
:100D50007F938F939F93AF93BF93EF93FF93E09114
:100D60000802F09109021995FF91EF91BF91AF919F
:100D70009F918F917F916F915F914F913F912F91B3
:100D80000F900BBE0F900FBE0F901F9018951F92E3
:100D90000F920FB60F9211240BB60F922F933F9321
:100DA0004F935F936F937F938F939F93AF93BF9373
:100DB000EF93FF93E0910602F09107021995FF91DE
:100DC000EF91BF91AF919F918F917F916F915F91C3
:100DD0004F913F912F910F900BBE0F900FBE0F9030
:100DE0001F9018951F920F920FB60F9211240BB6F9
:100DF0000F922F933F934F935F936F937F938F93B4
:100E00009F93AF93BF93EF93FF93E0910402F09110
:100E100005021995FF91EF91BF91AF919F918F912D
:100E20007F916F915F914F913F912F910F900BBEEA
:100E30000F900FBE0F901F901895CF93DF93EC018A
:100E40002FB7F8948091590590915A05A0915B05B0
:100E5000B0915C052FBF88879987AA87BB87E881F7
:100E6000F9810284F385E02DCE01199597FF1EC00C
:100E70002FB7F8948091590590915A05A0915B0580
:100E8000B0915C052FBF488559856A857B85841B99
:100E9000950BA60BB70B4C815D816E817F8184170A
:100EA0009507A607B707D8F28FEF9FEFDF91CF9195
:100EB00008951F920F920FB60F9211240BB60F9246
:100EC0002F933F934F935F936F937F938F939F9352
:100ED000AF93BF93EF93FF938BE793E096DAFF9185
:100EE000EF91BF91AF919F918F917F916F915F91A2
:100EF0004F913F912F910F900BBE0F900FBE0F900F
:100F00001F9018951F920F920FB60F9211240BB6D7
:100F10000F922F933F934F935F936F937F938F9392
:100F20009F93AF93BF93EF93FF938BE793E005DA23
:100F3000FF91EF91BF91AF919F918F917F916F91B1
:100F40005F914F913F912F910F900BBE0F900FBE6D
:100F50000F901F9018951F920F920FB60F921124A9
:100F60000BB60F922F933F934F935F936F937F93A3
:100F70008F939F93AF93BF93EF93FF9388E194E098
:100F800044DAFF91EF91BF91AF919F918F917F9143
:100F90006F915F914F913F912F910F900BBE0F90EA
:100FA0000FBE0F901F9018951F920F920FB60F92C1
:100FB00011240BB60F922F933F934F935F936F9330
:100FC0007F938F939F93AF93BF93EF93FF9388E1AA
:100FD00094E0B3D9FF91EF91BF91AF919F918F9121
:100FE0007F916F915F914F913F912F910F900BBE29
:100FF0000F900FBE0F901F901895DC018D919C9162
:10100000DC01ED91FC910190F081E02D1994DC015F
:101010008D919C91DC01ED91FC910284F385E02D92
:1010200019950895CF92DF92EF92FF920F931F933D
:10103000CF93DF9300D01F92CDB7DEB76C018E0146
:101040000F5F1F4F7E0185E0E80EF11CC601DFDF58
:10105000F80181938F01EE15FF05C1F769817A814F
:101060008B819C810F900F900F900F90DF91CF910B
:101070001F910F91FF90EF90DF90CF900895DC01CA
:101080008D919C91DC01ED91FC910084F185E02D26
:101090001994EF92FF920F931F93CF93DF937C01EC
:1010A000EEDF8C01C0E0D0E0C017D10764F4D701B7
:1010B0008D919C91DC01ED91FC910284F385E02DF2
:1010C00019952196F1CFC801DF91CF911F910F9112
:1010D000FF90EF900895CF93DF93EC01CB01BA011D
:1010E00029853A854B855C850E9410190E94941AC7
:1010F000161617062CF48981A1D560E08A8107C0F5
:101100007195619571098A8199D560E08981DF9136
:10111000CF9129C540E050E0BA0188E095E0DBDFDF
:1011200040E050E0BA0189E195E0D5CFD82FF2DF59
:10113000C1E0DC17A0F061E08091EA0414D564E618
:1011400070E080E090E066D660E08091EA040BD524
:101150006AEF70E080E090E05DD6CF5FEACF68EEA6
:1011600073E080E090E056D6E3CFCF93DF93EC01BD
:1011700061E0888127D561E0898124D561E08A8199
:1011800021D560E08B811ED560E08C811BD560E0AD
:101190008881E9D460E08981E6D460E08A81DF91CA
:1011A000CF91E1C428E532E0FC01318320838481C2
:1011B0009581009711F00C940B1C0895CF93DF9349
:1011C000EC01F0DFCE01DF91CF910C940B1C28E7EE
:1011D00032E0FC013183208383819481009711F0F8
:1011E0000C940B1C0895CF93DF93EC01F0DFCE013C
:1011F000DF91CF910C940B1C08950F931F93CF9305
:10120000DF93EC01E2D5088119812A813B81601BC3
:10121000710B820B930B0E94AF182DEB37E346E85E
:1012200055E30E941019DF91CF911F910F910895FE
:101230008F929F92AF92BF92EF92FF920F931F9364
:10124000CF93DF93EC017B0149015A018C010A5FC6
:101250001F4FBBD56E837F8388879987C801CDDFF9
:10126000A50194010E94FE1A87FF0EC08881998112
:10127000DC01ED91FC910084F185E02D19958E152E
:101280009F0564F381E001C080E0DF91CF911F9161
:101290000F91FF90EF90BF90AF909F908F90089527
:1012A0001F920F920FB60F9211240BB60F922F932D
:1012B0003F934F935F936F937F938F939F93AF93DE
:1012C000BF93EF93FF938091B900887F803609F434
:1012D0009CC068F5883209F45BC090F4803109F451
:1012E00054C038F4882309F4F6C0883009F44DC09E
:1012F000F5C0883109F44CC0803209F45DC0EEC0FD
:10130000803409F468C048F4803309F455C0883348
:1013100009F0E4C080935403D8C0803509F44FC06D
:10132000883509F45DC0883409F0D8C0D6C0883942
:1013300009F4C7C0A8F4883709F467C038F48836C0
:1013400009F463C0803709F460C0C8C0883809F464
:10135000B8C0803909F45FC0803809F0BFC05BC0F5
:10136000803B09F486C038F4803A09F466C0883AB4
:1013700009F47FC0B3C0803C09F4A7C0883C09F4DD
:10138000A4C0883B09F48AC0A9C08091310310C071
:101390009091530380915203981770F5E091530395
:1013A00081E08E0F80935303F0E0EE5CFC4F808170
:1013B0008093BB0085EC86C0809354038EC0E0917F
:1013C000530381E08E0F809353038091BB00F0E0C4
:1013D000EE5CFC4F808390915303809152036EC06A
:1013E000E091530381E08E0F809353038091BB0003
:1013F000F0E0EE5CFC4F80838091550381116DC05D
:1014000081E08093300384EA61C083E080935603D7
:1014100010920E03CFCF80910E03803208F051C09E
:10142000E0910E0381E08E0F80930E038091BB004C
:10143000F0E0E251FD4F8083BDCF85EC8093BC008E
:101440001092560380910E03803230F4E0910E0327
:10145000F0E0E251FD4F108260910E0370E0E091E8
:10146000EC02F091ED028EEE92E0199510920E03CF
:1014700035C084E0809356031092EB021092EA028A
:10148000E091E802F091E90219958091EA02811158
:1014900005C081E08093EA021092C802E091EB025D
:1014A00081E08E0F8093EB02F0E0E853FD4F8081E6
:1014B0008093BB009091EB028091EA02981708F4A8
:1014C00079CF85E88093BC0009C085EC8093BC008F
:1014D0001092560303C0109254038AD9FF91EF91E2
:1014E000BF91AF919F918F917F916F915F914F913C
:1014F0003F912F910F900BBE0F900FBE0F901F903A
:101500001895CF92DF92EF92FF920F931F93CF9394
:10151000DF93EC016A017B01E889F98982E080832D
:101520004115514E61057105B1F060E079E08DE340
:1015300090E0A70196010E944C1B89019A0101507D
:1015400011092109310936952795179507959801B5
:1015500001151041A8F0E889F989108260E874E863
:101560008EE190E0A70196010E944C1BDA01C901AF
:101570000197A109B109B695A795979587959C0103
:10158000EC85FD853083EE85FF852083188EEC8900
:10159000FD8986E08083EA89FB8980818061808380
:1015A000EA89FB89808188608083EA89FB89808160
:1015B00080688083EA89FB8980818F7D8083DF91C9
:1015C000CF911F910F91FF90EF90DF90CF900895F2
:1015D000CF92DF92EF92FF920F931F93CF93DF93FF
:1015E000CDB7DEB728970FB6F894DEBF0FBECDBFDC
:1015F0007B01A091F004B091F1042D913C911197E1
:10160000FC014481558160817181F901228133811E
:10161000CD01F9011995D9D36093FA047093FB04B5
:101620008093FC049093FD048AEF94E0E6DD20E0D3
:1016300030E040E85FE30E94FE1A87FF6AC08091B5
:10164000F0049091F104DC01ED91FC910084F185AE
:10165000E02D1995F701248135818217930721F731
:10166000C090F004D090F10463EA72E0CE010196DC
:1016700078DAC601E2DB2D813E8197FD19C08F83A8
:10168000188689010F5F1F4FB801CE010196C0D99E
:10169000882379F329813A818D819E81BE01695F1A
:1016A0007F4F820F931F0E949D1D1E830D83E1CFEC
:1016B000D70114968D919C9115972817390711F52C
:1016C00089819A816D917C91009719F0611571055E
:1016D000A1F46115710549F0232BB1F0FB01808164
:1016E00090E09195819591090AC0009769F0232BAC
:1016F00059F0DC018C9190E002C00E94941D11E031
:10170000892B19F010E001C011E0CE0101960BDA2F
:1017100001C010E0812F28960FB6F894DEBF0FBEEF
:10172000CDBFDF91CF911F910F91FF90EF90DF9090
:10173000CF9008950F931F93CF93DF938C018091E7
:101740002C05882379F0E8012197D7FD08C08DE4A6
:1017500095E02ED8FE01E65DFA4F8383F5CF23E0B6
:1017600030E00EC0C0E0D0E0C017D107C4F78DE470
:1017700095E01ED8FE01E65DFA4F83832196F4CFF3
:10178000201731073CF0F901E65DFA4F1382215032
:101790003109F6CFDF91CF911F910F910895382F26
:1017A00020917A0390917903213208F049C0809109
:1017B00056038111FCCF42E040935603309355030A
:1017C0003FEF309354031092530320935203A9E543
:1017D000B3E042E353E0FA013E2F341B321718F412
:1017E0003D913193F9CF1092310320913103990F3C
:1017F000922B9093310390913003913061F41092C9
:101800003003909131039093BB009091BC0093FD05
:10181000F8CF95EC01C095EE9093BC0090915603E3
:101820009230E1F3909154039F3F79F080915403FB
:10183000803241F080915403803331F084E005C060
:1018400081E003C082E001C083E01092580310924F
:101850007A0310925703089590E0FC013197E2312A
:10186000F10508F04EC08827EE58FF4F8F4F0C94BB
:101870006E1B809180008F7703C0809180008F7DE8
:1018800080938000089580918000877FF9CF84B590
:101890008F7702C084B58F7D84BD08958091B0009C
:1018A0008F7703C08091B0008F7D8093B000089542
:1018B000809190008F7707C0809190008F7D03C04A
:1018C00080919000877F8093900008958091A00080
:1018D0008F7707C08091A0008F7D03C08091A0000A
:1018E000877F8093A0000895809120018F7707C0A3
:1018F000809120018F7D03C080912001877F80939C
:1019000020010895CF93C62F90912A0521E02093BE
:101910005703909379031092580310927A03682F1B
:101920008DE495E00E94590480E039DF80912A051A
:10193000909156039111FCCF6C2FC13208F060E2F8
:1019400091E090935603909355032FEF2093540307
:1019500010925303260F20935203909331039091DA
:101960003103880F892B80933103809130038130BC
:1019700061F410923003809131038093BB00809119
:10198000BC0083FDF8CF85EC01C085EE8093BC00E0
:10199000809156038130E1F380915303861710F450
:1019A00060915303A2E3B3E02FE535E0F9018E2FF8
:1019B000821B861718F48D918193F9CF10925E05E2
:1019C00060935D05CF91089562E070E08AE190E058
:1019D00099DF82E090E0AEDE60912D0570912E05DA
:1019E00080912F05909130050E94AF182AE737E1CA
:1019F0004FE85AE30C941019CF93C62F90912A0503
:101A000021E020935703909379031092580310928A
:101A10007A03682F8DE495E00E9459046C2F8DE4C1
:101A200095E00E94590481E0CF91B9CEE82FF0E013
:101A3000EE0FFF1FE050FE4F7183608390E088300F
:101A4000910508F046C0FC018827EC57FF4F8F4FE7
:101A50000C946E1B809169008C7F8160809369007B
:101A6000E89A089580916900837F8460809369007B
:101A7000E99A0895809169008F7C80618093690064
:101A8000EA9A0895809169008F7380648093690059
:101A9000EB9A089580916A008C7F816080936A0040
:101AA000EC9A089580916A00837F846080936A0035
:101AB000ED9A089580916A008F7C806180936A001E
:101AC000EE9A089580916A008F73806480936A0013
:101AD000EF9A0895CF93DF9300D01F92CDB7DEB772
:101AE00069837A838B839C838091FE049091FF04A9
:101AF000DC01ED91FC910280F381E02D44E050E0A7
:101B0000BE016F5F7F4F19950F900F900F900F9050
:101B1000DF91CF910895CF93DF93282F30E0F90123
:101B2000EC5CFD4F8491F901E251FE4FD491F90133
:101B3000E855FE4FC491CC2389F081118DDEEC2F46
:101B4000F0E0EE0FFF1FE257FE4FA591B491EC912C
:101B5000ED2381E090E021F480E002C080E090E09D
:101B6000DF91CF9108951F93CF93DF93282F30E01B
:101B7000F901EC5CFD4F8491F901E251FE4FD491E3
:101B8000F901E855FE4FC491CC23C1F0162F811105
:101B900063DEEC2FF0E0EE0FFF1FEC58FE4FA59137
:101BA000B4918FB7F894111105C09C91ED2FE09579
:101BB000E92302C0EC91ED2BEC938FBFDF91CF9125
:101BC0001F910895CF93DF9390E0FC01E251FE4F07
:101BD0002491FC01E855FE4F8491882361F190E047
:101BE000880F991FFC01E65AFE4FC591D491FC0164
:101BF000EC58FE4FA591B491611109C09FB7F894BC
:101C00008881209582238883EC912E230BC062303B
:101C100061F49FB7F8943881822F8095832388835D
:101C2000EC912E2B2C939FBF06C08FB7F894E881C0
:101C30002E2B28838FBFDF91CF9108951F93CF93D1
:101C4000DF93182FEB0161E0BDDF209711F460E016
:101C500004C0CF3FD10531F461E0812FDF91CF91F6
:101C60001F9181CFE12FF0E0EC5CFD4FE4914E2F0E
:101C700050E0FA013197E231F10508F09DC0882764
:101C8000E457FF4F8F4F0C946E1B84B5806884BD62
:101C9000C7BD97C084B5806284BDC8BD92C0809125
:101CA0008000806880938000D0938900C093880072
:101CB00088C080918000806280938000D0938B00E8
:101CC000C0938A007EC080918000886080938000ED
:101CD000D0938D00C0938C0074C08091B000806858
:101CE0008093B000C093B3006CC08091B00080625C
:101CF0008093B000C093B40064C08091900080686D
:101D000080939000D0939900C09398005AC080911E
:101D10009000806280939000D0939B00C0939A00C3
:101D200050C080919000886080939000D0939D0077
:101D3000C0939C0046C08091A00080688093A00062
:101D40008091A0008F7B8093A000D093A900C093C6
:101D5000A80037C08091A00080628093A000D0933B
:101D6000AB00C093AA002DC08091A0008860809332
:101D7000A000D093AD00C093AC0023C0809120019F
:101D8000806880932001D0932901C093280119C055
:101D900080912001806280932001D0932B01C09319
:101DA0002A010FC080912001886080932001D09388
:101DB0002D01C0932C0105C0C038D1050CF04CCFCB
:101DC00046CFDF91CF911F9108953FB7F89480914E
:101DD000800590918105A0918205B091830526B57B
:101DE000A89B05C02F3F19F00196A11DB11D3FBF53
:101DF000BA2FA92F982F8827820F911DA11DB11DE1
:101E0000BC01CD0142E0660F771F881F991F4A95DC
:101E1000D1F708958F929F92AF92BF92CF92DF92A7
:101E2000EF92FF926B017C01D0DF4B015C01C1148A
:101E3000D104E104F104E9F0C8DFDC01CB01881929
:101E40009909AA09BB09883E9340A105B10578F319
:101E500021E0C21AD108E108F10888EE880E83E07B
:101E6000981EA11CB11CC114D104E104F10421F796
:101E7000DECFFF90EF90DF90CF90BF90AF909F901C
:101E80008F9008951F920F920FB60F9211242F93E7
:101E90003F938F939F93AF93BF93809159059091F8
:101EA0005A05A0915B05B0915C0530917F0523E058
:101EB000230F2D3720F40196A11DB11D05C026E882
:101EC000230F0296A11DB11D20937F058093590514
:101ED00090935A05A0935B05B0935C0580918005B3
:101EE00090918105A0918205B09183050196A11D75
:101EF000B11D8093800590938105A0938205B093D6
:101F00008305BF91AF919F918F913F912F910F903A
:101F10000FBE0F901F90189583E395E043D989E396
:101F200095E055D98EE395E052C9CF93DF93CDB7B5
:101F3000DEB7C054D1090FB6F894DEBF0FBECDBFD7
:101F4000789484B5826084BD84B5816084BD85B594
:101F5000826085BD85B5816085BD80916E008160A0
:101F600080936E0010928100809181008260809346
:101F70008100809181008160809381008091800048
:101F80008160809380008091B10084608093B10073
:101F90008091B00081608093B00080919100826058
:101FA0008093910080919100816080939100809155
:101FB00090008160809390008091A1008260809366
:101FC000A1008091A10081608093A1008091A00078
:101FD00081608093A0008091210182608093210123
:101FE0008091210181608093210180912001816095
:101FF0008093200180917A00846080937A008091A0
:102000007A00826080937A0080917A008160809368
:102010007A0080917A00806880937A001092C100E3
:1020200061E08091EA04CEDD60E08091EA049BDD0E
:1020300088E095E09AD861E08091080594DD2091D0
:102040000B05223059F0233061F08EEE820F843080
:1020500058F487E190E0821B910908C080E090E08D
:1020600005C081E090E002C08FEF9FEF883018F448
:1020700062E075E0DBDC20910C05223059F0233062
:1020800061F08EEE820F843058F487E190E0821B7D
:10209000910908C080E090E005C081E090E002C0B6
:1020A0008FEF9FEF883018F461ED74E0BFDC89E1B9
:1020B00095E05BD861E08091190555DD20911C0504
:1020C000223059F0233061F08EEE820F843058F4C4
:1020D00087E190E0821B910908C080E090E005C094
:1020E00081E090E002C08FEF9FEF883018F465E048
:1020F00075E09CDC20911D05223059F0233061F001
:102100008EEE820F843058F487E190E0821B9109B3
:1021100008C080E090E005C081E090E002C08FEF51
:102120009FEF883018F464ED74E080DC88E290E082
:1021300090932B0580932A0510922C0510925E0532
:1021400010925D051092580310927A031092560374
:1021500081E0809355031092300361E084E103DD58
:1021600061E085E100DD8091B9008E7F8093B90048
:102170008091B9008D7F8093B90088E48093B80086
:1021800085E48093BC0060E08DE390E035DC64E0A2
:1021900070E080E090E0B6DB81E090E0CBDA409048
:1021A0002D0550902E0560902F057090300581E030
:1021B00090E0C0DA80902D0590902E05A0902F051C
:1021C000B090300581E090E0B5DAC0902D05D09058
:1021D0002E05E0902F05F090300581E090E0AADA1E
:1021E00080912D0590912E05A0912F05B09130057D
:1021F00020EA4216510461047104B1F53BEF8316E5
:102200009104A104B10481F5E2E3CE16D104E10406
:10221000F10451F50F97A105B10531F560E08EE3AA
:1022200090E0EADBE0913105F0913205E25EFD4F8E
:10223000608181E490E0E0DBE0913105F0913205CE
:10224000EA5EFD4F608182E490E0D6DB6CE08DE3D6
:1022500090E0D2DBB9DB60930F037093100380939F
:1022600011039093120303C081E00E94960861E07D
:1022700084E0A8DC61E084E076DC6CED75E080E071
:1022800090E0C8DD409145055091460560914705B5
:1022900070914805809143059091440532D983E4BB
:1022A00095E00E94490861E083E495E00E94FD0703
:1022B00020E030E040E85FE361E070E083E495E037
:1022C0000E941809882309F427C583E495E00E9439
:1022D0000708813009F01EC563EA72E0CE01CB9693
:1022E0000E94B1058091F2049091F304A091F4044E
:1022F000B091F5048E010E5D1F4F8115F6E99F0721
:10230000A105B10509F45FC038F5803C32E19307BF
:10231000A105B10509F451C080F4803BF4E09F07AA
:10232000A105B10509F446C080369940A105B10563
:1023300009F0E8C064EA72E054C0803835E29307DF
:10234000A105B105E9F181159B44A105B10509F08D
:10235000D9C06AEA72E045C08115F4E89F07F3E04E
:10236000AF07B105B1F178F4811531EE9307A105FE
:10237000B10561F18115924CA140B10509F0C2C0CF
:1023800060EB72E02EC08115F0E19F07FEE0AF0721
:10239000B10511F1811528E1920725E1A207B105E8
:1023A000F1F081159840A740B10509F0ABC064EB8E
:1023B00072E017C062EA72E014C066EA72E011C00F
:1023C00068EA72E00EC06CEA72E00BC06EEA72E07E
:1023D00008C062EB72E005C066EB72E002C068EB19
:1023E00072E0CE01CB960E947E054091F60450919A
:1023F000F7046091F8047091F9048091F0049091D1
:10240000F1047FD86AEB72E0C8010E94B1056DEB60
:1024100072E0CE0101960E94B105B801CE0101968D
:10242000D7D8F82ECE0101960E949305C8010E94CC
:102430009305FF2009F457C06091F2047091F304F2
:102440008091F4049091F50418AA1FA61AAA19AA5B
:102450001CAA1BAA2AE0AE014F5F5F4F4BD6BE01FC
:102460006F5F7F4FCE018F960E947E056AEB72E010
:10247000CE0189960E94B105BE01615D7F4FCE01FC
:1024800089960E942F05BC01CE01C5960E94980531
:1024900060EC72E0CE0101960E94B105BE01655C60
:1024A0007F4FCE0101960E942F05BC01C8010E94FA
:1024B0009805BE016B5C7F4FC8018AD8F82EC80111
:1024C0000E949305CE0101960E949305CE01C59608
:1024D0000E949305CE0189960E949305CE018F96A6
:1024E0000E94930501C0F12C4091F2045091F30435
:1024F0006091F4047091F5048091F0049091F104DE
:1025000000D801C0F12CCE01CB960E949305FF208C
:1025100009F406C44091000550910105609102053F
:10252000709103058091FE049091FF040E94810A3E
:1025300061E08091EA0417DB8EEF94E00E94490885
:1025400029E936E746E95EE761E070E08EEF94E066
:102550000E9418098EEF94E00E940708813009F06C
:10256000E3C361E08EEF94E00E94FD072EDC6093F0
:10257000EC047093ED048093EE049093EF0493E3E6
:10258000692E95E0792E20DA20910F033091100307
:102590004091110350911203F7D66B017C016093B7
:1025A0002B0370932C0380932D0390932E03209183
:1025B0001303309114034091150350911603E4D690
:1025C0004B015C01C0921303D0921403E0921503F7
:1025D000F0921603F89460910D0570910E058091AC
:1025E0000F05909110057894BCD520911505309178
:1025F0001605409117055091180512D66B017C0104
:10260000F89460911E0570911F05809120059091AE
:1026100021057894A6D52091260530912705409173
:10262000280550912905FCD59B01AC01F894109226
:102630000D0510920E0510920F051092100578945A
:10264000F89410921E0510921F051092200510920A
:1026500021057894C701B60198D627E930E94FE8FB
:102660005CE3DED51B012C0120E030E0A901C501AF
:10267000B40171D5E0903C05F0903D0581110AC090
:10268000F7011082118212821382248235824682DF
:10269000578226C0A5019401C201B101DDD61B01FC
:1026A0002C01C501B401D5D620E030E040E85FE35D
:1026B0006BD69B01AC01C201B101B2D5F7016083B9
:1026C000718382839383C501B4019CD79B01AC01C4
:1026D000C201B101A5D5F701648375838683978311
:1026E000C0902B03D0902C03E0902D03F0902E038C
:1026F000C701B601AED64B015C01C701B60182D756
:10270000E0913705F091380580829182A282B382F0
:10271000648375838683978320913605DF0134E0D7
:10272000239FA00DB11D1124AB01BC0170584D9326
:102730005D936D937C9313978091360594E0899F08
:10274000E00DF11D112484829582A682B782EAE20F
:10275000F2E0FBA3EAA318A67DA26CA229E335E070
:102760003FA32EA388E392E09A838983EEE3F5E00A
:10277000FC83EB831E830D832FEF32E038872F839A
:10278000CE0101960E943F0390914005981799F061
:102790008093400580914105909142050E940B1C59
:1027A0008091400534E0839FC00111249FD790930E
:1027B000420580934105BB24B394809140058B155D
:1027C000E0F0EB2CF12C81E0E81A80ECF80AEE0C3A
:1027D000FF1CEE0CFF1C8091410590914205E80E14
:1027E000F91E6B2DCE0101960E943003F701608324
:1027F000718382839383B394E0CFC8010E94B203B4
:1028000083E495E00E943F08892B09F45DC083E4CE
:1028100095E00E940708813009F08CC261E083E4F2
:1028200095E00E94FD0720E030E040E85FE360E1D2
:1028300070E083E495E00E941809882309F478C2C7
:1028400083E495E00E94120826EA3AE046E05EE35F
:102850009CD5609323037093240380932503909366
:10286000260383E495E00E94120825E935E648E056
:102870005EE38BD560931F03709320038093210345
:102880009093220383E495E00E9412082DED34E238
:1028900046E05EE37AD560931B0370931C0380933C
:1028A0001D0390931E0383E495E00E9412082FED10
:1028B0003FE44DE05EE369D560931703709318031E
:1028C0008093190390931A038EEF94E00E943F08BF
:1028D000892B09F491C08EEF94E00E943F08892B68
:1028E00009F480C08EEF94E00E940708833089F1DC
:1028F000843009F473C0823009F022C220E030E055
:1029000040E85FE368E070E08EEF94E00E94180911
:10291000882309F419C262E08EEF94E00E94FD075B
:102920008EEF94E00E9412086093270370932803AF
:102930008093290390932A038EEF94E00E9412085B
:102940006093E6047093E7048093E8049093E904AD
:10295000C2CF63E08EEF94E00E94FD07E091410555
:10296000F09142056081718182819381B3D8E091B9
:102970004105F09142056481758186819781AAD8CD
:1029800060912B0370912C0380912D0390912E0365
:10299000A1D8609123037091240380912503909125
:1029A000260398D860911F03709120038091210322
:1029B000909122038FD860911B0370911C0380912A
:1029C0001D0390911E0386D8609117037091180320
:1029D0008091190390911A037DD87DCFF1E0F09397
:1029E0002F0379CFF2D96093EC047093ED048093B8
:1029F000EE049093EF040BC08CEE94E00E94FD086F
:102A000020E030E040E85FE3F9D587FF97C180918F
:102A10002F03882339F00E948A0860E08091EA043D
:102A2000A2D8FFCF8090E6049090E704A090E8043D
:102A3000B090E9042091E2043091E3044091E40471
:102A40005091E504C501B40186D3882311F1109299
:102A5000D1041092D2041092D3041092D404109294
:102A6000D5041092D6041092D7041092D804109274
:102A7000D9041092DA041092DB041092DC04109254
:102A8000DD041092DE041092DF041092E004109234
:102A9000E1048092E2049092E304A092E404B092F4
:102AA000E504C0902B03D0902C03E0902D03F09010
:102AB0002E032BED3FE049E450E4C501B4014BD3B4
:102AC0002BED3FE049E450E4181694F0C501B40141
:102AD0005CD49B01AC01C701B6013DD31816E4F4E8
:102AE0002BED3FE049EC50E4C501B4014ED411C0D8
:102AF000C501B40149D49B01AC01C701B6012BD378
:102B0000181654F02BED3FE049EC50E4C501B40138
:102B10003BD4A701960104C0A7019601C501B401E9
:102B200033D44B015C0185EB94E00E94FD081B014E
:102B30002C014BD96093B5047093B6048093B7040D
:102B40009093B8042091CD043091CE044091CF04ED
:102B50005091D004C201B10151D587FD1AC0109225
:102B6000D5041092D6041092D7041092D804109273
:102B7000D9041092DA041092DB041092DC04109253
:102B8000DD041092DE041092DF041092E004109233
:102B9000E1048092D1049092D204A092D304B09226
:102BA000D4048091E104882371F1A2019101C5014F
:102BB000B40136D39B01AC016091D9047091DA0461
:102BC0008091DB049091DC04E0D36093D90470938E
:102BD000DA048093DB049093DC042091D5043091D7
:102BE000D6044091D7045091D804C501B401CCD388
:102BF000A201910131D46093DD047093DE048093CF
:102C0000DF049093E0048092D5049092D604A092C1
:102C1000D704B092D8042091B9043091BA044091FD
:102C2000BB045091BC04C501B401FAD24B015C0154
:102C30002091D9043091DA044091DB045091DC04F6
:102C40006091BD047091BE048091BF049091C00456
:102C5000E7D29B01AC01C501B40197D34B015C01E4
:102C60002091DD043091DE044091DF045091E004B6
:102C70006091C1047091C2048091C3049091C40416
:102C8000CFD29B01AC01C501B4017FD32B014C0114
:102C9000A090C504B090C604E090C704F090C804AA
:102CA0009501A70158D287FD11C0A090C904B0902A
:102CB000CA04E090CB04F090CC049501A701B201C6
:102CC000C4019CD4181614F05201740121E0209321
:102CD000E10420902703309028034090290350906E
:102CE0002A039501A701C201B1014FD3AB01BC0179
:102CF00088E095E00E946B089501A701C201B1012F
:102D000043D3AB01BC0189E195E00E946B080E94AE
:102D10008D0239CC83E001C082E00E949608DCCAB3
:102D200084E00E94960804CC85E00E94960827CC97
:102D300081E001C082E00E949608C6CD83E001C018
:102D400084E00E94960863CE85E0FBCF4F925F92AD
:102D50006F927F929F92AF92BF92CF92DF92EF924B
:102D6000FF920F931F93CF93DF93CBE7D3E01B82A8
:102D70001A8288EEC82E83E0D82EE12CF12CCC826A
:102D8000DD82EE82FF8286E492E09983888325EDDE
:102D900030E03D872C8724ED30E03F872E8720ED03
:102DA00030E0398B288B21ED30E03B8B2A8B22EDF4
:102DB00030E03D8B2C8B26ED30E03F8B2E8B198E37
:102DC0001A8E1B8E1C8EE8E1F4E013821282C482FC
:102DD000D582E682F7829183808385EC90E09587A7
:102DE000848784EC90E09787868780EC90E0918BD5
:102DF000808B81EC90E0938B828B82EC90E0958BC2
:102E0000848B86EC90E0978B868B118E128E138EBE
:102E1000148E8091E6049091E704A091E804B091AB
:102E2000E9048093E2049093E304A093E404B09354
:102E3000E504A5EBB4E01D921D921D921C92139720
:102E40005C961D921D921D921C925F9790961D920A
:102E50001D921D921C92939794961D921D921D9205
:102E60001C92979798961D921D921D921C929B976B
:102E70009C961C929C9740E050E060EC70E41496A5
:102E80004D935D936D937C93179740E050E060EC19
:102E90007FE318964D935D936D937C931B9740E071
:102EA00050E060E07FE31C964D935D936D937C93BF
:102EB0001F9740E050E060E870EC50964D935D93B2
:102EC0006D937C93539740E050E060E870E4549633
:102ED0004D935D936D937C93579740E050E060E88D
:102EE0007FE358964D935D936D937C935B978DE054
:102EF00090E09093EB048093EA04AEEFB4E0169672
:102F00001D921D921D921C9219971196FC93EE939F
:102F1000412C92EC592E66246394712C12964D929A
:102F20005D926D927C921597A0EFB4E01A961D9277
:102F30001D921D921C921D971196FC93EE93129672
:102F40004D925D926D927C92159716964D925D9280
:102F50006D927C9219971092EC041092ED041092ED
:102F6000EE041092EF04E8E0F5E015821682178275
:102F7000108688E0808389E081838AE0828383E011
:102F8000838322E0922E948240E050E06AEA71E46A
:102F900041875287638774878DEF9DEAA0E0BBE38A
:102FA00085879687A787B08BE9E1F5E015821682C1
:102FB0001782108625E0208327E0218326E02283E4
:102FC00023E1238322E12483418752876387748727
:102FD00085879687A787B08B0EE315E038E7A32E89
:102FE00032E0B32ED8011196BC92AE9212969C920A
:102FF00088E090E07BD3F80194838383DC011D9209
:103000001D921D921C921397FC0114821582168248
:10301000178209E315E0D8011196BC92AE92129680
:103020009C9288E090E062D3F80194838383DC0172
:103030001D921D921D921C921397FC011482158201
:103040001682178203E315E088E592E0D801119615
:103050009C938E9312969C92129713969C9280E169
:1030600090E044D3FC01D80115969C938E9314975D
:1030700010821182128213821482158216821782A4
:103080001086118612861386148615861686178674
:10309000EAE2F5E01182108281E0828383E090E031
:1030A00090878783E3E4F5E0168217821086118605
:1030B000D183C0834282538264827582EDE4F5E05D
:1030C00013821282C482D582E682F78284E992E07A
:1030D00091838083DF91CF911F910F91FF90EF90AB
:1030E000DF90CF90BF90AF909F907F906F905F9058
:1030F0004F900895BB27FA01A62F6217710581052D
:103100009105330B30FB66F0AA27660F771F881FE7
:10311000991FAA1FA21710F0A21B63953850A9F798
:10312000A05DAA3308F0A95DA19336F7B111B19360
:103130001082CA0100C0DC01FC01672F7191772366
:10314000E1F7329704C07C916D9370836291AE1762
:10315000BF07C8F3089540D008F481E00895E894CB
:1031600009C097FB3EF490958095709561957F4FCF
:103170008F4F9F4F9923A9F0F92F96E9BB2793957D
:10318000F695879577956795B795F111F8CFFAF48D
:10319000BB0F11F460FF1BC06F5F7F4F8F4F9F4FBE
:1031A00016C0882311F096E911C0772321F09EE81C
:1031B000872F762F05C0662371F096E8862F70E082
:1031C00060E02AF09A95660F771F881FDAF7880F5C
:1031D0009695879597F90895990F0008550FAA0BB2
:1031E000E0E8FEEF16161706E807F907C0F012161A
:1031F0001306E407F50798F0621B730B840B950B1D
:1032000039F40A2661F0232B242B252B21F4089571
:103210000A2609F4A140A6958FEF811D811D08950E
:103220000BD078C069D028F06ED018F0952309F043
:103230005AC05FC01124A2C07ED0A0F3959FD1F3E5
:10324000950F50E0551F629FF001729FBB27F00D54
:10325000B11D639FAA27F00DB11DAA1F649F6627A9
:10326000B00DA11D661F829F2227B00DA11D621FF8
:10327000739FB00DA11D621F839FA00D611D221FB2
:10328000749F3327A00D611D231F849F600D211D96
:10329000822F762F6A2F11249F5750408AF0E1F039
:1032A00088234AF0EE0FFF1FBB1F661F771F881F82
:1032B00091505040A9F79E3F510570F014C05EC078
:1032C0005F3FECF3983EDCF3869577956795B7956D
:1032D000F795E7959F5FC1F7FE2B880F911D969597
:1032E000879597F9089597F99F6780E870E060E007
:1032F00008959FEF80EC089500240A94161617068F
:1033000018060906089500240A94121613061406D6
:1033100005060895092E0394000C11F4882352F039
:10332000BB0F40F4BF2B11F460FF04C06F5F7F4FF1
:103330008F4F9F4F089557FD9058440F551F59F0D8
:103340005F3F71F04795880F97FB991F61F09F3F92
:1033500079F087950895121613061406551FF2CFBB
:103360004695F1DF08C0161617061806991FF1CF0B
:1033700086957105610508940895E894BB27662732
:103380007727CB0197F908955058BB27AA270ED06D
:10339000C1CFB2DF30F0B7DF20F031F49F3F11F43E
:1033A0001EF4A7CF0EF4E095E7FB9DCFE92FC3DF16
:1033B00080F3BA17620773078407950718F071F452
:1033C0009EF5DBCF0EF4E0950B2EBA2FA02D0B014E
:1033D000B90190010C01CA01A0011124FF27591B5A
:1033E00099F0593F50F4503E68F11A16F040A22F60
:1033F000232F342F4427585FF3CF469537952795D1
:10340000A795F0405395C9F77EF41F16BA0B620BCF
:10341000730B840BBAF09150A1F0FF0FBB1F661F16
:10342000771F881FC2F70EC0BA0F621F731F841F59
:1034300048F4879577956795B795F7959E3F08F07F
:10344000B3CF9395880F08F09927EE0F979587953E
:1034500008959CD0E395C1C00CD05CCF54DF40F000
:103460004BDF30F021F45F3F19F03DCF511186CF93
:1034700040CF61DF98F39923C9F35523B1F3951B2E
:10348000550BBB27AA2762177307840738F09F5F85
:103490005F4F220F331F441FAA1FA9F333D00E2EF4
:1034A0003AF0E0E830D091505040E695001CCAF761
:1034B00029D0FE2F27D0660F771F881FBB1F261726
:1034C00037074807AB07B0E809F0BB0B802DBF01F9
:1034D000FF2793585F4F2AF09E3F510568F003CFB6
:1034E0004DCF5F3FECF3983EDCF38695779567957B
:1034F000B795F7959F5FC9F7880F911D96958795AA
:1035000097F90895E1E0660F771F881FBB1F6217C8
:1035100073078407BA0720F0621B730B840BBA0B86
:10352000EE1F88F7E095089504D06894B11126CF76
:10353000089509DF88F09F5790F0B92F9927B75168
:10354000A0F0D1F0660F771F881F991F1AF0BA9567
:10355000C9F712C0B13081F010DFB1E008950DCF8E
:10356000672F782F8827B85F39F0B93FCCF386955D
:1035700077956795B395D9F73EF4909580957095BA
:1035800061957F4F8F4F9F4F0895B3CEDCDEE8F3F8
:10359000E894E0E0BB279F57F0F02AED3FE049ECCC
:1035A00006C0EE0FBB0F661F771F881F28F0B23AC8
:1035B00062077307840728F0B25A620B730B840BFF
:1035C000E3959A9572F7803830F49A95BB0F661F91
:1035D000771F881FD2F790481DC0EF93E0FF06C009
:1035E000A2EA2AED3FE049EC5FEBE0DE93DE0F90CC
:1035F000039401FC9058ECE3F1E018C0EDDD08F411
:103600008FEF08959F93C2DF0F9007FCEE5FE5CF29
:103610009F3F31F0915020F4879577956795B79546
:10362000880F911D9695879597F908959F938F938D
:103630007F936F93FF93EF939B01AC01F1DDEF91CB
:10364000FF9105D02F913F914F915F91E9CDDF938D
:10365000CF931F930F93FF92EF92DF927B018C0128
:10366000689405C0DA2EEF01E7DDFE01E894A5912C
:103670002591359145915591AEF3EF0197DEFE010D
:103680009701A801DA9479F7DF90EF90FF900F91FE
:103690001F91CF91DF910895A1E21A2EAA1BBB1BA7
:1036A000FD010DC0AA1FBB1FEE1FFF1FA217B3070E
:1036B000E407F50720F0A21BB30BE40BF50B661F24
:1036C000771F881F991F1A9469F7609570958095E8
:1036D00090959B01AC01BD01CF010895EE0FFF1F36
:1036E000881F8BBF0790F691E02D1994CF93DF933D
:1036F0008230910510F482E090E0E0918605F0912F
:10370000870520E030E0C0E0D0E0309711F1408143
:10371000518148175907C0F04817590761F4828151
:103720009381209719F09B838A832BC09093870500
:103730008093860526C02115310519F042175307DD
:1037400018F49A01BE01DF01EF010280F381E02D40
:10375000DCCF2115310509F1281B390B2430310547
:1037600090F412968D919C9113976115710521F03B
:10377000FB019383828304C0909387058093860521
:10378000FD01329644C0FD01E20FF31F8193919336
:10379000225031092D933C933AC0209184053091F9
:1037A0008505232B41F420911202309113023093AE
:1037B0008505209384052091100230911102211576
:1037C000310541F42DB73EB74091140250911502D6
:1037D000241B350BE0918405F0918505E217F30772
:1037E000A0F42E1B3F0B2817390778F0AC014E5F71
:1037F0005F4F2417350748F04E0F5F1F5093850524
:10380000409384058193919302C0E0E0F0E0CF0102
:10381000DF91CF9108950F931F93CF93DF9300977C
:1038200009F48CC0FC013297138212820091860544
:10383000109187050115110581F420813181820FD6
:10384000931F20918405309185052817390779F554
:10385000F0938505E093840571C0D80140E050E005
:10386000AE17BF0750F412962D913C911397AD01FE
:103870002115310509F1D901F3CF9D01DA01338317
:10388000228360817181860F971F8217930769F4E5
:10389000EC0128813981260F371F2E5F3F4F31837E
:1038A00020838A819B8193838283452B29F4F09323
:1038B0008705E093860542C01396FC93EE9312971A
:1038C000ED01499159919E01240F351FE217F3072D
:1038D00071F480819181840F951F029611969C93BB
:1038E0008E938281938113969C938E931297E0E03E
:1038F000F0E0D80112968D919C911397009719F0E2
:10390000F8018C01F6CF8D919C9198012E5F3F4F6D
:10391000820F931F20918405309185052817390760
:1039200069F4309729F4109287051092860502C039
:10393000138212821093850500938405DF91CF9145
:103940001F910F9108956F927F928F929F92AF92E5
:10395000BF92CF92DF92EF92FF920F931F93CF937C
:10396000DF93EC01009781F4CB01DF91CF911F91A0
:103970000F91FF90EF90DF90CF90BF90AF909F900E
:103980008F907F906F90B2CEFC01E60FF71F9C01E5
:1039900022503109E217F30708F4A8C0D9010D91AC
:1039A0001C91119706171707A8F00530110508F4A8
:1039B0009BC0C80104978617970708F495C002506A
:1039C0001109061B170B019311936D937C93CF0183
:1039D00022DF8AC05B01A01AB10A4C01800E911E41
:1039E000A0918605B091870540E050E0E12CF12CD4
:1039F000109709F44AC0A815B905D1F56D907C90CF
:103A00001197630182E0C80ED11CCA14DB0480F157
:103A1000A3014A195B096A0182E0C80ED11C129603
:103A2000BC9012971396AC91B5E0CB16D10440F040
:103A3000B282A38351834083D9016D937C930AC0E2
:103A40000E5F1F4FC301800F911FF9019183808387
:103A5000EB2DFA2FE114F10431F0D7011396FC930A
:103A6000EE93129741C0F0938705E09386053CC022
:103A70008D919C9111974817590708F4AC017D016D
:103A800012960D90BC91A02DB3CF8091840590919A
:103A9000850588159905E1F446175707C8F4809104
:103AA000100290911102009741F48DB79EB740919A
:103AB000140250911502841B950BE817F907B0F416
:103AC000F0938505E0938405F901718360830CC050
:103AD000CB010CDE7C01009749F0A801BE011BD090
:103AE000CE0199DEC70104C0CE0102C080E090E0A3
:103AF000DF91CF911F910F91FF90EF90DF90CF90CA
:103B0000BF90AF909F908F907F906F90089581E0CD
:103B100090E0F89419C0FB01DC0102C001900D9205
:103B200041505040D8F70895FB01DC018D91019080
:103B300080190110D9F3990B0895FB01DC01019064
:103B40000D920020E1F7089511E0CEE3D1E000E00E
:103B500005C0802FFE01C2DD2196011DCF33D107A4
:0A3B600080E00807B1F7F894FFCFEA
:103B6A0071017101710171017101710171017101BB
:103B7A0000008805800004000602030107052124CD
:103B8A0024212421212400000000B2039D04C6033D
:103B9A00A6034B0300000000FC089B04C6033F0376
:103BAA0030030000000026027201B6016C02E70130
:103BBA00C501D90100000000D208DE08E402E102D2
:103BCA00DE02C0020000000000000000E6028704D6
:103BDA008704870400000000E708F308FD02FA02E0
:103BEA00E8020000000000000000C6038704870402
:103BFA000000000059042A04F503C803EC03D803A3
:103C0A00C903310032003300340035003600370072
:103C1A00380039004100420043004F4B0041540034
:083C2A0041542B4241554400B6
:00000001FF
