:100000003EC1000089C600005CC600002FC600008B
:1000100002C60000D5C50000A8C500007BC50000D1
:100020004EC500005DC100005BC1000059C1000069
:1000300057C1000055C1000053C1000051C100006C
:100040004FC100004DC100004BC1000049C100007C
:1000500047C1000045C1000043C100000C94E20EFE
:100060003FC100003BC7000010C7000039C10000BD
:1000700037C1000035C1000033C1000031C10000AC
:100080002FC100002DC100002BC1000029C10000BC
:1000900027C1000025C1000023C100000C9479088D
:1000A0001FC100001DC100001BC1000019C10000DC
:1000B00017C1000015C1000013C1000011C10000EC
:1000C0000FC100000DC100000BC10000B5C600004B
:1000D0008AC6000005C1000003C1000001C1000084
:1000E000FFC00000880A8B0A7A0A7E0A840AC20AC4
:1000F0008F0A930A990A9D0AA10AA70AAB0AAF0AB6
:10010000C20AB50AB90ABD0A0B0D130DEB0CF30CAC
:10011000FB0C030D1B0D230DE50DEA0DEF0DF90D85
:10012000030E7C0E0D0E150E1D0E270E310E3B0E0E
:100130004A0E540E7C0E5E0E680E720E05A84CCD53
:10014000B2D44EB93836A9020C50B9918688083C11
:10015000A6AAAA2ABE000000803F000021002400B9
:1001600027002A002D0030003300010100000401A7
:1001700007010A0100002200250028002B002E00A4
:100180003100340002010000050108010B010000EC
:1001900020002300260029002C002F00320000013F
:1001A000000003010601090105050505070508080A
:1001B0000808020202020A0A0808040404040101F1
:1001C0000101010101010303030303030303040706
:1001D00007070C0C0C0C0C0C0C0C0202020206069D
:1001E0000606060606060B0B0B0B0B0B0B0B010290
:1001F0001020200808102040102040800201020139
:1002000008040201010204081020408080402010F0
:100210000804020180040201804020100804020149
:1002200008040201010204081020408001020408B1
:100230001020408000000A0B02090C0D0E08070375
:1002400004010000000000000000000000000000A9
:10025000000000000000000000000000000000009E
:10026000121110000000000000000000000000005B
:10027000000000000000000000005A142C0F1124A0
:100280001FBECFEFD1E2DEBFCDBF00E00CBF25E047
:10029000A8ECB2E001C01D92A634B207E1F712E06B
:1002A000A0E0B2E0EEE0F5E300E00BBF02C0079093
:1002B0000D92A83CB107D9F711E0CEE3D1E000E000
:1002C00006C021970109802FFE010E944018CD33FE
:1002D000D10780E00807A9F70E94350F0C94761A21
:1002E0008FCE0895CF92DF92EF92FF920F931F93DC
:1002F000CF93DF936C017A018B01C0E0D0E0CE1583
:10030000DF0589F0D8016D918D01D601ED91FC9149
:100310000190F081E02DC6011995892B11F47E0121
:1003200002C02196ECCFC701DF91CF911F910F91B1
:10033000FF90EF90DF90CF900895FC01A089B189E4
:100340008C91A689B78982FD0FC09C91818D8F5FAA
:100350008F73228D821749F0218DDF01A20FB11D0D
:100360005D969C93818F08958C910895FC01538D27
:10037000448D252F30E0842F90E0821B930B54177F
:1003800010F0CF96089501970895FC01918D828D0C
:10039000981761F0828DDF01A80FB11D5D968C91D9
:1003A000928D9F5F9F73928F90E008958FEF9FEFE4
:1003B0000895FC01918D828D981731F0828DE80FA0
:1003C000F11D858D90E008958FEF9FEF0895FC015A
:1003D000918D228D892F90E0805C9F4F821B910927
:1003E0008F739927089583E993E0F1DF21E0892B4A
:1003F00009F420E0822F089580E394E0E8DF21E013
:10040000892B09F420E0822F0895FC01848DDF01FF
:10041000A80FB11DA35ABF4F2C91848D90E0019677
:100420008F739927848FA689B7892C93A089B18966
:100430008C9180648C93938D848D981306C0028870
:10044000F389E02D80818F7D80830895EF92FF9264
:100450000F931F93CF93DF93EC0181E0888F9B8DE7
:100460008C8D981305C0E889F989808185FD23C0AA
:10047000F62E0B8D10E00F5F1F4F0F731127E02E2C
:100480008C8DE8120BC00FB607FCFACFE889F9890A
:10049000808185FFF5CFCE01B8DFF2CF8B8DFE01D5
:1004A000E80FF11DE35AFF4FF0820B8FEA89FB89B9
:1004B0008081806207C0EE89FF896083E889F989BD
:1004C00080818064808381E090E0DF91CF911F91F3
:1004D0000F91FF90EF900895CF93DF93EC01888DFB
:1004E0008823C1F0EA89FB89808185FD05C0A88940
:1004F000B9898C9186FD0EC00FB607FCF5CF8081BF
:1005000085FFF2CFA889B9898C9185FFEDCFCE0107
:100510007CDFE8CFDF91CF91089580E090E0892BD8
:1005200019F06ADF811120C080E090E0892B41F052
:1005300080E090E0892B21F00E940000811117C01B
:1005400080E090E0892B19F04EDF811113C080E02C
:1005500090E0892BA1F080E090E0892B81F00E944F
:10056000000081110AC008950E940000DDCF0E94A2
:100570000000E6CF0E940000EACF0C94000008952E
:10058000DC0113962C91139770E061507109269F3E
:10059000F001279FF00D1124E40FF11D3197EE0FAC
:1005A000FF1FEE0FFF1F14968D919C911597E80F7A
:1005B000F91F60817181828193810895FC0183819B
:1005C0000895FC018281089581E0089580E00895F6
:1005D00070E06150704C660F771F660F771FFC014B
:1005E00083819481FC01E60FF71F60817181828114
:1005F00093810895FC018281089581E00895CF924E
:10060000DF92EF92FF920F931F93CF93DF931F928E
:10061000CDB7DEB78B01DC01ED91FC910084F18553
:10062000E02D642F498319956B017C01D801ED9170
:10063000FC910084F185E02D4981642FC801199552
:100640009B01AC01C701B6010E94FF160F90DF911C
:10065000CF911F910F91FF90EF90DF90CF90089571
:10066000DC01462F14966D917C9115971696ED91AD
:10067000FC91179712968D919C9113971994DC0118
:1006800012968D919C911397DC01ED91FC9106805F
:10069000F781E02D19947F928F929F92AF92BF9233
:1006A000CF92DF92EF92FF920F931F93CF93DF933E
:1006B0008C01762EDC0114968D919C911597DC01AE
:1006C000ED91FC910680F781E02D1995D82FC1E0BE
:1006D000C12CD12C7601DC1748F1F801828193817D
:1006E000DC01ED91FC910284F385E02D4C2F672D08
:1006F00019954B015C01F80184819581DC01ED9134
:10070000FC910084F185E02D6C2F19959B01AC01C3
:10071000C501B4010E944A169B01AC01C701B60194
:100720000E94FF166B017C01CF5FD5CFC701B601D8
:10073000DF91CF911F910F91FF90EF90DF90CF90BD
:10074000BF90AF909F908F907F900895DC0112969C
:100750008D919C911397DC01ED91FC910680F781BE
:10076000E02D1994FC018AE292E0918380838681D6
:10077000882359F084819581009739F0DC01ED914F
:10078000FC910280F381E02D1994089580E0089592
:100790000895E091280380912703E81730F4F0E0F2
:1007A000E75DFC4F808190E008958FEF9FEF089503
:1007B0009091280380912703981750F4E92FF0E0D7
:1007C000E75DFC4F208130E09F5F9093280302C0DB
:1007D0002FEF3FEFC90108958091270390E020910A
:1007E0002803821B91090895089580E090E0089500
:1007F00085ED8093BC008091BC0084FDFCCF1092FD
:100800006F0308954091EA02262F30E0240F311D36
:1008100021323105DCF420916F032430C9F4FC014E
:1008200080E090E0861758F43091EA022191DC01D3
:10083000A853BD4FA30FB11D2C930196F3CF809108
:10084000EA02680F6093EA0280E0089581E008956B
:1008500082E00895CF92DF92EF92FF920F931F9361
:10086000CF93DF937C01262F972F8A01809170030D
:10087000882391F0C62FD72F6E01C40ED51ECC153C
:10088000DD0569F06991D701ED91FC910190F0814E
:10089000E02DC7011995F3CF642F822FB3DFC80174
:1008A000DF91CF911F910F91FF90EF90DF90CF904C
:1008B0000895CF93DF931F92CDB7DEB76983209160
:1008C00070032223D1F020919203203240F021E0E6
:1008D00030E0FC013383228380E090E014C08091FB
:1008E0007103E82FF0E0EE58FC4F998190838F5F01
:1008F000809371038093920304C061E0CE0101965E
:1009000081DF81E090E00F90DF91CF9108950C940A
:10091000DD18CF93DF93EC0125DFCE01DF91CF917E
:100920000C94DD18CF93DF93EC018C810E942B0D8A
:10093000892B51F08B810E942B0D4D815E816F813F
:100940007885892B51F00EC08B810E942B0D4D8133
:100950005E816F817885892B29F04F5F5F4F6F4FE4
:100960007F4F04C041505109610971094D835E8375
:100970006F837887DF91CF91089587EE94E0D2CF8F
:1009800088EF94E0CFCFCF93DF93EC018B810E946F
:100990002B0D892B51F08C810E942B0D4D815E8196
:1009A0006F817885892B51F00EC08C810E942B0DB0
:1009B0004D815E816F817885892B29F041505109E5
:1009C0006109710904C04F5F5F4F6F4F7F4F4D83C7
:1009D0005E836F837887DF91CF91089587EE94E0EF
:1009E000D2CF88EF94E0CFCF0F931F93CF93DF93B5
:1009F000EC0188819981009729F02A813B81261793
:100A0000370788F48B016F5F7F4F0E94751900973D
:100A100061F0998388831B830A832C813D81232B7A
:100A200011F4FC01108281E001C080E0DF91CF91E0
:100A30001F910F910895CF93DF93EC0188819981E5
:100A4000009711F00E94DD18198218821D821C8205
:100A50001B821A82DF91CF910895FC0180819181E0
:100A60000C94DD18FB01DC0111961C921E9213966A
:100A70001C921E92129715961C921E92149786171E
:100A8000970741F0608171816115710519F044810A
:100A9000558192C40895FC01118210821382128242
:100AA000158214826115710549F0FB010190002047
:100AB000E9F73197AF01461B570B7EC408951F928B
:100AC0000F920FB60F9211240BB60F922F933F93F4
:100AD0004F935F936F937F938F939F93AF93BF9346
:100AE000EF93FF93E0910E02F0910F021995FF91A1
:100AF000EF91BF91AF919F918F917F916F915F9196
:100B00004F913F912F910F900BBE0F900FBE0F9002
:100B10001F9018951F920F920FB60F9211240BB6CB
:100B20000F922F933F934F935F936F937F938F9386
:100B30009F93AF93BF93EF93FF93E0910C02F091DB
:100B40000D021995FF91EF91BF91AF919F918F91F8
:100B50007F916F915F914F913F912F910F900BBEBD
:100B60000F900FBE0F901F9018951F920F920FB607
:100B70000F9211240BB60F922F933F934F935F93D5
:100B80006F937F938F939F93AF93BF93EF93FF9355
:100B9000E0910202F09103021995FF91EF91BF914C
:100BA000AF919F918F917F916F915F914F913F9105
:100BB0002F910F900BBE0F900FBE0F901F901895A6
:100BC0001F920F920FB60F9211240BB60F922F9314
:100BD0003F934F935F936F937F938F939F93AF93C5
:100BE000BF93EF93FF93E0910002F09101021995FA
:100BF000FF91EF91BF91AF919F918F917F916F91F5
:100C00005F914F913F912F910F900BBE0F900FBEB0
:100C10000F901F9018951F920F920FB60F921124EC
:100C20000BB60F922F933F934F935F936F937F93E6
:100C30008F939F93AF93BF93EF93FF93E0910A023B
:100C4000F0910B021995FF91EF91BF91AF919F9198
:100C50008F917F916F915F914F913F912F910F9065
:100C60000BBE0F900FBE0F901F9018951F920F9202
:100C70000FB60F9211240BB60F922F933F934F9301
:100C80005F936F937F938F939F93AF93BF93EF93F4
:100C9000FF93E0910802F09109021995FF91EF91FD
:100CA000BF91AF919F918F917F916F915F914F9184
:100CB0003F912F910F900BBE0F900FBE0F901F9082
:100CC00018951F920F920FB60F9211240BB60F9228
:100CD0002F933F934F935F936F937F938F939F9344
:100CE000AF93BF93EF93FF93E0910602F091070259
:100CF0001995FF91EF91BF91AF919F918F917F9146
:100D00006F915F914F913F912F910F900BBE0F907C
:100D10000FBE0F901F9018951F920F920FB60F9253
:100D200011240BB60F922F933F934F935F936F93C2
:100D30007F938F939F93AF93BF93EF93FF93E09134
:100D40000402F09105021995FF91EF91BF91AF91C7
:100D50009F918F917F916F915F914F913F912F91D3
:100D60000F900BBE0F900FBE0F901F901895CF9352
:100D7000DF93EC012FB7F8948091390590913A05F3
:100D8000A0913B05B0913C052FBF88879987AA8722
:100D9000BB87E881F9810284F385E02DCE011995A6
:100DA00097FF1EC02FB7F8948091390590913A05AE
:100DB000A0913B05B0913C052FBF488559856A85B8
:100DC0007B85841B950BA60BB70B4C815D816E81D7
:100DD0007F8184179507A607B707D8F28FEF9FEF9B
:100DE000DF91CF9108951F920F920FB60F921124A9
:100DF0000BB60F922F933F934F935F936F937F9315
:100E00008F939F93AF93BF93EF93FF9383E993E007
:100E1000FCDAFF91EF91BF91AF919F918F917F91FC
:100E20006F915F914F913F912F910F900BBE0F905B
:100E30000FBE0F901F9018951F920F920FB60F9232
:100E400011240BB60F922F933F934F935F936F93A1
:100E50007F938F939F93AF93BF93EF93FF9383E918
:100E600093E06BDAFF91EF91BF91AF919F918F91DA
:100E70007F916F915F914F913F912F910F900BBE9A
:100E80000F900FBE0F901F9018951F920F920FB6E4
:100E90000F9211240BB60F922F933F934F935F93B2
:100EA0006F937F938F939F93AF93BF93EF93FF9332
:100EB00080E394E0AADAFF91EF91BF91AF919F9107
:100EC0008F917F916F915F914F913F912F910F90F3
:100ED0000BBE0F900FBE0F901F9018951F920F9290
:100EE0000FB60F9211240BB60F922F933F934F938F
:100EF0005F936F937F938F939F93AF93BF93EF9382
:100F0000FF9380E394E019DAFF91EF91BF91AF91E5
:100F10009F918F917F916F915F914F913F912F9111
:100F20000F900BBE0F900FBE0F901F901895D82FEB
:100F3000C1E0DC17A0F061E08091CD04B4D564E697
:100F400070E080E090E006D760E08091CD04ABD502
:100F50006AEF70E080E090E0FDD6CF5FEACF68EE08
:100F600073E080E090E0F6D6E3CFDC018D919C91B8
:100F7000DC01ED91FC910190F081E02D1994DC01F0
:100F80008D919C91DC01ED91FC910284F385E02D23
:100F9000199508958F929F92AF92BF92CF92DF9250
:100FA000EF92FF920F931F93CF93DF93EC018B018E
:100FB00069017A01AAD66E837F8388879987A5D62F
:100FC0008E809F80A884B984681979098A099B0951
:100FD0000E94E9152DEB37E346E855E30E944A16D7
:100FE000A70196010E94D01787FF0EC088819981C2
:100FF000DC01ED91FC910084F185E02D19958017BD
:101000009107ECF281E001C080E0DF91CF911F9168
:101010000F91FF90EF90DF90CF90BF90AF909F9097
:101020008F900895CF93DF93EC01CB01BA0129850E
:101030003A854B855C850E944A160E9466171616F3
:1010400017062CF489819AD560E08A8107C07195D2
:10105000619571098A8192D560E08981DF91CF9194
:1010600022C5CF93DF93EC0161E088814BD561E02D
:10107000898148D561E08A8145D560E08B8142D580
:1010800060E08C813FD560E088810DD560E089818A
:101090000AD560E08A81DF91CF9105C528E532E06D
:1010A000FC013183208384819581009711F00C9499
:1010B000DD180895CF93DF93EC01F0DFCE01DF91CF
:1010C000CF910C94DD1828E732E0FC0131832083B6
:1010D00083819481009711F00C94DD180895CF93CB
:1010E000DF93EC01F0DFCE01DF91CF910C94DD189E
:1010F00008951F920F920FB60F9211240BB60F9204
:101100002F933F934F935F936F937F938F939F930F
:10111000AF93BF93EF93FF938091B900887F8036A0
:1011200009F49CC068F5883209F45BC090F4803102
:1011300009F454C038F4882309F4F6C0883009F45F
:101140004DC0F5C0883109F44CC0803209F45DC04F
:10115000EEC0803409F468C048F4803309F455C007
:10116000883309F0E4C080936D03D8C0803509F45A
:101170004FC0883509F45DC0883409F0D8C0D6C0A6
:10118000883909F4C7C0A8F4883709F467C038F46F
:10119000883609F463C0803709F460C0C8C0883855
:1011A00009F4B8C0803909F45FC0803809F0BFC0C5
:1011B0005BC0803B09F486C038F4803A09F466C00D
:1011C000883A09F47FC0B3C0803C09F4A7C0883CCA
:1011D00009F4A4C0883B09F48AC0A9C080914A03DD
:1011E00010C090916C0380916B03981770F5E0919B
:1011F0006C0381E08E0F80936C03F0E0E55BFC4FA5
:1012000080818093BB0085EC86C080936D038EC087
:10121000E0916C0381E08E0F80936C038091BB00A2
:10122000F0E0E55BFC4F808390916C0380916B0351
:101230006EC0E0916C0381E08E0F80936C0380910F
:10124000BB00F0E0E55BFC4F808380916E03811171
:101250006DC081E08093490384EA61C083E080939C
:101260006F0310920E03CFCF80910E03803208F0EF
:1012700051C0E0910E0381E08E0F80930E038091A8
:10128000BB00F0E0E251FD4F8083BDCF85EC809341
:10129000BC0010926F0380910E03803230F4E09115
:1012A0000E03F0E0E251FD4F108260910E0370E0FA
:1012B000E091EC02F091ED028EEE92E01995109221
:1012C0000E0335C084E080936F031092EB021092FE
:1012D000EA02E091E802F091E90219958091EA02B0
:1012E000811105C081E08093EA021092C802E0916A
:1012F000EB0281E08E0F8093EB02F0E0E853FD4FAC
:1013000080818093BB009091EB028091EA02981754
:1013100008F479CF85E88093BC0009C085EC809300
:10132000BC0010926F0303C010926D0361DAFF914D
:10133000EF91BF91AF919F918F917F916F915F914D
:101340004F913F912F910F900BBE0F900FBE0F90BA
:101350001F9018950E94591AEF92FF920F931F93B6
:10136000CF93DF93EC01FB0184819581E080F180D4
:101370000C811D81E114F104A9F00097A9F0080F78
:10138000191FB801CE0130DB882361F02881398133
:101390008C819D81B701820F931F0E946F1A1D835C
:1013A0000C8302C0CE0147DBCE01DF91CF911F91AC
:1013B0000F91FF90EF900895EF92FF920F931F937C
:1013C000CF93DF93EC017B018A01BA010DDB811120
:1013D00003C0CE0130DB07C01D830C83B7018881B9
:1013E00099810E946F1ACE01DF91CF911F910F91C9
:1013F000FF90EF900895CF93DF93EC016115710595
:1014000051F0FB0101900020E9F73197AF01461B35
:10141000570BD2DF01C00FDBCE01DF91CF910895D2
:10142000382F2091920390913805213208F049C05D
:1014300080916F038111FCCF42E040936F033093A2
:101440006E033FEF30936D0310926C0320936B0398
:10145000A2E7B3E04BE453E0FA013E2F341B32170E
:1014600018F43D913193F9CF10924A0320914A0329
:10147000990F922B90934A0390914903913061F414
:101480001092490390914A039093BB009091BC0045
:1014900093FDF8CF95EC01C095EE9093BC00909130
:1014A0006F039230E1F390916D039F3F79F080914B
:1014B0006D03803241F080916D03803331F084E020
:1014C00005C081E003C082E001C083E01092710397
:1014D0001092920310927003089590E0FC013197EE
:1014E000E231F10508F04EC08827EE58FF4F8F4FCC
:1014F0000C944018809180008F7703C08091800009
:101500008F7D80938000089580918000877FF9CF40
:1015100084B58F7702C084B58F7D84BD0895809196
:10152000B0008F7703C08091B0008F7D8093B000B2
:101530000895809190008F7707C0809190008F7DF3
:1015400003C080919000877F8093900008958091E0
:10155000A0008F7707C08091A0008F7D03C080918D
:10156000A000877F8093A0000895809120018F774D
:1015700007C0809120018F7D03C080912001877F6B
:101580008093200108950F931F93CF93DF938C01D5
:1015900080910B05882379F0E8012197D7FD08C0D9
:1015A0008CE295E005D9FE01E75FFA4F8383F5CF22
:1015B00023E030E00EC0C0E0D0E0C017D107C4F790
:1015C0008CE295E0F5D8FE01E75FFA4F8383219620
:1015D000F4CF201731073CF0F901E75FFA4F13828F
:1015E00021503109F6CFDF91CF911F910F910895CE
:1015F000CF93C62F9091090521E02093700390931B
:1016000038051092710310929203682F8CE295E0D6
:1016100050D980E005DF8091090590916F03911109
:10162000FCCF6C2FC13208F060E291E090936F0321
:1016300090936E032FEF20936D0310926C03260F8F
:1016400020936B0390934A0390914A03880F892B50
:1016500080934A0380914903813061F410924903D9
:1016600080914A038093BB008091BC0083FDF8CF3A
:1016700085EC01C085EE8093BC0080916F038130C2
:10168000E1F380916C03861710F460916C03ABE476
:10169000B3E029E233E0F9018E2F821B861718F49C
:1016A0008D918193F9CF1092280360932703CF91F6
:1016B000089562E070E08AE190E09ADF82E090E0D5
:1016C00062DF60910C0570910D0580910E0590917F
:1016D0000F050E94E9152AE737E14FE85AE30C9419
:1016E0004A16CF93DF9300D01F92CDB7DEB7698340
:1016F0007A838B839C838091DD049091DE04DC01EE
:10170000ED91FC910280F381E02D44E050E0BE01B8
:101710006F5F7F4F19950F900F900F900F90DF9193
:10172000CF910895CF92DF92EF92FF920F931F9384
:10173000CF93DF93EC016A017B01E889F98982E0AC
:1017400080834115514E61057105B1F060E079E08B
:101750008DE390E0A70196010E941E1889019A016D
:1017600001501109210931093695279517950795DB
:10177000980101151041A8F0E889F989108260E804
:1017800074E88EE190E0A70196010E941E18DA012C
:10179000C9010197A109B109B695A79597958795B4
:1017A0009C01EC85FD853083EE85FF852083188EB6
:1017B000EC89FD8986E08083EA89FB8980818061EC
:1017C0008083EA89FB89808188608083EA89FB893C
:1017D000808180688083EA89FB8980818F7D808316
:1017E000DF91CF911F910F91FF90EF90DF90CF90FD
:1017F0000895CF92DF92EF92FF920F931F93CF93B2
:10180000DF93CDB7DEB728970FB6F894DEBF0FBED3
:10181000CDBF7B01A091CF04B091D0042D913C911C
:101820001197FC014481558160817181F901228108
:101830003381CD01F901199568D26093D904709371
:10184000DA048093DB049093DC045FD20091D90426
:101850001091DA042091DB043091DC04601B710BE1
:10186000820B930B0E94E9152DEB37E346E855E315
:101870000E944A1620E030E040E85FE30E94D01763
:1018800087FF6AC08091CF049091D004DC01ED9174
:10189000FC910084F185E02D1995F70124813581B3
:1018A0008217930791F6C090CF04D090D00463EADA
:1018B00072E0CE010196EFD8C60159DA2D813E8142
:1018C00097FD19C08F83188689010F5F1F4FB801DC
:1018D000CE01019689D8882379F329813A818D81B7
:1018E0009E81BE01695F7F4F820F931F0E946F1A16
:1018F0001E830D83E1CFD70114968D919C9115978E
:101900002817390711F589819A816D917C9100978B
:1019100019F061157105A1F46115710549F0232BCA
:10192000B1F0FB01808190E09195819591090AC009
:10193000009769F0232B59F0DC018C9190E002C0F4
:101940000E94661A11E0892B19F010E001C011E025
:10195000CE01019682D801C010E0812F28960FB6E3
:10196000F894DEBF0FBECDBFDF91CF911F910F91D5
:10197000FF90EF90DF90CF900895CF93C62F909176
:10198000090521E0209370039093380510927103AC
:1019900010929203682F8CE295E00E9459046C2FFC
:1019A0008CE295E00E94590481E0CF9139CDE82F77
:1019B000F0E0EE0FFF1FE050FE4F7183608390E078
:1019C0008830910508F046C0FC018827EC57FF4F8E
:1019D0008F4F0C944018809169008C7F81608093B8
:1019E0006900E89A089580916900837F84608093FC
:1019F0006900E99A0895809169008F7C80618093E5
:101A00006900EA9A0895809169008F7380648093D9
:101A10006900EB9A089580916A008C7F81608093C1
:101A20006A00EC9A089580916A00837F84608093B5
:101A30006A00ED9A089580916A008F7C806180939E
:101A40006A00EE9A089580916A008F738064809393
:101A50006A00EF9A0895CF93DF93282F30E0F901C1
:101A6000EC5CFD4F8491F901E251FE4FD491F901F4
:101A7000E855FE4FC491CC2389F081112EDDEC2F67
:101A8000F0E0EE0FFF1FE257FE4FA591B491EC91ED
:101A9000ED2381E090E021F480E002C080E090E05E
:101AA000DF91CF9108951F93CF93DF93282F30E0DC
:101AB000F901EC5CFD4F8491F901E251FE4FD491A4
:101AC000F901E855FE4FC491CC23C1F0162F8111C6
:101AD00004DDEC2FF0E0EE0FFF1FEC58FE4FA59158
:101AE000B4918FB7F894111105C09C91ED2FE0953A
:101AF000E92302C0EC91ED2BEC938FBFDF91CF91E6
:101B00001F910895CF93DF9390E0FC01E251FE4FC7
:101B10002491FC01E855FE4F8491882361F190E007
:101B2000880F991FFC01E65AFE4FC591D491FC0124
:101B3000EC58FE4FA591B491611109C09FB7F8947C
:101B40008881209582238883EC912E230BC06230FC
:101B500061F49FB7F8943881822F8095832388831E
:101B6000EC912E2B2C939FBF06C08FB7F894E88181
:101B70002E2B28838FBFDF91CF9108951F93CF9392
:101B8000DF93182FEB0161E0BDDF209711F460E0D7
:101B900004C0CF3FD10531F461E0812FDF91CF91B7
:101BA0001F9181CFE12FF0E0EC5CFD4FE4914E2FCF
:101BB00050E0FA013197E231F10508F09DC0882725
:101BC000E457FF4F8F4F0C94401884B5806884BD54
:101BD000C7BD97C084B5806284BDC8BD92C08091E6
:101BE0008000806880938000D0938900C093880033
:101BF00088C080918000806280938000D0938B00A9
:101C0000C0938A007EC080918000886080938000AD
:101C1000D0938D00C0938C0074C08091B000806818
:101C20008093B000C093B3006CC08091B00080621C
:101C30008093B000C093B40064C08091900080682D
:101C400080939000D0939900C09398005AC08091DF
:101C50009000806280939000D0939B00C0939A0084
:101C600050C080919000886080939000D0939D0038
:101C7000C0939C0046C08091A00080688093A00023
:101C80008091A0008F7B8093A000D093A900C09387
:101C9000A80037C08091A00080628093A000D093FC
:101CA000AB00C093AA002DC08091A00088608093F3
:101CB000A000D093AD00C093AC0023C08091200160
:101CC000806880932001D0932901C093280119C016
:101CD00080912001806280932001D0932B01C093DA
:101CE0002A010FC080912001886080932001D09349
:101CF0002D01C0932C0105C0C038D1050CF04CCF8C
:101D000046CFDF91CF911F9108953FB7F89480910E
:101D10003E0590913F05A0914005B091410526B543
:101D2000A89B05C02F3F19F00196A11DB11D3FBF13
:101D3000BA2FA92F982F8827820F911DA11DB11DA1
:101D4000BC01CD0142E0660F771F881F991F4A959D
:101D5000D1F708958F929F92AF92BF92CF92DF9268
:101D6000EF92FF926B017C01D0DF4B015C01C1144B
:101D7000D104E104F104E9F0C8DFDC01CB018819EA
:101D80009909AA09BB09883E9340A105B10578F3DA
:101D900021E0C21AD108E108F10888EE880E83E03C
:101DA000981EA11CB11CC114D104E104F10421F757
:101DB000DECFFF90EF90DF90CF90BF90AF909F90DD
:101DC0008F9008951F920F920FB60F9211242F93A8
:101DD0003F938F939F93AF93BF93809139059091D9
:101DE0003A05A0913B05B0913C0530913D0523E0BB
:101DF000230F2D3720F40196A11DB11D05C026E843
:101E0000230F0296A11DB11D20933D058093390536
:101E100090933A05A0933B05B0933C0580913E0515
:101E200090913F05A0914005B09141050196A11DFB
:101E3000B11D80933E0590933F05A0934005B0935C
:101E40004105BF91AF919F918F913F912F910F903D
:101E50000FBE0F901F90189582E195E01FD988E181
:101E600095E031D98DE195E02EC9CF93DF93CDB7C1
:101E7000DEB7C054D1090FB6F894DEBF0FBECDBF98
:101E8000789484B5826084BD84B5816084BD85B555
:101E9000826085BD85B5816085BD80916E00816061
:101EA00080936E0010928100809181008260809307
:101EB0008100809181008160809381008091800009
:101EC0008160809380008091B10084608093B10034
:101ED0008091B00081608093B00080919100826019
:101EE0008093910080919100816080939100809116
:101EF00090008160809390008091A1008260809327
:101F0000A1008091A10081608093A1008091A00038
:101F100081608093A00080912101826080932101E3
:101F20008091210181608093210180912001816055
:101F30008093200180917A00846080937A00809160
:101F40007A00826080937A0080917A008160809329
:101F50007A0080917A00806880937A001092C100A4
:101F600080910F0381110BC081E080930F0361E02A
:101F70008091CD04C7DD60E08091CD0494DD809137
:101F80001003811142C081E08093100387EE94E03A
:101F900068D861E08091E70486DD2091EA04223070
:101FA00059F0233061F08EEE820F843058F487E1CF
:101FB00090E0821B910908C080E090E005C081E0BC
:101FC00090E002C08FEF9FEF883018F46EEE74E05F
:101FD000EEDC2091EB04223059F0233061F08EEEDC
:101FE000820F843058F487E190E0821B910908C089
:101FF00080E090E005C081E090E002C08FEF9FEFAD
:10200000883018F46DEB74E0D2DC809111038111FB
:1020100042C081E08093110388EF94E022D861E010
:102020008091F80440DD2091FB04223059F02330E8
:1020300061F08EEE820F843058F487E190E0821BCD
:10204000910908C080E090E005C081E090E002C006
:102050008FEF9FEF883018F461EF74E0A8DC2091D7
:10206000FC04223059F0233061F08EEE820F843070
:1020700058F487E190E0821B910908C080E090E06D
:1020800005C081E090E002C08FEF9FEF883018F428
:1020900060EC74E08CDC88E290E090930A05809319
:1020A000090510920B051092280310922703109235
:1020B00071031092920310926F0381E080936E037C
:1020C0001092490361E084E1EEDC61E085E1EBDC44
:1020D0008091B9008E7F8093B9008091B9008D7F87
:1020E0008093B90088E48093B80085E48093BC00B5
:1020F00060E08DE390E041DC64E070E080E090E03F
:1021000077DA81E090E03FDA40900C0550900D05C1
:1021100060900E0570900F0581E090E034DA8090B9
:102120000C0590900D05A0900E05B0900F0581E074
:1021300090E029DAC0900C05D0900D05E0900E05D6
:10214000F0900F0581E090E01EDA80910C059091EF
:102150000D05A0910E05B0910F0520EA421651041D
:102160006104710409F05FC03BEF83169104A10480
:10217000B10409F058C0E2E3CE16D104E104F10441
:1021800009F051C00F97A105B10509F04CC060E0FE
:102190008EE390E0F2DBE0911005F0911105E25E34
:1021A000FD4F608181E490E0E8DBE0911005F09163
:1021B0001105EA5EFD4F608182E490E0DEDB6CE0B9
:1021C0008DE390E0DADB75DA60931203709313030A
:1021D000809314039093150361E084E093DC61E045
:1021E00084E061DC6CED75E080E090E0B3DD40916F
:1021F0002405509125056091260570912705809151
:102200002205909123058EDA809122059091230575
:10221000DC01ED91FC910084F185E02D19957C01A4
:1022200000E010E002C081E02AC00E151F0574F422
:102230008091220590912305DC01ED91FC910284AF
:10224000F385E02D19950F5F1F4FEFCF61E082E21C
:1022500095E00E94B50720E030E040E85FE361E0F0
:1022600070E082E295E00E94CA07882309F41CC34B
:1022700082E295E00E94BF07813019F083E00E945E
:10228000970763EA72E0CE01CB960E944B058091DE
:10229000D1049091D204A091D304B091D4048115BB
:1022A000F6E99F07A105B10509F093C26CEA72E057
:1022B00010C0813CE2E19E07A105B10508F0A2C271
:1022C000803BF4E09F07A105B10509F092C262EAE4
:1022D00072E0CE01CB968FD84091D5045091D604B0
:1022E0006091D7047091D8048091CF049091D0046C
:1022F00019DA6AEB72E0CE0182960E944B056DEB13
:1023000072E0CE0101960E944B05BE016E5D7F4FCB
:10231000CE0101966EDA182FCE0101960E942D058E
:10232000CE0182960E942D05112309F459C06091B7
:10233000D1047091D2048091D3049091D40418AA4E
:102340001FA61AAA19AA1CAA1BAA2AE0AE014F5F4F
:102350005F4F0ED4BE016F5F7F4FCE018F964BD87B
:102360006AEB72E0CE0189960E944B05BE01615D69
:102370007F4FCE0189960E94AC09BC01CE01C59663
:102380000E94320560EC72E0CE0101960E944B057E
:10239000BE01655C7F4FCE0101960E94AC09BC0175
:1023A000CE0182960E943205BE016B5C7F4FCE014A
:1023B00082961FDA182FCE0182960E942D05CE013B
:1023C00001960E942D05CE01C5960E942D05CE01D5
:1023D00089960E942D05CE018F960E942D0501C081
:1023E00010E04091D1045091D2046091D3047091D7
:1023F000D4048091CF049091D00494D901C010E00E
:10240000CE01CB960E942D05112309F44FC24091B5
:10241000DF045091E0046091E1047091E204809146
:10242000DD049091DE047ED929E936E746E95EE7CE
:1024300061E070E08DED94E00E94CA078DED94E0BC
:102440000E94BF07813009F033C261E08DED94E056
:102450000E94B50761E08091CD0425DB8E010B5F02
:102460001F4F98E1692E95E0792E5E01B2E2AB0E26
:10247000B11C2FEF822E22E0922E8091DD049091EC
:10248000DE04DC01ED91FC910084F185E02D1995CD
:10249000892B09F473C08DED94E00E94BF0783304F
:1024A00009F448C0843009F466C0823009F066C07F
:1024B00029E936E746E95EE768E070E08DED94E0F3
:1024C0000E94CA07FE0131967F018DED94E00E94C3
:1024D000BF07D7018D937D01A017B107B1F789819F
:1024E0009A81AB81BC818093230390932403A093B2
:1024F0002503B0932603FE0131967F018DED94E014
:102500000E94BF07D7018D937D01A017B107B1F7D6
:1025100089819A81AB81BC8180931F0390932003B2
:10252000A0932103B093220362E08DED94E00E941A
:10253000B50724C063E08DED94E00E94B507E091FB
:102540002005F09121056081718182819381C9D834
:10255000E0912005F0912105648175818681978144
:10256000C0D860911A0370911B0380911C03909155
:102570001D03B7D803C0B1E0B0931E039AD82091D1
:10258000120330911303409114035091150336D474
:102590006B017C0160931A0370931B0380931C03EF
:1025A00090931D036091EC047091ED048091EE0412
:1025B0009091EF0410D32091F4043091F5044091F0
:1025C000F6045091F70466D31B012C016091FD04C1
:1025D0007091FE048091FF0490910005FCD220913F
:1025E000050530910605409107055091080552D325
:1025F0009B01AC01C201B10102D420E030E040E017
:102600005FE348D324E83DE04FE05DE343D3E0914E
:102610001B05F0911C0510821182128213826483C3
:10262000758386839783C701B6014DD41B012C01A6
:10263000C701B601B9D4E0911605F09117052082C3
:10264000318242825382648375838683978320918B
:102650001505DF0134E0239FA00DB11D1124AB014E
:10266000BC0170584D935D936D937C93139780914B
:10267000150594E0899FE00DF11D11242482358217
:1026800046825782AAE2B2E0BBA3AAA318A6E2E15F
:10269000F5E0FDA3ECA37FA26EA228E332E03A832B
:1026A00029838DE195E09C838B83BE82AD829886E1
:1026B0008F82CE0101960E943F0390911F059817CB
:1026C00091F080931F05809120059091210575D58B
:1026D00080911F05A4E08A9FC0011124D9D4909352
:1026E000210580932005DD24D39480911F058D154D
:1026F000E0F0ED2CF12CB1E0EB1AB0ECFB0AEE0CA3
:10270000FF1CEE0CFF1C8091200590912105E80E26
:10271000F91E6D2DCE0101960E943003F7016083F2
:10272000718382839383D394E0CFC5010E94B20367
:1027300080911A0390911B03A0911C03B0911D037B
:102740008093160390931703A0931803B093190373
:102750001092EC041092ED041092EE041092EF042B
:102760001092FD041092FE041092FF0410920005D6
:102770004091230350912403609125037091260317
:1027800087EE94E00E94120840911F0350912003AD
:10279000609121037091220388EF94E00E94120857
:1027A00080911E03882391F040E050E0BA0187EE4B
:1027B00094E00E94120840E050E0BA0188EF94E0F3
:1027C0000E94120860E08091CD046DD90E948D02B4
:1027D00054CE813026E99207A105B10528F5803C49
:1027E00032E19307A105B10509F063CD66EA72E015
:1027F00070CD80369940A105B10509F000CE64EA9C
:1028000072E067CD803835E29307A105B10519F470
:1028100068EA72E05ECD81159B44A105B10509F01F
:10282000EECD6AEA72E055CD8115F4E89F07F3E03A
:10283000AF07B10519F462EB72E04BCD813024E8AB
:10284000920723E0A207B10590F4811531EE9307BA
:10285000A105B10519F46EEA72E03BCD8115924CE9
:10286000A140B10509F0CBCD60EB72E032CD81150E
:10287000F0E19F07FEE0AF07B10519F466EB72E0E7
:1028800028CD811528E1920725E1A207B10519F4A9
:1028900068EB72E01ECD81159840A740B10509F0A4
:1028A000AECD64EB72E015CD82E0E9CC84E0E7CCFC
:1028B00085E0E5CC4F925F926F927F929F92AF92AC
:1028C000BF92CF92DF92EF92FF920F931F93CF931D
:1028D000DF93C3E9D3E01B821A8288EE482E83E09F
:1028E000582E612C712C4C825D826E827F8286E430
:1028F00092E09983888325ED30E03D872C8724ED95
:1029000030E03F872E8720ED30E0398B288B21ED9A
:1029100030E03B8B2A8B22ED30E03D8B2C8B26ED7B
:1029200030E03F8B2E8B198E1A8E1B8E1C8EE0E3AF
:10293000F4E0138212824482558266827782918308
:10294000808385EC90E09587848784EC90E097877E
:10295000868780EC90E0918B808B81EC90E0938B6C
:10296000828B82EC90E0958B848B86EC90E0978B49
:10297000868B118E128E138E148E8DE090E09093C4
:10298000CE048093CD04ADEDB4E016961D921D9259
:102990001D921C9219971196FC93EE93C12C92EC08
:1029A000D92EEE24E394F12C1296CD92DD92ED9285
:1029B000FC921597AFECB4E01A961D921D921D92F1
:1029C0001C921D971196FC93EE931296CD92DD9278
:1029D000ED92FC9215971696CD92DD92ED92FC92B7
:1029E0001997E7EEF4E0158216821782108688E0C8
:1029F000808389E081838AE0828383E0838322E08D
:102A0000922E948240E050E06AEA71E44187528756
:102A1000638774878DEF9DEAA0E0BBE38587968787
:102A2000A787B08BE8EFF4E0158216821782108634
:102A300025E0208327E0218326E0228323E12383EE
:102A400022E124834187528763877487858796872D
:102A5000A787B08B0DE115E038E7A32E32E0B32E47
:102A6000D8011196BC92AE9212969C9288E090E0AA
:102A70000FD3F80194838383DC011D921D921D9274
:102A80001C921397FC01148215821682178208E1AA
:102A900015E0D8011196BC92AE9212969C9288E0F5
:102AA00090E0F6D2F80194838383DC011D921D929D
:102AB0001D921C921397FC011482158216821782B4
:102AC00002E115E088E592E0D80111969C938E937F
:102AD00012969C92129713969C9280E190E0D8D225
:102AE000FC01D80115969C938E9314971082118245
:102AF0001282138214821582168217821086118622
:102B0000128613861486158616861786E9E0F5E088
:102B10001182108281E0828383E090E09087878336
:102B2000E2E2F5E01682178210861186D183C08317
:102B3000C282D382E482F582ECE2F5E01382128253
:102B4000448255826682778284E992E09183808311
:102B5000DF91CF911F910F91FF90EF90DF90CF9079
:102B6000BF90AF909F907F906F905F904F9008952F
:102B7000BB27FA01A62F6217710581059105330B5A
:102B800030FB66F0AA27660F771F881F991FAA1FC0
:102B9000A21710F0A21B63953850A9F7A05DAA33C5
:102BA00008F0A95DA19336F7B111B1931082CA0163
:102BB00000C0DC01FC01672F71917723E1F73297A8
:102BC00004C07C916D9370836291AE17BF07C8F308
:102BD0000895E89409C097FB3EF490958095709510
:102BE00061957F4F8F4F9F4F9923A9F0F92F96E959
:102BF000BB279395F695879577956795B795F111CE
:102C0000F8CFFAF4BB0F11F460FF1BC06F5F7F4F6A
:102C10008F4F9F4F16C0882311F096E911C077237C
:102C200021F09EE8872F762F05C0662371F096E885
:102C3000862F70E060E02AF09A95660F771F881F54
:102C4000DAF7880F9695879597F90895990F0008F8
:102C5000550FAA0BE0E8FEEF16161706E807F9076E
:102C6000C0F012161306E407F50798F0621B730B09
:102C7000840B950B39F40A2661F0232B242B252B8A
:102C800021F408950A2609F4A140A6958FEF811D2D
:102C9000811D08950BD078C069D028F06ED018F04F
:102CA000952309F05AC05FC01124A2C07ED0A0F3C2
:102CB000959FD1F3950F50E0551F629FF001729FD1
:102CC000BB27F00DB11D639FAA27F00DB11DAA1FF0
:102CD000649F6627B00DA11D661F829F2227B00D3D
:102CE000A11D621F739FB00DA11D621F839FA00DC8
:102CF000611D221F749F3327A00D611D231F849F18
:102D0000600D211D822F762F6A2F11249F5750406E
:102D10008AF0E1F088234AF0EE0FFF1FBB1F661F09
:102D2000771F881F91505040A9F79E3F510570F0C2
:102D300014C05EC05F3FECF3983EDCF38695779558
:102D40006795B795F795E7959F5FC1F7FE2B880FBD
:102D5000911D9695879597F9089597F99F6780E853
:102D600070E060E008959FEF80EC089500240A94DD
:102D70001616170618060906089500240A94121656
:102D80001306140605060895092E0394000C11F489
:102D9000882352F0BB0F40F4BF2B11F460FF04C036
:102DA0006F5F7F4F8F4F9F4F089557FD9058440F8F
:102DB000551F59F05F3F71F04795880F97FB991F9A
:102DC00061F09F3F79F08795089512161306140657
:102DD000551FF2CF4695F1DF08C0161617061806E4
:102DE000991FF1CF86957105610508940895E894BF
:102DF000BB2766277727CB0197F908955058BB2743
:102E0000AA270ED0C1CFB2DF30F0B7DF20F031F407
:102E10009F3F11F41EF4A7CF0EF4E095E7FB9DCF82
:102E2000E92FC3DF80F3BA1762077307840795079A
:102E300018F071F49EF5DBCF0EF4E0950B2EBA2F4F
:102E4000A02D0B01B90190010C01CA01A0011124B0
:102E5000FF27591B99F0593F50F4503E68F11A165C
:102E6000F040A22F232F342F4427585FF3CF4695ED
:102E700037952795A795F0405395C9F77EF41F160F
:102E8000BA0B620B730B840BBAF09150A1F0FF0FD9
:102E9000BB1F661F771F881FC2F70EC0BA0F621FC5
:102EA000731F841F48F4879577956795B795F795B5
:102EB0009E3F08F0B3CF9395880F08F09927EE0F47
:102EC00097958795089534D0E39559C004D06894B8
:102ED000B1118ECF089571DF88F09F5790F0B92F10
:102EE0009927B751A0F0D1F0660F771F881F991F5F
:102EF0001AF0BA95C9F712C0B13081F078DFB1E0AD
:102F0000089575CF672F782F8827B85F39F0B93FBC
:102F1000CCF3869577956795B395D9F73EF4909560
:102F20008095709561957F4F8F4F9F4F08951BCF70
:102F300044DFE8F3E894E0E0BB279F57F0F02AED88
:102F40003FE049EC06C0EE0FBB0F661F771F881FDE
:102F500028F0B23A62077307840728F0B25A620B6E
:102F6000730B840BE3959A9572F7803830F49A9539
:102F7000BB0F661F771F881FD2F790481DC0EF93C5
:102F8000E0FF06C0A2EA2AED3FE049EC5FEB48DF34
:102F9000FBDE0F90039401FC9058ECE3F1E018C0C5
:102FA00055DE08F48FEF08959F93C2DF0F9007FC62
:102FB000EE5FE5CF9F3F31F0915020F487957795F4
:102FC0006795B795880F911D9695879597F9089500
:102FD0009F938F937F936F93FF93EF939B01AC012C
:102FE00059DEEF91FF9105D02F913F914F915F9165
:102FF00051CEDF93CF931F930F93FF92EF92DF9207
:103000007B018C01689405C0DA2EEF014FDEFE01D2
:10301000E894A5912591359145915591AEF3EF0135
:10302000FFDEFE019701A801DA9479F7DF90EF90B7
:10303000FF900F911F91CF91DF910895A1E21A2E79
:10304000AA1BBB1BFD010DC0AA1FBB1FEE1FFF1F4C
:10305000A217B307E407F50720F0A21BB30BE40B9C
:10306000F50B661F771F881F991F1A9469F76095E3
:103070007095809590959B01AC01BD01CF0108959D
:10308000EE0FFF1F881F8BBF0790F691E02D19945C
:10309000CF93DF938230910510F482E090E0E091CD
:1030A0004405F091450520E030E0C0E0D0E03097E5
:1030B00011F14081518148175907C0F0481759074D
:1030C00061F482819381209719F09B838A832BC0BE
:1030D000909345058093440526C02115310519F0CC
:1030E0004217530718F49A01BE01DF01EF01028075
:1030F000F381E02DDCCF2115310509F1281B390BB7
:103100002430310590F412968D919C91139761159E
:10311000710521F0FB019383828304C090934505E0
:1031200080934405FD01329644C0FD01E20FF31F78
:1031300081939193225031092D933C933AC0209171
:10314000420530914305232B41F420911202309126
:1031500013023093430520934205209110023091D1
:1031600011022115310541F42DB73EB740911402EB
:1031700050911502241B350BE0914205F091430557
:10318000E217F307A0F42E1B3F0B2817390778F03E
:10319000AC014E5F5F4F2417350748F04E0F5F1F9D
:1031A00050934305409342058193919302C0E0E020
:1031B000F0E0CF01DF91CF9108950F931F93CF934C
:1031C000DF93009709F48CC0FC01329713821282BE
:1031D00000914405109145050115110581F42081E8
:1031E0003181820F931F20914205309143052817AA
:1031F000390779F5F0934305E093420571C0D80192
:1032000040E050E0AE17BF0750F412962D913C916C
:103210001397AD012115310509F1D901F3CF9D01B6
:10322000DA013383228360817181860F971F8217B1
:10323000930769F4EC0128813981260F371F2E5F2F
:103240003F4F318320838A819B8193838283452BE7
:1032500029F4F0934505E093440542C01396FC938E
:10326000EE931297ED01499159919E01240F351F5C
:10327000E217F30771F480819181840F951F029604
:1032800011969C938E938281938113969C938E9337
:103290001297E0E0F0E0D80112968D919C9113977F
:1032A000009719F0F8018C01F6CF8D919C9198014F
:1032B0002E5F3F4F820F931F2091420530914305AF
:1032C0002817390769F4309729F4109245051092B0
:1032D000440502C0138212821093430500934205F5
:1032E000DF91CF911F910F9108956F927F928F92EE
:1032F0009F92AF92BF92CF92DF92EF92FF920F9385
:103300001F93CF93DF93EC01009781F4CB01DF9102
:10331000CF911F910F91FF90EF90DF90CF90BF90D2
:10332000AF909F908F907F906F90B2CEFC01E60F90
:10333000F71F9C0122503109E217F30708F4A8C0D7
:10334000D9010D911C91119706171707A8F00530A8
:10335000110508F49BC0C80104978617970708F465
:1033600095C002501109061B170B019311936D9321
:103370007C93CF0122DF8AC05B01A01AB10A4C0105
:10338000800E911EA0914405B091450540E050E0AB
:10339000E12CF12C109709F44AC0A815B905D1F514
:1033A0006D907C901197630182E0C80ED11CCA1405
:1033B000DB0480F1A3014A195B096A0182E0C80EAF
:1033C000D11C1296BC9012971396AC91B5E0CB1617
:1033D000D10440F0B282A38351834083D9016D931D
:1033E0007C930AC00E5F1F4FC301800F911FF9012C
:1033F00091838083EB2DFA2FE114F10431F0D70192
:103400001396FC93EE93129741C0F0934505E09319
:1034100044053CC08D919C9111974817590708F4B9
:10342000AC017D0112960D90BC91A02DB3CF80917F
:1034300042059091430588159905E1F44617570711
:10344000C8F48091100290911102009741F48DB759
:103450009EB74091140250911502841B950BE817FA
:10346000F907B0F4F0934305E0934205F901718345
:1034700060830CC0CB010CDE7C01009749F0A801F1
:10348000BE011BD0CE0199DEC70104C0CE0102C02F
:1034900080E090E0DF91CF911F910F91FF90EF902E
:1034A000DF90CF90BF90AF909F908F907F906F9064
:1034B000089581E090E0F89419C0FB01DC0102C09E
:1034C00001900D9241505040D8F70895FB01DC0166
:1034D0008D91019080190110D9F3990B0895FB018A
:1034E000DC0101900D920020E1F7089511E0CEE398
:1034F000D1E000E005C0802FFE01C2DD2196011D54
:0E350000CF33D10780E00807B1F7F894FFCF72
:10350E00710171017101710171017101710171011D
:10351E000000460580000400060203010705212471
:10352E0024212421212400000000B2038904C603B3
:10353E00A6034B030000000078088704C6033F0370
:10354E0030030000000026027201B6016C02E70192
:10355E00C501D901000000004E085A08E402E1023C
:10356E00DE02C0020000000000000000E602AA0910
:10357E00AA09AA090000000063086F08FD02FA02FA
:10358E00E8020000000000000000C603AA09AA0914
:10359E000000000059042A04F503C803EC03D80305
:1035AE00C9033100320033003400350036003700D5
:1035BE00380039004100420043004F4B0041540097
:0835CE0041542B424155440019
:00000001FF
